:020000040800F2
:1000000000000220151D0008AD1C0008BB1C0008E4
:10001000C31C0008CB1C0008D31C00080000000013
:10002000000000000000000000000000DB1C0008D1
:10003000E91C000800000000F71C0008051D00086E
:10004000591D0008591D0008591D0008591D0008B8
:10005000591D0008591D0008591D0008591D0008A8
:10006000591D0008591D0008591D0008591D000898
:10007000591D0008591D0008591D0008591D000888
:10008000591D0008591D0008591D0008591D000878
:10009000591D0008591D0008591D0008591D000868
:1000A000591D0008591D0008591D0008591D000858
:1000B00099180008591D0008591D0008591D00080D
:1000C000591D0008591D0008591D0008591D000838
:1000D000591D0008411A0008591D0008591D000843
:1000E000591D0008591D0008591D0008591D000818
:1000F000591D0008591D0008591D0008591D000808
:10010000591D0008591D0008591D0008591D0008F7
:10011000591D0008591D0008591D0008591D0008E7
:10012000591D0008591D0008591D0008591D0008D7
:10013000591D0008591D0008591D0008591D0008C7
:10014000591D0008591D0008591D0008591D0008B7
:10015000591D0008591D0008591D0008591D0008A7
:10016000591D0008591D0008591D0008591D000897
:10017000591D0008591D0008591D0008591D000887
:08018000591D0008591D00087B
:100188000348044B834202D0034B03B1184770471E
:100198006400002064000020000000000548064BB1
:1001A8001B1AD90F01EBA301491002D0034B03B16D
:1001B8001847704764000020640000200000000019
:1001C80010B5064C237843B9FFF7DAFF044B13B197
:1001D8000448AFF300800123237010BD64000020A1
:1001E800000000005C1D000808B5054B1BB105495F
:1001F8000548AFF30080BDE80840FFF7CFBF00BF58
:1002080000000000680000205C1D000880B500AFF9
:10021800164BD3F88830154A43F47003C2F8883077
:10022800134B1B68124A43F001031360104B002262
:100238009A600F4B1B680E4A23F0847323F48033B3
:1002480013600B4B0B4A5A60094B1B68084A23F48E
:1002580080231360064B0022DA6000F00DF8034B90
:100268004FF000629A6000BF80BD00BF00ED00E063
:10027800003802401030002480B483B000AF00235F
:100288007B6000233B60364B1B68354A43F4803360
:100298001360334B1B6803F400333B607B68013306
:1002A8007B603B68002B03D17B68B3F5A04FF0D18E
:1002B8002B4B1B6803F40033002B02D001233B6057
:1002C80001E000233B603B68012B42D1244B1B6CAF
:1002D800234A43F080531364224B1B68214A43F49A
:1002E800404313601E4B1E4A9B6893601C4B9B68DF
:1002F8001B4A43F400439360194B9B68184A43F424
:10030800A0539360164B184A5A60154B1B68144A41
:1003180043F08073136000BF114B1B6803F0007338
:10032800002BF9D0114B40F205721A600C4B9B68F8
:100338000B4A23F003039360094B9B68084A43F078
:100348000203936000BF064B9B6803F00C03082B65
:10035800F9D100BF0C37BD465DF8047B704700BF7C
:10036800003802400070004008544007003C02403A
:1003780080B483B000AF7860064A7B6843F0BF63FF
:1003880043F40033D36000BF0C37BD465DF8047BEF
:10039800704700BF00ED00E080B485B000AF786022
:1003A8000023FB730023BB730F237B737B68DB780D
:1003B800002B39D0274BDB68DB431B0ADBB203F089
:1003C8000703FB73FB7BC3F10403BB737A7BFB7BE3
:1003D80042FA03F37B737B685B781A46BB7B02FAAD
:1003E80003F3FB737B689A787B7B1340DAB2FB7B61
:1003F8001343FB73FB7B1B01FB73174A7B681B785A
:100408001344FA7B83F800237B681B7803F01F03EF
:1004180011497A6812785209D2B21046012202FABA
:1004280003F341F820300FE07B681B7803F01F03CB
:1004380009497A6812785209D2B2104601229A40C4
:1004480000F1200341F8232000BF1437BD465DF8B2
:10045800047B704700ED00E000E100E080B483B069
:1004680000AF786039603B6823F0604323F07F0376
:1004780004497A6813438B6000BF0C37BD465DF8AA
:10048800047B704700ED00E080B483B000AF786073
:100498007B68042B06D1094B1B68084A43F0040308
:1004A800136005E0054B1B68044A23F0040313603E
:1004B80000BF0C37BD465DF8047B704710E000E0D4
:1004C80080B483B000AF7860044B7A68D2B21A70F7
:1004D80000BF0C37BD465DF8047B7047003C024006
:1004E80080B483B000AF0346FB71FB79002B06D0C4
:1004F800094B1B68084A43F48073136005E0064BF8
:100508001B68054A23F48073136000BF0C37BD468F
:100518005DF8047B704700BF003C024080B400AF28
:10052800074B1B69002B05DA054B064A5A60044B3A
:10053800054A5A6000BFBD465DF8047B704700BF9E
:10054800003C024023016745AB89EFCD80B400AF82
:10055800054B1B69044A43F00043136100BFBD46C5
:100568005DF8047B704700BF003C024080B584B052
:1005780000AF78600B46FB700023FB600923FB7219
:10058800FB78002B02D10023FB6010E0FB78012BE5
:1005980003D14FF48073FB6009E0FB78022B03D191
:1005A8004FF40073FB6002E04FF44073FB6000F00F
:1005B800BFF80346FB72FB7A092B2FD11A4B1B6934
:1005C800194A23F440731361174B1A691649FB68DB
:1005D80013430B61144B1B69134A23F0F80313618F
:1005E800114B1A697B6813430F4A43F002031361E6
:1005F8000D4B1B690C4A43F48033136100F098F8E3
:100608000346FB72084B1B69074A23F00203136178
:10061800054B1B69044A23F0F8031361FB7A18465B
:100628001037BD4680BD00BF003C024080B584B095
:1006380000AF786039600923FB7300F079F803464E
:10064800FB73FB7B092B1ED1114B1B69104A23F44A
:10065800407313610E4B1B690D4A43F40073136119
:100668000B4B1B690A4A43F0010313617B683A6824
:100678001A6000F05DF80346FB73054B1B69044ADA
:1006880023F001031361FB7B18461037BD4680BD7C
:10069800003C024080B483B000AF7860044A7B68B5
:1006A800D36000BF0C37BD465DF8047B704700BFC0
:1006B800003C024080B483B000AF0923FB711B4BA0
:1006C800DB6803F48033B3F5803F02D10123FB716B
:1006D80025E0164BDB6803F01003002B02D006233D
:1006E800FB711CE0114BDB6803F48073002B02D014
:1006F8000223FB7113E00D4BDB6803F0EF03002BC3
:1007080002D00723FB710AE0084BDB6803F0020301
:10071800002B02D00823FB7101E00923FB71FB7950
:1007280018460C37BD465DF8047B7047003C024014
:1007380080B582B000AF0923FB71FFF7BBFF03460A
:10074800FB7103E0FFF7B6FF0346FB71FB79DBB2F1
:10075800012BF7D0FB79DBB218460837BD4680BDC0
:1007680080B487B000AF7860396000237B610023D4
:100778003B610023FB6000237B6176E001227B69FB
:1007880002FA03F33B613B681B683A691340FB605C
:10079800FA683B699A4265D17B681A687B695B0095
:1007A800032101FA03F3DB431A407B681A607B6874
:1007B8001A683B681B7919467B695B0001FA03F3E9
:1007C8001A437B681A603B681B79012B03D03B688E
:1007D8001B79022B2ED17B689A687B695B00032109
:1007E80001FA03F3DB431A407B689A607B689A68D6
:1007F8003B685B7919467B695B0001FA03F31A438E
:100808007B689A607B685A687B699BB219460123AA
:100818008B40DB431A407B685A607B685B683A68A8
:10082800927911467A6992B201FA02F292B21A43A7
:100838007B685A607B68DA687B699BB25B0003213E
:1008480001FA03F3DB431A407B68DA607B68DA68F5
:100858003B68DB7919467B695B0001FA03F31A43AD
:100868007B68DA607B6901337B617B690F2B85D9F3
:1008780000BF00BF1C37BD465DF8047B704780B4DD
:1008880083B000AF78600B467B807B687A881A83D8
:1008980000BF0C37BD465DF8047B704780B483B059
:1008A80000AF78600B467B807B685A697B885A402A
:1008B8007B685A6100BF0C37BD465DF8047B704702
:1008C80080B485B000AF78600B467B8013467B70A0
:1008D8000023FB600023BB607A787B8803F0070362
:1008E8009B0002FA03F3FB607B88DB089BB21A4685
:1008F8007B68083253F822207B8803F007039B00AB
:100908000F2101FA03F3DB437988C90889B2084645
:1009180002EA03017B6800F1080243F822107B8891
:10092800DB089BB21A467B68083253F82230FA6813
:100938001343BB607B88DB089BB21A467B6808328E
:10094800B96843F8221000BF1437BD465DF8047B30
:100958007047000080B489B000AF78600023BB61A5
:1009680000237B610023FB6102233B610023FB60C2
:100978000223BB604A4B9B6803F00C03BB61BB6955
:10098800082B11D0BB69082B44D8BB69002B03D0B6
:10099800BB69042B04D03DE07B68424A1A603DE005
:1009A8007B68414A1A6039E03D4B5B689B0D03F058
:1009B8000103FB603A4B5B6803F03F03BB60FB68D5
:1009C800002B0CD0384ABB68B2FBF3F3344A5268A8
:1009D8009209C2F3080202FB03F3FB610BE0314A00
:1009E800BB68B2FBF3F32E4A52689209C2F30802BD
:1009F80002FB03F3FB612A4B5B681B0C03F0030348
:100A080001335B003B61FA693B69B2FBF3F27B6837
:100A18001A6003E07B68234A1A6000BF204B9B687A
:100A280003F0F003BB61BB691B09BB611F4ABB69CB
:100A380013441B78DBB27B617B681A687B69DA40F8
:100A48007B685A60164B9B6803F4E053BB61BB6933
:100A58009B0ABB61154ABB6913441B78DBB27B61F7
:100A68007B685A687B69DA407B689A600C4B9B68A4
:100A780003F46043BB61BB695B0BBB610B4ABB6999
:100A880013441B78DBB27B617B685A687B69DA4068
:100A98007B68DA6000BF2437BD465DF8047B704789
:100AA800003802400024F40000127A0004000020FC
:100AB80080B483B000AF78600B46FB70FB78002BE6
:100AC80006D00A4B1A6B09497B6813430B6306E08F
:100AD800064B1A6B7B68DB43044913400B6300BF6A
:100AE8000C37BD465DF8047B704700BF00380240F4
:100AF80080B483B000AF78600B46FB70FB78002BA6
:100B080006D00A4B1A6C09497B6813430B6406E04C
:100B1800064B1A6C7B68DB43044913400B6400BF27
:100B28000C37BD465DF8047B704700BF00380240B3
:100B380080B483B000AF78600B46FB70FB78002B65
:100B480006D00A4B5A6C09497B6813434B6406E08C
:100B5800064B5A6C7B68DB43044913404B6400BF67
:100B68000C37BD465DF8047B704700BF0038024073
:100B780080B485B000AF786039600023FB817B6862
:100B88001B88FB817B68294A934213D07B68284ADB
:100B980093420FD07B68B3F1804F0BD07B68254A16
:100BA800934207D07B68244A934203D07B68234A48
:100BB800934208D1FB8923F07003FB813B685A8874
:100BC800FB891343FB817B681D4A93420CD07B68E9
:100BD8001C4A934208D0FB8923F44073FB813B688D
:100BE8001A89FB891343FB817B68FA891A803B6861
:100BF8005A687B68DA623B681A887B681A857B6862
:100C08000A4A934203D07B68094A934204D13B685D
:100C18009B7A1A467B681A867B6801229A8200BFF3
:100C28001437BD465DF8047B704700BF00000140E3
:100C3800000401400004004000080040000C00408F
:100C4800001000400014004080B483B000AF78600A
:100C58000B46FB70FB78002B08D07B681B889BB287
:100C680043F001039AB27B681A8007E07B681B880F
:100C78009BB223F001039AB27B681A8000BF0C373D
:100C8800BD465DF8047B704780B483B000AF7860E0
:100C98000B467B8013467B707B78002B08D07B68E3
:100CA8009B899AB27B8813439AB27B689A8109E040
:100CB8007B689B899AB27B88DB439BB213409AB2CC
:100CC8007B689A8100BF0C37BD465DF8047B70478E
:100CD80080B483B000AF78600B467B807B88DB43B1
:100CE8009AB27B681A8200BF0C37BD465DF8047B58
:100CF800704780B485B000AF78600B467B800023D6
:100D0800FB730023BB8100237B817B681B8A9AB21B
:100D18007B881340BB817B689B899AB27B88134090
:100D28007B81BB89002B05D07B89002B02D0012356
:100D3800FB7301E00023FB73FB7B18461437BD46A9
:100D48005DF8047B704780B483B000AF78600B46D1
:100D58007B807B88DB439AB27B681A8200BF0C37A2
:100D6800BD465DF8047B704780B58AB000AF7860F7
:100D7800396000237B6200233B620023FB61002370
:100D8800BB617B681B8A9BB27B627B6A23F44053FE
:100D98007B623B68DB881A467B6A13437B627B6A0B
:100DA8009AB27B681A827B689B899BB27B627B6A5A
:100DB80023F4B05323F00C037B623B689A883B68AA
:100DC8001B8913439AB23B685B8913439BB21A464B
:100DD8007B6A13437B627B6A9AB27B689A817B68E1
:100DE8009B8A9BB27B627B6A23F440737B623B687D
:100DF8009B891A467B6A13437B627B6A9AB27B683B
:100E08009A8207F108031846FFF7A4FD7B68304A69
:100E1800934203D07B682F4A934202D17B693B629D
:100E280001E03B693B627B689B899BB21BB2002B4C
:100E38000CDA3A6A13469B0013449A001A443B683A
:100E48001B685B00B2FBF3F3FB610BE03A6A1346E5
:100E58009B0013449A001A443B681B689B00B2FB32
:100E6800F3F3FB61FB691C4AA2FB03235B091B012B
:100E78007B627B6A1B09642202FB03F3FA69D31ABB
:100E8800BB617B689B899BB21BB2002B0CDABB69E8
:100E9800DB003233104AA2FB03235B0903F007038C
:100EA8007A6A13437B620BE0BB691B0132330A4A3F
:100EB800A2FB03235B0903F00F037A6A13437B62E7
:100EC8007B6A9AB27B681A8100BF2837BD4680BD0D
:100ED80000100140001401401F85EB5180B483B01D
:100EE80000AF78600B46FB70FB78002B08D07B685E
:100EF8009B899BB243F400539AB27B689A8107E0BE
:100F08007B689B899BB223F400539AB27B689A81D1
:100F180000BF0C37BD465DF8047B704780B483B0D2
:100F280000AF78600B467B807B88C3F308039AB2D6
:100F38007B689A8000BF0C37BD465DF8047B70471C
:100F480080B483B000AF78607B689B889BB2C3F3A2
:100F580008039BB218460C37BD465DF8047B704702
:100F680080B487B000AF78600B467B8013467B70F7
:100F780000233B610023FB600023BB6000237B61EF
:100F88007B687B617B88DBB25B09DBB23B617B887A
:100F980003F01F03FB600122FB6802FA03F3BB6046
:100FA8003B69012B03D17B690C337B6109E03B6909
:100FB800022B03D17B6910337B6102E07B69143318
:100FC8007B617B78002B06D07B6919687B69BA68DE
:100FD8000A431A6006E07B691968BB68DA437B69D3
:100FE8000A401A6000BF1C37BD465DF8047B704795
:100FF80080B485B000AF78600B467B800023FB731C
:101008007B681B889AB27B8813409BB2002B02D066
:101018000123FB7301E00023FB73FB7B18461437A5
:10102800BD465DF8047B704780B487B000AF786038
:101038000B467B800023FB6000237B610023BB60A1
:101048000023FB747B88DBB25B09DBB2BB607B8867
:1010580003F01F037B6101227B6902FA03F37B61C2
:10106800BB68012B07D17B689B899BB21A467B69B9
:1010780013407B6111E0BB68022B07D17B681B8A98
:101088009BB21A467B6913407B6106E07B689B8AAA
:101098009BB21A467B6913407B617B881B0A9BB213
:1010A800FB600122FB6802FA03F3FB607B681B8884
:1010B8009BB21A46FB681340FB607B69002B05D086
:1010C800FB68002B02D00123FB7401E00023FB74B2
:1010D800FB7C18461C37BD465DF8047B7047000052
:1010E80080B584B000AF7860FFF718FA3120FFF7B9
:1010F800D1FA1E4B9B8D03F500339B021A467B6881
:1011080093422ED85823FB8102237B7314E07B7B08
:10111800164A32F8233003F500339B021A467B68DF
:10112800934206D87B7B114A9B0013445B88FB8162
:1011380005E07B7B01337B737B7B0B2BE7D910238B
:101148007B8107E07B8902211846FFF70FFA7B892C
:1011580008337B817A89FB899A42F3D9FFF7F6F93C
:1011680000E000BF1037BD4680BD00BF140000205E
:1011780080B588B000AFF860B9607A60FB70FB6832
:10118800FB61BB68BB610120FFF7AAF90520FFF7E7
:1011980097F9FFF7C3F93120FFF77CFAFB78002BAA
:1011A80003D002210820FFF7E1F900237B610EE05C
:1011B800FB691A1DFA611B683B613969B869FFF759
:1011C80035FABB690433BB617B6901337B617B689A
:1011D8009B087A699A42EBD3FFF7B8F900231846BF
:1011E8002037BD4680BD80B489B000AFF860B960D3
:1011F8007A60FB68FB61BB68BB6100237B610DE023
:10120800BB691B683B61BB690433BB61FB691A1D81
:10121800FA613A691A607B6901337B617B689B08D4
:101228007A699A42ECD3002318462437BD465DF804
:10123800047B704780B485B000AF786039600023C4
:10124800FB600023BB600AE07A68BB6813441B7824
:101258001A46FB681344FB60BB680133BB60BA687D
:101268003B689A42F0D3FB6818461437BD465DF8D0
:10127800047B704780B582B000AF054B7B602022AD
:1012880004497868FFF7AFFF00BF0837BD4680BD47
:10129800800000200040000880B582B000AF084BF5
:1012A8007B6072B600BF0123202206497868FFF7E9
:1012B8005FFF62B600BF00BF0837BD4680BD00BFF4
:1012C800800000200040000880B500AFFFF7D2FF83
:1012D8000A4B1B680A4A93420DD0084B084A1A6009
:1012E800064B00229A60054B0022DA60034B00226D
:1012F8001A61FFF7D1FF00BF80BD00BF800000204A
:10130800CDBBAA5580B400AF024B1846BD465DF868
:10131800047B70474400002080B400AFBFF34F8FB8
:1013280000BF064BDB6803F4E0620449044B134337
:10133800CB60BFF34F8F00BF00BFFDE700ED00E0BB
:101348000400FA0580B485B000AF786039600023E6
:10135800FB600023BB600AE07A68BB6813441B7813
:101368001A46FB681344FB60BB680133BB60BA686C
:101378003B689A42F0D3FB6818461437BD465DF8BF
:10138800047B704780B586B000AF0346FB713A4BCB
:101398007B617B695B683B617B695B889BB21A46B2
:1013A8003B691344FA791A707B695B78022B2BD05E
:1013B800022B56DC002B02D0012B13D051E07B69A5
:1013C80000229A700022DA70FB79882B4DD17B6954
:1013D80001225A707B695B889BB201339AB27B69A0
:1013E8005A8042E0FB79662B0AD17B6902225A7047
:1013F8007B695B889BB201339AB27B695A8037E07C
:101408007B6900225A7033E07B695B889BB20133A9
:101418009AB27B695A807B695B889BB21A467B6962
:101428005B681B899BB20A339A4220D37B690022EE
:101438005A707B695B689A1D7B695B681B899BB2E4
:10144800043319461046FFF77DFFF8607B695B6837
:10145800D3F80230FA689A4209D17B6901221A70DE
:1014680005E07B6900225A7002E000BF00E000BF7F
:1014780000BF1837BD4680BD5400002080B584B039
:1014880000AF78607B68BB600A23FB81FB89202B57
:1014980001D92023FB810023BB8109E0BB89BA68FD
:1014A8001A44BB891178094AD154BB890133BB81DD
:1014B800BA89FB899A42F1D3FB891946034800F09F
:1014C80091FA012318461037BD4680BDAC080020AC
:1014D80080B582B000AF78607B6803F10A020E4BDA
:1014E8001068516803C30C4B1B680C4A934202D224
:1014F8004FF0FF330BE0084B5A68074B1B68134447
:101508001846FFF7EDFD7868FFF7B8FF0023184687
:101518000837BD4680BD00BFCC0800200040000849
:1015280080B586B000AF78607B680A331B687B6142
:101538007B680A3304333B617B681B899BB2043B9D
:10154800FB600023BB60FB68B3F5006F02D94FF066
:10155800FF3331E01A4B1A68194B5B6813447A69F8
:101568009A4202D94FF0FF3326E00023FA687969DE
:101578003869FFF7FDFDF9687869FFF75BFEB86029
:10158800104B1B687A699A4206D10F4B1A680F4BA9
:101598001B68D31A0C4A13600B4B1A68BB681344B8
:1015A800094A1360094ABB681360064A7B691360DD
:1015B8007868FFF763FF002318461837BD4680BDDB
:1015C800CC080020D8080020D4080020DC0800201F
:1015D80080B584B000AF786000F05EFA0346002B57
:1015E80015D0FFF78FFE03461B68002242F0030266
:1015F8001A7100225A7100229A710022DA71FFF7DB
:1016080081FE0346DB689847FFF786FE12E00B4B26
:101618001A680B4B1340B3F1005F09D1094B1B68E3
:10162800FB60FB68BB607868FFF728FFBB689847DA
:10163800FFF772FE1037BD4680BD00BF00C000082E
:101648000000FC2F04C0000880B582B000AF7860AD
:10165800FFF758FE03461B68002242F004021A7185
:1016680000225A7100229A710022DA71FFF74AFEAD
:101678000346DB6898477868FFF7AAFF00231846F7
:101688000837BD4680BD000080B584B000AF7860E3
:101698007B680A331B68FB600A4B1B68BB60094BFD
:1016A80000221A60BA68FB689A4202D04FF0FF33F2
:1016B80003E07868FFF7C8FF002318461037BD46D7
:1016C80080BD00BFD408002080B582B000AF78602C
:1016D8007868FFF7D3FEFFF715FE03461B68002264
:1016E80042F003021A7100225A7100229A710022F4
:1016F800DA71FFF707FE0346DB689847FFF70CFE31
:10170800002318460837BD4680BD000080B584B068
:1017180000AF78607B68FB60FB68DB79042B02D93B
:101728004FF0FF3326E0FB68DB79042B20D801A2B9
:1017380052F823F0511700085917000861170008DC
:1017480069170008711700087868FFF7C1FE10E0F4
:101758007868FFF7E5FE0CE07868FFF795FF08E08A
:101768007868FFF7B1FF04E07868FFF76DFF00E0E5
:1017780000BF002318461037BD4680BD80B582B033
:1017880000AF164B1B78002B23D0144B00221A7085
:101798000023FB711AE0FA79114913469B001344A0
:1017A8000B441A780D4B5B689B799A420BD1FA79F6
:1017B8000B4913469B0013440B44D3F80130074AE6
:1017C800526810469847FB790133FB71FB79002B6F
:1017D800E1D000BF0837BD4680BD00BF54000020DF
:1017E8005C00002080B582B000AF01212020FFF707
:1017F8005FF94FF400733B6001233B7102237B7157
:101808003B4619460548FEF7ABFF4FF40071034805
:10181800FFF735F800BF0837BD4680BD0014024009
:1018280080B584B000AF1C233B7306237B73002371
:10183800BB730123FB7307F10C031846FEF7ACFDDD
:1018480001210120FFF754F940F2F3137B6042F2C3
:10185800CF033B8000233B8100237B803B46194616
:101868004FF08040FFF784F901214FF08040FFF7E7
:101878002FFA012201214FF08040FFF705FA0121DC
:101888004FF08040FFF7E0F900BF1037BD4680BD3C
:1018980080B500AF01214FF08040FFF72AFA0346D8
:1018A800002B09D04FF400710448FEF7F7FF01211F
:1018B8004FF08040FFF747FA00BF80BD0014024098
:1018C80080B500AF0420FEF7DFFD0B4B1B68DB087B
:1018D8000A4AA2FB03235B08DAB2094B1A70084BC9
:1018E8001B781A465201D21A92001344DB009AB2AE
:1018F800044B1A8000BF80BD0000002019866118C3
:10190800E0080020E208002080B586B000AF012181
:101918000120FFF7CDF801211020FFF709F9072270
:1019280009211C48FEF7CCFF07220A211948FEF7B7
:10193800C7FF4FF4C0633B6102233B7502237B75ED
:101948000023BB750123FB7507F1100319461148E5
:10195800FEF706FF4FF4E1233B600023BB80002322
:10196800FB8000233B810023BB810C237B813B460A
:1019780019460948FFF7F8F9012240F225510648AF
:10198800FFF7EEFA01210448FFF7A8FA00BF18375D
:10199800BD4680BD000002400010014080B582B005
:1019A80000AF25233B7100237B710023BB7101230A
:1019B800FB713B1D1846FEF7EFFC00BF0837BD461C
:1019C80080BD80B400AF00BFBD465DF8047B7047A2
:1019D80080B500AFFFF798FFFFF7E0FFFFF7F1FFD3
:1019E80000BF80BD80B584B000AF78600B467B80B7
:1019F8007B68BB600023FB8112E000BF40210D48DB
:101A0800FFF7F6FA0346002BF8D0FB89BA681344AF
:101A18001B7819460748FFF781FAFB890133FB81D8
:101A2800FA897B889A42E8D300BF00BF1037BD46C9
:101A380080BD00BF0010014080B582B000AF40F209
:101A480025510948FFF7F0FA0346002B08D006484D
:101A5800FFF776FA0346FB71FB791846FFF792FC0D
:101A680000BF0837BD4680BD0010014080B400AFFC
:101A7800BFF34F8F00BF064BDB6803F4E0620449F5
:101A8800044B1343CB60BFF34F8F00BF00BFFDE78C
:101A980000ED00E00400FA0580B584B000AF002333
:101AA800BB60FFF72FFC03461B687B600023FB60CD
:101AB80016E0324AFB6813441A78FB6803F10063A6
:101AC80003F500431B789A4207D07B68DB685A1CF1
:101AD8007B68DA604FF0FF334BE0FB680133FB6053
:101AE800FB680D2BE5D90023FB6014E0244AFB6852
:101AF80013441A78F968234B0B441B789A4207D091
:101B08007B689B685A1C7B689A604FF0FF3330E013
:101B1800FB680133FB60FB68042BE7D90023FB60FB
:101B280022E0FB6803F1006303F540431B78FF2BB9
:101B380007D0FB6803F1006303F540431B78002BD3
:101B48000DD1BB680133BB60BB68C72B09D97B6863
:101B58001B695A1C7B681A614FF0FF3309E00023A8
:101B6800BB60FB680133FB60FB68B3F5005FD8D34B
:101B7800002318461037BD4680BD00BF741D0008FD
:101B8800841D00082080000880B582B000AFFFF7F0
:101B980083FF0346002B13D0FFF7B4FB03461B68F3
:101BA800002242F003021A7100225A7100229A712F
:101BB8000022DA71FFF7A6FB0346DB68984722E0AC
:101BC800124B1A68124B1340B3F1005F06D1114B48
:101BD8001B687B607B683B603B689847FFF792FB1C
:101BE80003461B68002242F003021A7100225A7150
:101BF80000229A710022DA71FFF784FB0346DB6842
:101C08009847FFF733FF0837BD4680BD00C000087E
:101C18000000FC2F04C0000880B500AFFFF7AEFD40
:101C2800FCE7000080B584B000AF3B4600221A6094
:101C38005A609A60DA603B461846FEF78BFE3A68AF
:101C4800024B1B689A421037BD4680BD0000002039
:101C580080B500AF00214FF00060FEF7FFFB4FF4A6
:101C68004070FEF785FB62B600BFFFF7BBFDFFF7CC
:101C7800D7FDFFF7D7FFFFF723FEFFF7A9FEFFF712
:101C880041FB03465B689847FFF73CFB03461B682C
:101C98005B68042B01D1FFF777FFFFF7BDFF002337
:101CA800184680BD80B400AF00BFBD465DF8047B18
:101CB800704780B400AF00BFFDE780B400AF00BF3D
:101CC800FDE780B400AF00BFFDE780B400AF00BF00
:101CD800FDE780B400AF00BFBD465DF8047B7047E8
:101CE80080B400AF00BFBD465DF8047B704780B488
:101CF80000AF00BFBD465DF8047B704780B400AFFD
:101D080000BFBD465DF8047B70470000002103E07A
:101D18000A4B5B584350043109480A4B42189A420F
:101D2800F6D3094A02E0002342F8043B074B9A42E3
:101D3800F9D3FEF76BFAFFF78BFF7047941D000885
:101D4800000000206400002064000020E408002057
:101D5800FEE70000F8B500BFF8BC08BC9E46704717
:0C1D6800F8B500BFF8BC08BC9E467047F0
:101D7400706F7765722076656869636C6500000032
:081D840076312E300000000052
:041D8C00F101000859
:041D9000C90100087D
:101D9400007A030A000000000102030401020304A4
:101DA4000607080910000000200008003000100099
:101DB400400018008000200000012800800130004D
:101DC40000023800800240000003480080035000F5
:101DD4000004580080000020D11200087D12000881
:101DE400A112000800000000A00000200015170048
:041DF40008000000E3
:0400000508001D15BD
:00000001FF
