:020000040800F2
:10000000000002206D1C0008071C0008151C0008D9
:100010001D1C0008251C00082D1C00080000000005
:10002000000000000000000000000000351C000877
:10003000431C000800000000511C00085F1C000861
:10004000B11C0008B11C0008B11C0008B11C00085C
:10005000B11C0008B11C0008B11C0008B11C00084C
:10006000B11C0008B11C0008B11C0008B11C00083C
:10007000B11C0008B11C0008B11C0008B11C00082C
:10008000B11C0008B11C0008B11C0008B11C00081C
:10009000B11C0008B11C0008B11C0008B11C00080C
:1000A000B11C0008B11C0008B11C0008B11C0008FC
:1000B000ED170008B11C0008B11C0008B11C0008B5
:1000C000B11C0008B11C0008B11C0008B11C0008DC
:1000D000B11C000885190008B11C0008B11C0008FB
:1000E000B11C0008B11C0008B11C0008B11C0008BC
:1000F000B11C0008B11C0008B11C0008B11C0008AC
:10010000B11C0008B11C0008B11C0008B11C00089B
:10011000B11C0008B11C0008B11C0008B11C00088B
:10012000B11C0008B11C0008B11C0008B11C00087B
:10013000B11C0008B11C0008B11C0008B11C00086B
:10014000B11C0008B11C0008B11C0008B11C00085B
:10015000B11C0008B11C0008B11C0008B11C00084B
:10016000B11C0008B11C0008B11C0008B11C00083B
:10017000B11C0008B11C0008B11C0008B11C00082B
:08018000B11C0008B11C0008CD
:100188000348044B834202D0034B03B1184770471E
:100198008800002088000020000000000548064B69
:1001A8001B1AD90F01EBA301491002D0034B03B16D
:1001B80018477047880000208800002000000000D1
:1001C80010B5064C237843B9FFF7DAFF044B13B197
:1001D8000448AFF300800123237010BD880000207D
:1001E80000000000041F000808B5054B1BB10549B5
:1001F8000548AFF30080BDE80840FFF7CFBF00BF58
:10020800000000008C000020041F000880B500AF2B
:10021800164BD3F88830154A43F47003C2F8883077
:10022800134B1B68124A43F001031360104B002262
:100238009A600F4B1B680E4A23F0847323F48033B3
:1002480013600B4B0B4A5A60094B1B68084A23F48E
:1002580080231360064B0022DA6000F00DF8034B90
:100268004FF000629A6000BF80BD00BF00ED00E063
:10027800003802401030002480B483B000AF00235F
:100288007B6000233B60364B1B68354A43F4803360
:100298001360334B1B6803F400333B607B68013306
:1002A8007B603B68002B03D17B68B3F5A04FF0D18E
:1002B8002B4B1B6803F40033002B02D001233B6057
:1002C80001E000233B603B68012B42D1244B1B6CAF
:1002D800234A43F080531364224B1B68214A43F49A
:1002E800404313601E4B1E4A9B6893601C4B9B68DF
:1002F8001B4A43F400439360194B9B68184A43F424
:10030800A0539360164B184A5A60154B1B68144A41
:1003180043F08073136000BF114B1B6803F0007338
:10032800002BF9D0114B40F205721A600C4B9B68F8
:100338000B4A23F003039360094B9B68084A43F078
:100348000203936000BF064B9B6803F00C03082B65
:10035800F9D100BF0C37BD465DF8047B704700BF7C
:10036800003802400070004008544007003C02403A
:1003780080B483B000AF7860064A7B6843F0BF63FF
:1003880043F40033D36000BF0C37BD465DF8047BEF
:10039800704700BF00ED00E080B485B000AF786022
:1003A8000023FB730023BB730F237B737B68DB780D
:1003B800002B39D0274BDB68DB431B0ADBB203F089
:1003C8000703FB73FB7BC3F10403BB737A7BFB7BE3
:1003D80042FA03F37B737B685B781A46BB7B02FAAD
:1003E80003F3FB737B689A787B7B1340DAB2FB7B61
:1003F8001343FB73FB7B1B01FB73174A7B681B785A
:100408001344FA7B83F800237B681B7803F01F03EF
:1004180011497A6812785209D2B21046012202FABA
:1004280003F341F820300FE07B681B7803F01F03CB
:1004380009497A6812785209D2B2104601229A40C4
:1004480000F1200341F8232000BF1437BD465DF8B2
:10045800047B704700ED00E000E100E080B483B069
:1004680000AF78607B68042B06D1094B1B68084AEB
:1004780043F00403136005E0054B1B68044A23F0AE
:100488000403136000BF0C37BD465DF8047B70475A
:1004980010E000E080B483B000AF7860044B7A6865
:1004A800D2B21A7000BF0C37BD465DF8047B7047A6
:1004B800003C024080B483B000AF0346FB71FB7977
:1004C800002B06D0094B1B68084A43F4807313605D
:1004D80005E0064B1B68054A23F48073136000BFD0
:1004E8000C37BD465DF8047B704700BF003C0240F6
:1004F80080B400AF074B1B69002B05DA054B064A91
:100508005A60044B054A5A6000BFBD465DF8047B3B
:10051800704700BF003C024023016745AB89EFCD1F
:1005280080B400AF054B1B69044A43F000431361D4
:1005380000BFBD465DF8047B704700BF003C024029
:1005480080B584B000AF78600B46FB700023FB6079
:100558000923FB72FB78002B02D10023FB6010E01B
:10056800FB78012B03D14FF48073FB6009E0FB7823
:10057800022B03D14FF40073FB6002E04FF4407389
:10058800FB6000F0BFF80346FB72FB7A092B2FD102
:100598001A4B1B69194A23F440731361174B1A69E4
:1005A8001649FB6813430B61144B1B69134A23F06C
:1005B800F8031361114B1A697B6813430F4A43F020
:1005C800020313610D4B1B690C4A43F4803313611A
:1005D80000F098F80346FB72084B1B69074A23F0A2
:1005E80002031361054B1B69044A23F0F8031361E6
:1005F800FB7A18461037BD4680BD00BF003C02405C
:1006080080B584B000AF786039600923FB7300F0CF
:1006180079F80346FB73FB7B092B1ED1114B1B6931
:10062800104A23F4407313610E4B1B690D4A43F4BF
:10063800007313610B4B1B690A4A43F001031361F2
:100648007B683A681A6000F05DF80346FB73054B57
:100658001B69044A23F001031361FB7B184610371A
:10066800BD4680BD003C024080B483B000AF7860D6
:10067800044A7B68D36000BF0C37BD465DF8047B35
:10068800704700BF003C024080B483B000AF09232C
:10069800FB711B4BDB6803F48033B3F5803F02D159
:1006A8000123FB7125E0164BDB6803F01003002BD8
:1006B80002D00623FB711CE0114BDB6803F4807346
:1006C800002B02D00223FB7113E00D4BDB6803F013
:1006D800EF03002B02D00723FB710AE0084BDB680D
:1006E80003F00203002B02D00823FB7101E0092369
:1006F800FB71FB7918460C37BD465DF8047B7047E3
:10070800003C024080B582B000AF0923FB71FFF7BF
:10071800BBFF0346FB7103E0FFF7B6FF0346FB711F
:10072800FB79DBB2012BF7D0FB79DBB2184608372F
:10073800BD4680BD80B487B000AF786039600023C3
:100748007B6100233B610023FB6000237B6176E033
:1007580001227B6902FA03F33B613B681B683A6933
:100768001340FB60FA683B699A4265D17B681A6856
:100778007B695B00032101FA03F3DB431A407B68C2
:100788001A607B681A683B681B7919467B695B00AD
:1007980001FA03F31A437B681A603B681B79012B43
:1007A80003D03B681B79022B2ED17B689A687B6942
:1007B8005B00032101FA03F3DB431A407B689A606C
:1007C8007B689A683B685B7919467B695B0001FA2C
:1007D80003F31A437B689A607B685A687B699BB20B
:1007E800194601238B40DB431A407B685A607B68BB
:1007F8005B683A68927911467A6992B201FA02F214
:1008080092B21A437B685A607B68DA687B699BB24C
:100818005B00032101FA03F3DB431A407B68DA60CB
:100828007B68DA683B68DB7919467B695B0001FA0B
:1008380003F31A437B68DA607B6901337B617B6968
:100848000F2B85D900BF00BF1C37BD465DF8047B60
:10085800704780B483B000AF78600B467B807B68BC
:100868007A881A8300BF0C37BD465DF8047B704751
:1008780080B483B000AF78600B467B807B685A6990
:100888007B885A407B685A6100BF0C37BD465DF8CB
:10089800047B704780B485B000AF78600B467B80DE
:1008A80013467B700023FB600023BB607A787B884B
:1008B80003F007039B0002FA03F3FB607B88DB0865
:1008C8009BB21A467B68083253F822207B8803F0D3
:1008D80007039B000F2101FA03F3DB437988C9085A
:1008E80089B2084602EA03017B6800F1080243F86E
:1008F80022107B88DB089BB21A467B68083253F8C3
:100908002230FA681343BB607B88DB089BB21A4627
:100918007B680832B96843F8221000BF1437BD4617
:100928005DF8047B7047000080B489B000AF786040
:100938000023BB6100237B610023FB6102233B6131
:100948000023FB600223BB604A4B9B6803F00C0347
:10095800BB61BB69082B11D0BB69082B44D8BB69A4
:10096800002B03D0BB69042B04D03DE07B68424ACE
:100978001A603DE07B68414A1A6039E03D4B5B688C
:100988009B0D03F00103FB603A4B5B6803F03F03E8
:10099800BB60FB68002B0CD0384ABB68B2FBF3F392
:1009A800344A52689209C2F3080202FB03F3FB615E
:1009B8000BE0314ABB68B2FBF3F32E4A5268920946
:1009C800C2F3080202FB03F3FB612A4B5B681B0CB2
:1009D80003F0030301335B003B61FA693B69B2FB37
:1009E800F3F27B681A6003E07B68234A1A6000BF51
:1009F800204B9B6803F0F003BB61BB691B09BB611B
:100A08001F4ABB6913441B78DBB27B617B681A6899
:100A18007B69DA407B685A60164B9B6803F4E053A5
:100A2800BB61BB699B0ABB61154ABB6913441B7850
:100A3800DBB27B617B685A687B69DA407B689A60C5
:100A48000C4B9B6803F46043BB61BB695B0BBB61E8
:100A58000B4ABB6913441B78DBB27B617B685A681D
:100A68007B69DA407B68DA6000BF2437BD465DF8F1
:100A7800047B7047003802400024F40000127A001A
:100A88000400002080B483B000AF78600B46FB7090
:100A9800FB78002B06D00A4B1A6B09497B68134375
:100AA8000B6306E0064B1A6B7B68DB430449134073
:100AB8000B6300BF0C37BD465DF8047B704700BF71
:100AC8000038024080B483B000AF78600B46FB70FA
:100AD800FB78002B06D00A4B1A6C09497B68134334
:100AE8000B6406E0064B1A6C7B68DB430449134031
:100AF8000B6400BF0C37BD465DF8047B704700BF30
:100B08000038024080B483B000AF78600B46FB70B9
:100B1800FB78002B06D00A4B5A6C09497B681343B3
:100B28004B6406E0064B5A6C7B68DB430449134070
:100B38004B6400BF0C37BD465DF8047B704700BFAF
:100B48000038024080B485B000AF78603960002377
:100B5800FB817B681B88FB817B68294A934213D001
:100B68007B68284A93420FD07B68B3F1804F0BD043
:100B78007B68254A934207D07B68244A934203D076
:100B88007B68234A934208D1FB8923F07003FB81D9
:100B98003B685A88FB891343FB817B681D4A934253
:100BA8000CD07B681C4A934208D0FB8923F440731D
:100BB800FB813B681A89FB891343FB817B68FA89AF
:100BC8001A803B685A687B68DA623B681A887B68D7
:100BD8001A857B680A4A934203D07B68094A934284
:100BE80004D13B689B7A1A467B681A867B68012287
:100BF8009A8200BF1437BD465DF8047B704700BF7A
:100C080000000140000401400004004000080040CA
:100C1800000C0040001000400014004080B483B075
:100C280000AF78600B46FB70FB78002B08D07B6820
:100C38001B889BB243F001039AB27B681A8007E0D5
:100C48007B681B889BB223F001039AB27B681A80E9
:100C580000BF0C37BD465DF8047B704780B483B095
:100C680000AF78600B467B8013467B707B78002B47
:100C780008D07B689B899AB27B8813439AB27B68B9
:100C88009A8109E07B689B899AB27B88DB439BB297
:100C980013409AB27B689A8100BF0C37BD465DF855
:100CA800047B704780B483B000AF78600B467B80CC
:100CB8007B88DB439AB27B681A8200BF0C37BD463B
:100CC8005DF8047B704780B485B000AF78600B4650
:100CD8007B800023FB730023BB8100237B817B681F
:100CE8001B8A9AB27B881340BB817B689B899AB226
:100CF8007B8813407B81BB89002B05D07B89002B27
:100D080002D00123FB7301E00023FB73FB7B184631
:100D18001437BD465DF8047B704780B483B000AFDC
:100D280078600B467B807B88DB439AB27B681A82AB
:100D380000BF0C37BD465DF8047B704780B58AB0AC
:100D480000AF7860396000237B6200233B62002398
:100D5800FB610023BB617B681B8A9BB27B627B6A59
:100D680023F440537B623B68DB881A467B6A134353
:100D78007B627B6A9AB27B681A827B689B899BB28A
:100D88007B627B6A23F4B05323F00C037B623B68DD
:100D98009A883B681B8913439AB23B685B89134363
:100DA8009BB21A467B6A13437B627B6A9AB27B6862
:100DB8009A817B689B8A9BB27B627B6A23F440732F
:100DC8007B623B689B891A467B6A13437B627B6A1A
:100DD8009AB27B689A8207F108031846FFF7A4FDC8
:100DE8007B68304A934203D07B682F4A934202D1F2
:100DF8007B693B6201E03B693B627B689B899BB2F4
:100E08001BB2002B0CDA3A6A13469B0013449A0073
:100E18001A443B681B685B00B2FBF3F3FB610BE011
:100E28003A6A13469B0013449A001A443B681B68AD
:100E38009B00B2FBF3F3FB61FB691C4AA2FB032393
:100E48005B091B017B627B6A1B09642202FB03F3BB
:100E5800FA69D31ABB617B689B899BB21BB2002BD2
:100E68000CDABB69DB003233104AA2FB03235B09AF
:100E780003F007037A6A13437B620BE0BB691B012B
:100E880032330A4AA2FB03235B0903F00F037A6A91
:100E980013437B627B6A9AB27B681A8100BF28374A
:100EA800BD4680BD00100140001401401F85EB5174
:100EB80080B483B000AF78600B46FB70FB78002BE2
:100EC80008D07B689B899BB243F400539AB27B6835
:100ED8009A8107E07B689B899BB223F400539AB2FE
:100EE8007B689A8100BF0C37BD465DF8047B70476C
:100EF80080B483B000AF78600B467B807B88C3F3F7
:100F080008039AB27B689A8000BF0C37BD465DF82B
:100F1800047B704780B483B000AF78607B689B889F
:100F28009BB2C3F308039BB218460C37BD465DF865
:100F3800047B704780B487B000AF78600B467B8035
:100F480013467B7000233B610023FB600023BB60DA
:100F580000237B617B687B617B88DBB25B09DBB24A
:100F68003B617B8803F01F03FB600122FB6802FAE8
:100F780003F3BB603B69012B03D17B690C337B61B5
:100F880009E03B69022B03D17B6910337B6102E0E6
:100F98007B6914337B617B78002B06D07B691968E9
:100FA8007B69BA680A431A6006E07B691968BB68FE
:100FB800DA437B690A401A6000BF1C37BD465DF8FA
:100FC800047B704780B485B000AF78600B467B80A7
:100FD8000023FB737B681B889AB27B8813409BB203
:100FE800002B02D00123FB7301E00023FB73FB7B82
:100FF80018461437BD465DF8047B704780B487B047
:1010080000AF78600B467B800023FB6000237B6188
:101018000023BB600023FB747B88DBB25B09DBB277
:10102800BB607B8803F01F037B6101227B6902FAA6
:1010380003F37B61BB68012B07D17B689B899BB25B
:101048001A467B6913407B6111E0BB68022B07D10C
:101058007B681B8A9BB21A467B6913407B6106E05A
:101068007B689B8A9BB21A467B6913407B617B88AD
:101078001B0A9BB2FB600122FB6802FA03F3FB60C8
:101088007B681B889BB21A46FB681340FB607B6930
:10109800002B05D0FB68002B02D00123FB7401E074
:1010A8000023FB74FB7C18461C37BD465DF8047BA7
:1010B800704780B582B000AFFFF71AFA3120FFF70A
:1010C800D3FA1023FB8007E0FB8802211846FFF7BC
:1010D80037FAFB880833FB80FB88582BF4D9FFF7D5
:1010E8001FFA00BF0837BD4680BD80B588B000AF85
:1010F800F860B9607A60FB70FB68FB61BB68BB6134
:101108000120FFF7D7F90520FFF7C4F9FFF7F0F939
:101118003120FFF7A9FAFB78002B03D00221082021
:10112800FFF70EFA00237B610EE0FB691A1DFA61D6
:101138001B683B613969B869FFF762FABB69043318
:10114800BB617B6901337B617B689B087A699A4242
:10115800EBD3FFF7E5F9002318462037BD4680BDDD
:1011680080B489B000AFF860B9607A60FB68FB6151
:10117800BB68BB6100237B610DE0BB691B683B61F9
:10118800BB690433BB61FB691A1DFA613A691A60CD
:101198007B6901337B617B689B087A699A42ECD34F
:1011A800002318462437BD465DF8047B704780B499
:1011B80085B000AF786039600023FB600023BB6016
:1011C8000AE07A68BB6813441B781A46FB68134424
:1011D800FB60BB680133BB60BA683B689A42F0D3D6
:1011E800FB6818461437BD465DF8047B704700005D
:1011F80080B582B000AF054B7B6014220449786843
:10120800FFF7AEFF00BF0837BD4680BDA400002031
:101218000040000880B582B000AF084B7B6072B612
:1012280000BF0123142206497868FFF75EFF62B603
:1012380000BF00BF0837BD4680BD00BFA400002026
:101248000040000880B500AFFFF7D2FF0A4B1B68CB
:101258000A4A93420DD0084B084A1A60064B0022EE
:101268009A60054B0022DA60034B00221A61FFF7EF
:10127800D1FF00BF80BD00BFA4000020CDBBAA5590
:1012880080B400AF024B1846BD465DF8047B70473A
:101298001400002080B400AFBFF34F8F00BF064B8F
:1012A800DB6803F4E0620449044B1343CB60BFF3EB
:1012B8004F8F00BF00BFFDE700ED00E00400FA0516
:1012C80080B485B000AF786039600023FB600023EC
:1012D800BB600AE07A68BB6813441B781A46FB684F
:1012E8001344FB60BB680133BB60BA683B689A4231
:1012F800F0D3FB6818461437BD465DF8047B704789
:1013080080B586B000AF0346FB71364B7B617B69C5
:101318005B683B617B695B881A463B691344FA79D1
:101328001A707B695B78022B27D0022B4EDC002BCE
:1013380002D0012B10D049E07B6900225A80FB794A
:10134800882B47D17B6901225A707B695B880133FE
:101358009AB27B695A803DE0FB79662B09D17B699B
:1013680002225A707B695B8801339AB27B695A8082
:1013780033E07B6900225A702FE07B695B88013378
:101388009AB27B695A807B695B881A467B695B687D
:101398005B890C339A421FD37B6900225A707B69A0
:1013A8005B6803F108027B695B685B890433194653
:1013B8001046FFF785FFF8607B695B685B68FA6831
:1013C8009A4209D17B6901221A7005E07B690022E3
:1013D8005A7002E000BF00E000BF00BF1837BD46EA
:1013E80080BD00BF2400002080B586B000AF7860C3
:1013F80000233B61202000F059FC03463B613B6918
:10140800002B01D1002323E07B68FB600C23FB82C7
:10141800FB8A202B01D92023FB820023BB820AE010
:10142800BB8AFA681A44BB8A39690B4412781A7065
:10143800BB8A0133BB82BA8AFB8A9A42F0D3FB8A01
:101448001946386900F070FA386900F037FC012352
:1014580018461837BD4680BD80B584B000AF7860A7
:101468007B680C331B68FB60FB680B4A934202D213
:101478004FF0FF330CE0FB68074A934201D1FFF7B6
:1014880018FE064AFB6813607868FFF7ADFF002373
:1014980018461037BD4680BD008000082C0000208B
:1014A800B0B586B000AF78607B680C333B617B6871
:1014B8005B89FB60FB68264A934202D34FF0FF33F7
:1014C80042E0244B19680023FA683869FFF70DFEDB
:1014D80000237B610CE0204A7B6913441A78396940
:1014E8007B690B441B789A4206D17B6901337B6187
:1014F8007B691F2BEFD900E000BF7B69202B1FD031
:10150800144B1B68F9681846FFF751FE0246134B47
:101518001B681344114A13600E4B1A68FB68134486
:101528000C4A13600C4A3B6914461D4628686968D2
:10153800AA68EB680FC428696969AA69EB690FC4CE
:101548007868FFF751FF002318461837BD46B0BD2D
:10155800004000082C000020C4080020E4080020F7
:1015680080B584B000AF786000F038FA0346002BED
:101578000DD0FFF785FE03461B6803225A60FFF76C
:101588007FFE0346DB689847FFF784FE12E00B4BAB
:101598001A680B4B1340B3F1005F09D1094B1B6864
:1015A800FB60FB68BB607868FFF71EFFBB68984765
:1015B800FFF770FE1037BD4680BD00BF00800008F1
:1015C8000000FC2F0480000880B582B000AF78606E
:1015D800FFF756FE03461B6804225A60FFF750FEC9
:1015E8000346DB6898477868FFF7BAFF0023184678
:1015F8000837BD4680BD000080B584B000AF786074
:101608007B680C331B68FB600A4B1B68BB60094B8B
:1016180000221A60BA68FB689A4202D04FF0FF3382
:1016280003E07868FFF7D0FF002318461037BD465F
:1016380080BD00BFE408002080B582B000AF7860AC
:101648007868FFF7D1FEFFF71BFE03461B680322ED
:101658005A60FFF715FE0346DB689847FFF71AFE46
:10166800002318460837BD4680BD000080B584B009
:1016780000AF78607B68FB60FB685B7A042B02D95B
:101688004FF0FF3326E0FB685B7A042B20D801A2D9
:1016980052F823F0B1160008B9160008C116000860
:1016A800C9160008D11600087868FFF7D5FE10E0C3
:1016B8007868FFF7F5FE0CE07868FFF79DFF08E013
:1016C8007868FFF7B9FF04E07868FFF77DFF00E06E
:1016D80000BF002318461037BD4680BD80B582B0D4
:1016E80000AF134B1B78002B1DD0114B00221A7032
:1016F8000023FB7114E0FB790E4A12F833200C4BDF
:101708005B681B7A9A4208D1FB790A4ADB001344CA
:101718005B68074A526810469847FB790133FB71AA
:10172800FB79002BE7D000BF0837BD4680BD00BF5E
:10173800240000203000002080B582B000AF0121D5
:101748002020FFF79FF94FF400733B6001233B71A2
:1017580002237B713B4619460548FEF7EBFF4FF421
:1017680000710348FFF775F800BF0837BD4680BD14
:101778000014024080B584B000AF1C233B730123E2
:101788007B730023BB730123FB7307F10C0318461B
:10179800FEF702FE01210120FFF794F940F21F3302
:1017A8007B6042F2CF033B8000233B8100237B8098
:1017B8003B4619464FF08040FFF7C4F901214FF02E
:1017C8008040FFF76FFA012201214FF08040FFF7B8
:1017D80045FA01214FF08040FFF720FA00BF10378B
:1017E800BD4680BD80B500AF01214FF08040FFF7B6
:1017F8006AFA0346002B09D04FF400710448FFF73A
:1018080037F801214FF08040FFF787FA00BF80BD0D
:101818000014024080B500AF6FF00400FEF71EFE12
:101828000A4B1B680A4AA2FB03235B0DDAB2094B79
:101838001A70084B1B781A465201D21A92001344A8
:10184800DB009AB2044B1A8000BF80BD0000002064
:1018580083DE1B43E8080020EA08002080B586B034
:1018680000AF01210120FFF70DF901211020FFF73A
:1018780049F9072209211C48FFF70CF807220A2119
:101888001948FFF707F84FF4C0633B6102233B7523
:1018980002237B750023BB750123FB7507F1100339
:1018A80019461148FEF746FF4FF4E1333B60002329
:1018B800BB800023FB8000233B810023BB810C23DA
:1018C8007B813B4619460948FFF738FA012240F266
:1018D80025510648FFF72EFB01210448FFF7E8FAD7
:1018E80000BF1837BD4680BD00000240001001400F
:1018F80080B582B000AF25233B7100237B710023A4
:10190800BB710123FB713B1D1846FEF745FD00BF67
:101918000837BD4680BD80B500AFFFF79FFFFFF7D2
:10192800E7FF00BF80BD000080B584B000AF7860DD
:101938000B467B807B68BB600023FB8112E0FB8940
:10194800BA6813441B7819460B48FFF7D1FA00BF51
:1019580040210948FFF736FB0346002BF8D0FB89E6
:101968000133FB81FA897B889A42E8D300BF00BF24
:101978001037BD4680BD00BF0044004080B582B02E
:1019880000AF40F225510948FFF738FB0346002B0A
:1019980008D00648FFF7BEFA0346FB71FB791846E4
:1019A800FFF7AEFC00BF0837BD4680BD0010014000
:1019B80080B400AFBFF34F8F00BF064BDB6803F462
:1019C800E0620449044B1343CB60BFF34F8F00BF61
:1019D80000BFFDE700ED00E00400FA0580B584B023
:1019E80000AF0023BB60FFF74BFC03461B687B601E
:1019F8000023FB6014E0324AFB6813441A78F96844
:101A0800304B0B441B789A4207D07B68DB685A1C22
:101A18007B68DA604FF0FF334DE0FB680133FB6011
:101A2800FB68142BE7D90023FB6016E0264AFB6805
:101A380013441A78FB6803F1006303F591431B789C
:101A48009A4207D07B689B685A1C7B689A604FF063
:101A5800FF3330E0FB680133FB60FB68072BE5D9F7
:101A68000023FB6022E0FB6803F1006303F50043F9
:101A78001B78FF2B07D0FB6803F1006303F50043D5
:101A88001B78002B0DD1BB680133BB60BB68C72B2B
:101A980009D97B681B695A1C7B681A614FF0FF33B0
:101AA80009E00023BB60FB680133FB60FB68B3F50A
:101AB800005FD8D3002318461037BD4680BD00BF4D
:101AC8001C1F000840480008341F000880B582B079
:101AD80000AFFFF783FF0346002B0DD0FFF7D0FBC5
:101AE80003461B6803225A60FFF7CAFB0346DB68FC
:101AF8009847FFF75DFF1AE00E4B1A680E4B13402C
:101B0800B3F1005F06D10D4B1B687B607B683B60BF
:101B18003B689847FFF7B4FB03461B6803225A60EB
:101B2800FFF7AEFB0346DB689847FFF741FF08372E
:101B3800BD4680BD008000080000FC2F048000081E
:101B480080B584B000AF0D4B1A680D4B1340B3F14C
:101B5800005F0DD10B4B1B68FB60FB68BB60074B3C
:101B68001B687B607B6883F3088800BFBB68984765
:101B7800FFF71EFFFFF7B2FDFCE700BF008000087B
:101B88000000FC2F0480000880B584B000AF3B46FD
:101B980000221A605A609A60DA603B461846FEF7DF
:101BA800C3FE3A68024B1B689A421037BD4680BD97
:101BB8000000002080B500AF4FF44070FEF7D8FB5E
:101BC80062B600BFFFF7B8FDFFF7D4FDFFF7DCFFF3
:101BD800FFF720FEFFF79FFEFFF752FB03465B6807
:101BE8009847FFF74DFB03461B685B68042B01D140
:101BF800FFF76CFFFFF7A4FF0023184680BD80B4F1
:101C080000AF00BFBD465DF8047B704780B400AFED
:101C180000BFFDE780B400AF00BFFDE780B400AFB0
:101C280000BFFDE780B400AF00BFFDE780B400AFA0
:101C380000BFBD465DF8047B704780B400AF00BFAD
:101C4800BD465DF8047B704780B400AF00BFBD4659
:101C58005DF8047B704780B400AF00BFBD465DF8F7
:101C6800047B7047002103E00A4B5B584350043162
:101C780009480A4B42189A42F6D3094A02E000235F
:101C880042F8043B074B9A42F9D3FEF7BFFAFFF735
:101C980091FF7047441F00080000002088000020C2
:101CA80088000020380A0020FEE70000024B0146A9
:101CB800186800F02DB800BF38000020024B01461C
:101CC800186800F0C3B800BF3800002070B50F4E88
:101CD8000C463168054611B900F0A6F83060214677
:101CE800284600F0A1F8431C03D14FF0FF342046EA
:101CF80070BDC41C24F00304A042F8D0211A284661
:101D080000F092F80130F2D1EFE700BFEC080020B4
:101D18002DE9F843CD1C25F0030508350C2D38BFF7
:101D28000C25002D064601DBA94204D90C2333609B
:101D38000020BDE8F883DFF8D48000F069F8D8F80F
:101D480000301C4644BB29463046FFF7BFFF431C02
:101D5800044658D1D8F800402746002F43D1002C1C
:101D68004BD023683946304604EB030900F05CF891
:101D7800814542D121686D1A29463046FFF7A6FFF2
:101D880001303AD023682B442360D8F800305A68D1
:101D980062BBC8F800700FE02268521B20D40B2ADF
:101DA80017D96119A342256018BF5960636808BF35
:101DB800C8F8001062514B60304600F02FF804F16B
:101DC8000B00231D20F00700C21A1CBF1B1AA350CA
:101DD800AFE76268A3420CBFC8F800205A60EBE77F
:101DE80023466468AEE73C467F68B6E71A465B68F8
:101DF800A342FBD100235360DEE70C233360304657
:101E080000F00CF894E70560D6E700BFF008002062
:101E1800014800F019B800BF300A0020014800F05E
:101E280014B800BF300A002038B5064D0023044618
:101E380008462B6000F054F8431C02D12B6803B10C
:101E4800236038BD2C0A00207047704738B5054616
:101E5800002941D051F8043C0C1F002BB8BFE418EE
:101E6800FFF7D6FF1D4A136833B96360146028462C
:101E7800BDE83840FFF7D2BFA34208D9206821182F
:101E88008B4201BF19685B6809182160EDE71A46A3
:101E98005B680BB1A342FAD911685018A0420BD164
:101EA80020680144501883421160E0D118685B68CB
:101EB800536008441060DAE702D90C232B60D6E798
:101EC800206821188B4204BF19685B68636004BFEF
:101ED800091821605460CAE738BD00BFF008002027
:101EE800044A05491368002B08BF0B4618441060C4
:101EF80018467047340A0020380A0020F8B500BF99
:101F0800F8BC08BC9E467047F8B500BFF8BC08BCD2
:041F18009E4670472A
:101F1C0074686973206465766963652069732074DD
:101F2C0065737421000000005645522E312E30008E
:041F3C00F1010008A7
:041F4000C9010008CB
:101F4400007A030A000000000102030401020304F2
:101F540006070809A40000204D120008F911000822
:101F64001D12000800000000B800002000800008D6
:101F740000000000751600083C000020000000006E
:101F8400F40800205C090020C409002000000000BF
:101F9400000000000000000000000000000000003D
:101FA400000000000000000000000000000000002D
:101FB400000000000000000000000000000000001D
:081FC400000000000000000015
:0400000508001C6D66
:00000001FF
