:020000040800F2
:10000000000002205D520008711B00087F1B0008E1
:10001000871B00088F1B0008971B000800000000CA
:10002000000000000000000000000000114B00086C
:100030009F1B000800000000514D000861480008A7
:10004000A1520008A1520008A1520008A1520008C4
:10005000A1520008A1520008A1520008A1520008B4
:10006000A1520008A1520008A1520008A1520008A4
:10007000A1520008A1520008A1520008A152000894
:10008000A1520008A1520008A1520008A152000884
:10009000A1520008A1520008A1520008A152000874
:1000A000A1520008A1520008A1520008A152000864
:1000B000A152000859160008A1520008A1520008D8
:1000C000A1520008A1520008A1520008A152000844
:1000D000A1520008854900087D1A0008A1520008B5
:1000E000A1520008A1520008A1520008A152000824
:1000F000A1520008A1520008A1520008A152000814
:10010000A1520008A152000885160008A15200085B
:10011000A1520008A1520008A1520008A1520008F3
:10012000A1520008A1520008A1520008A1520008E3
:10013000A1520008A1520008A1520008A1520008D3
:10014000A1520008A1520008A1520008A1520008C3
:10015000A1520008A1520008A1520008A1520008B3
:10016000A1520008A1520008A1520008A1520008A3
:10017000A1520008A1520008A1520008A152000893
:08018000A1520008A152000881
:10019000034613F8012B002AFBD1181A01387047C7
:1001A00001F0FF01102A2BDB10F0070F08D010F828
:1001B000013B013A8B422DD010F0070F42B3F6D12C
:1001C000F0B441EA012141EA014122F007047FF045
:1001D00000070023F0E80256083C85EA010586EA9C
:1001E000010685FA47F5A3FA87F586FA47F6A5FAD8
:1001F00087F68EB9EED1F0BC01F0FF0102F00702E4
:1002000032B110F8013B013A83EA010313B1F8D18E
:100210000020704701387047002D06BF354603386F
:10022000073815F0010F07D1013015F4807F02BFA8
:10023000013015F4C03F0130F0BC0138704700BFF9
:1002400081F0004102E000BF83F0004330B54FEA87
:1002500041044FEA430594EA050F08BF90EA020FF4
:100260001FBF54EA000C55EA020C7FEA645C7FEA87
:10027000655C00F0E2804FEA5454D4EB5555B8BFAA
:100280006D420CDD2C4480EA020281EA030382EA1B
:10029000000083EA010180EA020281EA0303362DAD
:1002A00088BF30BD11F0004F4FEA01314FF4801C80
:1002B0004CEA113102D0404261EB410113F0004F92
:1002C0004FEA03334CEA133302D0524263EB430349
:1002D00094EA050F00F0A780A4F10104D5F1200EE7
:1002E0000DDB02FA0EFC22FA05F2801841F1000142
:1002F00003FA0EF2801843FA05F359410EE0A5F116
:1003000020050EF1200E012A03FA0EFC28BF4CF046
:10031000020C43FA05F3C01851EBE37101F00045FC
:1003200007D54FF0000EDCF1000C7EEB00006EEB09
:100330000101B1F5801F1BD3B1F5001F0CD3490893
:100340005FEA30004FEA3C0C04F101044FEA4452EA
:1003500012F5800F80F09A80BCF1004F08BF5FEA71
:10036000500C50F1000041EB045141EA050130BD51
:100370005FEA4C0C404141EB0101013C28BFB1F563
:10038000801FE9D291F0000F04BF01460020B1FAAE
:1003900081F308BF2033A3F10B03B3F120020CDA81
:1003A0000C3208DD02F1140CC2F10C0201FA0CF05F
:1003B00021FA02F10CE002F11402D8BFC2F1200CC4
:1003C00001FA02F120FA0CFCDCBF41EA0C0190407A
:1003D000E41AA2BF01EB0451294330BD6FEA0404C3
:1003E0001F3C1CDA0C340EDC04F11404C4F12002AE
:1003F00020FA04F001FA02F340EA030021FA04F3C0
:1004000045EA030130BDC4F10C04C4F1200220FA16
:1004100002F001FA04F340EA0300294630BD21FA54
:1004200004F0294630BD94F0000F83F4801306BF1A
:1004300081F480110134013D4EE77FEA645C18BF0E
:100440007FEA655C29D094EA050F08BF90EA020FA5
:1004500005D054EA000C04BF1946104630BD91EA9D
:10046000030F1EBF0021002030BD5FEA545C05D1A0
:100470004000494128BF41F0004130BD14F58004DF
:100480003CBF01F5801130BD01F0004545F0FE4153
:1004900041F470014FF0000030BD7FEA645C1ABF88
:1004A000194610467FEA655C1CBF0B46024650EABF
:1004B000013406BF52EA033591EA030F41F40021EB
:1004C00030BD00BF90F0000F04BF0021704730B571
:1004D0004FF4806404F132044FF000054FF0000146
:1004E00050E700BF90F0000F04BF0021704730B507
:1004F0004FF4806404F1320410F0004548BF4042DC
:100500004FF000013EE700BF42004FEAE2014FEA30
:1005100031014FEA02701FBF12F07F4393F07F4F0B
:1005200081F06051704732F07F4208BF704793F00E
:100530007F4F04BF41F40021704730B54FF4607421
:1005400001F0004521F000411CE700BF50EA010224
:1005500008BF704730B54FF000050AE050EA0102CD
:1005600008BF704730B511F0004502D5404261EB3D
:1005700041014FF4806404F132045FEA915C3FF47E
:10058000D8AE4FF003025FEADC0C18BF03325FEA1B
:10059000DC0C18BF033202EBDC02C2F1200300FACC
:1005A00003FC20FA02F001FA03FE40EA0E0021FAF1
:1005B00002F11444BDE600BF70B54FF0FF0C4CF4DF
:1005C000E06C1CEA11541DBF1CEA135594EA0C0F91
:1005D00095EA0C0F00F0DEF82C4481EA030621EACC
:1005E0004C5123EA4C5350EA013518BF52EA033507
:1005F00041F4801143F4801338D0A0FB02CE4FF0B9
:100600000005E1FB02E506F00042E0FB03E54FF0E8
:100610000006E1FB03569CF0000F18BF4EF0010EE0
:10062000A4F1FF04B6F5007F64F5407404D25FEADC
:100630004E0E6D4146EB060642EAC62141EA55518F
:100640004FEAC52040EA5E504FEACE2EB4F1FD0CD1
:1006500088BFBCF5E06F1ED8BEF1004F08BF5FEA4F
:10066000500E50F1000041EB045170BD06F0004601
:1006700046EA010140EA020081EA0301B4EB5C04AE
:10068000C2BFD4EB0C0541EA045170BD41F48011A6
:100690004FF0000E013C00F3AB8014F1360FDEBFCB
:1006A000002001F0004170BDC4F10004203C35DAA7
:1006B0000C341BDC04F11404C4F1200500FA05F32A
:1006C00020FA04F001FA05F240EA020001F00042CB
:1006D00021F0004110EBD37021FA04F642EB060141
:1006E0005EEA430E08BF20EAD37070BDC4F10C046B
:1006F000C4F1200500FA04F320FA05F001FA04F22F
:1007000040EA020001F0004110EBD37041F100011A
:100710005EEA430E08BF20EAD37070BDC4F1200525
:1007200000FA05F24EEA020E20FA04F301FA05F28D
:1007300043EA020321FA04F001F0004121FA04F235
:1007400020EA020000EBD3705EEA430E08BF20EA05
:10075000D37070BD94F0000F0FD101F0004640003F
:1007600041EB010111F4801F08BF013CF7D041EAC1
:10077000060195F0000F18BF704703F000465200C5
:1007800043EB030313F4801F08BF013DF7D043EA96
:100790000603704794EA0C0F0CEA135518BF95EA4C
:1007A0000C0F0CD050EA410618BF52EA4306D1D1D3
:1007B00081EA030101F000414FF0000070BD50EAF2
:1007C000410606BF1046194652EA430619D094EA7C
:1007D0000C0F02D150EA013613D195EA0C0F05D166
:1007E00052EA03361CBF104619460AD181EA0301BA
:1007F00001F0004141F0FE4141F470014FF0000072
:1008000070BD41F0FE4141F4780170BD70B54FF00C
:10081000FF0C4CF4E06C1CEA11541DBF1CEA13558C
:1008200094EA0C0F95EA0C0F00F0A7F8A4EB05046E
:1008300081EA030E52EA03354FEA013100F0888065
:100840004FEA03334FF0805545EA131343EA12632E
:100850004FEA022245EA111545EA10654FEA0026E3
:100860000EF000419D4208BF964244F1FD0404F59C
:10087000407402D25B084FEA3202B61A65EB0305F8
:100880005B084FEA32024FF480104FF4002CB6EBB5
:10089000020E75EB030E22BFB61A754640EA0C0035
:1008A0005B084FEA3202B6EB020E75EB030E22BF75
:1008B000B61A754640EA5C005B084FEA3202B6EBB6
:1008C000020E75EB030E22BFB61A754640EA9C0075
:1008D0005B084FEA3202B6EB020E75EB030E22BF45
:1008E000B61A754640EADC0055EA060E18D04FEA03
:1008F000051545EA16754FEA06164FEAC30343EAA3
:1009000052734FEAC2025FEA1C1CC0D111F4801F6F
:100910000BD141EA00014FF000004FF0004CB6E768
:1009200011F4801F04BF01430020B4F1FD0C88BF07
:10093000BCF5E06F3FF6AFAEB5EB030C04BFB6EB12
:10094000020C5FEA500C50F1000041EB045170BD05
:100950000EF0004E4EEA113114EB5C04C2BFD4EB32
:100960000C0541EA045170BD41F480114FF0000EB6
:10097000013C90E645EA060E8DE60CEA135594EA32
:100980000C0F08BF95EA0C0F3FF43BAF94EA0C0F35
:100990000AD150EA01347FF434AF95EA0C0F7FF4AA
:1009A00025AF104619462CE795EA0C0F06D152EAFE
:1009B00003353FF4FDAE1046194622E750EA4106E2
:1009C00018BF52EA43067FF4C5AE50EA41047FF4F3
:1009D0000DAF52EA43057FF4EBAE12E74FF0FF3C58
:1009E00006E000BF4FF0010C02E000BF4FF0010C29
:1009F0004DF804CD4FEA410C7FEA6C5C4FEA430CA2
:100A000018BF7FEA6C5C1BD001B050EA410C0CBFF0
:100A100052EA430C91EA030F02BF90EA020F002052
:100A2000704710F1000F91EA030F58BF994208BFB9
:100A300090422CBFD8176FEAE37040F00100704776
:100A40004FEA410C7FEA6C5C02D150EA013C07D1CD
:100A50004FEA430C7FEA6C5CD6D152EA033CD3D018
:100A60005DF8040B704700BF8446104662468C4612
:100A70001946634600E000BF01B5FFF7B7FF002845
:100A800048BF10F1000F01BD4DF808EDFFF7F4FF6E
:100A90000CBF012000205DF808FB00BF4DF808EDF9
:100AA000FFF7EAFF34BF012000205DF808FB00BF1C
:100AB0004DF808EDFFF7E0FF94BF012000205DF83E
:100AC00008FB00BF4DF808EDFFF7CEFF94BF0120F3
:100AD00000205DF808FB00BF4DF808EDFFF7C4FFEC
:100AE00034BF012000205DF808FB00BF4FEA410C35
:100AF0007FEA6C5C02D150EA013C0AD14FEA430C18
:100B00007FEA6C5C02D152EA033C02D14FF0000054
:100B100070474FF0010070474FEA410212F5001292
:100B200015D211D56FF47873B3EB625212D94FEA34
:100B3000C12343F0004343EA505311F0004F23FA1E
:100B400002F018BF404270474FF00000704750EA73
:100B5000013005D111F0004008BF6FF00040704730
:100B60004FF00000704700BF0348044B834202D09F
:100B7000034B03B118477047640100206401002053
:100B8000000000000548064B1B1AD90F01EBA3011A
:100B9000491002D0034B03B118477047640100208D
:100BA000640100200000000010B5064C237843B912
:100BB000FFF7DAFF044B13B10448AFF300800123C1
:100BC000237010BD6401002000000000687200085E
:100BD00008B5054B1BB105490548AFF30080BDE8DA
:100BE0000840FFF7CFBF00BF0000000068010020F1
:100BF0006872000880B500AF164BD3F88830154AEC
:100C000043F47003C2F88830134B1B68124A43F058
:100C100001031360104B00229A600F4B1B680E4AB1
:100C200023F0847323F4803313600B4B0B4A5A6018
:100C3000094B1B68084A23F480231360064B0022EB
:100C4000DA6000F00DF8034B4FF000629A6000BFCD
:100C500080BD00BF00ED00E00038024010300024ED
:100C600080B483B000AF00237B6000233B60364B31
:100C70001B68354A43F480331360334B1B6803F41D
:100C800000333B607B6801337B603B68002B03D102
:100C90007B68B3F5A04FF0D12B4B1B6803F40033F6
:100CA000002B02D001233B6001E000233B603B6846
:100CB000012B42D1244B1B6C234A43F08053136415
:100CC000224B1B68214A43F4404313601E4B1E4ACB
:100CD0009B6893601C4B9B681B4A43F400439360E2
:100CE000194B9B68184A43F4A0539360164B184A5B
:100CF0005A60154B1B68144A43F08073136000BFA1
:100D0000114B1B6803F00073002BF9D0114B40F21C
:100D100005721A600C4B9B680B4A23F00303936027
:100D2000094B9B68084A43F00203936000BF064BDF
:100D30009B6803F00C03082BF9D100BF0C37BD46AC
:100D40005DF8047B704700BF00380240007000402F
:100D500008544007003C024080B483B000AF786084
:100D6000064A7B6843F0BF6343F40033D36000BF9F
:100D70000C37BD465DF8047B704700BF00ED00E016
:100D800080B485B000AF78600023FB730023BB7391
:100D90000F237B737B68DB78002B39D0274BDB6814
:100DA000DB431B0ADBB203F00703FB73FB7BC3F1DE
:100DB0000403BB737A7BFB7B42FA03F37B737B6890
:100DC0005B781A46BB7B02FA03F3FB737B689A7865
:100DD0007B7B1340DAB2FB7B1343FB73FB7B1B0172
:100DE000FB73174A7B681B781344FA7B83F8002354
:100DF0007B681B7803F01F0311497A681278520947
:100E0000D2B21046012202FA03F341F820300FE07B
:100E10007B681B7803F01F0309497A68127852092E
:100E2000D2B2104601229A4000F1200341F823205B
:100E300000BF1437BD465DF8047B704700ED00E04D
:100E400000E100E080B483B000AF78607B68042BE1
:100E500006D1094B1B68084A43F00403136005E000
:100E6000054B1B68044A23F00403136000BF0C37D2
:100E7000BD465DF8047B704710E000E080B487B0A9
:100E800000AF7860396000237B6100233B61002361
:100E9000FB6000237B6176E001227B6902FA03F3A9
:100EA0003B613B681B683A691340FB60FA683B6929
:100EB0009A4265D17B681A687B695B00032101FA5D
:100EC00003F3DB431A407B681A607B681A683B684F
:100ED0001B7919467B695B0001FA03F31A437B68AF
:100EE0001A603B681B79012B03D03B681B79022BEE
:100EF0002ED17B689A687B695B00032101FA03F3BA
:100F0000DB431A407B689A607B689A683B685B7930
:100F100019467B695B0001FA03F31A437B689A6008
:100F20007B685A687B699BB2194601238B40DB437F
:100F30001A407B685A607B685B683A689279114610
:100F40007A6992B201FA02F292B21A437B685A604D
:100F50007B68DA687B699BB25B00032101FA03F3CB
:100F6000DB431A407B68DA607B68DA683B68DB79D0
:100F700019467B695B0001FA03F31A437B68DA6068
:100F80007B6901337B617B690F2B85D900BF00BF73
:100F90001C37BD465DF8047B704780B483B000AF5A
:100FA00078600B467B807B687A881A8300BF0C3799
:100FB000BD465DF8047B704780B485B000AF7860B3
:100FC0000B467B8013467B700023FB600023BB60D5
:100FD0007A787B8803F007039B0002FA03F3FB6037
:100FE0007B88DB089BB21A467B68083253F82220C4
:100FF0007B8803F007039B000F2101FA03F3DB4317
:101000007988C90889B2084602EA03017B6800F1C1
:10101000080243F822107B88DB089BB21A467B68E3
:10102000083253F82230FA681343BB607B88DB0830
:101030009BB21A467B680832B96843F8221000BF99
:101040001437BD465DF8047B7047000080B489B05A
:1010500000AF78600023BB6100237B610023FB614C
:1010600002233B610023FB600223BB604A4B9B6869
:1010700003F00C03BB61BB69082B11D0BB69082BC3
:1010800044D8BB69002B03D0BB69042B04D03DE0DE
:101090007B68424A1A603DE07B68414A1A6039E049
:1010A0003D4B5B689B0D03F00103FB603A4B5B68B3
:1010B00003F03F03BB60FB68002B0CD0384ABB68D1
:1010C000B2FBF3F3344A52689209C2F3080202FBFE
:1010D00003F3FB610BE0314ABB68B2FBF3F32E4A2A
:1010E00052689209C2F3080202FB03F3FB612A4B28
:1010F0005B681B0C03F0030301335B003B61FA697F
:101100003B69B2FBF3F27B681A6003E07B68234A19
:101110001A6000BF204B9B6803F0F003BB61BB6902
:101120001B09BB611F4ABB6913441B78DBB27B619F
:101130007B681A687B69DA407B685A60164B9B684B
:1011400003F4E053BB61BB699B0ABB61154ABB69F1
:1011500013441B78DBB27B617B685A687B69DA4099
:101160007B689A600C4B9B6803F46043BB61BB696E
:101170005B0BBB610B4ABB6913441B78DBB27B6121
:101180007B685A687B69DA407B68DA6000BF243785
:10119000BD465DF8047B7047003802400024F4002F
:1011A00000127A000400002080B483B000AF7860A1
:1011B0000B46FB70FB78002B06D00A4B1A6B0949D3
:1011C0007B6813430B6306E0064B1A6B7B68DB43BB
:1011D000044913400B6300BF0C37BD465DF8047B28
:1011E000704700BF0038024080B483B000AF786021
:1011F0000B46FB70FB78002B06D00A4B1A6C094992
:101200007B6813430B6406E0064B1A6C7B68DB4378
:10121000044913400B6400BF0C37BD465DF8047BE6
:10122000704700BF0038024080B483B000AF7860E0
:101230000B46FB70FB78002B06D00A4B5A6C094911
:101240007B6813434B6406E0064B5A6C7B68DB43B8
:10125000044913404B6400BF0C37BD465DF8047B66
:10126000704700BF0038024080B485B000AF78609E
:101270000B467B800023FB730023BB8100237B8113
:101280007B681B8A9AB27B881340BB817B689B89F1
:101290009AB27B8813407B81BB89002B05D07B8968
:1012A000002B02D00123FB7301E00023FB73FB7BC7
:1012B00018461437BD465DF8047B704780B483B090
:1012C00000AF78600B467B807B88DB439AB27B68FB
:1012D0001A8200BF0C37BD465DF8047B70470000E2
:1012E00080B58AB000AF7860396000237B6200234C
:1012F0003B620023FB610023BB617B681B8A9BB2BE
:101300007B627B6A23F440537B623B68DB881A462E
:101310007B6A13437B627B6A9AB27B681A827B6822
:101320009B899BB27B627B6A23F4B05323F00C034E
:101330007B623B689A883B681B8913439AB23B687F
:101340005B8913439BB21A467B6A13437B627B6AB9
:101350009AB27B689A817B689B8A9BB27B627B6A2C
:1013600023F440737B623B689B891A467B6A134374
:101370007B627B6A9AB27B689A8207F108031846FF
:10138000FFF764FE7B68304A934203D07B682F4AA4
:10139000934202D17B693B6201E03B693B627B681F
:1013A0009B899BB21BB2002B0CDA3A6A13469B0056
:1013B00013449A001A443B681B685B00B2FBF3F3CA
:1013C000FB610BE03A6A13469B0013449A001A44EF
:1013D0003B681B689B00B2FBF3F3FB61FB691C4A93
:1013E000A2FB03235B091B017B627B6A1B0964224E
:1013F00002FB03F3FA69D31ABB617B689B899BB23A
:101400001BB2002B0CDABB69DB003233104AA2FBA3
:1014100003235B0903F007037A6A13437B620BE043
:10142000BB691B0132330A4AA2FB03235B0903F0A9
:101430000F037A6A13437B627B6A9AB27B681A81D4
:1014400000BF2837BD4680BD001001400014014098
:101450001F85EB5180B483B000AF78600B46FB7002
:10146000FB78002B08D07B689B899BB243F4005328
:101470009AB27B689A8107E07B689B899BB223F4D0
:1014800000539AB27B689A8100BF0C37BD465DF865
:10149000047B704780B483B000AF78607B689B8822
:1014A0009BB2C3F308039BB218460C37BD465DF8E8
:1014B000047B704780B487B000AF78600B467B80B8
:1014C00013467B7000233B610023FB600023BB605D
:1014D00000237B617B687B617B88DBB25B09DBB2CD
:1014E0003B617B8803F01F03FB600122FB6802FA6B
:1014F00003F3BB603B69012B03D17B690C337B6138
:1015000009E03B69022B03D17B6910337B6102E068
:101510007B6914337B617B78002B06D07B6919686B
:101520007B69BA680A431A6006E07B691968BB6880
:10153000DA437B690A401A6000BF1C37BD465DF87C
:10154000047B704780B487B000AF78600B467B8027
:101550000023FB6000237B610023BB600023FB743E
:101560007B88DBB25B09DBB2BB607B8803F01F03C7
:101570007B6101227B6902FA03F37B61BB68012B6B
:1015800007D17B689B899BB21A467B6913407B61BC
:1015900011E0BB68022B07D17B681B8A9BB21A46FD
:1015A0007B6913407B6106E07B689B8A9BB21A468D
:1015B0007B6913407B617B881B0A9BB2FB60012225
:1015C000FB6802FA03F3FB607B681B889BB21A4638
:1015D000FB681340FB607B69002B05D0FB68002B88
:1015E00002D00123FB7401E00023FB74FB7C18464E
:1015F0001C37BD465DF8047B7047000080B582B0A3
:1016000000AF01212020FFF70FFE4FF400733B6075
:1016100001233B7102237B713B4619460C48FFF7BF
:101620002DFC4FF400710A48FFF7B7FC4FF48063BC
:101630003B603B4619460748FFF720FC4FF400711A
:101640000448FFF7AAFC00BF0837BD4680BD00BFB5
:10165000000402400010024080B500AF012107489D
:10166000FFF702FE0346012B02D1054804F002F801
:1016700001210248FFF722FE00BF80BD00040040A8
:101680008072000880B500AF01210748FFF7ECFD2C
:101690000346012B02D1054803F0ECFF012102486B
:1016A000FFF70CFE00BF80BD000C004094720008E4
:1016B00080B588B000AF01210120FFF7B5FD012101
:1016C0004FF40030FFF790FD0423BB6102237B77CA
:1016D00001233B7707F1180319461D48FFF7CEFB9E
:1016E0000823BB6100233B7707F11803194618480C
:1016F000FFF7C4FB26233B7104237B710323BB71DB
:101700000123FB713B1D1846FFF73AFB4FF4E13311
:10171000BB600023BB810023FB8100233B820023AD
:10172000BB820C237B8207F1080319460948FFF7A7
:10173000D7FD012240F225510648FFF7BBFE0121EB
:101740000448FFF787FE00BF2037BD4680BD00BFBD
:10175000000002400044004080B584B000AF7860D3
:101760007B68FB60FB681B7D43F00103DAB2FB681A
:101770001A75FFF79DFF0449002002F00FFE0023B9
:1017800018461037BD4680BDA872000880B582B0EB
:1017900000AF78600449002002F000FE00231846E4
:1017A0000837BD4680BD00BFD072000880B584B048
:1017B00000AFF860B9607A600449002002F0EEFDE5
:1017C000002318461037BD4680BD00BFF4720008E4
:1017D00080B584B000AFF860B9607A600449002039
:1017E00002F0DCFD002318461037BD4680BD00BF67
:1017F0001C73000880B500AF0349002002F0CEFD45
:101800000023184680BD00BF4473000880B500AFB8
:101810000549002002F0C2FD044A0021012002F027
:10182000D9FF00BF80BD00BF6C73000834000020EA
:1018300080B500AF0B48FFF78FFF0346002B02D0A7
:101840004FF0FF330BE0FFF7D5FF0346002B02D02C
:101850004FF0FF3303E0034802F058FF002318461F
:1018600080BD00BF3400002080B485B000AF786038
:1018700039600023FB600023BB600AE07A68BB6824
:1018800013441B781A46FB681344FB60BB680133A2
:10189000BB60BA683B689A42F0D3FB6818461437BD
:1018A000BD465DF8047B704780B584B000AF034649
:1018B0003960FB713B685B68FB603B685B781A468C
:1018C000FB681344FA791A703B681B78032B56D8CF
:1018D00001A252F823F000BFE91800080919000816
:1018E0002B190008531900083B6800225A70FB7935
:1018F0005A2B48D13B6801221A703B685B78013350
:10190000DAB23B685A703EE0FB79A52B09D13B68FF
:1019100002221A703B685B780133DAB23B685A7076
:1019200034E03B6800221A7030E0FB79012B0CD9BF
:10193000FB79402B09D83B6803221A703B685B781F
:101940000133DAB23B685A7020E03B6800221A701B
:101950001CE03B685B785A1CD1B23A6851701A4659
:101960003B685B689B7802339A420ED33B68002247
:101970001A70084A0021012002F02CFF05E03B68A4
:1019800000221A7002E000BF00E000BF00BF103765
:10199000BD4680BD3400002080B584B000AF034652
:1019A0003960FB713B685B68FB603B685B781A469B
:1019B000FB681344FA791A703B681B78022B27D016
:1019C000022B4DDC002B02D0012B10D048E03B68ED
:1019D00000225A70FB79662B46D13B6801221A70AF
:1019E0003B685B780133DAB23B685A703CE0FB79C4
:1019F000882B09D13B6802221A703B685B7801335F
:101A0000DAB23B685A7032E03B6800221A702EE06E
:101A10003B685B785A1CD1B23A6851701A463B68F1
:101A20005B685B890C339A4220D33B6800221A70B2
:101A30003B685B6803F108023B685B685B890C33B9
:101A400019461046FFF710FFB8603B685B685B689B
:101A5000BA689A420AD10849002002F09FFC05E0CA
:101A60003B6800221A7002E000BF00E000BF00BF28
:101A70001037BD4680BD00BF9C73000880B582B0A2
:101A800000AF40F225510C48FFF75CFD0346002BE8
:101A90000ED00948FFF7FEFC0346FB71FB790749AE
:101AA0001846FFF701FFFB7905491846FFF774FF59
:101AB00000BF0837BD4680BD004400401400002030
:101AC0001C00002080B584B000AF3B4600221A60A5
:101AD0005A609A60DA603B461846FFF7B7FA3A68F0
:101AE000024B1B689A421037BD4680BD00000020A3
:101AF00080B582B002AF4FF44070FFF72DF9FFF7C9
:101B0000E1FFA82002F0B8FE4FF4E13002F0DEFE63
:101B1000FFF774FD074B01930123009300238022FC
:101B20000549064800F098FF01F05AF900231846CD
:101B3000BD4680BDD4010020AC730008411B0008E5
:101B400080B582B000AF786003F0AEF802F066FEB8
:101B500002F0C2FA054B1B68184601F0B3F803F017
:101B6000D1F800BF0837BD4680BD00BFD4010020BA
:101B700080B400AF00BFBD465DF8047B704780B401
:101B800000AF00BFFDE780B400AF00BFFDE780B449
:101B900000AF00BFFDE780B400AF00BFFDE780B439
:101BA00000AF00BFBD465DF8047B704780B584B0D0
:101BB00000AF78607B689B681B78FB737B689B89B0
:101BC000BB81FA7BBB890449002002F0E7FB00BF20
:101BD0001037BD4680BD00BFB873000880B584B023
:101BE00000AF78607B68FB60FB681B78002B03D13B
:101BF000F868FFF7DBFF00E000BF00BF1037BD460D
:101C000080BD80B483B000AF786000BF0C37BD46A4
:101C10005DF8047B7047000080B58AB000AF786043
:101C20007B687B6207F1080100234FF0FF32786A7E
:101C300000F016FC786A00F01DFD034687F823309B
:101C400097F823301A460C49002002F0A7FB3B7A94
:101C5000012B05D807F108031846FFF7BFFFE1E79E
:101C60003B7A012BDED93B7A022BDBD807F1080344
:101C70001846FFF7C6FFD5E71874000880B582B094
:101C800000AF78600449002002F088FB002318466A
:101C90000837BD4680BD00BF4474000880B500AF62
:101CA000064B1B78064A0749184602F0EBF9034831
:101CB00002F076F90023184680BD00BF5C000020CA
:101CC000E4010020191C000880B584B000AF7860E2
:101CD0007B689B681B78FB737B689B89BB81FA7B65
:101CE000BB890449002002F059FB00BF1037BD46F4
:101CF00080BD00BF6474000880B582B000AF78601A
:101D00007B681B78012B03D17868FFF7DDFF00E0CB
:101D100000BF00BF0837BD4680BD000080B584B05D
:101D200000AF78607B68FB60FB685B685B68786825
:101D300098477B689B68BB600349002002F02EFB3C
:101D400000BF1037BD4680BD9474000880B584B0D4
:101D500000AF78607B68FB60FB681B78022B03D1C7
:101D6000F868FFF7DBFF00E000BF00BF1037BD469B
:101D700080BD000080B58AB000AF78607B687B6270
:101D800007F1080100234FF0FF32786A00F068FB8A
:101D9000786A00F06FFC034687F8233097F8233009
:101DA0001A460C49002002F0F9FA3B7A012B05D8BB
:101DB00007F108031846FFF79FFFE1E73B7A012B85
:101DC000DED93B7A022BDBD807F108031846FFF770
:101DD000BDFFD5E7BC74000880B582B000AF786065
:101DE0000449002002F0DAFA002318460837BD46FD
:101DF00080BD00BFE074000880B500AF064B1B78C3
:101E0000064A0749184602F03DF9034802F0C8F8AF
:101E10000023184680BD00BF84000020F40100208C
:101E2000751D000880B483B000AF78607B6803F153
:101E300008027B685A607B684FF0FF329A607B68CB
:101E400003F108027B68DA607B6803F108027B68B3
:101E50001A617B6800221A6000BF0C37BD465DF82E
:101E6000047B704780B483B000AF78607B68002249
:101E70001A6100BF0C37BD465DF8047B704780B423
:101E800085B000AF786039607B685B68FB603B6859
:101E9000FA685A60FB689A683B689A60FB689B68BE
:101EA0003A685A60FB683A689A603B687A681A61D7
:101EB0007B681B685A1C7B681A6000BF1437BD46DC
:101EC0005DF8047B704780B485B000AF78603960FE
:101ED0003B681B68BB60BB68B3F1FF3F03D17B6805
:101EE0001B69FB600CE07B680833FB6002E0FB6869
:101EF0005B68FB60FB685B681B68BA689A42F6D255
:101F0000FB685A683B685A603B685B683A689A604D
:101F10003B68FA689A60FB683A685A603B687A687E
:101F20001A617B681B685A1C7B681A6000BF1437F3
:101F3000BD465DF8047B704780B485B000AF786023
:101F40007B681B69FB607B685B687A6892689A6053
:101F50007B689B687A6852685A60FB685B687A683D
:101F60009A4203D17B689A68FB685A607B680022BA
:101F70001A61FB681B685A1EFB681A60FB681B68C5
:101F800018461437BD465DF8047B704780B584B0B1
:101F900000AF786039607B68FB60FB68002B05D17F
:101FA00040F21B122A492B4803F0FCFA02F07CFE97
:101FB000FB681A68FB68DB6BF968096C01FB03F3CB
:101FC0001A44FB685A60FB6800229A63FB681A682F
:101FD000FB689A60FB681A68FB68DB6B013BF96879
:101FE000096C01FB03F31A44FB68DA60FB68FF220B
:101FF00083F84420FB68FF2283F845203B68002BD0
:1020000014D1FB681B69002B1AD0FB6810331846EB
:1020100001F04EF90346002B12D00F4B4FF08052C7
:102020001A60BFF34F8FBFF36F8F09E0FB68103367
:102030001846FFF7F7FEFB6824331846FFF7F2FE59
:1020400002F060FE012318461037BD4680BD00BF78
:10205000F87400080C75000804ED00E080B58AB043
:1020600002AFF860B9601346FB71FB68002B05D125
:102070004FF4C4721449154803F094FABB68002B5E
:1020800002D10023FB6104E0FB68BA6802FB03F3A2
:10209000FB61FB695433184602F018FFB861BB6955
:1020A000002B0BD0BB6954337B61FA79BB69009379
:1020B00013467A69B968F86800F00AF8BB691846EF
:1020C0002037BD4680BD00BFF87400080C750008BD
:1020D00080B584B000AFF860B9607A60FB70BB680F
:1020E000002B03D1BB69BA691A6002E0BB697A6848
:1020F0001A60BB69FA68DA63BB69BA681A640121BD
:10210000B869FFF743FFBB69FA7883F85020BB69D1
:1021100000229A6400BF1037BD4680BD80B58AB0EA
:1021200000AFF860B9607A603B6000237B62FB68B7
:102130003B623B6A002B05D140F2D92275497648B3
:1021400003F030FABB68002B03D13B6A1B6C002BF9
:1021500001D1012300E00023002B05D140F2DA2257
:102160006C496D4803F01EFA3B68022B03D13B6AB1
:10217000DB6B012B01D1012300E00023002B05D1F3
:1021800040F2DB226349644803F00CFA01F044FAA0
:102190000346002B02D17B68002B01D1012300E014
:1021A0000023002B05D140F2DE225A495A4803F0A1
:1021B000F9F902F079FD3B6A9A6B3B6ADB6B9A4254
:1021C00002D33B68022B3DD13A68B968386A00F007
:1021D00073FAF8613B6A9B6C002B0FD03968386A40
:1021E00000F0E6FB0346002B28D04C4B4FF080520A
:1021F0001A60BFF34F8FBFF36F8F1FE03B6A5B6ABC
:10220000002B10D03B6A2433184601F051F80346E6
:10221000002B13D0414B4FF080521A60BFF34F8F09
:10222000BFF36F8F0AE0FB69002B07D03B4B4FF0E9
:1022300080521A60BFF34F8FBFF36F8F02F062FDC1
:10224000012363E07B68002B03D102F05BFD0023D8
:102250005CE07B6A002B06D107F11403184601F0FD
:1022600089F801237B6202F04DFD00F005FE02F0CB
:102270001BFD3B6A93F844305BB2B3F1FF3F03D1DF
:102280003B6A002283F844203B6A93F845305BB2F6
:10229000B3F1FF3F03D13B6A002283F8452002F0EF
:1022A00031FD3A1D07F114031146184601F084F878
:1022B0000346002B24D1386A00F004FB0346002BB0
:1022C00018D03B6A10337A681146184600F0A2FF16
:1022D000386A00F081FA00F0DDFD0346002B7FF440
:1022E00068AF0E4B4FF080521A60BFF34F8FBFF3B1
:1022F0006F8F5EE7386A00F06FFA00F0CBFD58E7A9
:10230000386A00F069FA00F0C5FD00231846283746
:10231000BD4680BDF87400080C75000804ED00E0AF
:1023200080B58CB000AFF860B9607A603B60FB6844
:10233000BB62BB6A002B05D140F29F324649474839
:1023400003F030F9BB68002B03D1BB6A1B6C002B78
:1023500001D1012300E00023002B05D14FF4687266
:102360003D493E4803F01EF93B68022B03D1BB6A8E
:10237000DB6B012B01D1012300E00023002B05D1F1
:1023800040F2A1323449354803F00CF902F066FD01
:10239000EFF311824FF0500383F31188BFF36F8F77
:1023A000BFF34F8FFA61BB61FB697B62BB6A9A6BBB
:1023B000BB6ADB6B9A4202D33B68022B3ED1BB6AFD
:1023C00093F8453087F823303A68B968B86A00F066
:1023D00073F997F92330B3F1FF3F24D1BB6A9B6CAB
:1023E000002B0DD03968B86A00F0E2FA0346002BE2
:1023F00021D07B68002B1ED07B6801221A601AE076
:10240000BB6A5B6A002B16D0BB6A2433184600F007
:102410004FFF0346002B0ED07B68002B0BD07B6850
:1024200001221A6007E097F823300133DBB25AB279
:10243000BB6A83F845200123FB6201E00023FB62B5
:102440007B6A7B617B6983F3118800BFFB6A184656
:102450003037BD4680BD00BFF87400080C75000819
:1024600080B58AB000AFF860B9607A603B60002345
:102470007B62FB683B623B6A002B05D140F2DC4289
:1024800079497A4803F08EF8BB68002B03D13B6A88
:102490001B6C002B01D1012300E00023002B05D190
:1024A00040F2DD427049714803F07CF801F0B4F865
:1024B0000346002B02D17B68002B01D1012300E0F1
:1024C0000023002B05D14FF49C626749674803F055
:1024D00069F802F0E9FB3B6A9B6BFB61FB69002B2F
:1024E00046D03B6ADB68BB61B968386A00F04EF9D8
:1024F0003B68002B21D1FB695A1E3B6A9A633B6AF9
:102500001B68002B04D101F09BF902463B6A5A601C
:102510003B6A1B69002B27D03B6A1033184600F03A
:10252000C7FE0346002B1FD0514B4FF080521A605C
:10253000BFF34F8FBFF36F8F16E03B6ABA69DA6063
:102540003B6A5B6A002B0FD03B6A2433184600F0CD
:10255000AFFE0346002B07D0454B4FF080521A6068
:10256000BFF34F8FBFF36F8F02F0CCFB012377E0F7
:102570007B68002B03D102F0C5FB002370E07B6A6F
:10258000002B06D107F11003184600F0F3FE0123DB
:102590007B6202F0B7FB00F06FFC02F085FB3B6A48
:1025A00093F844305BB2B3F1FF3F03D13B6A0022A2
:1025B00083F844203B6A93F845305BB2B3F1FF3FA8
:1025C00003D13B6A002283F8452002F09BFB3A1DB1
:1025D00007F110031146184600F0EEFE0346002BEB
:1025E00031D1386A00F058F90346002B25D03B6AF8
:1025F0001B68002B08D102F057FB3B6A5B6818464A
:1026000001F028F802F07EFB3B6A24337A68114619
:10261000184600F0FFFD386A00F0DEF800F03AFCE2
:102620000346002B7FF455AF114B4FF080521A60D8
:10263000BFF34F8FBFF36F8F4BE7386A00F0CCF8D2
:1026400000F028FC45E7386A00F0C6F800F022FCEC
:10265000386A00F021F90346002B3FF43AAF00231B
:1026600018462837BD4680BDF87400080C75000870
:1026700004ED00E080B584B000AF78607B68FB605B
:10268000FB68002B05D140F241620949094802F07C
:1026900089FF02F009FBFB68DA6BFB689B6BD31ABE
:1026A000BB6002F02FFBBB6818461037BD4680BDEB
:1026B000F87400080C75000880B586B000AFF860AB
:1026C000B9607A6000237B61FB689B6B3B61FB68B0
:1026D0001B6C002B0DD1FB681B68002B4DD1FB68D8
:1026E0005B68184601F02CF87861FB6800225A609C
:1026F00043E07B68002B19D1FB689868FB681B6C72
:102700001A46B96803F0FDF8FB689A68FB681B6C11
:102710001A44FB689A60FB689A68FB685B689A4297
:102720002BD3FB681A68FB689A6026E0FB68D868C0
:10273000FB681B6C1A46B96803F0E3F8FB68DA68BB
:10274000FB681B6C5B421A44FB68DA60FB68DA6862
:10275000FB681B689A4207D2FB685A68FB681B6CCF
:102760005B421A44FB68DA607B68022B05D13B6947
:10277000002B02D03B69013B3B613B695A1CFB6863
:102780009A637B6918461837BD4680BD80B582B014
:1027900000AF786039607B681B6C002B18D07B68B9
:1027A000DA687B681B6C1A447B68DA607B68DA68DD
:1027B0007B685B689A4203D37B681A687B68DA603F
:1027C0007B68D9687B681B6C1A46386803F099F8F7
:1027D00000BF0837BD4680BD80B584B000AF7860CB
:1027E00002F062FA7B6893F84530FB731FE07B6868
:1027F0009B6C002B09D00021786800F0D9F80346C3
:10280000002B10D000F032FE0DE07B685B6A002BDD
:1028100012D07B682433184600F04AFD0346002B93
:1028200001D000F023FEFB7B013BDBB2FB7397F989
:102830000F30002BDBDC00E000BF7B68FF2283F859
:10284000452002F05FFA02F02FFA7B6893F84430DB
:10285000BB7311E07B681B69002B12D07B681033BF
:10286000184600F025FD0346002B01D000F0FEFDC8
:10287000BB7B013BDBB2BB7397F90E30002BE9DC6D
:1028800000E000BF7B68FF2283F8442002F03AFAA0
:1028900000BF1037BD4680BD80B584B000AF786002
:1028A00002F002FA7B689B6B002B02D10123FB60D4
:1028B00001E00023FB6002F025FAFB6818461037A0
:1028C000BD4680BD80B584B000AF786002F0ECF901
:1028D0007B689A6B7B68DB6B9A4202D10123FB60B9
:1028E00001E00023FB6002F00DFAFB681846103788
:1028F000BD4680BD80B485B000AF786039600023EC
:10290000FB6014E00F4AFB6852F83330002B0BD108
:102910000C49FB683A6841F833200A4AFB68DB003F
:1029200013447A685A6006E0FB680133FB60FB6879
:10293000072BE7D900BF00BF1437BD465DF8047B05
:10294000704700BFF801002080B586B000AFF86086
:10295000B9607A60FB687B6102F0A6F97B6993F845
:1029600044305BB2B3F1FF3F03D17B69002283F8AF
:1029700044207B6993F845305BB2B3F1FF3F03D14C
:102980007B69002283F8452002F0BCF97B699B6BD0
:10299000002B06D17B6924337A68B968184600F0A9
:1029A0005DFC7869FFF718FF00BF1837BD4680BD92
:1029B00080B586B000AF786039607B689B6C3B6106
:1029C00000237B613B69002B05D140F6CE122049E4
:1029D000204802F0E7FD3B699A6B3B69DB6B9A424A
:1029E00005D340F6CF121A491A4802F0DBFD3B69C5
:1029F0009A6B3B69DB6B9A4225D23B6993F8453071
:102A0000FB733B1D3A6819463869FFF755FE78613C
:102A100097F90F30B3F1FF3F0ED13B695B6A002B92
:102A200011D03B692433184600F042FC0346002BCA
:102A300009D001237B6106E0FB7B0133DBB25AB294
:102A40003B6983F845207B6918461837BD4680BD31
:102A5000F87400080C75000880B58CB004AFF860FD
:102A6000B9603B601346FB80FB889B00184602F070
:102A70002DFA78617B69002B0ED05C2002F026FADB
:102A8000F861FB69002B03D0FB697A691A6305E0E2
:102A9000786902F0D3FA01E00023FB61FB69002BA7
:102AA00013D0FA8800230393FB690293FB6A019316
:102AB000BB6A00933B68B968F86800F00FF8F869E2
:102AC00000F092F80123BB6102E04FF0FF33BB61DD
:102AD000BB6918462037BD4680BD000080B586B072
:102AE00000AFF860B9607A603B60BB6A186B7B68C6
:102AF0009B001A46A52102F09DFEBB6A1A6B7B68FB
:102B000003F18043013B9B0013443B613B6923F08D
:102B100007033B613B6903F00703002B05D040F23C
:102B20002B322F492F4802F03DFD00237B6112E03C
:102B3000BA687B6913441978BA6A7B6913443433E1
:102B40000A461A70BA687B6913441B78002B06D0BA
:102B50007B6901337B617B690F2BE9D900E000BF02
:102B6000BB6A002283F843203B6A1F2B01D91F2335
:102B70003B62BB6A3A6ADA62BB6A3A6ADA64BB6A87
:102B800000221A65BB6A04331846FFF76BF9BB6A6B
:102B900018331846FFF766F9BB6ABA6A1A613B6ACE
:102BA000C3F12002BB6A9A61BB6ABA6A5A62BB6A05
:102BB00000225A65BB6A002283F858203A68F968F7
:102BC000386901F045FF0246BB6A1A607B6A002B38
:102BD00002D07B6ABA6A1A6000BF1837BD4680BD52
:102BE0001C7500083075000880B582B000AF7860B1
:102BF00002F05AF82C4B1B6801332B4A13602B4B05
:102C00001B68002B09D1294A7B681360264B1B687F
:102C1000012B10D100F04EFC0DE0254B1B68002B62
:102C200009D1224B1B68DA6A7B68DB6A9A4202D8B8
:102C30001E4A7B6813601F4B1B6801331D4A1360DB
:102C40001C4B1A687B685A647B68DB6A01229A40D5
:102C5000194B1B681343184A13607B68DA6A1346E2
:102C60009B0013449B00154A1A447B6804331946A1
:102C70001046FFF704F902F045F80D4B1B68002BD6
:102C80000ED00A4B1B68DA6A7B68DB6A9A4207D26D
:102C90000B4B4FF080521A60BFF34F8FBFF36F8F13
:102CA00000BF0837BD4680BD2C050020380200203B
:102CB0003805002048050020340500203C02002093
:102CC00004ED00E080B584B000AF786001F0ECFF67
:102CD0007B68002B02D1364B1B6800E07B68FB60F1
:102CE000FB6804331846FFF727F90346002B15D17C
:102CF000FB68DA6A2F4913469B0013449B000B4480
:102D00001B68002B0AD1FB68DB6A012202FA03F37D
:102D1000DA43294B1B681340274A1360FB689B6A00
:102D2000002B04D0FB6818331846FFF705F9234B36
:102D30001B680133214A13601D4B1B68FA689A42D5
:102D40000BD1FB68043319461D48FFF798F81D4B5B
:102D50001B6801331B4A136009E01B4B1B68013BD6
:102D6000194A1360F86800F021FC00F02FFC01F014
:102D7000C9FF164B1B68002B16D00D4B1B68FA6859
:102D80009A4211D1124B1B68002B05D040F26542CC
:102D90001049114802F006FC104B4FF080521A60A7
:102DA000BFF34F8FBFF36F8F00BF1037BD4680BD9D
:102DB000380200203C020020340500204805002095
:102DC00000050020140500202C05002038050020F7
:102DD000540500201C7500083075000804ED00E063
:102DE00080B584B002AF1C4B0193002300930023F5
:102DF00082221A491A48FFF72FFE78607B68012B60
:102E000002D100F097FD78607B68012B16D14FF05E
:102E1000500383F31188BFF36F8FBFF34F8F3B6075
:102E200000BF104B4FF0FF321A600F4B01221A60A7
:102E30000E4B00221A6001F095FE09E07B68B3F1A9
:102E4000FF3F05D140F2847209490A4802F0AAFB0B
:102E500000BF0837BD4680BD500500204075000802
:102E6000853400084C05002038050020300500207E
:102E70001C7500083075000880B400AF044B1B6857
:102E80000133034A136000BFBD465DF8047B704701
:102E90005405002080B584B000AF0023FB60002300
:102EA000BB603F4B1B68002B05D14FF4FD623D49D1
:102EB0003D4802F077FB01F0F7FE394B1B68013B00
:102EC000374A1360364B1B68002B61D1374B1B68A8
:102ED000002B5DD02EE0364BDB68DB68FB60FB68C7
:102EE00018331846FFF728F8FB6804331846FFF735
:102EF00023F8FB68DB6A01229A402E4B1B681343C0
:102F00002C4A1360FB68DA6A13469B0013449B004B
:102F1000294A1A44FB68043319461046FEF7AFFFEE
:102F2000FB68DA6A254B1B68DB6A9A4202D3244BA2
:102F300001221A601E4B1B68002BCCD1FB68002BB2
:102F400001D000F043FB1F4B1B687B607B68002BAC
:102F500010D000F04BF80346002B02D0184B012292
:102F60001A607B68013B7B607B68002BF1D1154BBD
:102F700000221A60124B1B68002B09D00123BB6092
:102F8000114B4FF080521A60BFF34F8FBFF36F8F1A
:102F900001F0B8FEBB6818461037BD4680BD00BFC3
:102FA000540500201C750008307500082C05002011
:102FB000EC040020340500203C02002038020020F0
:102FC000400500203C05002004ED00E080B483B003
:102FD00000AF054B1B687B607B6818460C37BD460D
:102FE0005DF8047B704700BF3005002080B586B0D7
:102FF00000AF00237B614E4B1B68002B40F08880A4
:103000004C4B1B6801333B614A4A3B6913603B6987
:10301000002B1BD1484B1B681B68002B05D040F6CA
:10302000D9124649464802F0BDFA434B1B68FB6083
:10303000444B1B68404A1360424AFB681360424B92
:103040001B680133404A136000F0C0FA3F4B1B6815
:103050003A699A424DD3384B1B681B68002B01D14B
:10306000012300E00023002B04D0384B4FF0FF3247
:103070001A603EE0304B1B68DB68DB68BB60BB68F6
:103080005B687B603A697B689A4203D22F4A7B680F
:1030900013602EE0BB6804331846FEF74DFFBB6893
:1030A0009B6A002B04D0BB6818331846FEF744FF18
:1030B000BB68DB6A01229A40254B1B681343244AF4
:1030C0001360BB68DA6A13469B0013449B00214AD5
:1030D0001A44BB68043319461046FEF7D0FEBB689D
:1030E000DA6A1D4B1B68DB6A9A42B4D301237B6109
:1030F000B1E7194B1B68DA6A164913469B00134463
:103100009B000B441B68012B07D901237B6104E062
:10311000124B1B680133114A1360114B1B68002BC3
:1031200001D001237B617B6918461837BD4680BDFD
:103130005405002030050020E40400201C75000820
:1031400030750008E8040020440500204C050020EC
:10315000340500203C020020380200203C050020FD
:103160004005002080B584B000AF234B1B68002BC6
:1031700003D0224B01221A603AE0204B00221A6051
:103180001F4B1B687B607B68B3FA83F3FB70FB7893
:10319000C3F11F03FB601B49FA6813469B001344ED
:1031A0009B000B441B68002B05D140F6F622164904
:1031B000164802F0F7F9FA6813469B0013449B0087
:1031C000104A1344BB60BB685B685A68BB685A60AE
:1031D000BB685A68BB6808339A4204D1BB685B6815
:1031E0005A68BB685A60BB685B68DB68084A136052
:1031F00000BF1037BD4680BD5405002040050020AB
:10320000340500203C0200201C75000830750008C1
:103210003802002080B582B000AF786039607B68EA
:10322000002B05D140F6063209490A4802F0BAF9E6
:10323000094B1B68183319467868FEF744FE0121D4
:10324000386800F011FB00BF0837BD4680BD00BFE5
:103250001C750008307500083802002080B584B065
:1032600000AFF860B9607A60FB68002B05D140F6CA
:1032700031320C490C4802F095F90C4B1B6818339D
:103280001946F868FEF7FBFD7B68002B02D04FF073
:10329000FF33BB607968B86800F0E6FA00BF10370A
:1032A000BD4680BD1C75000830750008380200203E
:1032B00080B584B000AF78607B68DB68DB68BB609A
:1032C000BB68002B05D140F661322249224802F04A
:1032D00069F9BB6818331846FEF72EFE1F4B1B68B2
:1032E000002B1CD1BB6804331846FEF725FEBB68D3
:1032F000DB6A01229A401A4B1B681343184A136079
:10330000BB68DA6A13469B0013449B00154A1A44B3
:10331000BB68043319461046FEF7B1FD05E0BB68F3
:10332000183319461048FEF7AAFDBB68DA6A0F4B3E
:103330001B68DB6A9A4205D90123FB600C4B012212
:103340001A6001E00023FB60FB6818461037BD4699
:1033500080BD00BF1C7500083075000854050020B2
:10336000340500203C020020EC040020380200203C
:103370004005002080B582B000AF78607B68002BEC
:1033800005D140F6C1320849084802F00BF9084B54
:103390001A687B681A60074B1A687B685A6000BF1E
:1033A0000837BD4680BD00BF1C7500083075000899
:1033B000440500203005002080B584B000AF78605F
:1033C00039607B68002B05D140F6CB322349244875
:1033D00002F0E8F83B68002B05D140F6CC321F49DB
:1033E0001F4802F0DFF801F05FFC1E4B1B68BB605A
:1033F0003B681B68B3F1FF3F02D10023FB6026E06E
:103400007B681A68184B1B689A4207D07B685B6818
:10341000BA689A4202D30123FB6018E07B685B68BC
:10342000BA68D21A3B681B689A420ED23B681A6887
:103430007B685968BB68CB1A1A443B681A60786885
:10344000FFF798FF0023FB6001E00123FB6001F020
:1034500059FCFB6818461037BD4680BD1C75000836
:1034600030750008300500204405002080B400AF0E
:10347000034B01221A6000BFBD465DF8047B704714
:103480004005002080B582B000AF786000F052F8AF
:10349000064B1B68012BF9D9054B4FF080521A607F
:1034A000BFF34F8FBFF36F8FF0E700BF3C020020E8
:1034B00004ED00E080B582B000AF00237B600CE03B
:1034C0007A6813469B0013449B00124A1344184623
:1034D000FEF7A8FC7B6801337B607B681F2BEFD96C
:1034E0000D48FEF79FFC0D48FEF79CFC0C48FEF7CC
:1034F00099FC0C48FEF796FC0B48FEF793FC0B4B2F
:10350000054A1A600A4B054A1A6000BF0837BD46D3
:1035100080BD00BF3C020020BC040020D00400207D
:10352000EC0400200005002018050020E404002021
:10353000E804002080B582B000AF28E0FFF79CFCD3
:10354000174B1B68002B0CBF01230023DBB27B60F1
:10355000FFF7A0FC7B68002B19D101F0A5FB104BF5
:10356000DB68DB683B603B6804331846FEF7E4FC2D
:103570000C4B1B68013B0B4A13600B4B1B68013B58
:10358000094A136001F0BEFB386800F00FF8064BE3
:103590001B68002BD2D100BF00BF0837BD4680BDDD
:1035A000000500202C0500201405002080B582B005
:1035B00000AF78607B681B6B184601F03FFD7868B0
:1035C00001F03CFD00BF0837BD4680BD80B483B02C
:1035D00000AF0F4B1B681B68002B01D1012300E0DB
:1035E0000023002B04D00B4B4FF0FF321A6008E091
:1035F000074B1B68DB68DB687B607B685B68054AA0
:10360000136000BF0C37BD465DF8047B704700BFF8
:10361000E40400204C05002080B483B000AF0B4BC5
:103620001B68002B02D101237B6008E0084B1B685C
:10363000002B02D102237B6001E000237B607B68CA
:1036400018460C37BD465DF8047B704738050020EE
:103650005405002080B584B000AF78607B68FB60C3
:103660007B68002B62D0FB68DA6A324B1B68DB6A2E
:103670009A425BD2FB689B69002B06DB2D4B1B68D3
:10368000DB6AC3F12002FB689A61FB685969FB6839
:10369000DA6A13469B0013449B00274A134499425D
:1036A00001D1012300E00023002B3AD0FB68043352
:1036B0001846FEF741FC0346002B15D1FB68DA6A79
:1036C0001D4913469B0013449B000B441B68002BB1
:1036D0000AD1FB68DB6A012202FA03F3DA43174BD3
:1036E0001B681340154A1360124B1B68DA6AFB68AB
:1036F000DA62FB68DB6A01229A40104B1B681343B5
:103700000E4A1360FB68DA6A13469B0013449B0061
:10371000094A1A44FB68043319461046FEF7AFFB0A
:1037200004E0044B1B68DA6AFB68DA6200BF1037FA
:10373000BD4680BD380200203C0200203405002038
:1037400080B584B000AF78607B68BB600023FB600D
:103750007B68002B64D0354B1B68BA689A4205D051
:1037600040F6C7623249334801F01CFFBB681B6D4D
:10377000002B05D140F6C9622D492E4801F012FFF9
:10378000BB681B6D5A1EBB681A65BB68DA6ABB68EA
:10379000DB6C9A4244D0BB681B6D002B40D1BB68E8
:1037A00004331846FEF7C8FB0346002B15D1BB684F
:1037B000DA6A214913469B0013449B000B441B68A3
:1037C000002B0AD1BB68DB6A012202FA03F3DA4359
:1037D0001A4B1B681340194A1360BB68DA6CBB684C
:1037E000DA62BB68DB6AC3F12002BB689A61BB681E
:1037F000DB6A01229A40114B1B6813430F4A136086
:10380000BB68DA6A13469B0013449B000A4A1A44B9
:10381000BB68043319461046FEF731FB0123FB60F9
:10382000FB6818461037BD4680BD00BF3802002037
:103830001C750008307500083C020020340500208B
:1038400080B400AF074B1B68002B04D0054B1B68EE
:103850001A6D01321A65034B1B681846BD465DF8A8
:10386000047B70473802002080B584B000AF7860D8
:103870003960294B1B68FB60284B1B6804331846D2
:10388000FEF75AFB0346002B0BD1244B1B68DB6A67
:10389000012202FA03F3DA43214B1B681340204A4A
:1038A00013607B68B3F1FF3F0AD13B68002B07D060
:1038B0001A4B1B68043319461A48FEF7E0FA26E053
:1038C000FA687B681344BB60144B1B68BA685A6083
:1038D000BA68FB689A4209D2134B1A680F4B1B68EF
:1038E000043319461046FEF7EEFA10E00F4B1A6843
:1038F0000A4B1B68043319461046FEF7E4FA0C4BDA
:103900001B68BA689A4202D2094ABB68136000BFBA
:103910001037BD4680BD00BF3005002038020020B2
:103920003405002018050020E8040020E4040020ED
:103930004C05002080B584B002AF00237B6000F00E
:10394000F9FA0F4B1B68002B0BD00E4B01931F2372
:10395000009300234FF482720B490C48FFF77CF868
:1039600078607B68002B05D140F233120849094882
:1039700001F018FE7B6818460837BD4680BD00BFC1
:10398000880500208C05002058750008513B000870
:10399000607500087475000880B588B002AFF860E3
:1039A000B9607A603B602C2001F090FA78617B6905
:1039B000002B09D07B6901933B6A00933B687A68CE
:1039C000B968F86800F006F87B6918461837BD46F4
:1039D00080BD000080B584B000AFF860B9607A6047
:1039E0003B60BB68002B05D14FF4C67210491148EB
:1039F00001F0D8FDFB69002B15D000F09BFAFB69A4
:103A0000FA681A60FB69BA689A61FB697A68DA61D8
:103A1000FB693A681A62FB69BA695A62FB69043346
:103A20001846FEF71FFA00BF1037BD4680BD00BF25
:103A3000607500087475000880B58AB000AFF86042
:103A4000B9607A603B6000237B62FB68002B05D184
:103A50004FF4D3721B491C4801F0A4FD1B4B1B689B
:103A6000002B2AD0BB687B617B68BB61FB68FB6174
:103A7000BB68052B18DCFFF7CFFD0346022B09D1ED
:103A8000124B186807F1140100233A6BFEF746FB4E
:103A9000786212E00D4B186807F114010023002230
:103AA000FEF73CFB786208E0084B186807F1140148
:103AB00000233A68FEF734FC78627B6A18462837A0
:103AC000BD4680BD6075000874750008880500203B
:103AD00080B586B002AF786039601A4B1B68DB682E
:103AE000DB68FB60FB6804331846FEF725FAFB68C9
:103AF000DB69012B1DD1FB689A697B68D1187B6853
:103B00003A68F86800F0CAF80346002B11D0002389
:103B1000009300237A680021F868FFF78DFFB860F2
:103B2000BB68002B05D14FF402720749074801F02A
:103B300039FDFB685B6AF868984700BF1037BD46DF
:103B400080BD00BF80050020607500087475000806
:103B500080B584B000AF786007F10803184600F024
:103B600059F8F860BB681946F86800F005F800F0ED
:103B7000D7F800BFF0E7000080B584B000AF7860F0
:103B80003960FFF779F907F10803184600F066F885
:103B9000F860BB68002B30D13B68002B0AD17A68F3
:103BA000FB689A4206D8FFF775F9F9687868FFF75D
:103BB0008FFF24E03B68002B08D0134B1B681B6869
:103BC000002B0CBF01230023DBB23B600F4B1868B6
:103BD0007A68FB68D31A3A681946FEF7B5FEFFF714
:103BE00059F90346002B0AD1094B4FF080521A6055
:103BF000BFF34F8FBFF36F8F01E0FFF74BF900BFAB
:103C00001037BD4680BD00BF840500208805002018
:103C100004ED00E080B485B000AF78600E4B1B6807
:103C20001B68002B0CBF01230023DBB21A467B6804
:103C30001A607B681B68002B05D1074B1B68DB688B
:103C40001B68FB6001E00023FB60FB68184614372B
:103C5000BD465DF8047B70478005002080B584B0C8
:103C600000AF7860FFF7B2F9F8600B4B1B68FA6899
:103C70009A4205D200F0FEF87B6801221A6002E049
:103C80007B6800221A60044AFB681360FB681846D0
:103C90001037BD4680BD00BF9005002080B586B0BE
:103CA00000AFF860B9607A603B6000237B61FB681D
:103CB000BA685A60FB68FA681A61BA687B689A4207
:103CC00012D87A683B68D21AFB689B699A4202D381
:103CD00001237B611BE0104B1A68FB680433194613
:103CE0001046FEF7F0F812E07A683B689A4206D276
:103CF000BA683B689A4202D301237B6107E0074B15
:103D00001A68FB68043319461046FEF7DCF87B6935
:103D100018461837BD4680BD840500208005002068
:103D200080B58CB002AF8DE0BB68002B14DA07F1D0
:103D3000080304337B627B6A002B05D140F2E72243
:103D400049494A4801F02EFC7B6A1B687A6A506830
:103D50007A6A926811469847BB68002B72DB3B6910
:103D60003B623B6A5B69002B04D03B6A0433184614
:103D7000FEF7E2F83B1D1846FFF770FFF861BB68DD
:103D8000092B5CD801A252F823F000BFB53D000812
:103D9000B53D0008B53D00083F3E0008093E00085B
:103DA000373E0008B53D0008B53D00083F3E00081D
:103DB000093E0008FA683B6A9B69D118FB68FA69FA
:103DC000386AFFF76BFF0346002B3AD03B6A5B6A09
:103DD000386A98473B6ADB69012B32D1FA683B6A43
:103DE0009B691A440023009300230021386AFFF7DF
:103DF00023FEB861BB69002B23D140F221321A495E
:103E00001A4801F0CFFB1CE0FA683B6A9A613B6AF2
:103E10009B69002B05D14FF44E721349134801F0F2
:103E2000C1FB3B6A9A69FB69D118FB69FA69386A78
:103E3000FFF734FF06E0386A01F000F902E000BF46
:103E400000E000BF0A4B186807F1080100230022B8
:103E5000FEF706FB0346002B7FF466AF00BF00BFF2
:103E60002837BD4680BD00BF607500087475000826
:103E70008805002080B588B002AF40E0294B1B6860
:103E8000DB681B683B61274B1B68DB68DB68FB60FA
:103E9000FB6804331846FEF74FF8FB685B6AF86866
:103EA0009847FB68DB69012B29D1FB689B693A695C
:103EB0001344BB60BA683B699A420ED9FB68BA6882
:103EC0005A60FB68FA681A61164B1A68FB6804337B
:103ED00019461046FDF7F7FF11E000230093002379
:103EE0003A690021F868FFF7A7FD78607B68002B2E
:103EF00005D140F292320C490C4801F053FB094BBA
:103F00001B681B68002BB9D1064B1B687B61084BF3
:103F10001B68044A1360064A7B69136000BF1837A8
:103F2000BD4680BD800500206075000874750008DE
:103F30008405002080B500AF00F0B6FE124B1B6870
:103F4000002B1DD11148FDF76DFF1148FDF76AFFE9
:103F5000104B0E4A1A60104B0D4A1A6000221021B5
:103F60000520FEF77BF80346074A1360064B1B68E3
:103F7000002B05D0044B1B6808491846FEF7BAFC15
:103F800000F0C0FE00BF80BD88050020580500205D
:103F90006C05002080050020840500208475000841
:103FA00080B483B000AF78607B68002B07D07B685B
:103FB0001B781946054A7B6842F8213000E000BFB3
:103FC0000C37BD465DF8047B704700BF94050020A8
:103FD00080B582B000AF0023FB710EE0FB790B4A85
:103FE00052F823305B681B68FA79084951F822209F
:103FF00010469847FB790133FB71FB79012BEDD912
:1040000000BF00BF0837BD4680BD00BF940500203B
:1040100080B582B000AF00233B600023FB7126E037
:10402000FA7917491346DB0013449B000B441C33F9
:104030001868FA7912491346DB0013449B000B44BD
:1040400020331B6800221946FEF708F838603B68E9
:10405000002B09D0FA790A491346DB0013449B0070
:104060000B4410333A681A60FB790133FB71FB791A
:10407000012BD5D9002318460837BD4680BD00BFA7
:104080009C00002080B485B000AF0346B9607A6020
:10409000FB73FB7B012B02D94FF0FF3314E0FA7B5B
:1040A0000C491346DB0013449B000B440433BA68ED
:1040B0001A60FA7B07491346DB0013449B000B444C
:1040C00018337A681A60002318461437BD465DF825
:1040D000047B70479C000020F0B587B002AF01233D
:1040E000BB60FFF795FF0023FB734BE0FA7B294988
:1040F0001346DB0013449B000B4404331868FA7B1F
:1041000024491346DB0013449B000B4408331C680E
:10411000FA7B20491346DB0013449B000B440C330D
:104120001D88FA7B1B491346DB0013449B000B449C
:1041300010331E68FA7B17491346DB0013449B00BB
:104140000B4414331968FA7B124B7B601346DB0077
:1041500013449B007A68134418331B680193009141
:1041600033462A462146FEF777FCB860BB68012B30
:1041700005D0FB7B1A460849002000F00FF9FB7BB5
:104180000133FB73FB7B012BB0D900231846143796
:10419000BD46F0BD9C000020A075000880B584B02D
:1041A00000AF03463A60FB710B46BB71BB79012B34
:1041B00002D94FF0FF3324E0BA7914491346DB00EB
:1041C00013449B000B4410331B68BB600123FB604E
:1041D000FB79012B07D1002300223968B868FEF76C
:1041E0009FF8F86006E0002300223968B868FDF700
:1041F00095FFF860FB68012B02D04FF0FF3300E021
:10420000002318461037BD4680BD00BF9C0000202B
:1042100090B58BB000AFF860B9603B601346FB719E
:10422000A9E097F90730002BC0F2AB80FB681B7840
:10423000252B40F09480FB680133FB60FB681B7802
:10424000732B65D0732B00F38180632B02D0642B1A
:104250000DD07BE03B681A1D3A601A68FB79591C47
:10426000F9711946BB680B44D2B21A7080E03B6802
:104270001A1D3A601B687B627B6A3B620023BB7736
:104280000AE0BB7F0133BB777B6A434A82FB0312A0
:104290009210DB17D31A7B627B6A002BF1D10023CB
:1042A000FB7730E0BA7FFB7FD31A013B1846FCF75F
:1042B00019F902460B4643EC112B9FED350B01F02B
:1042C00087FF53EC102B10461946FCF725FC0346DC
:1042D0007B613A6A7B6992FBF3F3DAB2FB79591C92
:1042E000F9711946BB680B443032D2B21A703B6A7E
:1042F0007A6993FBF2F2796901FB02F29B1A3B6245
:10430000FB7F0133FB77FA7FBB7F9A42CAD32FE052
:104310003B681A1D3A601B68BB610023FB770DE008
:10432000FB7FBA691A44FB79591CF9711946BB68BD
:104330000B4412781A70FB7F0133FB77FC7FB8695E
:10434000FBF726FF03469C42EAD311E0FB795A1C97
:10435000FA711A46BB68134425221A7008E0FB79EB
:104360005A1CFA711A46BB681344FA6812781A701C
:10437000FB680133FB60FB681B78002B7FF451AFB7
:1043800000E000BF00BF2C37BD4690BDAFF30080FA
:104390000000000000002440676666660EB480B529
:1043A00087B000AF0346FB717B6A002B52D07B6A5B
:1043B0007B61802000F076FF03463B618022002174
:1043C000386901F037FA07F12803FB60FB79022B0B
:1043D00024D0022B30DC002B02D0012B0ED02BE09E
:1043E0003B6920491A460B4603CB10605160FB68BD
:1043F000072239697869FFF70BFF1EE03B691A490C
:104400001A460B4603CB106051601B881381FB6872
:10441000092239697869FFF7FBFE0EE03B69134911
:104420001A460B4603CB10605160FB6807223969BE
:104430007869FFF7EDFE00E000BF00F035FC386959
:1044400001F018F900F05EFC386900F033FF00233A
:104450003B6100E000BF1C37BD46BDE8804003B0B3
:10446000704700BFFC75000804760008107600084D
:1044700080B582B000AF78607B68002B04DB7B687E
:10448000022B01DC012305E001F032FA0346092288
:104490001A60002318460837BD4680BD80B582B03B
:1044A00000AF78607B68002B04DB7B68022B01DCAB
:1044B000002306E001F01CFA034609221A604FF0BF
:1044C000FF3318460837BD4680BD80B584B000AFC5
:1044D000F860B9607A6001F00BFA034609221A60AD
:1044E0004FF0FF3318461037BD4680BD80B582B00F
:1044F00000AF786039607B68002B08DB7B68022B9B
:1045000005DC3B684FF400525A60002305E001F0DF
:10451000EFF9034609221A60002318460837BD4602
:1045200080BD80B487B000AFF860B9607A600023C6
:104530007B6102E07B6901337B617A697B689A4227
:10454000F8DB7B6818461C37BD465DF8047B704776
:1045500080B487B000AFF860B9607A6000237B61F7
:1045600002E07B6901337B617A697B689A42F8DB00
:104570007B6818461C37BD465DF8047B7047000019
:1045800080B485B000AF03463A60FB710B46BB8038
:10459000FB79023BFB73FA7B114913465B00134422
:1045A0009B000B440233BA881A80FA7B0C491346ED
:1045B0005B0013449B000B4408333A681A60FA7B93
:1045C000074913465B0013449B000B44043301224C
:1045D0001A7000BF1437BD465DF8047B704700BFFA
:1045E000A005002080B582B000AF0023FB7156E02B
:1045F000FA792F4913465B0013449B000B440433A4
:104600001B7883F00103DBB2002B44D1FA792849EF
:1046100013465B0013449B000B4408331B68002BBC
:1046200039D0FA79224913465B0013449B000B44AE
:104630001B88FA79023398B21D4913465B00134474
:104640009B000B4402461A80FA79194913465B0015
:1046500013449B000B441988FA79154813465B00F4
:1046600013449B00034402331B88994214D3FA7904
:104670000F4913465B0013449B000B4400221A8031
:10468000FA790B4913465B0013449B000B44083333
:104690001B68984700E000BFFB790133FB71FB7991
:1046A000002BA5D000BF00BF0837BD4680BD00BFAE
:1046B000A005002090B583B002AF114B00930023FA
:1046C000012202210F48FFF767F903460E4A1360E3
:1046D0000D4B1B68002B02D14FF0FF330CE00A4B4F
:1046E0001C68FEF773FC024600230093002301219F
:1046F0002046FFF7A1F9002318460437BD4690BDB8
:10470000E545000818760008AC05002080B582B0A9
:1047100000AF78607B68002B2FD07B681B78012B63
:104720002DD97B681B78022B29D87B681B78023B2C
:1047300015497A6841F823207B681B69002B03D058
:104740007B68DB89002B07D17B681B781A460F49F1
:104750000020FFF723FE13E07B681B781A460C4904
:104760000020FFF71BFE7B6818787B68D9897B687F
:104770001B691A46FFF704FF02E000BF00E000BF1C
:104780000837BD4680BD00BF9C0500202C76000880
:104790007476000880B582B000AF0023FB710EE094
:1047A000FB790B4A52F823305B681B68FA79084999
:1047B00051F8222010469847FB790133FB71FB79B1
:1047C000002BEDD0FFF776FF00BF0837BD4680BD58
:1047D0009C05002080B582B000AF03463A60FB71B3
:1047E0000B46BB71B979FB793A681846FFF7D6FCDE
:1047F000034618460837BD4680BD80B582B000AF7D
:1048000078607B68002B02D14FF0FF3302E07B68B9
:104810009847002318460837BD4680BD80B582B052
:1048200000AF00233B600C4B7B607B681B683B60E8
:104830003B681846FFF7E1FF7B6804337B607B68C9
:10484000064A9342F1D3FFF7A5FFFFF7C1FB002310
:1048500018460837BD4680BD58010020640100207D
:1048600080B500AFFEF7D8FE0346012B01D000F063
:10487000A3FA00BF80BD000080B584B000AF03463E
:10488000FB800420FCF7DEFAFB880E4A1360FB88ED
:10489000FB60FB684FF47A7202FB03F3FB600A4B88
:1048A0001B68094A43F002031360074AFB68536020
:1048B000054B1B68044A43F00103136000BF103727
:1048C000BD4680BDB005002010E000E080B58AB094
:1048D00000AF786001210120FCF766FC0121102067
:1048E000FCF7A2FC072209212448FCF765FB0722FC
:1048F0000A212248FCF760FB4FF4C0633B620223AD
:1049000087F82430022387F82530002387F82630E3
:10491000012387F8273007F1200319461748FCF7D1
:10492000ADFA7B683B610023BB820023FB8200233E
:104930003B830023BB830C237B8307F110031946C1
:104940000F48FCF7CDFC01210D48FCF783FD012247
:1049500040F225510A48FCF7ADFD25233B730323A4
:104960007B730323BB730123FB7307F10C0318460E
:10497000FCF706FA00BF2837BD4680BD00000240A4
:104980000010014080B584B000AF4FF0500383F3B6
:104990001188BFF36F8FBFF34F8FBB6000BF40F232
:1049A00025512848FCF7CEFD0346002B3FD0254873
:1049B000FCF770FD0346FB73234B1B881BB2002BD7
:1049C00035DB214B1B8803F48043002B10D0FB7B8D
:1049D0000A2B03D01C4B00221A8028E01A4B1B889C
:1049E0006FEA43436FEA53439AB2174B1A801EE0B3
:1049F000FB7B0D2B07D1144B1B8843F480439AB2E9
:104A0000114B1A8013E0104B1B88C3F30D030F49A1
:104A1000FA7BCA540C4B1B8801339AB20A4B1A809A
:104A2000094B1B88C72B02D9074B00221A80002391
:104A30007B607B6883F3118800BF00BF1037BD46E1
:104A400080BD00BF001001407C060020B40500209E
:104A500080B485B000AFF860B9607A60FB68043B51
:104A6000FB60FB684FF080721A60FB68043BFB60E0
:104A7000BB6823F00102FB681A60FB68043BFB6023
:104A80000C4AFB681A60FB68143BFB607A68FB68A1
:104A90001A60FB68043BFB60FB686FF002021A605F
:104AA000FB68203BFB60FB6818461437BD465DF889
:104AB000047B7047B94A000880B582B000AF00237C
:104AC0003B600E4B1B68B3F1FF3F04D0EA220C4958
:104AD0000C4800F067FD4FF0500383F31188BFF3DB
:104AE0006F8FBFF34F8F7B6000BF00BF3B68002B11
:104AF000FCD000BF00BF0837BD4680BDE4000020E9
:104B0000B8760008E0760008000000000000000011
:104B1000074B19680868B0E8F04F80F30988BFF3C5
:104B20006F8F4FF0000080F311887047AFF3008063
:104B30003802002000BF00BF08480068006880F30A
:104B400008884FF0000080F3148862B661B6BFF3A6
:104B50004F8FBFF36F8F00DF00BF000008ED00E054
:104B600000BF00BF80B584B000AF444B1B68444A0F
:104B7000934205D140F231124249434800F012FD00
:104B80003E4B1B68414A934205D14FF499723D490F
:104B90003D4800F007FD3E4BFB60FB681B78DBB235
:104BA000BB60FB68FF221A70FB681B78DBB2FB71ED
:104BB000FB79DBB203F05003DAB2364B1A70364B96
:104BC00007221A6009E0344B1B68013B324A13602C
:104BD000FB79DBB25B00DBB2FB71FB79DBB203F08C
:104BE0008003802BEFD02C4B1B68C3F10703042BF1
:104BF00005D040F25B122349234800F0D3FC264B3A
:104C00001B68C3F10703042B05D04FF4B2721D4992
:104C10001D4800F0C7FC204B1B681B021E4A136096
:104C20001D4B1B6803F4E0631B4A1360BB68DAB2D8
:104C3000FB681A70194B1B68184A43F47003136021
:104C4000164B1B68154A43F07043136000F0D6F80A
:104C5000134B00221A6000F0F5F8124B1B68114A42
:104C600043F040431360FFF767FFFEF77BFAFFF75F
:104C700023FF002318461037BD4680BD00ED00E03D
:104C800071C20F41B8760008E076000870C20F418B
:104C900000E400E07E0600208006002020ED00E019
:104CA000E400002034EF00E080B582B000AF4FF0A8
:104CB000500383F31188BFF36F8FBFF34F8F7B6077
:104CC00000BF0C4B1B6801330A4A1360094B1B6879
:104CD000012B0AD1084B1B68DBB2002B05D040F238
:104CE000A9120649064800F05DFC00BF0837BD4622
:104CF00080BD00BFE400002004ED00E0B8760008AD
:104D0000E076000880B582B000AF0E4B1B68002B28
:104D100005D14FF4D8720C490C4800F043FC094B04
:104D20001B68013B074A1360064B1B68002B05D12B
:104D300000237B607B6883F3118800BF00BF0837C6
:104D4000BD4680BDE4000020B8760008E07600088B
:104D5000EFF30980BFF36F8F154B1A681EF0100F29
:104D600008BF20ED108A20E9F04F10602DE90900FE
:104D70004FF0500080F31188BFF34F8FBFF36F8F58
:104D8000FEF7F0F94FF0000080F3118809BC1968B4
:104D90000868B0E8F04F1EF0100F08BFB0EC108AA2
:104DA00080F30988BFF36F8F704700BFAFF30080B7
:104DB0003802002000BF00BF80B582B000AF4FF0C6
:104DC000500383F31188BFF36F8FBFF34F8F7B6066
:104DD00000BFFEF70BF90346002B03D0064B4FF044
:104DE00080521A6000233B603B6883F3118800BF48
:104DF00000BF0837BD4680BD04ED00E080B400AFC1
:104E00000B4B00221A600B4B00221A600A4B1B68E6
:104E10000A4AA2FB03239B09094A013B1360044B86
:104E200007221A6000BFBD465DF8047B704700BFD3
:104E300010E000E018E000E000000020D34D621018
:104E400014E000E0DFF80C00016841F4700101603B
:104E50007047000088ED00E000BF00BF80B582B061
:104E600000AFEFF305837B607B680F2B0FD9114AEE
:104E70007B6813441B78FB700F4B1B78FA789A42BF
:104E800005D24FF44D720D490D4800F08BFB0D4BD0
:104E90001B6803F4E0620C4B1B689A4205D94FF47F
:104EA00051720649064800F07DFB00BF0837BD4639
:104EB00080BD00BFF0E300E07E060020B876000869
:104EC000E07600080CED00E08006002080B586B09A
:104ED00000AF78600023FB60FDF7CEFF504B1B68EE
:104EE000002B01D100F0FEF84E4B1A687B6813408E
:104EF000002B40F082807B68002B17D008227B6853
:104F000013447B607B6803F00703002B0ED07B68A3
:104F100023F0070308337B607B6803F00703002B53
:104F200004D0BF224049414800F03CFB7B68002B85
:104F300063D03F4B1B687A689A425ED83D4B3B6119
:104F40003C4B1B687B6104E07B693B617B691B68B0
:104F50007B617B695B687A689A4203D97B691B68CD
:104F6000002BF1D12E4B1B687A699A4245D03B69E0
:104F70001B6808221344FB607B691A683B691A604E
:104F80007B695A687B68D21A08235B009A4219D958
:104F90007A697B681344BB60BB6803F00703002B8E
:104FA00004D0EC222049214800F0FCFA7B695A68C1
:104FB0007B68D21ABB685A607B697A685A60B868A5
:104FC00000F0F2F81A4B1A687B695B68D31A184A2A
:104FD0001360174B1A68184B1B689A4203D2144B84
:104FE0001B68154A13607B695A680E4B1B681A438D
:104FF0007B695A607B6900221A60FDF74BFFFB68F2
:1050000003F00703002B05D04FF4967206490748BA
:1050100000F0C8FAFB6818461837BD4680BD00BFCF
:105020008C56002098560020F0760008147700086F
:1050300090560020845600209456002080B584B0FD
:1050400000AF78607B68FB607B68002B3ED0082354
:105050005B42FA681344FB60FB68BB60BB685A683C
:105060001C4B1B681340002B05D14FF4A0721A494A
:105070001A4800F097FABB681B68002B05D040F275
:1050800041121549154800F08DFABB685A68114B5A
:105090001B681340002B19D0BB681B68002B15D16F
:1050A000BB685A680B4B1B68DB431A40BB685A60ED
:1050B000FDF7E2FEBB685A68094B1B681344084AB7
:1050C0001360B86800F070F8FDF7E4FE00BF103719
:1050D000BD4680BD98560020F07600081477000881
:1050E0009056002080B485B000AF4FF4A043BB6061
:1050F000274BFB60FB6803F00703002B0CD0FB6819
:105100000733FB60FB6823F00703FB60BA68FB68AA
:10511000D31A1F4A1344BB60FB687B601D4A7B683F
:1051200013601C4B00225A607B68BA681344FB6012
:105130000822FB689B1AFB60FB6823F00703FB60F7
:10514000FB68154A1360144B1B6800225A60124B0F
:105150001B6800221A607B683B603B68FA68D21AC1
:105160003B685A600C4B1A683B681A603B685B6886
:105170000A4A13603B685B68094A1360094B4FF0A9
:1051800000421A6000BF1437BD465DF8047B7047CB
:1051900084060020845600208C560020945600205F
:1051A000905600209856002080B485B000AF7860FB
:1051B000284BFB6002E0FB681B68FB60FB681B6818
:1051C0007A689A42F7D8FB68BB60FB685B68BA688C
:1051D00013447A689A4208D1FB685A687B685B6816
:1051E0001A44FB685A60FB687B607B68BB607B6825
:1051F0005B68BA681A44FB681B689A4218D1FB685E
:105200001A68154B1B689A420DD07B685A68FB6878
:105210001B685B681A447B685A60FB681B681A68E5
:105220007B681A6008E00C4B1A687B681A6003E020
:10523000FB681A687B681A60FA687B689A4202D039
:10524000FB687A681A6000BF1437BD465DF8047BBE
:10525000704700BF845600208C560020002103E0D8
:105260000A4B5B584350043109480A4B42189A4292
:10527000F6D3094A02E0002342F8043B074B9A4266
:10528000F9D3FBF7B7FCFCF733FC704768770008ED
:10529000000000206401002064010020EC57002081
:1052A000FEE70000024B0146186800F02DB800BF71
:1052B000F4000020024B0146186800F031BB00BF2B
:1052C000F400002070B50F4E0C463168054611B948
:1052D00000F0ECFA30602146284600F0E7FA431C63
:1052E00003D14FF0FF34204670BDC41C24F00304EA
:1052F000A042F8D0211A284600F0D8FA0130F2D1A5
:10530000EFE700BF9C5600202DE9F843CD1C25F0A7
:10531000030508350C2D38BF0C25002D064601DB92
:10532000A94204D90C2333600020BDE8F883DFF8DC
:10533000D48000F069F8D8F800301C4644BB2946F8
:105340003046FFF7BFFF431C044658D1D8F8004051
:105350002746002F43D1002C4BD0236839463046D6
:1053600004EB030900F0A2FA814542D121686D1ACD
:1053700029463046FFF7A6FF01303AD023682B4478
:105380002360D8F800305A6862BBC8F800700FE09C
:105390002268521B20D40B2A17D96119A342256019
:1053A00018BF5960636808BFC8F8001062514B60AD
:1053B000304600F02FF804F10B00231D20F0070009
:1053C000C21A1CBF1B1AA350AFE76268A3420CBFEE
:1053D000C8F800205A60EBE723466468AEE73C4615
:1053E0007F68B6E71A465B68A342FBD1002353608F
:1053F000DEE70C233360304600F00CF894E70560DC
:10540000D6E700BFA0560020014800F078BA00BFE0
:10541000E4570020014800F073BA00BFE4570020B1
:10542000002310B50446C0E90033C0E904338360AB
:1054300081814366C2818361194608225C3000F095
:10544000F9F90D4B63620D4BA3620D4BE3620D4BFB
:1054500023630D4B24629C4206D003F16802944200
:1054600002D0D0339C4205D104F15800BDE8104071
:1054700000F044BA10BD00BF85560008A7560008CA
:10548000DF56000803570008A4560020024A0349CB
:10549000034800F069B800BFE8000020756000080C
:1054A000F800002041680C4B994210B5044601D029
:1054B00000F0E0FDA168094B994202D0204600F0BF
:1054C000D9FDE168064B994204D02046BDE8104062
:1054D00000F0D0BD10BD00BFA45600200C57002026
:1054E0007457002010B50B4B0B4C0C4A1A60204629
:1054F00000220421FFF794FF04F168000122092132
:10550000FFF78EFF04F1D0000222BDE81040122107
:10551000FFF786BFDC570020A45600208D540008FA
:10552000014800F0ECB900BFE5570020014800F049
:10553000E7B900BFE557002010B50446FFF7F0FFBC
:10554000236A1BB1BDE81040FFF7F0BF044B236294
:10555000044B1B68002BF5D1FFF7C4FFF2E700BF37
:10556000A5540008DC5700202DE9F843074688467B
:1055700014460026D4E90195B9F1010905D524683E
:10558000002CF7D13046BDE8F883AB89012B07D951
:10559000B5F90E30013303D029463846C0470643DB
:1055A0006835E9E70FB407B5064904AB086853F856
:1055B000042B8168019300F027FA03B05DF804EB37
:1055C00004B07047F4000020036A70B58468054693
:1055D0000E460BB9FFF7B0FF636EDB0705D4A38956
:1055E000980502D4A06D00F08AF9A389190702D5A5
:1055F0002369002B35D12146284600F0C5F880B339
:105600004FF0FF35636EDA0705D4A3899B0502D4FA
:10561000A06D00F075F9284670BD002B15DB2368DE
:105620005A1C22601970A36816F8011F013BA36081
:105630000029F2D1002B16DA22460A21284600F072
:1056400064F80130DCD00A25DCE7A2699A4201DC6B
:105650000A29E4D12246284600F057F80130E2D169
:10566000CEE7013EDFE723685A1C22600A221A7047
:10567000E9E70000024B01461868FFF7A5BF00BF2D
:10568000F400002010B50C46B1F90E1000F0FCF843
:105690000028ABBF636DA3891B1823F48053ACBFF4
:1056A0006365A38110BD2DE9F0411F468B89DB05A1
:1056B00005460C46164605D5B1F90E100223002208
:1056C00000F0D0F8A389B4F90E1023F48053A3811D
:1056D00032463B462846BDE8F04100F0F7B810B529
:1056E0000C46B1F90E1000F0BDF8431CA38915BF9C
:1056F000606523F4805343F48053A38118BFA381D2
:1057000010BDB1F90E1000F09DB8F8B50E46144664
:10571000054618B1036A0BB9FFF70EFFA369A36032
:10572000A3891A0701D5236943B92146284600F009
:105730002BF818B14FF0FF373846F8BD23682269BF
:10574000981A6369F6B28342374605DC214628463B
:1057500000F090FC0028EDD1A368013BA360236812
:105760005A1C22601E706269431C9A4204D0A389AD
:10577000DB07E1D50A2EDFD12146284600F07AFC6E
:105780000028D9D0D6E7000038B5294B054618685F
:105790000C4618B1036A0BB9FFF7CEFEB4F90C3012
:1057A000190722D4DA0607D409222A6043F04003FD
:1057B000A3814FF0FF3033E0580712D5616B41B140
:1057C00004F14403994202D0284600F0A9F80023CE
:1057D0006363A38923F02403A38100236360236907
:1057E0002360A38943F00803A38123694BB9A389EC
:1057F00003F42073B3F5007F03D02146284600F060
:1058000087FCB4F90C3013F001020AD00022A26028
:1058100062695242A261226942B913F08000C5D187
:1058200038BD990758BF6269A260F4E70020F7E726
:10583000F400002002440346934200D1704703F86D
:10584000011BF9E738B5064D0023044608462B60D6
:10585000FEF724FE431C02D12B6803B1236038BD40
:10586000E057002038B5074D04460846114600228F
:105870002A601A46FEF729FE431C02D12B6803B1A9
:10588000236038BDE057002038B5074D0446084670
:10589000114600222A601A46FEF743FE431C02D13D
:1058A0002B6803B1236038BDE057002038B5064DA2
:1058B0000023044608462B6001F0C8FC431C02D1BB
:1058C0002B6803B1236038BDE057002038B5074D81
:1058D00004460846114600222A601A46FEF738FEA2
:1058E000431C02D12B6803B1236038BDE057002070
:1058F000014B1868704700BFF400002070477047E4
:1059000070470A44914200F1FF3300D1704710B54F
:1059100011F8014B03F8014F9142F9D110BD00007D
:1059200038B50546002941D051F8043C0C1F002B26
:10593000B8BFE418FFF768FD1D4A136833B9636008
:1059400014602846BDE83840FFF764BDA34208D97B
:10595000206821188B4201BF19685B680918216013
:10596000EDE71A465B680BB1A342FAD911685018EB
:10597000A0420BD120680144501883421160E0D14D
:1059800018685B68536008441060DAE702D90C239A
:105990002B60D6E7206821188B4204BF19685B682A
:1059A000636004BF091821605460CAE738BD00BFB6
:1059B000A05600209368013B002B10B4936008DAD6
:1059C0009469A34201DB0A2903D15DF8044BFFF778
:1059D0009CBE1368581C1060197008465DF8044B93
:1059E0007047F8B506460F461446D518AC4201D1AB
:1059F000002007E014F8011B3A463046FFF7DAFFB3
:105A0000431CF3D1F8BD00002DE9F04F0D469DB0C9
:105A100014469846064618B1036A0BB9FFF78CFD89
:105A20006B6ED90705D4AB899A0502D4A86DFFF730
:105A300066FFAB891B0701D52B699BB92946304608
:105A4000FFF7A2FE70B16B6EDC0704D54FF0FF309C
:105A50001DB0BDE8F08FAB899805F7D4A86DFFF7AE
:105A60004FFFF3E70023099320238DF82930CDF869
:105A70000C803023DFF8AC818DF82A304FF001091B
:105A800023469A4613F8012B0AB1252AF9D1BAEB1D
:105A9000040B0BD05B46224629463046FFF7A1FF98
:105AA000013000F0A780099A5A4409929AF8003010
:105AB000002B00F09F8000234FF0FF32CDE905233B
:105AC0000AF1010A049307938DF853301A93544650
:105AD000052214F8011B5348FAF762FB049AD8B95F
