:020000040800F2
:1000000000C00020BD500008B51A0008C11A000841
:10001000CB1A0008D31A0008DB1A00080000000001
:10002000000000000000000000000000014A00087D
:10003000E31A000800000000F14B000875470008B3
:100040000151000801510008015100080151000848
:100050000151000801510008015100080151000838
:100060000151000801510008015100080151000828
:100070000151000801510008015100080151000818
:100080000151000801510008015100080151000808
:1000900001510008015100080151000801510008F8
:1000A00001510008015100080151000801510008E8
:1000B00001510008AD190008015100080151000864
:1000C00001510008015100080151000801510008C8
:1000D00001510008A9480008111900080151000841
:1000E00001510008015100080151000801510008A8
:1000F0000151000801510008015100080151000898
:100100000151000801510008D919000801510008E7
:100110000151000801510008015100080151000877
:100120000151000801510008015100080151000867
:1001300000000000000000000000000000000000BF
:1001400000000000000000000000000000000000AF
:10015000000000000000000000000000000000009F
:10016000000000000000000000000000000000008F
:10017000000000000000000000000000000000007F
:10018000000000000000000000000000000000006F
:10019000000000000000000000000000000000005F
:1001A000000000000000000000000000000000004F
:1001B000000000000000000000000000000000003F
:1001C000000000000000000000000000000000002F
:1001D000000000000000000000000000000000001F
:0401E0005FF8E0F1F3
:1001F000034613F8012B002AFBD1181A0138704767
:1002000081F0004102E000BF83F0004330B54FEAC7
:1002100041044FEA430594EA050F08BF90EA020F34
:100220001FBF54EA000C55EA020C7FEA645C7FEAC7
:10023000655C00F0E2804FEA5454D4EB5555B8BFEA
:100240006D420CDD2C4480EA020281EA030382EA5B
:10025000000083EA010180EA020281EA0303362DED
:1002600088BF30BD11F0004F4FEA01314FF4801CC0
:100270004CEA113102D0404261EB410113F0004FD2
:100280004FEA03334CEA133302D0524263EB430389
:1002900094EA050F00F0A780A4F10104D5F1200E27
:1002A0000DDB02FA0EFC22FA05F2801841F1000182
:1002B00003FA0EF2801843FA05F359410EE0A5F156
:1002C00020050EF1200E012A03FA0EFC28BF4CF087
:1002D000020C43FA05F3C01851EBE37101F000453D
:1002E00007D54FF0000EDCF1000C7EEB00006EEB4A
:1002F0000101B1F5801F1BD3B1F5001F0CD34908D4
:100300005FEA30004FEA3C0C04F101044FEA44522A
:1003100012F5800F80F09A80BCF1004F08BF5FEAB1
:10032000500C50F1000041EB045141EA050130BD91
:100330005FEA4C0C404141EB0101013C28BFB1F5A3
:10034000801FE9D291F0000F04BF01460020B1FAEE
:1003500081F308BF2033A3F10B03B3F120020CDAC1
:100360000C3208DD02F1140CC2F10C0201FA0CF09F
:1003700021FA02F10CE002F11402D8BFC2F1200C04
:1003800001FA02F120FA0CFCDCBF41EA0C019040BA
:10039000E41AA2BF01EB0451294330BD6FEA040403
:1003A0001F3C1CDA0C340EDC04F11404C4F12002EE
:1003B00020FA04F001FA02F340EA030021FA04F300
:1003C00045EA030130BDC4F10C04C4F1200220FA57
:1003D00002F001FA04F340EA0300294630BD21FA95
:1003E00004F0294630BD94F0000F83F4801306BF5B
:1003F00081F480110134013D4EE77FEA645C18BF4F
:100400007FEA655C29D094EA050F08BF90EA020FE5
:1004100005D054EA000C04BF1946104630BD91EADD
:10042000030F1EBF0021002030BD5FEA545C05D1E0
:100430004000494128BF41F0004130BD14F580041F
:100440003CBF01F5801130BD01F0004545F0FE4193
:1004500041F470014FF0000030BD7FEA645C1ABFC8
:10046000194610467FEA655C1CBF0B46024650EAFF
:10047000013406BF52EA033591EA030F41F400212B
:1004800030BD00BF90F0000F04BF0021704730B5B1
:100490004FF4806404F132044FF000054FF0000186
:1004A00050E700BF90F0000F04BF0021704730B547
:1004B0004FF4806404F1320410F0004548BF40421C
:1004C0004FF000013EE700BF42004FEAE2014FEA71
:1004D00031014FEA02701FBF12F07F4393F07F4F4C
:1004E00081F06051704732F07F4208BF704793F04F
:1004F0007F4F04BF41F40021704730B54FF4607462
:1005000001F0004521F000411CE700BF50EA010264
:1005100008BF704730B54FF000050AE050EA01020D
:1005200008BF704730B511F0004502D5404261EB7D
:1005300041014FF4806404F132045FEA915C3FF4BE
:10054000D8AE4FF003025FEADC0C18BF03325FEA5B
:10055000DC0C18BF033202EBDC02C2F1200300FA0C
:1005600003FC20FA02F001FA03FE40EA0E0021FA31
:1005700002F11444BDE600BF70B54FF0FF0C4CF41F
:10058000E06C1CEA11541DBF1CEA135594EA0C0FD1
:1005900095EA0C0F00F0DEF82C4481EA030621EA0C
:1005A0004C5123EA4C5350EA013518BF52EA033547
:1005B00041F4801143F4801338D0A0FB02CE4FF0F9
:1005C0000005E1FB02E506F00042E0FB03E54FF029
:1005D0000006E1FB03569CF0000F18BF4EF0010E21
:1005E000A4F1FF04B6F5007F64F5407404D25FEA1D
:1005F0004E0E6D4146EB060642EAC62141EA5551D0
:100600004FEAC52040EA5E504FEACE2EB4F1FD0C11
:1006100088BFBCF5E06F1ED8BEF1004F08BF5FEA8F
:10062000500E50F1000041EB045170BD06F0004641
:1006300046EA010140EA020081EA0301B4EB5C04EE
:10064000C2BFD4EB0C0541EA045170BD41F48011E6
:100650004FF0000E013C00F3AB8014F1360FDEBF0B
:10066000002001F0004170BDC4F10004203C35DAE7
:100670000C341BDC04F11404C4F1200500FA05F36A
:1006800020FA04F001FA05F240EA020001F000420B
:1006900021F0004110EBD37021FA04F642EB060181
:1006A0005EEA430E08BF20EAD37070BDC4F10C04AB
:1006B000C4F1200500FA04F320FA05F001FA04F26F
:1006C00040EA020001F0004110EBD37041F100015B
:1006D0005EEA430E08BF20EAD37070BDC4F1200566
:1006E00000FA05F24EEA020E20FA04F301FA05F2CE
:1006F00043EA020321FA04F001F0004121FA04F276
:1007000020EA020000EBD3705EEA430E08BF20EA45
:10071000D37070BD94F0000F0FD101F0004640007F
:1007200041EB010111F4801F08BF013CF7D041EA01
:10073000060195F0000F18BF704703F00046520005
:1007400043EB030313F4801F08BF013DF7D043EAD6
:100750000603704794EA0C0F0CEA135518BF95EA8C
:100760000C0F0CD050EA410618BF52EA4306D1D113
:1007700081EA030101F000414FF0000070BD50EA32
:10078000410606BF1046194652EA430619D094EABC
:100790000C0F02D150EA013613D195EA0C0F05D1A6
:1007A00052EA03361CBF104619460AD181EA0301FA
:1007B00001F0004141F0FE4141F470014FF00000B2
:1007C00070BD41F0FE4141F4780170BD70B54FF04D
:1007D000FF0C4CF4E06C1CEA11541DBF1CEA1355CD
:1007E00094EA0C0F95EA0C0F00F0A7F8A4EB0504AF
:1007F00081EA030E52EA03354FEA013100F08880A6
:100800004FEA03334FF0805545EA131343EA12636E
:100810004FEA022245EA111545EA10654FEA002623
:100820000EF000419D4208BF964244F1FD0404F5DC
:10083000407402D25B084FEA3202B61A65EB030538
:100840005B084FEA32024FF480104FF4002CB6EBF5
:10085000020E75EB030E22BFB61A754640EA0C0075
:100860005B084FEA3202B6EB020E75EB030E22BFB5
:10087000B61A754640EA5C005B084FEA3202B6EBF6
:10088000020E75EB030E22BFB61A754640EA9C00B5
:100890005B084FEA3202B6EB020E75EB030E22BF85
:1008A000B61A754640EADC0055EA060E18D04FEA43
:1008B000051545EA16754FEA06164FEAC30343EAE3
:1008C00052734FEAC2025FEA1C1CC0D111F4801FB0
:1008D0000BD141EA00014FF000004FF0004CB6E7A9
:1008E00011F4801F04BF01430020B4F1FD0C88BF48
:1008F000BCF5E06F3FF6AFAEB5EB030C04BFB6EB53
:10090000020C5FEA500C50F1000041EB045170BD45
:100910000EF0004E4EEA113114EB5C04C2BFD4EB72
:100920000C0541EA045170BD41F480114FF0000EF6
:10093000013C90E645EA060E8DE60CEA135594EA72
:100940000C0F08BF95EA0C0F3FF43BAF94EA0C0F75
:100950000AD150EA01347FF434AF95EA0C0F7FF4EA
:1009600025AF104619462CE795EA0C0F06D152EA3E
:1009700003353FF4FDAE1046194622E750EA410622
:1009800018BF52EA43067FF4C5AE50EA41047FF433
:100990000DAF52EA43057FF4EBAE12E74FF0FF3C98
:1009A00006E000BF4FF0010C02E000BF4FF0010C69
:1009B0004DF804CD4FEA410C7FEA6C5C4FEA430CE2
:1009C00018BF7FEA6C5C1BD001B050EA410C0CBF31
:1009D00052EA430C91EA030F02BF90EA020F002093
:1009E000704710F1000F91EA030F58BF994208BFFA
:1009F00090422CBFD8176FEAE37040F001007047B7
:100A00004FEA410C7FEA6C5C02D150EA013C07D10D
:100A10004FEA430C7FEA6C5CD6D152EA033CD3D058
:100A20005DF8040B704700BF8446104662468C4652
:100A30001946634600E000BF01B5FFF7B7FF002885
:100A400048BF10F1000F01BD4DF808EDFFF7F4FFAE
:100A50000CBF012000205DF808FB00BF4DF808ED39
:100A6000FFF7EAFF34BF012000205DF808FB00BF5C
:100A70004DF808EDFFF7E0FF94BF012000205DF87E
:100A800008FB00BF4DF808EDFFF7CEFF94BF012033
:100A900000205DF808FB00BF4DF808EDFFF7C4FF2C
:100AA00034BF012000205DF808FB00BF4FEA410C75
:100AB0007FEA6C5C02D150EA013C0AD14FEA430C58
:100AC0007FEA6C5C02D152EA033C02D14FF0000095
:100AD00070474FF0010070474FEA410212F50012D3
:100AE00015D211D56FF47873B3EB625212D94FEA75
:100AF000C12343F0004343EA505311F0004F23FA5F
:100B000002F018BF404270474FF00000704750EAB3
:100B1000013005D111F0004008BF6FF00040704770
:100B20004FF00000704700BF0348044B834202D0DF
:100B3000034B03B118477047640100206401002093
:100B4000000000000548064B1B1AD90F01EBA3015A
:100B5000491002D0034B03B11847704764010020CD
:100B6000640100200000000010B5064C237843B952
:100B7000FFF7DAFF044B13B10448AFF30080012301
:100B8000237010BD6401002000000000D46F000835
:100B900008B5054B1BB105490548AFF30080BDE81A
:100BA0000840FFF7CFBF00BF000000006801002031
:100BB000D46F000880B500AF154B1B68144A43F092
:100BC00001031360124B5A681149124B13404B60DA
:100BD0000F4B1B680E4A23F0847323F48033136099
:100BE0000B4B1B680A4A23F480231360084B5B6895
:100BF000074A23F4FE035360054B4FF41F029A602B
:100C000000F00CF8044B4FF000629A6000BF80BD0A
:100C1000001002400000FFF800ED00E080B500AFDA
:100C200000F002F800BF80BD80B483B000AF0023A5
:100C30007B6000233B603A4B1B68394A43F48033A6
:100C40001360374B1B6803F400333B607B68013350
:100C50007B603B68002B03D17B68B3F5A06FF0D1BC
:100C60002F4B1B6803F40033002B02D001233B60A1
:100C700001E000233B603B68012B4BD1294B1B68F3
:100C8000284A43F010031360264B1B68254A23F0C3
:100C900003031360234B1B68224A43F002031360D3
:100CA0001F4B1F4A5B6853601D4B1D4A5B685360B6
:100CB0001B4B5B681A4A43F480635360184B5B68B4
:100CC000174A23F47C135360154B5B68144A43F4B2
:100CD000E8135360124B1B68114A43F08073136092
:100CE00000BF0F4B1B6803F00073002BF9D00C4BB7
:100CF0005B680B4A23F003035360094B5B68084AA7
:100D000043F00203536000BF054B5B6803F00C0324
:100D1000082BF9D100BF0C37BD4680BC704700BF1F
:100D2000001002400020024080B483B000AF786021
:100D3000054A7B6843F0BF6343F40033D36000BFD0
:100D40000C37BD4680BC704700ED00E080B487B032
:100D500000AF786000237B6100233B610F23FB60C1
:100D60007B68DB78002B3AD0274BDB68DB431B0A20
:100D700003F007037B617B69C3F104033B61FA68FD
:100D80007B6922FA03F3FB607B685B781A463B6958
:100D900002FA03F37B617B689B781A46FB68134079
:100DA0007A6913437B617B691B017B61174A7B680E
:100DB0001B787969C9B213440A4683F800237B681B
:100DC0001B7803F01F0311497A6812785209D2B2D6
:100DD0001046012202FA03F341F820300FE07B684D
:100DE0001B7803F01F0309497A6812785209D2B2BE
:100DF000104601229A4000F1200341F8232000BF51
:100E00001C37BD4680BC704700ED00E000E100E00B
:100E100080B483B000AF78607B68042B06D1094BA7
:100E20001B68084A43F00403136005E0054B1B6888
:100E3000044A23F00403136000BF0C37BD4680BC96
:100E4000704700BF10E000E080B489B000AF786068
:100E500039600023FB6100233B610023BB61002359
:100E6000FB6000237B610023BB603B68DB7803F001
:100E70000F03FB613B68DB7803F01003002B05D008
:100E80003B689B781A46FB691343FB613B681B88F0
:100E9000DBB2002B44D07B681B687B610023BB6105
:100EA00038E00122BB6902FA03F3FB603B681B8850
:100EB0001A46FB6813403B613A69FB689A4226D1A7
:100EC000BB699B00FB600F22FB6802FA03F3BB6067
:100ED000BB68DB437A6913407B61FA69FB6802FAFD
:100EE00003F37A6913437B613B68DB78282B05D1D8
:100EF0000122BB699A407B685A6108E03B68DB7855
:100F0000482B04D10122BB699A407B681A61BB69F6
:100F10000133BB61BB69072BC3D97B687A691A604F
:100F20003B681B88FF2B46D97B685B687B6100238D
:100F3000BB613AE0BB690833012202FA03F3FB60AC
:100F40003B681B881A46FB6813403B613A69FB68A3
:100F50009A4227D1BB699B00FB600F22FB6802FA13
:100F600003F3BB60BB68DB437A6913407B61FA69BA
:100F7000FB6802FA03F37A6913437B613B68DB7811
:100F8000282B05D1BB69083301229A407B685A613E
:100F90003B68DB78482B05D1BB69083301229A40B6
:100FA0007B681A61BB690133BB61BB69072BC1D97F
:100FB0007B687A695A6000BF2437BD4680BC7047A1
:100FC00080B483B000AF78600B467B807A887B6802
:100FD0001A6100BF0C37BD4680BC704780B487B033
:100FE00000AF786000237B6100233B610023FB603E
:100FF0000023BB604F4B5B6803F00C037B617B6994
:10100000082B11D07B69082B3AD87B69002B03D0C1
:101010007B69042B04D033E07B68474A1A6033E0D5
:101020007B68454A1A602FE0424B5B6803F47013FB
:101030003B61404B5B6803F48033FB603B699B0C76
:1010400002333B61FB68002B06D13B693B4A03FB43
:1010500002F27B681A6017E0364B5B6803F40033DA
:10106000002B06D03B69354A03FB02F27B681A600D
:101070000AE03B69304A03FB02F27B681A6003E036
:101080007B682D4A1A6000BF2A4B5B6803F0F003AF
:101090007B617B691B097B61294A7B6913441B784F
:1010A000DBB2BB607B681A68BB68DA407B685A6059
:1010B000204B5B6803F4E0637B617B691B0A7B6107
:1010C0001F4A7B6913441B78DBB2BB607B685A689C
:1010D000BB68DA407B689A60164B5B6803F4605328
:1010E0007B617B69DB0A7B61154A7B6913441B7852
:1010F000DBB2BB607B685A68BB68DA407B68DA6049
:101100000C4B5B6803F440437B617B699B0B7B6109
:101110000C4A7B6913441B78DBB2BB607B68DA68DE
:10112000BB68B2FBF3F27B681A6100BF1C37BD4697
:1011300080BC70470010024000127A0000093D0098
:10114000040000201400002080B483B000AF786059
:101150000B46FB70FB78002B06D0094B9A690849B7
:101160007B6813438B6106E0054B9A697B68DB4320
:10117000034913408B6100BF0C37BD4680BC7047EC
:101180000010024080B483B000AF78600B46FB7063
:10119000FB78002B06D0094BDA6908497B681343BA
:1011A000CB6106E0054BDA697B68DB4303491340FA
:1011B000CB6100BF0C37BD4680BC704700100240B9
:1011C00080B485B000AF78600B467B800023FB7352
:1011D0000023BB8100237B817B681B8A9AB27B88BA
:1011E0001340BB817B689B899AB27B8813407B81CB
:1011F000BB89002B05D07B89002B02D00123FB7318
:1012000001E00023FB73FB7B18461437BD4680BC0E
:10121000704780B483B000AF78600B467B807B88DA
:10122000DB439AB27B681A8200BF0C37BD4680BC94
:101230007047000080B58CB000AF78603960002343
:10124000FB620023BB6200237B6200233B6200231E
:10125000FB617B68FB617B681B8A9BB2FB62FA6A5D
:101260004CF6FF731340FB623B68DB881A46FB6A4F
:101270001343FB62FB6A9AB27B681A827B689B8984
:101280009BB2FB62FA6A4EF6F3131340FB623B68B3
:101290009A883B681B8913439AB23B685B89134366
:1012A0009BB21A46FB6A1343FB62FB6A9AB27B68E5
:1012B0009A817B689B8A9BB2FB62FA6A4FF6FF4376
:1012C0001340FB623B689B891A46FB6A1343FB622F
:1012D000FB6A9AB27B689A8207F108031846FFF707
:1012E0007DFEFB692E4A934202D17B69BB6201E01D
:1012F0003B69BB627B689B899BB21BB2002B0CDAFB
:10130000BA6A13469B0013449A001A443B681B6850
:101310005B00B2FBF3F37B620BE0BA6A13469B00FF
:1013200013449A001A443B681B689B00B2FBF3F31A
:101330007B627B6A1B4AA2FB03235B091B01FB62E6
:10134000FB6A1B09642202FB03F37A6AD31A3B622D
:101350007B689B899BB21BB2002B0CDA3B6ADB00DB
:101360003233104AA2FB03235B0903F00703FA6A36
:101370001343FB620BE03B6A1B013233094AA2FBB9
:1013800003235B0903F00F03FA6A1343FB62FB6A52
:101390009AB27B681A8100BF3037BD4680BD00BF5E
:1013A000003801401F85EB5180B483B000AF7860F6
:1013B0000B46FB70FB78002B08D07B689B899BB2A7
:1013C00043F400539AB27B689A8107E07B689B895B
:1013D0009BB223F400539AB27B689A8100BF0C370A
:1013E000BD4680BC704780B487B000AF78600B46C4
:1013F0007B8013467B7000233B610023FB6000234E
:10140000BB6000237B617B687B617B88DBB25B090F
:10141000DBB23B617B8803F01F03FB600122FB68AA
:1014200002FA03F3BB603B69012B03D17B690C33E8
:101430007B6109E03B69022B03D17B6910337B613F
:1014400002E07B6914337B617B78002B06D07B69DB
:1014500019687B69BA680A431A6006E07B691968F3
:10146000BB68DA437B690A401A6000BF1C37BD467F
:1014700080BC704780B483B000AF78607B689B8885
:101480009BB2C3F308039BB218460C37BD4680BC21
:10149000704780B487B000AF78600B467B80002334
:1014A000FB6000237B610023BB600023FB747B880F
:1014B000DBB25B09DBB2BB607B8803F01F037B619F
:1014C00001227B6902FA03F37B61BB68012B07D120
:1014D0007B689B899BB21A467B6913407B6111E054
:1014E000BB68022B07D17B681B8A9BB21A467B69BB
:1014F00013407B6106E07B689B8A9BB21A467B693E
:1015000013407B617B881B0A9BB2FB600122FB6856
:1015100002FA03F3FB607B681B889BB21A46FB68E8
:101520001340FB607B69002B05D0FB68002B02D0C9
:101530000123FB7401E00023FB74FB7C18461C377D
:10154000BD4680BC7047000080B586B000AF012169
:101550000420FFF7F9FD01214FF40030FFF712FEE0
:101560000423BB820323BB751823FB7507F1140307
:1015700019461C48FFF768FC0823BB820423FB754F
:1015800007F1140319461748FFF75EFC26233B704A
:1015900004237B700323BB700123FB703B4618467A
:1015A000FFF7D4FB4FF4E1337B6000233B81002342
:1015B0007B810023BB8100233B820C23FB813B1DED
:1015C00019460948FFF736FE012240F22551064828
:1015D000FFF709FF01210448FFF7E6FE00BF1837B7
:1015E000BD4680BD000801400044004080B584B085
:1015F00000AF78607B68FB60FB681B7D43F00103F4
:10160000DAB2FB681A75FFF79FFF0449002002F069
:1016100053FE002318461037BD4680BDEC6F00080E
:1016200080B582B000AF78600449002002F044FE2B
:10163000002318460837BD4680BD00BF147000085F
:1016400080B584B000AFF860B9607A6004490020CA
:1016500002F032FE002318461037BD4680BD00BFA1
:101660003870000880B584B000AFF860B9607A6067
:101670000449002002F020FE002318461037BD4622
:1016800080BD00BF6070000880B500AF0349002036
:1016900002F012FE0023184680BD00BF88700008CB
:1016A00080B500AF0549002002F006FE044A002183
:1016B000012003F019F800BF80BD00BFB070000822
:1016C0003800002080B500AF0B48FFF78FFF0346BE
:1016D000002B02D04FF0FF330BE0FFF7D5FF03469E
:1016E000002B02D04FF0FF3303E0034802F098FFD5
:1016F0000023184680BD00BF3800002080B485B0AC
:1017000000AF786039600023FB600023BB600AE013
:101710007A68BB6813441B781A46FB681344FB6065
:10172000BB680133BB60BA683B689A42F0D3FB6880
:1017300018461437BD4680BC7047000080B584B0A1
:1017400000AF03463960FB713B685B68FB603B6838
:101750005B781A46FB681344FA791A703B681B7869
:10176000032B56D801A252F823F000BF7D170008C2
:101770009D170008BF170008E71700083B68002204
:101780005A70FB795A2B48D13B6801221A703B688A
:101790005B780133DAB23B685A703EE0FB79A52BE7
:1017A00009D13B6802221A703B685B780133DAB2D8
:1017B0003B685A7034E03B6800221A7030E0FB79D5
:1017C000012B0CD9FB79402B09D83B6803221A70F6
:1017D0003B685B780133DAB23B685A7020E03B68C3
:1017E00000221A701CE03B685B785A1CD1B23A6840
:1017F00051701A463B685B689B7802339A420ED35D
:101800003B6800221A70084A0021012002F06CFF98
:1018100005E03B6800221A7002E000BF00E000BF54
:1018200000BF1037BD4680BD3800002080B584B0B1
:1018300000AF03463960FB713B685B68FB603B6847
:101840005B781A46FB681344FA791A703B681B7878
:10185000022B27D0022B4DDC002B02D0012B10D005
:1018600048E03B6800225A70FB79662B46D13B6802
:1018700001221A703B685B780133DAB23B685A7018
:101880003CE0FB79882B09D13B6802221A703B6847
:101890005B780133DAB23B685A7032E03B68002271
:1018A0001A702EE03B685B785A1CD1B23A685170CE
:1018B0001A463B685B685B890C339A4220D33B68CD
:1018C00000221A703B685B6803F108023B685B68A2
:1018D0005B890C3319461046FFF710FFB8603B6870
:1018E0005B685B68BA689A420AD10849002002F036
:1018F000E3FC05E03B6800221A7002E000BF00E054
:1019000000BF00BF1037BD4680BD00BFE0700008BB
:1019100080B582B000AF40F225510C48FFF7B9FD09
:101920000346002B0ED00948FFF7A4FD0346FB71C8
:10193000FB7907491846FFF701FFFB79054918466F
:10194000FFF774FF00BF0837BD4680BD004400406C
:10195000180000202000002080B582B000AF0121D7
:101960004820FFF7F1FB2023BB801023FB710323EA
:10197000BB713B1D19460B48FFF766FA2021094849
:10198000FFF71EFB2023BB803B1D19460648FFF7CF
:101990005BFA20210448FFF713FB00BF0837BD4660
:1019A00080BD00BF000C01400018014080B500AFB1
:1019B00001210748FFF704FC0346012B02D105482B
:1019C00003F088FD01210248FFF723FC00BF80BD22
:1019D00000040040F070000880B500AF0121074806
:1019E000FFF7EEFB0346012B02D1054803F072FD21
:1019F00001210248FFF70DFC00BF80BD000C004034
:101A00000471000880B582B002AF4FF44070FFF758
:101A10008BF902F0BBFE4FF4E13002F0F3FEFFF76A
:101A20009BFF084B0193012300930023802206496A
:101A3000064800F0ABFF01F06DF900231846BD46E3
:101A400080BD00BFD401002018710008511A0008A1
:101A500080B582B000AF786003F074F802F068FEE1
:101A600002F0CEFA054B1B68184601F0C5F803F0EA
:101A700097F800BF0837BD4680BD00BFD4010020E5
:101A800080B400AFBFF34F8F00BFBD4680BC70472E
:101A900080B500AF054BDB6803F4E0620349044BFB
:101AA0001343CB60FFF7ECFF00BFFDE700ED00E064
:101AB0000400FA0580B400AF00BFBD4680BC70478B
:101AC00080B500AFFFF7E4FFFCE780B400AF00BFD4
:101AD000FDE780B400AF00BFFDE780B400AF00BFFA
:101AE000FDE780B400AF00BFBD4680BC704700007A
:101AF00080B584B000AF78607B689B681B78FB730F
:101B00007B689B89BB81FA7BBB890449002002F07A
:101B1000D3FB00BF1037BD4680BD00BF2471000855
:101B200080B584B000AF78607B68FB60FB681B7891
:101B3000002B03D1F868FFF7DBFF00E000BF00BF18
:101B40001037BD4680BD80B483B000AF786000BF61
:101B50000C37BD4680BC704780B58AB000AF786056
:101B60007B687B6207F1080100234FF0FF32786A3F
:101B700000F012FC786A00F019FD034687F8233064
:101B800097F823301A460C49002002F095FB3B7A67
:101B9000012B05D807F108031846FFF7C1FFE1E75D
:101BA0003B7A012BDED93B7A022BDBD807F1080305
:101BB0001846FFF7C8FFD5E78471000880B582B0EA
:101BC00000AF78600449002002F076FB002318463D
:101BD0000837BD4680BD00BFB071000880B500AFBA
:101BE000064B1B78064A0749184602F0DFF90348FE
:101BF00002F06CF90023184680BD00BF6000002091
:101C0000E4010020591B000880B584B000AF786063
:101C10007B689B681B78FB737B689B89BB81FA7B25
:101C2000BB890449002002F047FB00BF1037BD46C6
:101C300080BD00BFD071000880B582B000AF786071
:101C40007B681B78012B03D17868FFF7DDFF00E08C
:101C500000BF00BF0837BD4680BD000080B584B01E
:101C600000AF78607B68FB60FB685B685B687868E6
:101C700098477B689B68BB600349002002F01CFB0F
:101C800000BF1037BD4680BD0072000880B584B02B
:101C900000AF78607B68FB60FB681B78022B03D188
:101CA000F868FFF7DBFF00E000BF00BF1037BD465C
:101CB00080BD000080B58AB000AF78607B687B6231
:101CC00007F1080100234FF0FF32786A00F064FB4F
:101CD000786A00F06BFC034687F8233097F82330CE
:101CE0001A460C49002002F0E7FA3B7A012B05D88E
:101CF00007F108031846FFF79FFFE1E73B7A012B46
:101D0000DED93B7A022BDBD807F108031846FFF730
:101D1000BDFFD5E72872000880B582B000AF7860BB
:101D20000449002002F0C8FA002318460837BD46CF
:101D300080BD00BF4C72000880B500AF064B1B7819
:101D4000064A0749184602F031F9034802F0BEF886
:101D50000023184680BD00BF88000020F401002049
:101D6000B51C000880B483B000AF78607B6803F1D5
:101D700008027B685A607B684FF0FF329A607B688C
:101D800003F108027B68DA607B6803F108027B6874
:101D90001A617B6800221A6000BF0C37BD4680BC08
:101DA000704780B483B000AF78607B6800221A610E
:101DB00000BF0C37BD4680BC704780B485B000AF13
:101DC000786039607B685B68FB603B68FA685A60E2
:101DD000FB689A683B689A60FB689B683A685A603F
:101DE000FB683A689A603B687A681A617B681B688E
:101DF0005A1C7B681A6000BF1437BD4680BC704710
:101E000080B485B000AF786039603B681B68BB6008
:101E1000BB68B3F1FF3F03D17B681B69FB600CE03B
:101E20007B680833FB6002E0FB685B68FB60FB6873
:101E30005B681B68BA689A42F6D2FB685A683B68CE
:101E40005A603B685B683A689A603B68FA689A60D7
:101E5000FB683A685A603B687A681A617B681B685D
:101E60005A1C7B681A6000BF1437BD4680BC70479F
:101E700080B485B000AF78607B681B69FB607B68CD
:101E80005B687A6892689A607B689B687A68526837
:101E90005A60FB685B687A689A4203D17B689A68EB
:101EA000FB685A607B6800221A61FB681B685A1E37
:101EB000FB681A60FB681B6818461437BD4680BC77
:101EC0007047000080B584B000AF786039607B68EF
:101ED000FB60FB68002B05D140F21B122A492B48FE
:101EE00003F090FA02F02EFEFB681A68FB68DB6BC9
:101EF000F968096C01FB03F31A44FB685A60FB683C
:101F000000229A63FB681A68FB689A60FB681A688B
:101F1000FB68DB6B013BF968096C01FB03F31A44B6
:101F2000FB68DA60FB68FF2283F84420FB68FF222D
:101F300083F845203B68002B14D1FB681B69002BFC
:101F40001AD0FB681033184601F04AF90346002BFB
:101F500012D00F4B4FF080521A60BFF34F8FBFF378
:101F60006F8F09E0FB6810331846FFF7FBFEFB6834
:101F700024331846FFF7F6FE02F012FE012318463E
:101F80001037BD4680BD00BF64720008787200083B
:101F900004ED00E080B58AB002AFF860B960134686
:101FA000FB71FB68002B05D14FF4C472144915482E
:101FB00003F028FABB68002B02D10023FB6104E088
:101FC000FB68BA6802FB03F3FB61FB6954331846F4
:101FD00002F0AEFEB861BB69002B0BD0BB69543375
:101FE0007B61FA79BB69009313467A69B968F8682E
:101FF00000F00AF8BB6918462037BD4680BD00BF17
:10200000647200087872000880B584B000AFF86090
:10201000B9607A60FB70BB68002B03D1BB69BA69F9
:102020001A6002E0BB697A681A60BB69FA68DA6311
:10203000BB69BA681A640121B869FFF743FFBB693D
:10204000FA7883F85020BB6900229A6400BF1037E9
:10205000BD4680BD80B58AB000AFF860B9607A60D7
:102060003B6000237B62FB683B623B6A002B05D12F
:1020700040F2D9227549764803F0C4F9BB68002BB9
:1020800003D13B6A1B6C002B01D1012300E000232C
:10209000002B05D140F2DA226C496D4803F0B2F909
:1020A0003B68022B03D13B6ADB6B012B01D101237F
:1020B00000E00023002B05D140F2DB226349644895
:1020C00003F0A0F901F03EFA0346002B02D17B6831
:1020D000002B01D1012300E00023002B05D140F2A9
:1020E000DE225A495A4803F08DF902F02BFD3B6A73
:1020F0009A6B3B6ADB6B9A4202D33B68022B3DD161
:102100003A68B968386A00F073FAF8613B6A9B6C08
:10211000002B0FD03968386A00F0E4FB0346002B2F
:1021200028D04C4B4FF080521A60BFF34F8FBFF353
:102130006F8F1FE03B6A5B6A002B10D03B6A243331
:10214000184601F04DF80346002B13D0414B4FF0D9
:1021500080521A60BFF34F8FBFF36F8F0AE0FB69A5
:10216000002B07D03B4B4FF080521A60BFF34F8FCC
:10217000BFF36F8F02F014FD012363E07B68002B37
:1021800003D102F00DFD00235CE07B6A002B06D139
:1021900007F11403184601F085F801237B6202F071
:1021A000FFFC00F003FE02F0CDFC3B6A93F84430E4
:1021B0005BB2B3F1FF3F03D13B6A002283F84420B6
:1021C0003B6A93F845305BB2B3F1FF3F03D13B6A02
:1021D000002283F8452002F0E3FC3A1D07F11403C6
:1021E0001146184601F080F80346002B24D1386AC6
:1021F00000F004FB0346002B18D03B6A10337A68CA
:102200001146184600F09EFF386A00F081FA00F08F
:10221000DBFD0346002B7FF468AF0E4B4FF080527E
:102220001A60BFF34F8FBFF36F8F5EE7386A00F01D
:102230006FFA00F0C9FD58E7386A00F069FA00F05B
:10224000C3FD002318462837BD4680BD64720008D0
:102250007872000804ED00E080B58CB000AFF86043
:10226000B9607A603B60FB68BB62BB6A002B05D13A
:1022700040F29F324649474803F0C4F8BB68002B40
:1022800003D1BB6A1B6C002B01D1012300E00023AA
:10229000002B05D14FF468723D493E4803F0B2F877
:1022A0003B68022B03D1BB6ADB6B012B01D10123FD
:1022B00000E00023002B05D140F2A132344935481B
:1022C00003F0A0F802F0FCFCEFF311824FF0500392
:1022D00083F31188BFF36F8FBFF34F8FFA61BB6138
:1022E000FB697B62BB6A9A6BBB6ADB6B9A4202D367
:1022F0003B68022B3ED1BB6A93F8453087F8233008
:102300003A68B968B86A00F073F997F92330B3F105
:10231000FF3F24D1BB6A9B6C002B0DD03968B86A93
:1023200000F0E0FA0346002B21D07B68002B1ED082
:102330007B6801221A601AE0BB6A5B6A002B16D028
:10234000BB6A2433184600F04BFF0346002B0ED027
:102350007B68002B0BD07B6801221A6007E097F89E
:1023600023300133DBB25AB2BB6A83F84520012324
:10237000FB6201E00023FB627B6A7B617B6983F384
:10238000118800BFFB6A18463037BD4680BD00BFCC
:10239000647200087872000880B58AB000AFF860F7
:1023A000B9607A603B6000237B62FB683B623B6AFA
:1023B000002B05D140F2DC4279497A4803F022F83B
:1023C000BB68002B03D13B6A1B6C002B01D101239E
:1023D00000E00023002B05D140F2DD427049714836
:1023E00003F010F801F0AEF80346002B02D17B6831
:1023F000002B01D1012300E00023002B05D14FF475
:102400009C626749674802F0FDFF02F09BFB3B6A54
:102410009B6BFB61FB69002B46D03B6ADB68BB61B1
:10242000B968386A00F04EF93B68002B21D1FB698E
:102430005A1E3B6A9A633B6A1B68002B04D101F069
:1024400095F902463B6A5A603B6A1B69002B27D00C
:102450003B6A1033184600F0C3FE0346002B1FD022
:10246000514B4FF080521A60BFF34F8FBFF36F8F05
:1024700016E03B6ABA69DA603B6A5B6A002B0FD0F0
:102480003B6A2433184600F0ABFE0346002B07D00E
:10249000454B4FF080521A60BFF34F8FBFF36F8FE1
:1024A00002F07EFB012377E07B68002B03D102F072
:1024B00077FB002370E07B6A002B06D107F1100345
:1024C000184600F0EFFE01237B6202F069FB00F08A
:1024D0006DFC02F037FB3B6A93F844305BB2B3F11A
:1024E000FF3F03D13B6A002283F844203B6A93F804
:1024F00045305BB2B3F1FF3F03D13B6A002283F862
:10250000452002F04DFB3A1D07F110031146184615
:1025100000F0EAFE0346002B31D1386A00F058F98A
:102520000346002B25D03B6A1B68002B08D102F024
:1025300009FB3B6A5B68184601F022F802F030FBA9
:102540003B6A24337A681146184600F0FBFD386A6E
:1025500000F0DEF800F038FC0346002B7FF455AFA6
:10256000114B4FF080521A60BFF34F8FBFF36F8F44
:102570004BE7386A00F0CCF800F026FC45E7386AF3
:1025800000F0C6F800F020FC386A00F021F903469C
:10259000002B3FF43AAF002318462837BD4680BDD4
:1025A000647200087872000804ED00E080B584B021
:1025B00000AF78607B68FB60FB68002B05D140F2C0
:1025C00041620949094802F01DFF02F0BBFAFB68AD
:1025D000DA6BFB689B6BD31ABB6002F0E1FABB6855
:1025E00018461037BD4680BD647200087872000836
:1025F00080B586B000AFF860B9607A6000237B6177
:10260000FB689B6B3B61FB681B6C002B0DD1FB686F
:102610001B68002B4DD1FB685B68184601F026F85B
:102620007861FB6800225A6043E07B68002B19D177
:10263000FB689868FB681B6C1A46B96803F091F850
:10264000FB689A68FB681B6C1A44FB689A60FB681D
:102650009A68FB685B689A422BD3FB681A68FB6830
:102660009A6026E0FB68D868FB681B6C1A46B9685C
:1026700003F077F8FB68DA68FB681B6C5B421A446E
:10268000FB68DA60FB68DA68FB681B689A4207D26D
:10269000FB685A68FB681B6C5B421A44FB68DA6093
:1026A0007B68022B05D13B69002B02D03B69013BC3
:1026B0003B613B695A1CFB689A637B691846183773
:1026C000BD4680BD80B582B000AF786039607B6860
:1026D0001B6C002B18D07B68DA687B681B6C1A4473
:1026E0007B68DA607B68DA687B685B689A4203D350
:1026F0007B681A687B68DA607B68D9687B681B6CCA
:102700001A46386803F02DF800BF0837BD4680BD73
:1027100080B584B000AF786002F014FA7B6893F85B
:102720004530FB731FE07B689B6C002B09D00021B8
:10273000786800F0D7F80346002B10D000F02EFE8A
:102740000DE07B685B6A002B12D07B68243318464F
:1027500000F046FD0346002B01D000F01FFEFB7B7E
:10276000013BDBB2FB7397F90F30002BDBDC00E0A1
:1027700000BF7B68FF2283F8452002F011FA02F0C7
:10278000E1F97B6893F84430BB7311E07B681B6907
:10279000002B12D07B681033184600F021FD034651
:1027A000002B01D000F0FAFDBB7B013BDBB2BB7319
:1027B00097F90E30002BE9DC00E000BF7B68FF22B8
:1027C00083F8442002F0ECF900BF1037BD4680BD0D
:1027D00080B584B000AF786002F0B4F97B689B6B81
:1027E000002B02D10123FB6001E00023FB6002F01B
:1027F000D7F9FB6818461037BD4680BD80B584B058
:1028000000AF786002F09EF97B689A6B7B68DB6BA7
:102810009A4202D10123FB6001E00023FB6002F039
:10282000BFF9FB6818461037BD4680BD80B485B03F
:1028300000AF786039600023FB6014E00E4AFB684B
:1028400052F83330002B0BD10B49FB683A6841F842
:102850003320094AFB68DB0013447A685A6006E0BB
:10286000FB680133FB60FB68072BE7D900BF00BFA3
:102870001437BD4680BC7047F801002080B586B093
:1028800000AFF860B9607A60FB687B6102F05AF9CA
:102890007B6993F844305BB2B3F1FF3F03D17B69AE
:1028A000002283F844207B6993F845305BB2B3F192
:1028B000FF3F03D17B69002283F8452002F070F9C5
:1028C0007B699B6B002B06D17B6924337A68B968DE
:1028D000184600F05BFC7869FFF71AFF00BF183755
:1028E000BD4680BD80B586B000AF786039607B683A
:1028F0009B6C3B6100237B613B69002B05D140F65B
:10290000CE122049204802F07DFD3B699A6B3B695D
:10291000DB6B9A4205D340F6CF121A491A4802F0EF
:1029200071FD3B699A6B3B69DB6B9A4225D23B692F
:1029300093F84530FB733B1D3A6819463869FFF739
:1029400057FE786197F90F30B3F1FF3F0ED13B6925
:102950005B6A002B11D03B692433184600F040FC21
:102960000346002B09D001237B6106E0FB7B01338A
:10297000DBB25AB23B6983F845207B6918461837A9
:10298000BD4680BD647200087872000880B58CB0C6
:1029900004AFF860B9603B601346FB80FB889B0086
:1029A000184602F0C5F978617B69002B0ED05C20D7
:1029B00002F0BEF9F861FB69002B03D0FB697A696C
:1029C0001A6305E0786902F06BFA01E00023FB610D
:1029D000FB69002B13D0FA8800230393FB69029351
:1029E000FB6A0193BB6A00933B68B968F86800F022
:1029F0000FF8F86900F092F80123BB6102E04FF094
:102A0000FF33BB61BB6918462037BD4680BD00005F
:102A100080B586B000AFF860B9607A603B60BB6A91
:102A2000186B7B689B001A46A52102F033FEBB6A37
:102A30001A6B7B6803F18043013B9B0013443B61AD
:102A40003B6923F007033B613B6903F00703002B5D
:102A500005D040F22B322F492F4802F0D3FC00233F
:102A60007B6112E0BA687B6913441978BA6A7B69A2
:102A7000134434330A461A70BA687B6913441B78CE
:102A8000002B06D07B6901337B617B690F2BE9D971
:102A900000E000BFBB6A002283F843203B6A1F2B83
:102AA00001D91F233B62BB6A3A6ADA62BB6A3A6A9F
:102AB000DA64BB6A00221A65BB6A04331846FFF762
:102AC00070F9BB6A18331846FFF76BF9BB6ABA6A2C
:102AD0001A613B6AC3F12002BB6A9A61BB6ABA6A97
:102AE0005A62BB6A00225A65BB6A002283F85820EA
:102AF0003A68F968386901F02DFF0246BB6A1A602E
:102B00007B6A002B02D07B6ABA6A1A6000BF183752
:102B1000BD4680BD887200089C72000880B582B0F6
:102B200000AF786002F00EF82C4B1B6801332B4A83
:102B300013602B4B1B68002B09D1294A7B6813605B
:102B4000264B1B68012B10D100F04CFC0DE0254BEF
:102B50001B68002B09D1224B1B68DA6A7B68DB6A91
:102B60009A4202D81E4A7B6813601F4B1B680133D0
:102B70001D4A13601C4B1A687B685A647B68DB6AC9
:102B800001229A40194B1B681343184A13607B6853
:102B9000DA6A13469B0013449B00154A1A447B686B
:102BA000043319461046FFF708F901F0F9FF0D4B01
:102BB0001B68002B0ED00A4B1B68DA6A7B68DB6A45
:102BC0009A4207D20B4B4FF080521A60BFF34F8FDF
:102BD000BFF36F8F00BF0837BD4680BD2C050020B6
:102BE0003802002038050020480500203405002068
:102BF0003C02002004ED00E080B584B000AF7860B6
:102C000001F0A0FF7B68002B02D1364B1B6800E06F
:102C10007B68FB60FB6804331846FFF729F903461D
:102C2000002B15D1FB68DA6A2F4913469B00134429
:102C30009B000B441B68002B0AD1FB68DB6A012256
:102C400002FA03F3DA43294B1B681340274A136047
:102C5000FB689B6A002B04D0FB6818331846FFF70B
:102C600007F9234B1B680133214A13601D4B1B6876
:102C7000FA689A420BD1FB68043319461D48FFF7E6
:102C80009CF81D4B1B6801331B4A136009E01B4B6A
:102C90001B68013B194A1360F86800F01FFC00F044
:102CA0002DFC01F07DFF164B1B68002B16D00D4B41
:102CB0001B68FA689A4211D1124B1B68002B05D091
:102CC00040F265421049114802F09CFB104B4FF056
:102CD00080521A60BFF34F8FBFF36F8F00BF103762
:102CE000BD4680BD380200203C0200203405002093
:102CF0004805002000050020140500202C050020B8
:102D00003805002054050020887200089C720008D5
:102D100004ED00E080B584B002AF1C4B01930023AA
:102D20000093002382221A491A48FFF72FFE786089
:102D30007B68012B02D100F093FD78607B68012B4A
:102D400016D14FF0500383F31188BFF36F8FBFF399
:102D50004F8F3B6000BF104B4FF0FF321A600F4B9C
:102D600001221A600E4B00221A6001F06FFE09E08A
:102D70007B68B3F1FF3F05D140F2847209490A48EC
:102D800002F040FB00BF0837BD4680BD5005002063
:102D9000AC720008B53300084C050020380500204F
:102DA00030050020887200089C72000880B400AFD3
:102DB000044B1B680133034A136000BFBD4680BC4F
:102DC000704700BF5405002080B584B000AF0023D9
:102DD000FB600023BB603F4B1B68002B05D14FF409
:102DE000FD623D493D4802F00DFB01F0ABFE394B61
:102DF0001B68013B374A1360364B1B68002B61D1BF
:102E0000374B1B68002B5DD02EE0364BDB68DB6850
:102E1000FB60FB6818331846FFF72AF8FB68043399
:102E20001846FFF725F8FB68DB6A01229A402E4B13
:102E30001B6813432C4A1360FB68DA6A13469B0035
:102E400013449B00294A1A44FB6804331946104670
:102E5000FEF7B3FFFB68DA6A254B1B68DB6A9A4210
:102E600002D3244B01221A601E4B1B68002BCCD1CD
:102E7000FB68002B01D000F041FB1F4B1B687B60FF
:102E80007B68002B10D000F049F80346002B02D0DD
:102E9000184B01221A607B68013B7B607B68002B2A
:102EA000F1D1154B00221A60124B1B68002B09D080
:102EB0000123BB60114B4FF080521A60BFF34F8F5C
:102EC000BFF36F8F01F06CFEBB6818461037BD462C
:102ED00080BD00BF54050020887200089C72000865
:102EE0002C050020EC040020340500203C020020CA
:102EF00038020020400500203C05002004ED00E0E1
:102F000080B483B000AF044B1B687B607B681846BD
:102F10000C37BD4680BC70473005002080B586B0B8
:102F200000AF00237B614E4B1B68002B40F0888074
:102F30004C4B1B6801333B614A4A3B6913603B6958
:102F4000002B1BD1484B1B681B68002B05D040F69B
:102F5000D9124649464802F055FA434B1B68FB60BC
:102F6000444B1B68404A1360424AFB681360424B63
:102F70001B680133404A136000F0C0FA3F4B1B68E6
:102F80003A699A424DD3384B1B681B68002B01D11C
:102F9000012300E00023002B04D0384B4FF0FF3218
:102FA0001A603EE0304B1B68DB68DB68BB60BB68C7
:102FB0005B687B603A697B689A4203D22F4A7B68E0
:102FC00013602EE0BB6804331846FEF751FFBB6860
:102FD0009B6A002B04D0BB6818331846FEF748FFE5
:102FE000BB68DB6A01229A40254B1B681343244AC5
:102FF0001360BB68DA6A13469B0013449B00214AA6
:103000001A44BB68043319461046FEF7D6FEBB6867
:10301000DA6A1D4B1B68DB6A9A42B4D301237B61D9
:10302000B1E7194B1B68DA6A164913469B00134433
:103030009B000B441B68012B07D901237B6104E033
:10304000124B1B680133114A1360114B1B68002B94
:1030500001D001237B617B6918461837BD4680BDCE
:103060005405002030050020E40400208872000888
:103070009C720008E8040020440500204C05002054
:10308000340500203C020020380200203C050020CE
:103090004005002080B584B000AF234B1B68002B97
:1030A00003D0224B01221A603AE0204B00221A6022
:1030B0001F4B1B687B607B68B3FA83F3FB70FB7864
:1030C000C3F11F03FB601B49FA6813469B001344BE
:1030D0009B000B441B68002B05D140F6F6221649D5
:1030E000164802F08FF9FA6813469B0013449B00C0
:1030F000104A1344BB60BB685B685A68BB685A607F
:10310000BB685A68BB6808339A4204D1BB685B68E5
:103110005A68BB685A60BB685B68DB68084A136022
:1031200000BF1037BD4680BD54050020400500207B
:10313000340500203C020020887200089C720008C0
:103140003802002080B582B000AF786039607B68BB
:10315000002B05D140F6063209490A4802F052F91F
:10316000094B1B68183319467868FEF749FE0121A0
:10317000386800F00FFB00BF0837BD4680BD00BFB8
:10318000887200089C7200083802002080B584B064
:1031900000AFF860B9607A60FB68002B05D140F69B
:1031A00031320C490C4802F02DF90C4B1B681833D6
:1031B0001946F868FEF701FE7B68002B02D04FF03D
:1031C000FF33BB607968B86800F0E4FA00BF1037DD
:1031D000BD4680BD887200089C720008380200203D
:1031E00080B584B000AF78607B68DB68DB68BB606B
:1031F000BB68002B05D140F661322249224802F01B
:1032000001F9BB6818331846FEF732FE1F4B1B68E6
:10321000002B1CD1BB6804331846FEF729FEBB689F
:10322000DB6A01229A401A4B1B681343184A136049
:10323000BB68DA6A13469B0013449B00154A1A4484
:10324000BB68043319461046FEF7B7FD05E0BB68BE
:10325000183319461048FEF7B0FDBB68DA6A0F4B09
:103260001B68DB6A9A4205D90123FB600C4B0122E3
:103270001A6001E00023FB60FB6818461037BD466A
:1032800080BD00BF887200089C72000854050020B1
:10329000340500203C020020EC040020380200200D
:1032A0004005002080B582B000AF78607B68002BBD
:1032B00005D140F6C1320849084802F0A3F8084B8E
:1032C0001A687B681A60074B1A687B685A6000BFEF
:1032D0000837BD4680BD00BF887200089C72000898
:1032E000440500203005002080B584B000AF786030
:1032F00039607B68002B05D140F6CB322349244846
:1033000002F080F83B68002B05D140F6CC321F4913
:103310001F4802F077F801F015FC1E4B1B68BB60DC
:103320003B681B68B3F1FF3F02D10023FB6026E03E
:103330007B681A68184B1B689A4207D07B685B68E9
:10334000BA689A4202D30123FB6018E07B685B688D
:10335000BA68D21A3B681B689A420ED23B681A6858
:103360007B685968BB68CB1A1A443B681A60786856
:10337000FFF798FF0023FB6001E00123FB6001F0F1
:103380000FFCFB6818461037BD4680BD88720008E8
:103390009C720008300500204405002080B400AF76
:1033A000034B01221A6000BFBD4680BC704700BFBE
:1033B0004005002080B582B000AF786000F052F880
:1033C000064B1B68012BF9D9054B4FF080521A6050
:1033D000BFF34F8FBFF36F8FF0E700BF3C020020B9
:1033E00004ED00E080B582B000AF00237B600CE00C
:1033F0007A6813469B0013449B00124A13441846F4
:10340000FEF7B0FC7B6801337B607B681F2BEFD934
:103410000D48FEF7A7FC0D48FEF7A4FC0C48FEF78C
:10342000A1FC0C48FEF79EFC0B48FEF79BFC0B4BE7
:10343000054A1A600A4B054A1A6000BF0837BD46A4
:1034400080BD00BF3C020020BC040020D00400204E
:10345000EC0400200005002018050020E4040020F2
:10346000E804002080B582B000AF28E0FFF79EFCA2
:10347000174B1B68002B0CBF01230023DBB27B60C2
:10348000FFF7A2FC7B68002B19D101F05BFB104B0E
:10349000DB68DB683B603B6804331846FEF7E8FCFA
:1034A0000C4B1B68013B0B4A13600B4B1B68013B29
:1034B000094A136001F074FB386800F00FF8064BFE
:1034C0001B68002BD2D100BF00BF0837BD4680BDAE
:1034D000000500202C0500201405002080B582B0D6
:1034E00000AF78607B681B6B184601F0D9FC7868E8
:1034F00001F0D6FC00BF0837BD4680BD80B483B064
:1035000000AF0E4B1B681B68002B01D1012300E0AC
:103510000023002B04D00A4B4FF0FF321A6008E062
:10352000064B1B68DB68DB687B607B685B68044A72
:10353000136000BF0C37BD4680BC7047E404002018
:103540004C05002080B483B000AF0B4B1B68002BF0
:1035500002D101237B6008E0084B1B68002B02D1DD
:1035600002237B6001E000237B607B6818460C37F8
:10357000BD4680BC704700BF3805002054050020C0
:1035800080B584B000AF78607B68FB607B68002BFF
:1035900062D0FB68DA6A324B1B68DB6A9A425BD204
:1035A000FB689B69002B06DB2D4B1B68DB6AC3F1B4
:1035B0002002FB689A61FB685969FB68DA6A134666
:1035C0009B0013449B00274A1344994201D10123D5
:1035D00000E00023002B3AD0FB6804331846FEF7C6
:1035E00047FC0346002B15D1FB68DA6A1D491346D8
:1035F0009B0013449B000B441B68002B0AD1FB6803
:10360000DB6A012202FA03F3DA43174B1B6813400B
:10361000154A1360124B1B68DA6AFB68DA62FB68B2
:10362000DB6A01229A40104B1B6813430E4A136059
:10363000FB68DA6A13469B0013449B00094A1A444C
:10364000FB68043319461046FEF7B7FB04E0044B51
:103650001B68DA6AFB68DA6200BF1037BD4680BDBE
:10366000380200203C0200203405002080B584B0E0
:1036700000AF78607B68BB600023FB607B68002B39
:1036800064D0354B1B68BA689A4205D040F6C762D1
:103690003249334801F0B6FEBB681B6D002B05D1E3
:1036A00040F6C9622D492E4801F0ACFEBB681B6D87
:1036B0005A1EBB681A65BB68DA6ABB68DB6C9A4243
:1036C00044D0BB681B6D002B40D1BB680433184647
:1036D000FEF7CEFB0346002B15D1BB68DA6A214901
:1036E00013469B0013449B000B441B68002B0AD11C
:1036F000BB68DB6A012202FA03F3DA431A4B1B6848
:103700001340194A1360BB68DA6CBB68DA62BB68A5
:10371000DB6AC3F12002BB689A61BB68DB6A0122E5
:103720009A40114B1B6813430F4A1360BB68DA6A57
:1037300013469B0013449B000A4A1A44BB68043397
:1037400019461046FEF739FB0123FB60FB6818465B
:103750001037BD4680BD00BF3802002088720008C7
:103760009C7200083C0200203405002080B400AFA9
:10377000074B1B68002B04D0054B1B681A6D0132E8
:103780001A65034B1B681846BD4680BC704700BFD6
:103790003802002080B584B000AF78603960294BD2
:1037A0001B68FB60284B1B6804331846FEF760FB60
:1037B0000346002B0BD1244B1B68DB6A012202FA63
:1037C00003F3DA43214B1B681340204A13607B68E4
:1037D000B3F1FF3F0AD13B68002B07D01A4B1B689F
:1037E000043319461A48FEF7E8FA26E0FA687B68BF
:1037F0001344BB60144B1B68BA685A60BA68FB6814
:103800009A4209D2134B1A680F4B1B6804331946AE
:103810001046FEF7F5FA10E00F4B1A680A4B1B68CA
:10382000043319461046FEF7EBFA0C4B1B68BA68D6
:103830009A4202D2094ABB68136000BF1037BD46E6
:1038400080BD00BF30050020380200203405002074
:1038500018050020E8040020E40400204C050020A6
:1038600080B584B002AF00237B6000F0F9FA0F4B03
:103870001B68002B0BD00E4B01931F2300930023DA
:103880004FF482720B490C48FFF780F878607B6830
:10389000002B05D140F233120849094801F0B2FD6E
:1038A0007B6818460837BD4680BD00BF88050020EC
:1038B0008C050020C47200087D3A0008CC72000814
:1038C000E072000880B588B002AFF860B9607A6035
:1038D0003B602C2001F02CFA78617B69002B09D029
:1038E0007B6901933B6A00933B687A68B968F86822
:1038F00000F006F87B6918461837BD4680BD000009
:1039000080B584B000AFF860B9607A603B60BB6896
:10391000002B05D14FF4C6721049114801F072FD19
:10392000FB69002B15D000F09BFAFB69FA681A605E
:10393000FB69BA689A61FB697A68DA61FB693A687F
:103940001A62FB69BA695A62FB6904331846FEF7CA
:1039500028FA00BF1037BD4680BD00BFCC720008FA
:10396000E072000880B58AB000AFF860B9607A6094
:103970003B6000237B62FB68002B05D14FF4D372C0
:103980001B491C4801F03EFD1B4B1B68002B2AD035
:10399000BB687B617B68BB61FB68FB61BB68052B17
:1039A00018DCFFF7CFFD0346022B09D1124B186834
:1039B00007F1140100233A6BFEF74CFB786212E02A
:1039C0000D4B186807F1140100230022FEF742FB9B
:1039D000786208E0084B186807F1140100233A6880
:1039E000FEF73AFC78627B6A18462837BD4680BDF0
:1039F000CC720008E07200088805002080B586B00F
:103A000002AF786039601A4B1B68DB68DB68FB60CB
:103A1000FB6804331846FEF72BFAFB68DB69012BC1
:103A20001DD1FB689A697B68D1187B683A68F86891
:103A300000F0CAF80346002B11D0002300930023A6
:103A40007A680021F868FFF78DFFB860BB68002B2B
:103A500005D14FF402720749074801F0D3FCFB6817
:103A60005B6AF868984700BF1037BD4680BD00BF4D
:103A700080050020CC720008E072000880B584B098
:103A800000AF786007F10803184600F059F8F860B5
:103A9000BB681946F86800F005F800F0D7F800BFD9
:103AA000F0E7000080B584B000AF78603960FFF7C0
:103AB0007DF907F10803184600F066F8F860BB6866
:103AC000002B30D13B68002B0AD17A68FB689A4200
:103AD00006D8FFF779F9F9687868FFF78FFF24E0D7
:103AE0003B68002B08D0134B1B681B68002B0CBFD6
:103AF00001230023DBB23B600F4B18687A68FB6838
:103B0000D31A3A681946FEF7B9FEFFF75DF9034686
:103B1000002B0AD1094B4FF080521A60BFF34F8F30
:103B2000BFF36F8F01E0FFF74FF900BF1037BD46BD
:103B300080BD00BF840500208805002004ED00E062
:103B400080B485B000AF78600E4B1B681B68002BFB
:103B50000CBF01230023DBB21A467B681A607B6826
:103B60001B68002B05D1074B1B68DB681B68FB60DB
:103B700001E00023FB60FB6818461437BD4680BC9B
:103B8000704700BF8005002080B584B000AF78602A
:103B9000FFF7B6F9F8600B4B1B68FA689A4205D23A
:103BA00000F0FEF87B6801221A6002E07B680022C8
:103BB0001A60044AFB681360FB6818461037BD465C
:103BC00080BD00BF9005002080B586B000AFF860D2
:103BD000B9607A603B6000237B61FB68BA685A6019
:103BE000FB68FA681A61BA687B689A4212D87A68E8
:103BF0003B68D21AFB689B699A4202D301237B611E
:103C00001BE0104B1A68FB68043319461046FEF798
:103C1000F7F812E07A683B689A4206D2BA683B68C5
:103C20009A4202D301237B6107E0074B1A68FB68C5
:103C3000043319461046FEF7E3F87B691846183737
:103C4000BD4680BD840500208005002080B58CB075
:103C500002AF8DE0BB68002B14DA07F108030433D0
:103C60007B627B6A002B05D140F2E72249494A4832
:103C700001F0C8FB7B6A1B687A6A50687A6A9268AE
:103C800011469847BB68002B72DB3B693B623B6A7D
:103C90005B69002B04D03B6A04331846FEF7E8F852
:103CA0003B1D1846FFF770FFF861BB68092B5CD815
:103CB00001A252F823F000BFE13C0008E13C0008FB
:103CC000E13C00086B3D0008353D0008633D0008FD
:103CD000E13C0008E13C00086B3D0008353D000870
:103CE000FA683B6A9B69D118FB68FA69386AFFF782
:103CF0006BFF0346002B3AD03B6A5B6A386A9847F1
:103D00003B6ADB69012B32D1FA683B6A9B691A4432
:103D10000023009300230021386AFFF723FEB861D7
:103D2000BB69002B23D140F221321A491A4801F015
:103D300069FB1CE0FA683B6A9A613B6A9B69002B4D
:103D400005D14FF44E721349134801F05BFB3B6AF7
:103D50009A69FB69D118FB69FA69386AFFF734FF81
:103D600006E0386A01F09CF802E000BF00E000BF06
:103D70000A4B186807F1080100230022FEF70CFB2C
:103D80000346002B7FF466AF00BF00BF2837BD4657
:103D900080BD00BFCC720008E072000888050020DA
:103DA00080B588B002AF40E0294B1B68DB681B6818
:103DB0003B61274B1B68DB68DB68FB60FB680433F7
:103DC0001846FEF755F8FB685B6AF8689847FB6889
:103DD000DB69012B29D1FB689B693A691344BB60FD
:103DE000BA683B699A420ED9FB68BA685A60FB68A8
:103DF000FA681A61164B1A68FB68043319461046B4
:103E0000FDF7FEFF11E00023009300233A69002133
:103E1000F868FFF7A7FD78607B68002B05D140F2BA
:103E200092320C490C4801F0EDFA094B1B681B68F3
:103E3000002BB9D1064B1B687B61084B1B68044AF9
:103E40001360064A7B69136000BF1837BD4680BD0A
:103E500080050020CC720008E07200088405002074
:103E600080B500AF00F06EFE124B1B68002B1DD119
:103E70001148FDF777FF1148FDF774FF104B0E4A0C
:103E80001A60104B0D4A1A60002210210520FEF71F
:103E900081F80346074A1360064B1B68002B05D0C8
:103EA000044B1B6808491846FEF7C0FC00F078FE7A
:103EB00000BF80BD88050020580500206C0500204B
:103EC0008005002084050020F072000880B483B0D3
:103ED00000AF78607B68002B07D07B681B781946A1
:103EE000044A7B6842F8213000E000BF0C37BD4631
:103EF00080BC70479405002080B582B000AF0023DD
:103F0000FB710EE0FB790B4A52F823305B681B68AB
:103F1000FA79084951F8222010469847FB79013375
:103F2000FB71FB79012BEDD900BF00BF0837BD46FF
:103F300080BD00BF9405002080B582B000AF002393
:103F40003B600023FB7126E0FA7917491346DB003A
:103F500013449B000B441C331868FA79124913462A
:103F6000DB0013449B000B4420331B6800221946DE
:103F7000FEF710F838603B68002B09D0FA790A493F
:103F80001346DB0013449B000B4410333A681A605D
:103F9000FB790133FB71FB79012BD5D9002318463E
:103FA0000837BD4680BD00BFA000002080B485B0AA
:103FB00000AF0346B9607A60FB73FB7B012B02D92B
:103FC0004FF0FF3314E0FA7B0C491346DB00134437
:103FD0009B000B440433BA681A60FA7B0749134606
:103FE000DB0013449B000B4418337A681A600023EB
:103FF00018461437BD4680BC704700BFA0000020A3
:10400000F0B587B002AF0123BB60FFF795FF002337
:10401000FB734BE0FA7B29491346DB0013449B00FA
:104020000B4404331868FA7B24491346DB0013441D
:104030009B000B4408331C68FA7B20491346DB00C5
:1040400013449B000B440C331D88FA7B1B49134619
:10405000DB0013449B000B4410331E68FA7B1749A6
:104060001346DB0013449B000B4414331968FA7B9E
:10407000124B7B601346DB0013449B007A681344A9
:1040800018331B680193009133462A462146FEF7F8
:104090007DFCB860BB68012B05D0FB7B1A46084944
:1040A000002000F009F9FB7B0133FB73FB7B012B44
:1040B000B0D9002318461437BD46F0BDA00000203B
:1040C0000C73000880B584B000AF03463A60FB7102
:1040D0000B46BB71BB79012B02D94FF0FF3324E0B3
:1040E000BA7914491346DB0013449B000B44103388
:1040F0001B68BB600123FB60FB79012B07D1002308
:1041000000223968B868FEF7A7F8F86006E00023D7
:1041100000223968B868FDF79DFFF860FB68012B45
:1041200002D04FF0FF3300E0002318461037BD46A1
:1041300080BD00BFA000002090B58BB000AFF8603C
:10414000B9603B601346FB71A7E097F90730002B7D
:10415000C0F2A980FB681B78252B40F09280FB6899
:104160000133FB60FB681B78732B63D0732B7FDC00
:10417000632B02D0642B0DD07AE03B681A1D3A60A5
:104180001A68FB79591CF9711946BB680B44D2B205
:104190001A707FE03B681A1D3A601B687B627B6A7D
:1041A0003B620023BB770AE0BB7F0133BB777B6AAE
:1041B0003F4A82FB03129210DB17D31A7B627B6AA1
:1041C000002BF1D10023FB772FE0BA7FFB7FD31ABE
:1041D000013B1846FCF766F902460B464FF000001B
:1041E000344901F02DFF02460B4610461946FCF7F4
:1041F00073FC03467B613A6A7B6992FBF3F3DAB2A4
:10420000FB79591CF9711946BB680B443032D2B2A4
:104210001A703B6A7A6993FBF2F2796901FB02F248
:104220009B1A3B62FB7F0133FB77FA7FBB7F9A428D
:10423000CBD32FE03B681A1D3A601B68BB6100239B
:10424000FB770DE0FB7FBA691A44FB79591CF971C1
:104250001946BB680B4412781A70FB7F0133FB7759
:10426000FC7FB869FBF7C4FF03469C42EAD311E028
:10427000FB795A1CFA711A46BB68134425221A703E
:1042800008E0FB795A1CFA711A46BB681344FA68B5
:1042900012781A70FB680133FB60FB681B78002BF7
:1042A0007FF453AF00E000BF00BF2C37BD4690BD88
:1042B00067666666000024400EB480B587B000AF24
:1042C0000346FB717B6A002B52D07B6A7B618020A6
:1042D00000F018FF03463B6180220021386901F09D
:1042E000D9F907F12803FB60FB79022B24D0022BBC
:1042F00030DC002B02D0012B0ED02BE03B69204993
:104300001A460B4603CB10605160FB6807223969DF
:104310007869FFF711FF1EE03B691A491A460B4600
:1043200003CB106051601B881381FB680922396937
:104330007869FFF701FF0EE03B6913491A460B4607
:1043400003CB10605160FB68072239697869FFF779
:10435000F3FE00E000BF00F0F5FB386901F0BAF8A9
:1043600000F01EFC386900F0D5FE00233B6100E040
:1043700000BF1C37BD46BDE8804003B0704700BF9A
:1043800068730008707300087C73000880B582B001
:1043900000AF78607B68002B04DB7B68022B01DCBC
:1043A000012305E001F0D4F9034609221A60002335
:1043B00018460837BD4680BD80B582B000AF786032
:1043C0007B68002B04DB7B68022B01DC002306E00A
:1043D00001F0BEF9034609221A604FF0FF33184678
:1043E0000837BD4680BD80B584B000AFF860B960C5
:1043F0007A6001F0ADF9034609221A604FF0FF33ED
:1044000018461037BD4680BD80B582B000AF7860D9
:1044100039607B68002B08DB7B68022B05DC3B687E
:104420004FF400525A60002305E001F091F9034671
:1044300009221A60002318460837BD4680BD80B4A3
:1044400087B000AFF860B9607A6000237B6102E05A
:104450007B6901337B617A697B689A42F8DB7B6810
:1044600018461C37BD4680BC704780B487B000AF8B
:10447000F860B9607A6000237B6102E07B690133F8
:104480007B617A697B689A42F8DB7B6818461C3747
:10449000BD4680BC7047000080B485B000AF0346C5
:1044A0003A60FB710B46BB80FB79023BFB73FA7BE6
:1044B000104913465B0013449B000B440233BA8837
:1044C0001A80FA7B0B4913465B0013449B000B4494
:1044D00008333A681A60FA7B064913465B001344B6
:1044E0009B000B44043301221A7000BF1437BD46F1
:1044F00080BC7047A005002080B582B000AF0023CB
:10450000FB7156E0FA792F4913465B0013449B0078
:104510000B4404331B7883F00103DBB2002B44D13E
:10452000FA79284913465B0013449B000B44083377
:104530001B68002B39D0FA79224913465B001344DB
:104540009B000B441B88FA79023398B21D4913462D
:104550005B0013449B000B4402461A80FA79194908
:1045600013465B0013449B000B441988FA791548E5
:1045700013465B0013449B00034402331B8899429B
:1045800014D3FA790F4913465B0013449B000B4484
:1045900000221A80FA790B4913465B0013449B00F2
:1045A0000B4408331B68984700E000BFFB790133D8
:1045B000FB71FB79002BA5D000BF00BF0837BD46BB
:1045C00080BD00BFA005002090B583B002AF114BA5
:1045D00000930023012202210F48FFF773F90346DD
:1045E0000E4A13600D4B1B68002B02D14FF0FF33B6
:1045F0000CE00A4B1C68FEF783FC02460023009384
:10460000002301212046FFF7ADF9002318460437A7
:10461000BD4690BDF944000884730008AC05002035
:1046200080B582B000AF78607B68002B2FD07B68AC
:104630001B78012B2DD97B681B78022B29D87B682E
:104640001B78023B15497A6841F823207B681B6977
:10465000002B03D07B68DB89002B07D17B681B789C
:104660001A460F490020FFF727FE13E07B681B78EE
:104670001A460C490020FFF71FFE7B6818787B68FC
:10468000D9897B681B691A46FFF706FF02E000BF65
:1046900000E000BF0837BD4680BD00BF9C0500207C
:1046A00098730008E073000880B582B000AF002363
:1046B000FB710EE0FB790B4A52F823305B681B68F4
:1046C000FA79084951F8222010469847FB790133BE
:1046D000FB71FB79002BEDD0FFF776FF00BF0837A9
:1046E000BD4680BD9C05002080B582B000AF03466A
:1046F0003A60FB710B46BB71B979FB793A68184691
:10470000FFF7E0FC034618460837BD4680BD80B57C
:1047100082B000AF78607B68002B02D14FF0FF338E
:1047200002E07B689847002318460837BD4680BDE5
:1047300080B582B000AF00233B600C4B7B607B6890
:104740001B683B603B681846FFF7E1FF7B6804335A
:104750007B607B68064A9342F1D3FFF7A5FFFFF722
:10476000CBFB002318460837BD4680BD580100200A
:104770006401002080B500AFFEF7E4FE0346012B84
:1047800001D000F059FA00BF80BD000080B582B0B2
:1047900000AF0420FCF73CFB154B1B68154AA2FB3D
:1047A00003239B0CDAB2144B1A70114B1B68114A8D
:1047B000A2FB03239B0C7B607B684FF47A7202FBA5
:1047C00003F37B600D4B01221A800D4B1B680C4AD2
:1047D00043F0020313600A4A7B685360084B1B686E
:1047E000074A43F00103136000BF0837BD4680BD90
:1047F0000000002083DE1B43B0050020B20500202E
:1048000010E000E080B588B000AF7860012144F28C
:104810000400FCF799FC4FF40073BB830323BB77C0
:104820001823FB7707F11C0319461D48FCF70CFB06
:104830004FF48063BB830423FB7707F11C03194605
:104840001748FCF701FB25233B7203237B720323EC
:10485000BB720123FB7207F108031846FCF776FAD6
:104860007B68FB6000233B8200237B820023BB82AA
:1048700000233B830C23FB8207F10C0319460948F4
:10488000FCF7D8FC012240F225510648FCF7ABFDAD
:1048900001210448FCF788FD00BF2037BD4680BDDC
:1048A000000801400038014080B582B000AF40F2FE
:1048B00025512548FCF7EDFD0346002B3FD022484B
:1048C000FCF7D8FD0346FB71204B1B881BB2002B65
:1048D00035DB1E4B1B8803F48043002B10D0FB7983
:1048E0000A2B03D0194B00221A8028E0174B1B8893
:1048F0006FEA43436FEA53439AB2144B1A801EE0A7
:10490000FB790D2B07D1114B1B8843F480439AB2DE
:104910000E4B1A8013E00D4B1B88C3F30D030C499B
:10492000FA79CA54094B1B8801339AB2074B1A8093
:10493000064B1B88C72B02D9044B00221A8000BFEC
:104940000837BD4680BD00BF003801407C0600200E
:10495000B405002080B485B000AFF860B9607A601B
:10496000FB68043BFB60FB684FF080721A60FB68D9
:10497000043BFB60BB6823F00102FB681A60FB6824
:10498000043BFB60084AFB681A60FB68143BFB6051
:104990007A68FB681A60FB68203BFB60FB6818467E
:1049A0001437BD4680BC7047AD49000880B582B061
:1049B00000AF00233B600E4B1B68B3F1FF3F04D0F8
:1049C000D1220C490C4800F01DFD4FF0500383F339
:1049D0001188BFF36F8FBFF34F8F7B6000BF00BFA5
:1049E0003B68002BFCD000BF00BF0837BD4680BD30
:1049F000E8000020247400084C7400080000000047
:104A0000074B19680868B0E8F00F80F30988BFF316
:104A10006F8F4FF0000080F311884EF00D0E70473D
:104A20003802002000BF00BF06480068006880F31D
:104A3000088862B661B6BFF34F8FBFF36F8F00DF98
:104A400000BF000008ED00E000BF00BF80B584B0EB
:104A500000AF354BFB60FB681B78DBB2BB60FB68CB
:104A6000FF221A70FB681B78DBB2FB71FB79DBB2AB
:104A700003F05003DAB22D4B1A702D4B07221A6047
:104A800009E02B4B1B68013B294A1360FB79DBB221
:104A90005B00DBB2FB71FB79DBB203F08003802BA0
:104AA000EFD0234B1B68C3F10703042B05D040F262
:104AB00037122049204800F0A5FC1D4B1B68C3F1AC
:104AC0000703042B05D04FF4A0721A491A4800F0CE
:104AD00099FC174B1B681B02154A1360144B1B688B
:104AE00003F4E063124A1360BB68DAB2FB681A7021
:104AF000124B1B68114A43F4700313600F4B1B6881
:104B00000E4A43F07043136000F0B8F80C4B0022DB
:104B10001A60FFF789FFFEF7BDFAFFF747FF002392
:104B200018461037BD4680BD00E400E07E06002038
:104B300080060020247400084C74000820ED00E07A
:104B4000E800002080B582B000AF4FF0500383F33F
:104B50001188BFF36F8FBFF34F8F7B6000BF0C4B8B
:104B60001B6801330A4A1360094B1B68012B0AD1E9
:104B7000084B1B68DBB2002B05D040F27F120649C0
:104B8000064800F03FFC00BF0837BD4680BD00BFAF
:104B9000E800002004ED00E0247400084C740008D4
:104BA00080B582B000AF0E4B1B68002B05D14FF4CF
:104BB000C3720C490C4800F025FC094B1B68013BF3
:104BC000074A1360064B1B68002B05D100237B604E
:104BD0007B6883F3118800BF00BF0837BD4680BDE6
:104BE000E8000020247400084C7400080000000055
:104BF000EFF30980BFF36F8F0D4B1A6820E9F00FB8
:104C000010602DE908404FF0500080F31188FEF746
:104C100041FA4FF0000080F31188BDE808401968A0
:104C20000868B0E8F00F80F30988BFF36F8F704712
:104C30003802002000BF00BF80B582B000AF4FF047
:104C4000500383F31188BFF36F8FBFF34F8F7B60E7
:104C500000BFFEF763F90346002B03D0064B4FF06D
:104C600080521A6000233B603B6883F3118800BFC9
:104C700000BF0837BD4680BD04ED00E080B400AF42
:104C80000A4B00221A600A4B00221A60094B1B686B
:104C9000094AA2FB03239B09084A013B1360034B0B
:104CA00007221A6000BFBD4680BC704710E000E0DC
:104CB00018E000E000000020D34D621014E000E096
:104CC00080B582B000AFEFF305837B607B680F2B6C
:104CD0000FD9114A7B6813441B78FB700F4B1B786C
:104CE000FA789A4205D240F2E6220D490D4800F0CA
:104CF00089FB0D4B1B6803F4E0620C4B1B689A4266
:104D000005D940F2F6220649064800F07BFB00BFB9
:104D10000837BD4680BD00BFF0E300E07E060020FE
:104D2000247400084C7400080CED00E0800600209C
:104D300080B586B000AF78600023FB60FEF736F8E0
:104D4000504B1B68002B01D100F0FEF84E4B1A6847
:104D50007B681340002B40F082807B68002B17D0CB
:104D600008227B6813447B607B6803F00703002BF9
:104D70000ED07B6823F0070308337B607B6803F069
:104D80000703002B04D0BF224049414800F03AFB02
:104D90007B68002B63D03F4B1B687A689A425ED8D1
:104DA0003D4B3B613C4B1B687B6104E07B693B6195
:104DB0007B691B687B617B695B687A689A4203D96F
:104DC0007B691B68002BF1D12E4B1B687A699A42D4
:104DD00045D03B691B6808221344FB607B691A6855
:104DE0003B691A607B695A687B68D21A08235B00AA
:104DF0009A4219D97A697B681344BB60BB6803F097
:104E00000703002B04D0EC222049214800F0FAFAD5
:104E10007B695A687B68D21ABB685A607B697A687A
:104E20005A60B86800F0F2F81A4B1A687B695B6840
:104E3000D31A184A1360174B1A68184B1B689A420A
:104E400003D2144B1B68154A13607B695A680E4BDA
:104E50001B681A437B695A607B6900221A60FDF760
:104E6000B3FFFB6803F00703002B05D04FF49672E5
:104E70000649074800F0C6FAFB6818461837BD46D1
:104E800080BD00BF8C560020985600205C7400083E
:104E9000807400089056002084560020945600200C
:104EA00080B584B000AF78607B68FB607B68002BC6
:104EB0003ED008235B42FA681344FB60FB68BB608A
:104EC000BB685A681C4B1B681340002B05D14FF47C
:104ED000A0721A491A4800F095FABB681B68002BAB
:104EE00005D040F241121549154800F08BFABB6815
:104EF0005A68114B1B681340002B19D0BB681B6804
:104F0000002B15D1BB685A680B4B1B68DB431A405A
:104F1000BB685A60FDF74AFFBB685A68094B1B68BB
:104F20001344084A1360B86800F070F8FDF74CFFAE
:104F300000BF1037BD4680BD985600205C74000845
:104F4000807400089056002080B485B000AF4FF404
:104F5000A043BB60274BFB60FB6803F00703002BFB
:104F60000CD0FB680733FB60FB6823F00703FB6092
:104F7000BA68FB68D31A1F4A1344BB60FB687B60A6
:104F80001D4A7B6813601C4B00225A607B68BA681C
:104F90001344FB600822FB689B1AFB60FB6823F04C
:104FA0000703FB60FB68154A1360144B1B68002263
:104FB0005A60124B1B6800221A607B683B603B689A
:104FC000FA68D21A3B685A600C4B1A683B681A6040
:104FD0003B685B680A4A13603B685B68094A136078
:104FE000094B4FF000421A6000BF1437BD4680BC29
:104FF000704700BF84060020845600208C56002095
:1050000094560020905600209856002080B485B019
:1050100000AF7860274BFB6002E0FB681B68FB6019
:10502000FB681B687A689A42F7D8FB68BB60FB682C
:105030005B68BA6813447A689A4208D1FB685A6878
:105040007B685B681A44FB685A60FB687B607B681E
:10505000BB607B685B68BA681A44FB681B689A424D
:1050600018D1FB681A68144B1B689A420DD07B68F4
:105070005A68FB681B685B681A447B685A60FB6867
:105080001B681A687B681A6008E00B4B1A687B681B
:105090001A6003E0FB681A687B681A60FA687B682C
:1050A0009A4202D0FB687A681A6000BF1437BD4686
:1050B00080BC7047845600208C560020002103E0FD
:1050C0000A4B5B584350043109480A4B42189A4234
:1050D000F6D3094A02E0002342F8043B074B9A4208
:1050E000F9D3FBF767FDFCF78DFC7047D47400081B
:1050F000000000206401002064010020EC57002023
:10510000FEE70000024B0146186800F02DB800BF12
:10511000F8000020024B0146186800F031BB00BFC8
:10512000F800002070B50F4E0C463168054611B9E5
:1051300000F0ECFA30602146284600F0E7FA431C04
:1051400003D14FF0FF34204670BDC41C24F003048B
:10515000A042F8D0211A284600F0D8FA0130F2D146
:10516000EFE700BF9C5600202DE9F843CD1C25F049
:10517000030508350C2D38BF0C25002D064601DB34
:10518000A94204D90C2333600020BDE8F883DFF87E
:10519000D48000F069F8D8F800301C4644BB29469A
:1051A0003046FFF7BFFF431C044658D1D8F80040F3
:1051B0002746002F43D1002C4BD023683946304678
:1051C00004EB030900F0A2FA814542D12168304680
:1051D0006D1A2946FFF7A6FF01303AD023682B4409
:1051E0002360D8F800305A6862BBC8F800700FE03E
:1051F0002268521B20D40B2A17D96119A3422560BB
:1052000018BF5960636808BFC8F8001062514B604E
:10521000304600F02FF804F10B00231D20F00700AA
:10522000C21A1CBF1B1AA350AFE76268A3420CBF8F
:10523000C8F800205A60EBE723466468AEE73C46B6
:105240007F68B6E71A465B68A342FBD10023536030
:10525000DEE70C233046336000F00CF894E705607D
:10526000D6E700BFA0560020014800F078BA00BF82
:10527000E4570020014800F073BA00BFE457002053
:10528000002310B50446C0E90033C0E9043383604D
:1052900081814366C2818361194608225C3000F037
:1052A000F9F90D4B246263620C4BA3620C4BE36271
:1052B0000C4B23630C4B9C4206D003F168029442D2
:1052C00002D0D0339C4205D104F15800BDE8104013
:1052D00000F044BA10BD00BFE554000807550008AF
:1052E0003F55000863550008A4560020024A0349B0
:1052F000034800F069B800BFEC000020CD5E000854
:10530000FC00002041680C4B10B59942044601D0C6
:1053100000F0DCFDA168094B994202D0204600F064
:10532000D5FDE168064B994204D02046BDE8104007
:1053300000F0CCBD10BD00BFA45600200C570020CB
:105340007457002010B50B4B0B4C0C4A20461A60CA
:1053500004210022FFF794FF04F1680001220921D3
:10536000FFF78EFF04F1D0000222BDE810401221A9
:10537000FFF786BFDC570020A4560020ED5200083E
:10538000014800F0ECB900BFE5570020014800F0EB
:10539000E7B900BFE557002010B50446FFF7F0FF5E
:1053A000236A1BB1BDE81040FFF7F0BF044B236236
:1053B000044B1B68002BF5D1FFF7C4FFF2E700BFD9
:1053C00005530008DC5700202DE9F84307468846BE
:1053D00014460026D4E90195B9F1010905D52468E0
:1053E000002CF7D13046BDE8F883AB89012B07D9F3
:1053F000B5F90E30013303D029463846C04706437D
:105400006835E9E70FB407B5064904AB086853F8F7
:10541000042B8168019300F023FA03B05DF804EBDC
:1054200004B07047F8000020036A70B505460E46C8
:1054300084680BB9FFF7B0FF636EDB0705D4A3895F
:10544000980502D4A06D00F08AF9A389190702D546
:105450002369002B35D12146284600F0C5F880B3DA
:105460004FF0FF35636EDA0705D4A3899B0502D49C
:10547000A06D00F075F9284670BD002B15DB236880
:105480005A1C22601970A36816F8011F013BA36023
:105490000029F2D1002B16DA22460A21284600F014
:1054A00064F80130DCD00A25DCE7A2699A4201DC0D
:1054B0000A29E4D12246284600F057F80130E2D10B
:1054C000CEE7013EDFE723685A1C22600A221A70E9
:1054D000E9E70000024B01461868FFF7A5BF00BFCF
:1054E000F800002010B50C46B1F90E1000F0FCF8E1
:1054F0000028ABBF636DA3891B1823F48053ACBF96
:105500006365A38110BD2DE9F0411F468B890546D7
:10551000DB050C46164605D502230022B1F90E1014
:1055200000F0D0F8A389324623F48053A3812846A3
:105530003B46B4F90E10BDE8F04100F0F7B810B5E5
:105540000C46B1F90E1000F0BDF8431CA38915BF3D
:10555000606523F4805343F48053A38118BFA38173
:1055600010BDB1F90E1000F09DB8F8B50E46144606
:10557000054618B1036A0BB9FFF70EFFA369A360D4
:10558000A3891A0701D5236943B92146284600F0AB
:105590002BF818B14FF0FF373846F8BD2368226961
:1055A000F6B2981A63693746834205DC21462846DD
:1055B00000F08CFC0028EDD1A368013BA3602368B8
:1055C0005A1C22601E706269431C9A4204D0A3894F
:1055D000DB07E1D50A2EDFD12146284600F076FC14
:1055E0000028D9D0D6E7000038B5294B0546186801
:1055F0000C4618B1036A0BB9FFF7CEFEB4F90C30B4
:10560000190722D4DA0607D409222A6043F040039E
:105610004FF0FF30A38133E0580712D5616B41B1E1
:1056200004F14403994202D0284600F0A9F800236F
:105630006363A38923F02403A381002363602369A8
:105640002360A38943F00803A38123694BB9A3898D
:1056500003F42073B3F5007F03D02146284600F001
:1056600082FCB4F90C3013F001020AD00022A260CF
:1056700062695242A261226942B913F08000C5D129
:1056800038BD990758BF6269A260F4E70020F7E7C8
:10569000F800002003460244934200D1704703F80B
:1056A000011BF9E738B50023054D044608462B6079
:1056B000FEF782FE431C02D12B6803B1236038BD84
:1056C000E057002038B50446084611460022054D33
:1056D0002A601A46FEF787FE431C02D12B6803B1ED
:1056E000236038BDE057002038B50446084611460F
:1056F0000022054D2A601A46FEF7A1FE431C02D186
:105700002B6803B1236038BDE057002038B5002373
:10571000054D044608462B6001F04EFC431C02D1A7
:105720002B6803B1236038BDE057002038B504462C
:10573000084611460022054D2A601A46FEF795FEDE
:10574000431C02D12B6803B1236038BDE057002011
:10575000014B1868704700BFF80000207047704781
:1057600070470A44914200F1FF3300D1704710B5F1
:1057700011F8014B914203F8014FF9D110BD00001F
:1057800038B50546002940D051F8043C0C1F002BC9
:10579000B8BFE418FFF768FD1C4A136833B96360AB
:1057A00014602846BDE83840FFF764BDA34208D91D
:1057B000206821188B4201BF19685B6809182160B5
:1057C000EDE71A465B680BB1A342FAD9116850188D
:1057D000A0420BD120680144501883421160E0D1EF
:1057E00018685B68084410605360DAE702D90C233C
:1057F0002B60D6E7206821188B4201BF19685B68CF
:105800000918216063605460CBE738BDA0560020C2
:10581000936810B4013B002B936007DA9469A342AC
:1058200001DB0A2902D110BCFFF79FBE1368581C88
:1058300010601970084610BC7047F8B506460F4650
:105840001446D518AC4201D1002007E03A46304654
:1058500014F8011BFFF7DCFF431CF3D1F8BD000077
:105860002DE9F04F0D461446984606469DB018B1F6
:10587000036A0BB9FFF790FD6B6ED90705D4AB89AE
:105880009A0502D4A86DFFF76AFFAB891B0701D503
:105890002B699BB929463046FFF7A6FE70B16B6EA7
:1058A000DC0704D54FF0FF301DB0BDE8F08FAB89A9
:1058B0009805F7D4A86DFFF753FFF3E7002309938A
:1058C00020238DF8293030234FF00109CDF80C80CA
:1058D000DFF8A8818DF82A3023469A4613F8012B69
:1058E0000AB1252AF9D1BAEB040B0BD05B4622464C
:1058F00029463046FFF7A1FF013000F0A780099A42
:105900005A4409929AF80030002B00F09F8000233F
:105910004FF0FF32CDE905230AF1010A0493079302
:105920008DF853301A935446052214F8011B53483E
:1059300000F078FB049AD8B9D10644BF20238DF833
:105940005330130744BF2B238DF853309AF800309F
:105950002A2B15D0544600204FF00A0C079A2146F6
:1059600011F8013B303B092B4BD9B0B1079214E041
:10597000A0EB080309FA03F31343A2460493D2E70A
:10598000039B191D1B680391002BBBBF5B4242F0B8
:10599000020207930793B8BF049223782E2B0AD1F3
:1059A00063782A2B32D1039B02341A1D1B680392A1
:1059B00043EAE3730593DFF8C8A003225046217839
:1059C00000F030FB38B14022049BA0EB0A0082407B
:1059D00013430134049314F8011B062229488DF85F
:1059E000281000F01FFB00283FD0274B1BBB039B58
:1059F000073323F0070308330393099B3B440993C0
:105A00006AE70C4601200CFB0232A8E700234FF0A6
:105A10000A0C194601340593204610F8012B303A40
:105A2000092A03D9002BC6D00591C4E704460123F7
:105A30000CFB0121F0E703AB00932A463046134BE1
:105A400004A9AFF300800746781CD6D16B6ED90746
:105A500005D4AB899A0502D4A86DFFF781FEAB8906
:105A60005B063FF51FAF09981EE703AB00932A467C
:105A70003046064B04A900F07DF8E4E78E74000878
:105A80009474000898740008000000003B58000857
:105A90002DE9F047164698468A680B6907469342F7
:105AA000B8BF1346336091F843200C46DDF82090D0
:105AB0000AB1013333602368990642BF3368023369
:105AC0003360256815F0060506D104F1190AE3686C
:105AD00032689B1AAB422BDC94F843302268003BBF
