:020000040800F2
:1000000000C000208D10000855100008571000088F
:10001000591000085B1000085D1000080000000087
:100020000000000000000000000000005F10000859
:10003000611000080000000063100008651000084F
:10004000D1100008D1100008D1100008D11000080C
:10005000D1100008D1100008D1100008D1100008FC
:10006000D1100008D1100008D1100008D1100008EC
:10007000D1100008D1100008D1100008D1100008DC
:10008000D1100008D1100008D1100008D1100008CC
:10009000D1100008D1100008D1100008D1100008BC
:1000A000D1100008D1100008D1100008D1100008AC
:1000B000D1100008D1100008D1100008D11000089C
:1000C000D1100008D1100008D1100008D11000088C
:1000D000D1100008D110000869100008D1100008E4
:1000E000D1100008D1100008D1100008D11000086C
:1000F000D1100008D1100008D1100008D11000085C
:10010000D1100008D1100008D1100008D11000084B
:10011000D1100008D1100008D1100008D11000083B
:10012000D1100008D1100008D1100008D11000082B
:1001300000000000000000000000000000000000BF
:1001400000000000000000000000000000000000AF
:10015000000000000000000000000000000000009F
:10016000000000000000000000000000000000008F
:10017000000000000000000000000000000000007F
:10018000000000000000000000000000000000006F
:10019000000000000000000000000000000000005F
:1001A000000000000000000000000000000000004F
:1001B000000000000000000000000000000000003F
:1001C000000000000000000000000000000000002F
:1001D000000000000000000000000000000000001F
:0401E0005FF8E0F1F3
:1001E4000348044B834202D0034B03B118477047C2
:1001F4008400002084000020000000000548064B15
:100204001B1AD90F01EBA301491002D0034B03B110
:10021400184770478400002084000020000000007C
:1002240010B5064C237843B9FFF7DAFF044B13B13A
:100234000448AFF300800123237010BD8400002024
:10024400000000002013000808B5054B1BB1054948
:100254000548AFF30080BDE80840FFF7CFBF00BFFB
:1002640000000000880000202013000880F30888A4
:100274007047000082B00023019300932C4A136856
:1002840043F4803313602A4B1B6803F40033009358
:10029400019B01330193009B1BB9019BB3F5A06F34
:1002A400F1D1234B1B6813F4003F06D001230093C4
:1002B400009B012B04D002B0704700230093F7E7A2
:1002C4001C4B1A6842F010021A601A6822F00302EA
:1002D4001A601A6842F002021A60A3F580535A6841
:1002E4005A605A685A605A6842F480625A605A687E
:1002F40022F47C125A605A6842F4E8125A601A686E
:1003040042F080721A600A4B1B6813F0007FFAD027
:10031400074B5A6822F003025A605A6842F00202FC
:100324005A60034B5B6803F00C03082BF9D1C2E756
:10033400001002400020024008B5FFF79BFF08BDF3
:1003440008B5104B1A6842F001021A6059680E4A47
:100354000A405A601A6822F0847222F480321A60C9
:100364001A6822F480221A605A6822F4FE025A6043
:100374004FF41F029A60FFF7DFFF044B4FF0006257
:100384009A6008BD001002400000FFF800ED00E094
:1003940040F0BF6040F40030014BD860704700BFAC
:1003A40000ED00E0C378F3B1144BDB68DB43C3F327
:1003B4000223C3F1040C0F21D940427802FA0CF253
:1003C40083780B4013431B010278DBB20C490A44C7
:1003D40082F80033037803F01F005B090122824096
:1003E40041F823207047037803F01F015B090122C1
:1003F4008A402033024941F82320704700ED00E091
:1004040000E100E0042806D04FF0E022136923F055
:100414000403136170474FF0E022136943F00403AF
:1004240013617047034A136803F0380303431360EE
:10043400704700BF00200240044B1A6822F01002EB
:100444001A601A6802431A60704700BF0020024015
:10045400034B044A5A6002F188325A60704700BF65
:100464000020024023016745024A136943F08003D8
:100474001361704700200240044BDB6913F0020F44
:1004840001D0012070470020704700BF00200240C7
:10049400014BD860704700BF002002400B4BDB6863
:1004A40013F0010F0BD1094BDB6813F0040F08D1D3
:1004B400064BDB6813F0100F05D0032070470120B2
:1004C4007047022070470420704700BF002002409C
:1004D40010B50446FFF7E2FF02E0FFF7DFFF013C3F
:1004E400012801D1002CF8D104B110BD0520FCE78E
:1004F40038B504464FF43020FFF7EAFF042800D053
:1005040038BD0A4D2B6943F002032B616C612B69E2
:1005140043F040032B614FF43020FFF7D9FF2B69E0
:1005240023F00203DB04DB0C2B61E9E7002002402B
:1005340010B5FFF7A1FF38B9A5244FF43020FFF719
:10054400C7FF042802D010BD0024F6E71C4B1D4A47
:100554009A6002F188329A601A6942F020021A61A4
:100564001A6942F040021A614FF43020FFF7B0FFDD
:10057400042809D00528E6D0114A136923F0100392
:10058400DB04DB0C1361DEE70D4B1A6922F0200259
:10059400D204D20C1A611A6942F010021A610A4B91
:1005A4001C804FF40050FFF793FF0528CBD0044A7A
:1005B400136923F01003DB04DB0C1361C3E700BFF2
:1005C400002002402301674500F8FF1F30B583B0C7
:1005D40005460C46002301934FF40050FFF778FFC3
:1005E400042801D003B030BD124A136943F001035B
:1005F4001361A3B22B804FF40050FFF769FF042866
:1006040007D00C4A136923F00103DB04DB0C1361EC
:10061400E8E702350195019B210C19804FF4005045
:10062400FFF756FF034A136923F00103DB04DB0CD5
:100634001361D7E700200240F8B5C043C7B2C0F346
:100644000726C0F30745040E4FF40050FFF740FFA0
:10065400042800D0F8BD1F4B1F4A9A6002F188326B
:100664009A601A6942F010021A61FF2F0DD1042812
:1006740012D0042824D00528ECD0164A136923F09C
:100684001003DB04DB0C1361E4E7144B1F814FF40C
:100694000050FFF71DFFEAE7FF2E0AD10428EAD134
:1006A400FF2DE6D00D4B9D814FF40050FFF710FF56
:1006B400DFE70A4B5E814FF40050FFF709FFEDE7D7
:1006C400FF2CD8D0054BDC814FF40050FFF700FF1E
:1006D400D1E700BF002002402301674500F8FF1F57
:1006E40030B5CB7803F00F02964613F0100F03D009
:1006F40091F802E04EEA020E0B78FBB10568002384
:1007040001E042610133072B17D801229A40B1F866
:1007140000C032EA0C0CF5D19C004FF00F0C0CFA1F
:1007240004FC25EA0C050EFA04F42543CC78282CA5
:10073400E7D0482CE6D10261E4E705600B88FF2B83
:1007440025D94568002303E0CC78482C1CD001331C
:10075400072B1BD803F1080C012202FA0CF2B1F8A2
:1007640000C032EA0C0CF2D19C004FF00F0C0CFAD2
:1007740004FC25EA0C0C0EFA04F444EA0C05CC78CB
:10078400282CE1D14261DFE70261E0E7456030BD3A
:1007940010B4294B5B6803F00C03042B2BD0082BFB
:1007A4002CD013B1254B036001E0244B0360224994
:1007B4004B68C3F30313224CE25CD2B20368D34008
:1007C40043604A68C2F30222A25CD2B223FA02F264
:1007D40082604A68C2F3C222A25CD2B2D340C36030
:1007E4004A68C2F3813217498A5CD2B2B3FBF2F38E
:1007F400036110BC7047114B0360D8E70E4A53687D
:100804005268C3F38343023312F4803F04D10E4A87
:1008140002FB03F30360CAE7074A526812F4003F7D
:1008240004D0094A02FB03F30360C0E7034A02FB56
:1008340003F30360BBE700BF0010024000127A001C
:10084400080000200400002000093D0021B1054AF1
:100854009369034393617047024A936923EA00034F
:10086400936170470010024021B1054AD3690343E4
:10087400D3617047024AD36923EA0003D361704706
:100884000010024030B587B004460D46038A9BB27F
:10089400CA8823F440531343038283899BB2898813
:1008A40028896A8901430A4323F4B05323F00C03D3
:1008B4001343A381A38A9BB2AA8923F440731343ED
:1008C400A38201A8FFF764FF1D4B9C4224D0039B25
:1008D400A28912F4004F21D103EB830303EB8303BA
:1008E4002A689200B3FBF2F3164AA2FB03125209E0
:1008F4001101642002FB1033A28912F4004F16D1B7
:100904001B0132330F4AA2FB0323C3F343130B43EC
:100914009BB2238107B030BD049BD9E703EB83036B
:1009240003EB83032A685200B3FBF2F3DCE7DB003A
:100934003233044AA2FB0323C3F342130B43E7E716
:10094400003801401F85EB5129B183899BB243F4E0
:1009540000538381704783899BB223F400539BB275
:1009640083817047C1F3421C01F01F0101238B40B6
:10097400BCF1010F08D0BCF1020F07D014303AB11A
:1009840002681343036070470C30F8E71030F6E751
:10099400026822EA030303607047C1F308018180FF
:1009A40070478088C0F3080070470388194201D05B
:1009B4000120704700207047C1F3421201F01F0C60
:1009C400012303FA0CF3012A0FD0022A11D0828AE0
:1009D40092B21340090A012202FA01F1028892B28A
:1009E4000A4053B15AB900207047828992B2134029
:1009F400F0E7028A92B21340ECE70020704701202E
:100A04007047000010B5FFF723FD3420FFF740FDC9
:100A1400064C04E02046FFF76BFD04F50064044B2C
:100A24009C42F7D3FFF720FD10BD00BF0040000833
:100A340000F80308F8B504460D4617461E46102074
:100A4400FFF7FAFC0220FFF7EDFCFFF771FD4FF012
:100A5400FF30FFF7F1FDFFF7FBFC3420FFF718FD33
:100A64000EB900260AE02846FFF742FDF9E754F8DC
:100A7400041B2846FFF7AAFD04350136B6EB970F91
:100A8400F5D3FFF7F1FC0020F8BD000008B5012301
:100A9400142202490248FFF7CDFF08BD00F80308FD
:100AA400A00000200023B3EB920F0BD210B451F836
:100AB400044B40F8044B0133B3EB920FF7D30020FF
:100AC40010BC70470020704708B51422024903483F
:100AD400FFF7E8FF08BD00BF00F80308A0000020EE
:100AE40008B5FFF7F1FF084B1A68084B9A4200D18A
:100AF40008BD054B054A1A6000229A60DA601A6143
:100B0400FFF7C4FFF4E700BFA0000020CDBBAA5547
:100B140084460023184603E013F80C2010440133E4
:100B24008B42F9D37047000000487047180000203A
:100B34000449CA6802F4E062034B1343CB60BFF379
:100B44004F8FFEE700ED00E00400FA058446002321
:100B5400184603E01CF80320104401338B42F9D3F8
:100B6400704738B50546202000F0B2FA88B1044633
:100B7400002303E0EA5CE25401339BB20B2BF9D966
:100B84000C21204600F0AEF9204600F0A9FA01201D
:100B940038BD0020FCE7000038B5C568084B9D420D
:100BA4000BD3044606D0074B1D602046FFF7D9FF40
:100BB400002038BDFFF726FFF5E74FF0FF30F8E7D8
:100BC400004000082800002070B5054600F10C0420
:100BD400468900233246174909682046FFF72AFF51
:100BE40000231F2B06D8144AD15CE25C914201D148
:100BF4000133F6E7202B04D12846FFF7B2FF00208B
:100C040070BD0C4C31462068FFF782FF0B4A136815
:100C140003441360236833442360074CE86829695C
:100C24006A69AB690FC4E869296A6A6AAB6A0FC466
:100C3400E2E700BF28000020B8000020B400002034
:100C440008B5FFF78EFFFFF76FFF036803225A60B2
:100C5400FFF76AFFC3689847FFF76AFF70B5044659
:100C640000F068F940B90F4B1A680F4B1340B3F109
:100C7400005F0CD0FFF75CFFFFF756FF0368032209
:100C84005A60FFF751FFC3689847FFF751FF054DBE
:100C94006E682046FFF765FF2868FFF7E7FAB0475C
:100CA400E8E700BF004000080000FF2F08B5044635
:100CB400FFF73AFF036804225A60FFF735FFC36861
:100CC40098472046FFF7CAFF10B5C168054B1A685C
:100CD40000241C60914202D04FF0FF3010BDFFF79A
:100CE400E5FF00BFB400002008B5437A042B16D8F2
:100CF400042B17D8DFE803F003070B0F1100FFF7ED
:100D04004BFF002008BDFFF75FFF0020FAE7FFF765
:100D1400DBFF0020F6E7FFF793FFFFF7C7FF4FF075
:100D2400FF30EFE70020EDE7204B59685A888854DC
:100D34005B78012B10D0022B1BD01BB11B4B002264
:100D44005A707047194B00225A80882800D0704787
:100D540001225A705A807047662803D0134B002230
:100D64005A707047114B02225A705A8801325A80C5
:100D7400704710B50D4A538801339BB253805468B1
:100D8400618901F10C0293420AD3084B00225A7084
:100D9400043104F10800FFF7D9FE6368834200D0F0
:100DA40010BD024B01221A70FAE700BF2C0000208C
:100DB4000B4B1B789BB110B50024094B1C7004B17C
:100DC40010BD084B13F83420054B5868037A9A4237
:100DD40002D00134E4B2F2E7FFF786FFF9E7704787
:100DE4002C0000203813000808B56FF00400FFF74A
:100DF40009FB084B1B68084AA2FB0323C3F34753B0
:100E0400064A1370C3EB431203EB8203DA00044B6C
:100E14001A8008BD0000002083DE1B43E608002082
:100E2400E408002030B587B001210420FFF70EFD4F
:100E340001214FF40030FFF717FD0425ADF81450DD
:100E440018238DF8173003238DF81630174C05A995
:100E54002046FFF745FC0823ADF814308DF81750F1
:100E640005A92046FFF73CFC4FF4E133019300232E
:100E7400ADF80830ADF80A30ADF80C30ADF81030EC
:100E84000C23ADF80E30A4F544440DEB05012046C7
:100E9400FFF7F8FC012240F225512046FFF762FDDE
:100EA40001212046FFF750FD07B030BD0008014086
:100EB40000B583B026238DF8043000238DF8053067
:100EC40001238DF806308DF8073001A8FFF76AFA80
:100ED40003B05DF804FB08B5FFF7A4FFFFF7E8FFD4
:100EE40008BD000070B506460D4600240BE0315DD8
:100EF4000648FFF752FD40210448FFF756FD00283D
:100F0400F9D00134A4B2AC42F1D370BD0044004026
:100F14000449CA6802F4E062034B1343CB60BFF395
:100F24004F8FFEE700ED00E00400FA0508B5FFF777
:100F34003FFFFCE708B5FFF7F7FD0068002300E07A
:100F44000133142B0BD81C4AD15C1C4A9A5C914285
:100F5400F6D0C3680133C3604FF0FF3008BD0023EF
:100F6400072B0DD8164AD15C164A9A5C914201D1DE
:100F74000133F5E78368013383604FF0FF30EDE719
:100F840000210A4601E000210132B2F5005F11D2CE
:100F940002F1006303F580431B78013BDBB2FD2BB8
:100FA400F1D90131C729EFD90369013303614FF046
:100FB400FF30D3E70020D1E74813000840F00308CE
:100FC4004013000880F0030810B5FFF7B3FF88B999
:100FD400114B1A68114B1340B3F1005F15D0FFF7A2
:100FE400A3FD036803225A60FFF79EFDC368984778
:100FF400FFF78EFFFFF798FD036803225A60FFF79F
:1010040093FDC3689847FFF783FF034B5C68186838
:10101400FFF72CF9A047E2E7004000080000FF2F8B
:1010240008B54FF4A060FFF7B3F962B6FFF7DCFE32
:10103400FFF751FFFFF778FD43689847FFF774FD0A
:1010440003685B68042B01D0FFF770FFFFF7BCFF58
:101054007047FEE7FEE7FEE7FEE77047704770471C
:101064007047000008B540F225510648FFF7A4FC7C
:1010740000B908BD0348FFF794FCC0B2FFF754FE63
:10108400F7E700BF00440040002103E00A4B5B582F
:101094004350043109480A4B42189A42F6D3094A8C
:1010A40002E0002342F8043B074B9A42F9D3FFF7CE
:1010B40047F9FFF7B5FF70476813000800000020E8
:1010C4008400002084000020340A0020FEE7000091
:1010D400024B0146186800F02DB800BF3400002010
:1010E400024B0146186800F0C3B800BF340000206A
:1010F40070B50F4E0C463168054611B900F0A6F8DC
:1011040030602146284600F0A1F8431C03D14FF07B
:10111400FF34204670BDC41C24F00304A042F8D060
:10112400211A284600F092F80130F2D1EFE700BF0F
:10113400E80800202DE9F843CD1C25F00305083507
:101144000C2D38BF0C25002D064601DBA94204D91D
:101154000C2333600020BDE8F883DFF8D48000F06E
:1011640069F8D8F800301C4644BB29463046FFF7DE
:10117400BFFF431C044658D1D8F800402746002F2F
:1011840043D1002C4BD023683946304604EB030985
:1011940000F05CF8814542D1216830466D1A294639
:1011A400FFF7A6FF01303AD023682B442360D8F818
:1011B40000305A6862BBC8F800700FE02268521B06
:1011C40020D40B2A17D96119A342256018BF59608E
:1011D400636808BFC8F8001062514B60304600F0E5
:1011E4002FF804F10B00231D20F00700C21A1CBFC6
:1011F4001B1AA350AFE76268A3420CBFC8F80020D3
:101204005A60EBE723466468AEE73C467F68B6E77E
:101214001A465B68A342FBD100235360DEE70C232C
:101224003046336000F00CF894E70560D6E700BF61
:10123400EC080020014800F019B800BF2C0A002077
:10124400014800F014B800BF2C0A002038B5002370
:10125400054D044608462B6000F052F8431C02D1A9
:101264002B6803B1236038BD280A002070477047FB
:1012740038B50546002940D051F8043C0C1F002B1A
:10128400B8BFE418FFF7D6FF1C4A136833B963608C
:1012940014602846BDE83840FFF7D2BFA34208D9FE
:1012A400206821188B4201BF19685B680918216006
:1012B400EDE71A465B680BB1A342FAD911685018DE
:1012C400A0420BD120680144501883421160E0D140
:1012D40018685B68084410605360DAE702D90C238D
:1012E4002B60D6E7206821188B4201BF19685B6820
:1012F4000918216063605460CBE738BDEC08002016
:10130400044A05491368002B08BF0B4618441060B3
:1013140018467047300A0020380A0020F8B500BF8C
:10132400F8BC08BC9E467047F8B500BFF8BC08BCC2
:041334009E4670471A
:1013380000000000ED0C00085645522E312E3000FA
:1013480074686973206465766963652069732074BD
:08135800657374210000000020
:041360004D02000832
:041364002502000856
:1013680000A24A0402040608000000000102030467
:101378000102030406070809A0000020E50A000886
:10138800CD0A0008910A000800400008000000008B
:10139800D80000203800002000000000F0080020DD
:1013A80058090020C00900200000000000000000CB
:1013B8000000000000000000000000000000000025
:1013C8000000000000000000000000000000000015
:1013D8000000000000000000000000000000000005
:0413E8000000000001
:040000050800108D52
:00000001FF
