:020000040800F2
:10000000000002200D670008DD2E0008EB2E00081E
:10001000F32E0008FB2E0008032F0008000000004C
:10002000000000000000000000000000C15F0008A8
:100030000B2F00080000000001620008195D000895
:1000400051670008516700085167000851670008B0
:1000500051670008516700085167000851670008A0
:100060005167000851670008516700085167000890
:100070005167000851670008516700085167000880
:100080005167000851670008516700085167000870
:100090005167000851670008516700085167000860
:1000A0005167000851670008516700085167000850
:1000B000AD24000851670008516700085167000827
:1000C0005167000851670008516700085167000830
:1000D000516700083D5E0008ED2D000851670008DB
:1000E000ED230008516700085167000851670008B8
:1000F0005167000851670008516700085167000800
:1001000051670008516700085167000851670008EF
:1001100051670008516700085167000851670008DF
:1001200051670008516700085167000851670008CF
:1001300051670008516700085167000851670008BF
:1001400051670008516700085167000851670008AF
:10015000516700085167000851670008516700089F
:10016000516700085167000851670008516700088F
:10017000516700085167000851670008516700087F
:080180005167000851670008F7
:10019000034613F8012B002AFBD1181A01387047C7
:1001A00001F0FF01102A2BDB10F0070F08D010F828
:1001B000013B013A8B422DD010F0070F42B3F6D12C
:1001C000F0B441EA012141EA014122F007047FF045
:1001D00000070023F0E80256083C85EA010586EA9C
:1001E000010685FA47F5A3FA87F586FA47F6A5FAD8
:1001F00087F68EB9EED1F0BC01F0FF0102F00702E4
:1002000032B110F8013B013A83EA010313B1F8D18E
:100210000020704701387047002D06BF354603386F
:10022000073815F0010F07D1013015F4807F02BFA8
:10023000013015F4C03F0130F0BC0138704700BFF9
:1002400081F0004102E000BF83F0004330B54FEA87
:1002500041044FEA430594EA050F08BF90EA020FF4
:100260001FBF54EA000C55EA020C7FEA645C7FEA87
:10027000655C00F0E2804FEA5454D4EB5555B8BFAA
:100280006D420CDD2C4480EA020281EA030382EA1B
:10029000000083EA010180EA020281EA0303362DAD
:1002A00088BF30BD11F0004F4FEA01314FF4801C80
:1002B0004CEA113102D0404261EB410113F0004F92
:1002C0004FEA03334CEA133302D0524263EB430349
:1002D00094EA050F00F0A780A4F10104D5F1200EE7
:1002E0000DDB02FA0EFC22FA05F2801841F1000142
:1002F00003FA0EF2801843FA05F359410EE0A5F116
:1003000020050EF1200E012A03FA0EFC28BF4CF046
:10031000020C43FA05F3C01851EBE37101F00045FC
:1003200007D54FF0000EDCF1000C7EEB00006EEB09
:100330000101B1F5801F1BD3B1F5001F0CD3490893
:100340005FEA30004FEA3C0C04F101044FEA4452EA
:1003500012F5800F80F09A80BCF1004F08BF5FEA71
:10036000500C50F1000041EB045141EA050130BD51
:100370005FEA4C0C404141EB0101013C28BFB1F563
:10038000801FE9D291F0000F04BF01460020B1FAAE
:1003900081F308BF2033A3F10B03B3F120020CDA81
:1003A0000C3208DD02F1140CC2F10C0201FA0CF05F
:1003B00021FA02F10CE002F11402D8BFC2F1200CC4
:1003C00001FA02F120FA0CFCDCBF41EA0C0190407A
:1003D000E41AA2BF01EB0451294330BD6FEA0404C3
:1003E0001F3C1CDA0C340EDC04F11404C4F12002AE
:1003F00020FA04F001FA02F340EA030021FA04F3C0
:1004000045EA030130BDC4F10C04C4F1200220FA16
:1004100002F001FA04F340EA0300294630BD21FA54
:1004200004F0294630BD94F0000F83F4801306BF1A
:1004300081F480110134013D4EE77FEA645C18BF0E
:100440007FEA655C29D094EA050F08BF90EA020FA5
:1004500005D054EA000C04BF1946104630BD91EA9D
:10046000030F1EBF0021002030BD5FEA545C05D1A0
:100470004000494128BF41F0004130BD14F58004DF
:100480003CBF01F5801130BD01F0004545F0FE4153
:1004900041F470014FF0000030BD7FEA645C1ABF88
:1004A000194610467FEA655C1CBF0B46024650EABF
:1004B000013406BF52EA033591EA030F41F40021EB
:1004C00030BD00BF90F0000F04BF0021704730B571
:1004D0004FF4806404F132044FF000054FF0000146
:1004E00050E700BF90F0000F04BF0021704730B507
:1004F0004FF4806404F1320410F0004548BF4042DC
:100500004FF000013EE700BF42004FEAE2014FEA30
:1005100031014FEA02701FBF12F07F4393F07F4F0B
:1005200081F06051704732F07F4208BF704793F00E
:100530007F4F04BF41F40021704730B54FF4607421
:1005400001F0004521F000411CE700BF50EA010224
:1005500008BF704730B54FF000050AE050EA0102CD
:1005600008BF704730B511F0004502D5404261EB3D
:1005700041014FF4806404F132045FEA915C3FF47E
:10058000D8AE4FF003025FEADC0C18BF03325FEA1B
:10059000DC0C18BF033202EBDC02C2F1200300FACC
:1005A00003FC20FA02F001FA03FE40EA0E0021FAF1
:1005B00002F11444BDE600BF70B54FF0FF0C4CF4DF
:1005C000E06C1CEA11541DBF1CEA135594EA0C0F91
:1005D00095EA0C0F00F0DEF82C4481EA030621EACC
:1005E0004C5123EA4C5350EA013518BF52EA033507
:1005F00041F4801143F4801338D0A0FB02CE4FF0B9
:100600000005E1FB02E506F00042E0FB03E54FF0E8
:100610000006E1FB03569CF0000F18BF4EF0010EE0
:10062000A4F1FF04B6F5007F64F5407404D25FEADC
:100630004E0E6D4146EB060642EAC62141EA55518F
:100640004FEAC52040EA5E504FEACE2EB4F1FD0CD1
:1006500088BFBCF5E06F1ED8BEF1004F08BF5FEA4F
:10066000500E50F1000041EB045170BD06F0004601
:1006700046EA010140EA020081EA0301B4EB5C04AE
:10068000C2BFD4EB0C0541EA045170BD41F48011A6
:100690004FF0000E013C00F3AB8014F1360FDEBFCB
:1006A000002001F0004170BDC4F10004203C35DAA7
:1006B0000C341BDC04F11404C4F1200500FA05F32A
:1006C00020FA04F001FA05F240EA020001F00042CB
:1006D00021F0004110EBD37021FA04F642EB060141
:1006E0005EEA430E08BF20EAD37070BDC4F10C046B
:1006F000C4F1200500FA04F320FA05F001FA04F22F
:1007000040EA020001F0004110EBD37041F100011A
:100710005EEA430E08BF20EAD37070BDC4F1200525
:1007200000FA05F24EEA020E20FA04F301FA05F28D
:1007300043EA020321FA04F001F0004121FA04F235
:1007400020EA020000EBD3705EEA430E08BF20EA05
:10075000D37070BD94F0000F0FD101F0004640003F
:1007600041EB010111F4801F08BF013CF7D041EAC1
:10077000060195F0000F18BF704703F000465200C5
:1007800043EB030313F4801F08BF013DF7D043EA96
:100790000603704794EA0C0F0CEA135518BF95EA4C
:1007A0000C0F0CD050EA410618BF52EA4306D1D1D3
:1007B00081EA030101F000414FF0000070BD50EAF2
:1007C000410606BF1046194652EA430619D094EA7C
:1007D0000C0F02D150EA013613D195EA0C0F05D166
:1007E00052EA03361CBF104619460AD181EA0301BA
:1007F00001F0004141F0FE4141F470014FF0000072
:1008000070BD41F0FE4141F4780170BD70B54FF00C
:10081000FF0C4CF4E06C1CEA11541DBF1CEA13558C
:1008200094EA0C0F95EA0C0F00F0A7F8A4EB05046E
:1008300081EA030E52EA03354FEA013100F0888065
:100840004FEA03334FF0805545EA131343EA12632E
:100850004FEA022245EA111545EA10654FEA0026E3
:100860000EF000419D4208BF964244F1FD0404F59C
:10087000407402D25B084FEA3202B61A65EB0305F8
:100880005B084FEA32024FF480104FF4002CB6EBB5
:10089000020E75EB030E22BFB61A754640EA0C0035
:1008A0005B084FEA3202B6EB020E75EB030E22BF75
:1008B000B61A754640EA5C005B084FEA3202B6EBB6
:1008C000020E75EB030E22BFB61A754640EA9C0075
:1008D0005B084FEA3202B6EB020E75EB030E22BF45
:1008E000B61A754640EADC0055EA060E18D04FEA03
:1008F000051545EA16754FEA06164FEAC30343EAA3
:1009000052734FEAC2025FEA1C1CC0D111F4801F6F
:100910000BD141EA00014FF000004FF0004CB6E768
:1009200011F4801F04BF01430020B4F1FD0C88BF07
:10093000BCF5E06F3FF6AFAEB5EB030C04BFB6EB12
:10094000020C5FEA500C50F1000041EB045170BD05
:100950000EF0004E4EEA113114EB5C04C2BFD4EB32
:100960000C0541EA045170BD41F480114FF0000EB6
:10097000013C90E645EA060E8DE60CEA135594EA32
:100980000C0F08BF95EA0C0F3FF43BAF94EA0C0F35
:100990000AD150EA01347FF434AF95EA0C0F7FF4AA
:1009A00025AF104619462CE795EA0C0F06D152EAFE
:1009B00003353FF4FDAE1046194622E750EA4106E2
:1009C00018BF52EA43067FF4C5AE50EA41047FF4F3
:1009D0000DAF52EA43057FF4EBAE12E74FF0FF3C58
:1009E00006E000BF4FF0010C02E000BF4FF0010C29
:1009F0004DF804CD4FEA410C7FEA6C5C4FEA430CA2
:100A000018BF7FEA6C5C1BD001B050EA410C0CBFF0
:100A100052EA430C91EA030F02BF90EA020F002052
:100A2000704710F1000F91EA030F58BF994208BFB9
:100A300090422CBFD8176FEAE37040F00100704776
:100A40004FEA410C7FEA6C5C02D150EA013C07D1CD
:100A50004FEA430C7FEA6C5CD6D152EA033CD3D018
:100A60005DF8040B704700BF8446104662468C4612
:100A70001946634600E000BF01B5FFF7B7FF002845
:100A800048BF10F1000F01BD4DF808EDFFF7F4FF6E
:100A90000CBF012000205DF808FB00BF4DF808EDF9
:100AA000FFF7EAFF34BF012000205DF808FB00BF1C
:100AB0004DF808EDFFF7E0FF94BF012000205DF83E
:100AC00008FB00BF4DF808EDFFF7CEFF94BF0120F3
:100AD00000205DF808FB00BF4DF808EDFFF7C4FFEC
:100AE00034BF012000205DF808FB00BF4FEA410C35
:100AF0007FEA6C5C02D150EA013C0AD14FEA430C18
:100B00007FEA6C5C02D152EA033C02D14FF0000054
:100B100070474FF0010070474FEA410212F5001292
:100B200015D211D56FF47873B3EB625212D94FEA34
:100B3000C12343F0004343EA505311F0004F23FA1E
:100B400002F018BF404270474FF00000704750EA73
:100B5000013005D111F0004008BF6FF00040704730
:100B60004FF00000704700BF4A0011D212F500128A
:100B700011D20DD56FF47873B3EB62520ED44FEAF5
:100B8000C12343F0004343EA505323FA02F0704775
:100B90004FF00000704750EA013002D14FF0FF30B3
:100BA00070474FF0000070474FEA4102B2F1E04356
:100BB00024BFB3F5001CDCF1FE5C0DD901F0004C44
:100BC0004FEAC0024CEA5070B2F1004F40EB830094
:100BD00008BF20F00100704711F0804F21D113F1C0
:100BE0003872BCBF01F00040704741F480114FEAF9
:100BF0005252C2F11802C2F1200C10FA0CF320FA82
:100C000002F018BF40F001004FEAC1234FEAD3239E
:100C100003FA0CFC40EA0C0023FA02F34FEA430308
:100C2000CCE77FEA625307D150EA01331EBF4FF091
:100C3000FE4040F44000704701F0004040F0FE40AC
:100C400040F40000704700BF0348044B834202D0C9
:100C5000034B03B1184770470C0300200C0300201E
:100C6000000000000548064B1B1AD90F01EBA30139
:100C7000491002D0034B03B1184770470C03002002
:100C80000C0300200000000010B5064C237843B987
:100C9000FFF7DAFF044B13B10448AFF300800123E0
:100CA000237010BD0C03002000000000188700080E
:100CB00008B5054B1BB105490548AFF30080BDE8F9
:100CC0000840FFF7CFBF00BF000000001003002066
:100CD0001887000880B500AF164BD3F88830154A46
:100CE00043F47003C2F88830134B1B68124A43F078
:100CF00001031360104B00229A600F4B1B680E4AD1
:100D000023F0847323F4803313600B4B0B4A5A6037
:100D1000094B1B68084A23F480231360064B00220A
:100D2000DA6000F00DF8034B4FF000629A6000BFEC
:100D300080BD00BF00ED00E000380240103000240C
:100D400080B483B000AF00237B6000233B60364B50
:100D50001B68354A43F480331360334B1B6803F43C
:100D600000333B607B6801337B603B68002B03D121
:100D70007B68B3F5A04FF0D12B4B1B6803F4003315
:100D8000002B02D001233B6001E000233B603B6865
:100D9000012B42D1244B1B6C234A43F08053136434
:100DA000224B1B68214A43F4404313601E4B1E4AEA
:100DB0009B6893601C4B9B681B4A43F40043936001
:100DC000194B9B68184A43F4A0539360164B184A7A
:100DD0005A60154B1B68144A43F08073136000BFC0
:100DE000114B1B6803F00073002BF9D0114B40F23C
:100DF00005721A600C4B9B680B4A23F00303936047
:100E0000094B9B68084A43F00203936000BF064BFE
:100E10009B6803F00C03082BF9D100BF0C37BD46CB
:100E20005DF8047B704700BF00380240007000404E
:100E300008544007003C024080B483B000AF7860A3
:100E4000064A7B6843F0BF6343F40033D36000BFBE
:100E50000C37BD465DF8047B704700BF00ED00E035
:100E600080B485B000AF78600023FB730023BB73B0
:100E70000F237B737B68DB78002B39D0274BDB6833
:100E8000DB431B0ADBB203F00703FB73FB7BC3F1FD
:100E90000403BB737A7BFB7B42FA03F37B737B68AF
:100EA0005B781A46BB7B02FA03F3FB737B689A7884
:100EB0007B7B1340DAB2FB7B1343FB73FB7B1B0191
:100EC000FB73174A7B681B781344FA7B83F8002373
:100ED0007B681B7803F01F0311497A681278520966
:100EE000D2B21046012202FA03F341F820300FE09B
:100EF0007B681B7803F01F0309497A68127852094E
:100F0000D2B2104601229A4000F1200341F823207A
:100F100000BF1437BD465DF8047B704700ED00E06C
:100F200000E100E080B483B000AF78607B68042B00
:100F300006D1094B1B68084A43F00403136005E01F
:100F4000054B1B68044A23F00403136000BF0C37F1
:100F5000BD465DF8047B704710E000E080B485B0CA
:100F600000AF786039600023FB600023FB727B6870
:100F70005B68FB60FB6823F0407323F48073FB60C5
:100F80003B681B791A023B681B681343FA681343DA
:100F9000FB607B68FA685A607B689B68FB60FA6854
:100FA000184B1340FB603B681A693B68DB681A43C7
:100FB0003B689B681A433B685B795B001343FA68A4
:100FC0001343FB607B68FA689A607B68DB6AFB60AE
:100FD000FB6823F47003FB603B681B7D013BDAB2C6
:100FE000FB7A1343FB72FB7A1B05FA681343FB6021
:100FF0007B68FA68DA6200BF1437BD465DF8047B8F
:10100000704700BFFDF7FFC080B483B000AF7860C9
:101010007B6800221A607B6800221A717B680022BC
:101020005A717B6800229A607B680022DA607B68D4
:1010300000221A617B6801221A7500BF0C37BD4679
:101040005DF8047B7047000080B485B000AF786025
:101050000023FB600E4B5B68FB60FA680D4B13408E
:10106000FB607B681A687B685B681A437B689B68D7
:101070001A437B68DB681343FA681343FB60044A36
:10108000FB68536000BF1437BD465DF8047B7047B2
:1010900000230140E030FCFF80B483B000AF7860F3
:1010A0000B46FB70FB78002B06D07B689B6843F0F7
:1010B00001027B689A6005E07B689B6823F001026F
:1010C0007B689A6000BF0C37BD465DF8047B7047B3
:1010D00080B485B000AF7860084611461A460346D2
:1010E000FB700B46BB7013467B700023FB60002334
:1010F000BB60FB78092B23D97B68DB68FB60FB783E
:10110000A3F10A0213465B001344072202FA03F319
:10111000BB60BB68DB43FA681340FB607978FB78FF
:10112000A3F10A0213465B00134401FA03F3BB6008
:10113000FA68BB681343FB607B68FA68DA601EE0FC
:101140007B681B69FB60FA7813465B001344072237
:1011500002FA03F3BB60BB68DB43FA681340FB6031
:101160007978FA7813465B00134401FA03F3BB6005
:10117000FA68BB681343FB607B68FA681A61BB7846
:10118000062B21D87B685B6BFB60BB785A1E13462D
:101190009B0013441F2202FA03F3BB60BB68DB43CE
:1011A000FA681340FB60F978BB785A1E13469B001F
:1011B000134401FA03F3BB60FA68BB681343FB6096
:1011C0007B68FA685A6347E0BB780C2B21D87B68B0
:1011D0001B6BFB60BB78DA1F13469B0013441F2276
:1011E00002FA03F3BB60BB68DB43FA681340FB60A1
:1011F000F978BB78DA1F13469B00134401FA03F316
:10120000BB60FA68BB681343FB607B68FA681A63CB
:1012100022E07B68DB6AFB60BB78A3F10D0213461A
:101220009B0013441F2202FA03F3BB60BB68DB433D
:10123000FA681340FB60F978BB78A3F10D021346FE
:101240009B00134401FA03F3BB60FA68BB681343C5
:10125000FB607B68FA68DA6200BF1437BD465DF850
:10126000047B704780B483B000AF78607B689B6874
:1012700043F080427B689A6000BF0C37BD465DF842
:10128000047B704780B483B000AF78600B46FB707E
:10129000FB78002B06D07B689B6843F480727B68E8
:1012A0009A6005E07B689B6823F480727B689A6093
:1012B00000BF0C37BD465DF8047B704780B483B037
:1012C00000AF78600B46FB70FB78002B06D07B6884
:1012D0009B6843F400727B689A6005E07B689B68BA
:1012E00023F400727B689A6000BF0C37BD465DF83E
:1012F000047B704780B485B000AF7860396000230C
:10130000FB607B681B68FB60FA68254B1340FB6041
:101310003B681A683B68DB681A433B685B691A43A1
:101320003B689B691A433B68DB691A433B681B6A4D
:101330001A433B685B6A1A433B689B6A1A433B68E3
:101340005B6B1A433B689B6B1343FA681343FB6068
:101350007B68FA681A607B685B69FB60FB6823F056
:101360000703FB603B68DA6A3B681B6B1343FA6850
:101370001343FB607B68FA685A613B681A697B68B3
:101380005A603B685A687B689A603B689A687B68D9
:10139000DA6000BF1437BD465DF8047B704700BFBC
:1013A0003F801CF080B483B000AF78600B46FB70C8
:1013B000FB78002B06D07B681B6843F001027B683A
:1013C0001A6005E07B681B6823F001027B681A60E5
:1013D00000BF0C37BD465DF8047B704780B485B014
:1013E00000AF78600023FB60344BFB607B689B7927
:1013F000002B4FD0314B1A687B681B68DB432F49A9
:1014000013400B602D4B5A687B681B68DB432B49EC
:1014100013404B607B681B791A46FB681344FB60E2
:10142000FB6819687B681A68FB680A431A60234BDB
:101430009A687B681B68DB43204913408B601F4B15
:10144000DA687B681B68DB431C491340CB607B6810
:101450005B79102B0ED1194B9A687B681B68174972
:1014600013438B60154BDA687B681B681349134381
:10147000CB601DE0114BFB607B685B791A46FB6813
:101480001344FB60FB6819687B681A68FB680A43B1
:101490001A600DE07B681B791A46FB681344FB60F9
:1014A000FB6819687B681B68DA43FB680A401A60AE
:1014B00000BF1437BD465DF8047B7047003C014017
:1014C00080B485B000AF78600023FB73084B5A6985
:1014D0007B681340002B02D00123FB7301E0002343
:1014E000FB73FB7B18461437BD465DF8047B7047E1
:1014F000003C014080B483B000AF7860044A7B6850
:10150000536100BF0C37BD465DF8047B704700BFD8
:10151000003C014080B487B000AF786039600023A0
:101520007B6100233B610023FB6000237B6176E04D
:1015300001227B6902FA03F33B613B681B683A694D
:101540001340FB60FA683B699A4265D17B681A6870
:101550007B695B00032101FA03F3DB431A407B68DC
:101560001A607B681A683B681B7919467B695B00C7
:1015700001FA03F31A437B681A603B681B79012B5D
:1015800003D03B681B79022B2ED17B689A687B695C
:101590005B00032101FA03F3DB431A407B689A6086
:1015A0007B689A683B685B7919467B695B0001FA46
:1015B00003F31A437B689A607B685A687B699BB225
:1015C000194601238B40DB431A407B685A607B68D5
:1015D0005B683A68927911467A6992B201FA02F22E
:1015E00092B21A437B685A607B68DA687B699BB267
:1015F0005B00032101FA03F3DB431A407B68DA60E6
:101600007B68DA683B68DB7919467B695B0001FA25
:1016100003F31A437B68DA607B6901337B617B6982
:101620000F2B85D900BF00BF1C37BD465DF8047B7A
:10163000704780B485B000AF78600B467B80002394
:10164000FB737B681A697B881340002B02D001234F
:10165000FB7301E00023FB73FB7B18461437BD4688
:101660005DF8047B704780B483B000AF78600B46B0
:101670007B807B687A881A8300BF0C37BD465DF893
:10168000047B704780B483B000AF78600B467B80EA
:1016900013467B707B78002B03D07B687A881A8393
:1016A00002E07B687A885A8300BF0C37BD465DF83C
:1016B000047B704780B485B000AF78600B467B80B8
:1016C00013467B700023FB600023BB607A787B8825
:1016D00003F007039B0002FA03F3FB607B88DB083F
:1016E0009BB21A467B68083253F822207B8803F0AD
:1016F00007039B000F2101FA03F3DB437988C90834
:1017000089B2084602EA03017B6800F1080243F847
:1017100022107B88DB089BB21A467B68083253F89C
:101720002230FA681343BB607B88DB089BB21A4601
:101730007B680832B96843F8221000BF1437BD46F1
:101740005DF8047B7047000080B489B000AF78601A
:101750000023BB6100237B610023FB6102233B610B
:101760000023FB600223BB604A4B9B6803F00C0321
:10177000BB61BB69082B11D0BB69082B44D8BB697E
:10178000002B03D0BB69042B04D03DE07B68424AA8
:101790001A603DE07B68414A1A6039E03D4B5B6866
:1017A0009B0D03F00103FB603A4B5B6803F03F03C2
:1017B000BB60FB68002B0CD0384ABB68B2FBF3F36C
:1017C000344A52689209C2F3080202FB03F3FB6138
:1017D0000BE0314ABB68B2FBF3F32E4A5268920920
:1017E000C2F3080202FB03F3FB612A4B5B681B0C8C
:1017F00003F0030301335B003B61FA693B69B2FB11
:10180000F3F27B681A6003E07B68234A1A6000BF2A
:10181000204B9B6803F0F003BB61BB691B09BB61F4
:101820001F4ABB6913441B78DBB27B617B681A6873
:101830007B69DA407B685A60164B9B6803F4E0537F
:10184000BB61BB699B0ABB61154ABB6913441B782A
:10185000DBB27B617B685A687B69DA407B689A609F
:101860000C4B9B6803F46043BB61BB695B0BBB61C2
:101870000B4ABB6913441B78DBB27B617B685A68F7
:101880007B69DA407B68DA6000BF2437BD465DF8CB
:10189000047B7047003802400024F40000127A00F4
:1018A0000400002080B483B000AF78600B46FB706A
:1018B000FB78002B06D00A4B1A6B09497B6813434F
:1018C0000B6306E0064B1A6B7B68DB43044913404D
:1018D0000B6300BF0C37BD465DF8047B704700BF4B
:1018E0000038024080B483B000AF78600B46FB70D4
:1018F000FB78002B06D00A4B1A6C09497B6813430E
:101900000B6406E0064B1A6C7B68DB43044913400A
:101910000B6400BF0C37BD465DF8047B704700BF09
:101920000038024080B483B000AF78600B46FB7093
:10193000FB78002B06D00A4B5A6C09497B6813438D
:101940004B6406E0064B5A6C7B68DB43044913404A
:101950004B6400BF0C37BD465DF8047B704700BF89
:101960000038024080B485B000AF03460A46FB71E0
:101970001346BB710023FB60BB7903F003039B009C
:101980000F2202FA03F3FB60164ABB799B08DBB215
:10199000023352F82320FB68DB431248B9798908E7
:1019A000C9B21A408B1C40F823200E4ABB799B0811
:1019B000DBB2023352F82320F979BB7903F0030339
:1019C0009B0001FA03F30748B9798908C9B21A43A1
:1019D0008B1C40F8232000BF1437BD465DF8047B04
:1019E000704700BF0038014080B485B000AF786018
:1019F00039600023FB817B681B88FB817B68294A57
:101A0000934213D07B68284A93420FD07B68B3F18E
:101A1000804F0BD07B68254A934207D07B68244ACD
:101A2000934203D07B68234A934208D1FB8923F079
:101A30007003FB813B685A88FB891343FB817B68F9
:101A40001D4A93420CD07B681C4A934208D0FB8904
:101A500023F44073FB813B681A89FB891343FB81A4
:101A60007B68FA891A803B685A687B68DA623B684F
:101A70001A887B681A857B680A4A934203D07B6880
:101A8000094A934204D13B689B7A1A467B681A86BE
:101A90007B6801229A8200BF1437BD465DF8047B43
:101AA000704700BF000001400004014000040040F6
:101AB00000080040000C00400010004000140040EE
:101AC00080B483B000AF786039607B683A685A624E
:101AD00000BF0C37BD465DF8047B704780B483B00F
:101AE00000AF78607B685B6A18460C37BD465DF8CE
:101AF000047B704780B483B000AF78600B46FB7006
:101B0000FB78002B08D07B681B889BB243F08003D6
:101B10009AB27B681A8007E07B681B889BB223F02F
:101B200080039AB27B681A8000BF0C37BD465DF80F
:101B3000047B704780B483B000AF78600B46FB70C5
:101B4000FB78002B08D07B681B889BB243F0010315
:101B50009AB27B681A8007E07B681B889BB223F0EF
:101B600001039AB27B681A8000BF0C37BD465DF84E
:101B7000047B704780B485B000AF78603960002383
:101B80007B810023FB810023BB817B681B8C9BB284
:101B900023F001039AB27B681A847B681B8CFB815B
:101BA0007B689B88BB817B681B8B7B817B8923F057
:101BB00070037B817B8923F003037B813B681A8858
:101BC0007B8913437B81FB8923F00203FB813B6804
:101BD0009A89FB891343FB813B685A88FB8913432D
:101BE000FB817B681E4A934203D07B681D4A934267
:101BF00023D1FB8923F00803FB813B68DA89FB8949
:101C00001343FB81FB8923F00403FB813B689A8823
:101C1000FB891343FB81BB8923F48073BB81BB89A0
:101C200023F40073BB813B681A8ABB891343BB81D1
:101C30003B685A8ABB891343BB817B68BA899A8007
:101C40007B687A891A833B689A687B685A637B68E9
:101C5000FA891A8400BF1437BD465DF8047B7047CB
:101C6000000001400004014080B485B000AF7860FE
:101C7000396000237B810023FB810023BB817B68CB
:101C80001B8C9BB223F010039AB27B681A847B688A
:101C90001B8CFB817B689B88BB817B681B8B7B815A
:101CA0007B8923F4E0437B817B8923F440737B8130
:101CB0003B681B881B029AB27B8913437B81FB899B
:101CC00023F02003FB813B689B891B019AB2FB89AF
:101CD0001343FB813B685B881B019AB2FB8913436A
:101CE000FB817B68224A934203D07B68214A93425E
:101CF0002BD1FB8923F08003FB813B68DB891B012F
:101D00009AB2FB891343FB81FB8923F04003FB81DB
:101D10003B689B881B019AB2FB891343FB81BB89FB
:101D200023F48063BB81BB8923F40063BB813B68E0
:101D30001B8A9B009AB2BB891343BB813B685B8AB9
:101D40009B009AB2BB891343BB817B68BA899A8096
:101D50007B687A891A833B689A687B689A637B6898
:101D6000FA891A8400BF1437BD465DF8047B7047BA
:101D7000000001400004014080B483B000AF7860EF
:101D800039607B683A685A6300BF0C37BD465DF81E
:101D9000047B704780B483B000AF786039607B68A3
:101DA0003A689A6300BF0C37BD465DF8047B704704
:101DB00080B485B000AF78600B467B800023FB8148
:101DC0007B681B8BFB81FB8923F00803FB81FA896D
:101DD0007B881343FB817B68FA891A8300BF143721
:101DE000BD465DF8047B704780B485B000AF786075
:101DF0000B467B800023FB817B681B8BFB81FB896F
:101E000023F40063FB817B881B029AB2FB89134396
:101E1000FB817B68FA891A8300BF1437BD465DF8E1
:101E2000047B704780B483B000AF78600B467B8042
:101E300013467B707B78002B08D07B689B899AB215
:101E40007B8813439AB27B689A8109E07B689B89FF
:101E50009AB27B88DB439BB213409AB27B689A812B
:101E600000BF0C37BD465DF8047B704780B483B07B
:101E700000AF78600B467B807B88DB439AB27B683F
:101E80001A8200BF0C37BD465DF8047B704780B4F2
:101E900085B000AF78600B467B800023FB73002386
:101EA000BB8100237B817B681B8A9AB27B881340AD
:101EB000BB817B689B899AB27B8813407B81BB89FD
:101EC000002B05D07B89002B02D00123FB7301E09E
:101ED0000023FB73FB7B18461437BD465DF8047B7B
:101EE000704780B483B000AF78600B467B807B88FE
:101EF000DB439AB27B681A8200BF0C37BD465DF89F
:101F0000047B704780B58AB000AF786039600023E9
:101F10007B6200233B620023FB610023BB617B6883
:101F20001B8A9BB27B627B6A23F440537B623B68D3
:101F3000DB881A467B6A13437B627B6A9AB27B68B2
:101F40001A827B689B899BB27B627B6A23F4B053C5
:101F500023F00C037B623B689A883B681B89134320
:101F60009AB23B685B8913439BB21A467B6A134360
:101F70007B627B6A9AB27B689A817B689B8A9BB200
:101F80007B627B6A23F440737B623B689B891A46C1
:101F90007B6A13437B627B6A9AB27B689A8207F101
:101FA00008031846FFF7D0FB7B68304A934203D002
:101FB0007B682F4A934202D17B693B6201E03B6917
:101FC0003B627B689B899BB21BB2002B0CDA3A6A9E
:101FD00013469B0013449A001A443B681B685B003D
:101FE000B2FBF3F3FB610BE03A6A13469B00134428
:101FF0009A001A443B681B689B00B2FBF3F3FB6139
:10200000FB691C4AA2FB03235B091B017B627B6A01
:102010001B09642202FB03F3FA69D31ABB617B68D4
:102020009B899BB21BB2002B0CDABB69DB003233FD
:10203000104AA2FB03235B0903F007037A6A1343E8
:102040007B620BE0BB691B0132330A4AA2FB03230C
:102050005B0903F00F037A6A13437B627B6A9AB2CF
:102060007B681A8100BF2837BD4680BD0010014043
:10207000001401401F85EB5180B483B000AF78603D
:102080000B46FB70FB78002B08D07B689B899BB2CA
:1020900043F400539AB27B689A8107E07B689B897E
:1020A0009BB223F400539AB27B689A8100BF0C372D
:1020B000BD465DF8047B704780B483B000AF7860A4
:1020C0007B689B889BB2C3F308039BB218460C370E
:1020D000BD465DF8047B704780B487B000AF786080
:1020E0000B467B8013467B7000233B610023FB6023
:1020F0000023BB6000237B617B687B617B88DBB254
:102100005B09DBB23B617B8803F01F03FB600122AC
:10211000FB6802FA03F3BB603B69012B03D17B69C7
:102120000C337B6109E03B69022B03D17B691033DF
:102130007B6102E07B6914337B617B78002B06D0E6
:102140007B6919687B69BA680A431A6006E07B6993
:102150001968BB68DA437B690A401A6000BF1C3704
:10216000BD465DF8047B704780B487B000AF7860EF
:102170000B467B800023FB6000237B610023BB6058
:102180000023FB747B88DBB25B09DBB2BB607B881E
:1021900003F01F037B6101227B6902FA03F37B6179
:1021A000BB68012B07D17B689B899BB21A467B6970
:1021B00013407B6111E0BB68022B07D17B681B8A4F
:1021C0009BB21A467B6913407B6106E07B689B8A61
:1021D0009BB21A467B6913407B617B881B0A9BB2CA
:1021E000FB600122FB6802FA03F3FB607B681B883B
:1021F0009BB21A46FB681340FB607B69002B05D03D
:10220000FB68002B02D00123FB7401E00023FB7468
:10221000FB7C18461C37BD465DF8047B7047000008
:1022200080B586B000AF78607B687B617B691B7D81
:1022300043F00103DAB27B691A7501212020FFF710
:1022400031FB4FF40073FB6001233B7402237B746A
:1022500007F10C0319460648FFF75CF94FF40071CB
:102260000348FFF700FA002318461837BD4680BD23
:102270000014024080B582B000AF786004490020AD
:1022800003F004FB002318460837BD4680BD00BF9D
:102290003087000880B586B000AFF860B9607A601A
:1022A0007B68012B02D94FF0FF330AE0BB681B7833
:1022B000FB75FB7D1A464FF400710448FFF7E2F905
:1022C000002318461837BD4680BD00BF00140240E9
:1022D00080B582B000AF78607A680221012003F0F7
:1022E000D7FC00BF0837BD4680BD000080B500AFF9
:1022F0000748FFF795FF0346002B02D04FF0FF334E
:1023000003E0034803F080FC0023184680BD00BFB3
:102310002800002080B582B000AF0346FB71304B2F
:102320001B78022B2FD0022B4EDC002B02D0012B6E
:1023300013D049E02B4B1B78002B49D1FB79012BA3
:1023400046D1274B01221A70274B00229A600021A8
:102350004FF08040FFF7B4FB3AE0224B1B78012B93
:102360000DD1FB79002B0AD11D4B02221A704FF0C0
:102370008040FFF7B3FB03461B4A536029E0184B2C
:1023800000221A7025E0174B1B78002B18D1FB791F
:10239000012B15D1124B01221A704FF08040FFF72C
:1023A0009DFB0246104B9B6813440F4A13600E4B73
:1023B00000229A6000214FF08040FFF781FB08E087
:1023C000074B00221A7004E0054B00221A7000E04F
:1023D00000BF044AFB79137000BF0837BD4680BDBB
:1023E000380300206C0000202803002080B500AFD7
:1023F0004FF40050FFF764F80346002B11D04FF460
:1024000000510948FFF715F903461846FFF782FF08
:10241000064B1B680133054A13604FF40050FFF769
:1024200069F800BF80BD00BF0004024034030020F3
:1024300080B586B000AF01210220FFF733FA0121F9
:102440004FF48040FFF76EFA28233B7302237B731F
:102450000023BB730123FB7307F10C031846FEF73F
:10246000FFFC4FF400533B6100233B750223FB75D7
:1024700007F1100319460C48FFF74CF80D21012015
:10248000FFF770FA4FF400537B6000233B72102378
:102490007B720123BB723B1D1846FEF79FFF00BFF6
:1024A0001837BD4680BD00BF0004024080B500AFB4
:1024B00001214FF08040FFF7EAFC0346002B0BD0D0
:1024C000064B9B6803F51C531033044A93600121AB
:1024D0004FF08040FFF705FD00BF80BD28030020BE
:1024E00080B584B000AF1C233B7301237B730023B2
:1024F000BB730123FB7307F10C031846FEF7B0FC16
:1025000001210120FFF7EEF942F20F737B6042F2E6
:10251000CF033B8000233B8100237B803B46194651
:102520004FF08040FFF760FA01214FF08040FFF745
:102530009DFC012201214FF08040FFF773FC012137
:102540004FF08040FFF7F6FA00BF1037BD4680BD60
:1025500080B584B000AF78607B68FB60FB681B7D52
:1025600043F00103DAB2FB681A75FFF761FFFFF76A
:10257000B7FF002318461037BD4680BD000000009D
:1025800080B586B000AF78604FF000024FF00003D6
:10259000C7E904230023FB601B4B1B681846FDF7AB
:1025A00091FF17A3D3E90023FEF730F902460B464B
:1025B0004FF000001549FEF729F902460B46C7E91E
:1025C00004234FF00002124BD7E90401FDF7F4FF9A
:1025D00002460B4610461946FEF7C6FA0346FB6054
:1025E000FB684EF66022934202D04EF66023FB60F9
:1025F000002318461837BD4680BD00BFAFF30080EA
:10260000000000000088C340280300200000F03FC5
:1026100000004E4080B485B000AFF860B9607A60C9
:10262000002318461437BD465DF8047B704780B51B
:1026300082B000AF78607A680421012003F028FBA3
:1026400000BF0837BD4680BD80B500AF0748FFF723
:102650007FFF0346002B02D04FF0FF3303E0034817
:1026600003F0D2FA0023184680BD00BF54000020BA
:1026700080B582B000AF01210220FFF713F90922D3
:102680000E210E48FFF716F809220F210B48FFF71D
:1026900011F84FF440433B6002233B710023BB71B0
:1026A0000023FB7103237B713B4619460348FEF769
:1026B00031FF00BF0837BD4680BD00BF00040240A7
:1026C00080B588B000AF01214020FFF70BF940F240
:1026D000E733BB615323BB820023BB830023FB8210
:1026E00007F1140319461448FFF77EF960233B8075
:1026F00001237B800023BB600223BB813B4619463C
:102700000D48FFF737FA08210B48FFF751FB3B460E
:1027100019460948FFF7A8FA08210748FFF764FBA4
:1027200001210548FFF7E6F901210348FFF702FA06
:1027300000BF2037BD4680BD0018004080B584B082
:1027400000AF78607B68FB60FB681B7D43F0010392
:10275000DAB2FB681A75FFF78BFFFFF7B1FF0023B2
:1027600018461037BD4680BD80B582B000AF786096
:102770000449002003F08AF8002318460837BD46B4
:1027800080BD00BF4C87000880B586B000AFF86000
:10279000B9607A60BB681B687B6179690548FFF79F
:1027A000EBFA79690348FFF7F5FA00231846183762
:1027B000BD4680BD0018004080B582B000AF786093
:1027C0007A680321012003F063FA00BF0837BD4691
:1027D00080BD000080B500AF0748FFF7AFFF03469C
:1027E000002B02D04FF0FF3303E0034803F00CFA54
:1027F0000023184680BD00BF8400002080B582B051
:1028000000AF01210420FFF74DF801233B600323B3
:102810003B710023FB713B4619460348FEF77AFEE5
:1028200000BF0837BD4680BD0008024080B59AB0A1
:1028300000AF01214FF48000FFF734F8384B3B63C1
:10284000384B7B630023BB630123FB6300233B64A2
:1028500000237B644FF40063BB644FF40053FB64BC
:102860004FF480733B654FF400337B650023BB65F9
:102870000123FB6500233B6600237B660023FB628C
:1028800007F12C0319462848FEF734FD012126489C
:10289000FEF788FD01214FF48070FFF743F8002315
:1028A0007B604FF48033BB600023FB604FF47063A8
:1028B0003B613B1D1846FEF7C7FB07F114031846A2
:1028C000FEF7A2FB00237B6100233B7601237B768E
:1028D0000023FB6100233B6200237B62012387F816
:1028E000283007F1140319461048FEF737FB03237D
:1028F00001220A210D48FEF7EBFB01210B48FEF7F0
:10290000DDFC01210948FEF7BDFC01210748FEF767
:10291000C3FB0648FEF7A6FC00BF6837BD4680BD76
:102920004C2001403A030020106402400020014086
:1029300080B584B000AF78607B68FB60FB681B7D6E
:1029400043F00103DAB2FB681A75FFF757FFFFF790
:102950006DFF002318461037BD4680BD0000000003
:1029600080B584B000AF78604FF00003FB60124B7D
:102970001B889BB207EE903AF8EE677A9FED0F7ACC
:10298000C7EE876A16EE900AFDF7BEFD08A3D3E9ED
:102990000023FDF711FE02460B4610461946FEF7CE
:1029A00003F90346FB60002318461037BD4680BD7F
:1029B0006666666666660A403A0300200000804547
:1029C00080B485B000AFF860B9607A600023184623
:1029D0001437BD465DF8047B704780B582B000AF08
:1029E00078607A680521012003F052F900BF0837AA
:1029F000BD4680BD80B500AF0748FFF799FF03468D
:102A0000002B02D04FF0FF3303E0034803F0FCF843
:102A10000023184680BD00BFB000002080B588B0FC
:102A200000AF01210120FEF77DFF01214FF40030AE
:102A3000FEF758FF0423BB6102237B7701233B771A
:102A400007F1180319461D48FEF764FD0823BB6112
:102A500000233B7707F1180319461848FEF75AFD83
:102A600026233B7104237B710323BB710123FB717C
:102A70003B1D1846FEF7F4F94FF4E133BB60002329
:102A8000BB810023FB8100233B820023BB820C23FC
:102A90007B8207F1080319460948FFF733FA012240
:102AA00040F225510648FFF717FB01210448FFF7C4
:102AB000E3FA00BF2037BD4680BD00BF00000240E2
:102AC0000044004080B584B000AF78607B68FB6054
:102AD000FB681B7D43F00103DAB2FB681A75FFF750
:102AE0009DFF0449002002F0D1FE00231846103754
:102AF000BD4680BD6887000880B582B000AF7860B1
:102B00000449002002F0C2FE002318460837BD46E3
:102B100080BD00BF9087000880B584B000AFF8602A
:102B2000B9607A600449002002F0B0FE0023184624
:102B30001037BD4680BD00BFB487000880B584B0A3
:102B400000AFF860B9607A600449002002F09EFE90
:102B5000002318461037BD4680BD00BFDC87000843
:102B600080B500AF0349002002F090FE0023184614
:102B700080BD00BF0488000880B582B000AF7860D7
:102B80000649002002F082FE7A680021012003F04D
:102B90007FF800BF0837BD4680BD00BF2C88000805
:102BA00080B500AF0B48FFF78DFF0346002B02D026
:102BB0004FF0FF330BE0FFF7D3FF0346002B02D0AB
:102BC0004FF0FF3303E0034803F01EF800231846DC
:102BD00080BD00BFEC00002080B485B000AF7860FD
:102BE00039600023FB600023BB600AE07A68BB68A1
:102BF00013441B781A46FB681344FB60BB6801331F
:102C0000BB60BA683B689A42F0D3FB681846143739
:102C1000BD465DF8047B704780B584B000AF0346C5
:102C20003960FB713B685B68FB603B685B781A4608
:102C3000FB681344FA791A703B681B78032B56D84B
:102C400001A252F823F000BF592C0008792C00088B
:102C50009B2C0008C32C00083B6800225A70FB79AB
:102C60005A2B48D13B6801221A703B685B780133CC
:102C7000DAB23B685A703EE0FB79A52B09D13B687C
:102C800002221A703B685B780133DAB23B685A70F3
:102C900034E03B6800221A7030E0FB79012B0CD93C
:102CA000FB79402B09D83B6803221A703B685B789C
:102CB0000133DAB23B685A7020E03B6800221A7098
:102CC0001CE03B685B785A1CD1B23A6851701A46D6
:102CD0003B685B689B7802339A420ED33B680022C4
:102CE0001A70084A0021012002F0D2FF05E03B687B
:102CF00000221A7002E000BF00E000BF00BF1037E2
:102D0000BD4680BDEC00002080B584B000AF034616
:102D10003960FB713B685B68FB603B685B781A4617
:102D2000FB681344FA791A703B681B78022B27D092
:102D3000022B4DDC002B02D0012B10D048E03B6869
:102D400000225A70FB79662B46D13B6801221A702B
:102D50003B685B780133DAB23B685A703CE0FB7940
:102D6000882B09D13B6802221A703B685B780133DB
:102D7000DAB23B685A7032E03B6800221A702EE0EB
:102D80003B685B785A1CD1B23A6851701A463B686E
:102D90005B685B890C339A4220D33B6800221A702F
:102DA0003B685B6803F108023B685B685B890C3336
:102DB00019461046FFF710FFB8603B685B685B6818
:102DC000BA689A420AD10849002002F05FFD05E086
:102DD0003B6800221A7002E000BF00E000BF00BFA5
:102DE0001037BD4680BD00BF5C88000880B582B04A
:102DF00000AF40F225510C48FFF7B6F90346002B0F
:102E00000ED00948FFF758F90346FB71FB790749D3
:102E10001846FFF701FFFB7905491846FFF774FFD5
:102E200000BF0837BD4680BD00440040C8000020F8
:102E3000D000002080B584B000AF3B4600221A606D
:102E40005A609A60DA603B461846FEF77DFC3A68A5
:102E5000024B1B689A421037BD4680BD000000201F
:102E600080B582B002AF4FF44070FDF7E5FFFFF789
:102E7000E1FFA82002F05CFF4FF4E13002F082FF96
:102E8000074B019301230093002380220549064844
:102E900001F078F801F03AFA00231846BD4680BDEB
:102EA000900300206C880008AD2E000880B582B029
:102EB00000AF786003F050F902F00EFF02F082FBE1
:102EC000054B1B68184601F093F903F073F900BF36
:102ED0000837BD4680BD00BF9003002080B400AF1E
:102EE00000BFBD465DF8047B704780B400AF00BFF3
:102EF000FDE780B400AF00BFFDE780B400AF00BFC6
:102F0000FDE780B400AF00BFFDE780B400AF00BFB5
:102F1000BD465DF8047B704780B584B000AF786033
:102F20007B68FB60FB685B689B687868984700BFBC
:102F30001037BD4680BD80B58AB000AF78607B6831
:102F40007B6207F10C0100234FF0FF32786A00F03A
:102F50001DFD07F10C031846FFF7DEFF00BFF0E789
:102F600080B500AF064B1B78064A0749184602F0A9
:102F7000FFFA034802F0AAFA0023184680BD00BFFA
:102F80000401002094030020372F000880B584B08E
:102F900000AF78607B68FB60FB685B689B68786863
:102FA000984700BF1037BD4680BD80B58AB000AFDE
:102FB00078607B687B6207F10C0100234FF0FF32E1
:102FC000786A00F0E3FC07F10C031846FFF7DEFF18
:102FD00000BFF0E780B500AF064B1B78064A0749F3
:102FE000184602F0C5FA034802F070FA00231846AA
:102FF00080BD00BF1C01002098030020AB2F0008FB
:1030000080B584B000AF78607B689B681B78FB73E9
:103010007B689B89BB81FA7BBB890449002002F055
:1030200035FC00BF1037BD4680BD00BF7888000862
:1030300080B584B000AF78607B68FB60FB681B786C
:10304000002B03D1F868FFF7DBFF00E000BF00BFF3
:103050001037BD4680BD80B483B000AF786000BF3C
:103060000C37BD465DF8047B7047000080B58AB020
:1030700000AF78607B687B6207F1080100234FF0A6
:10308000FF32786A00F082FC786A00F089FD03461E
:1030900087F8233097F823301A460C49002002F0B5
:1030A000F5FB3B7A052B05D807F108031846FFF717
:1030B000BFFFE1E73B7A052BDED93B7A0A2BDBD851
:1030C00007F108031846FFF7C6FFD5E7D8880008C0
:1030D00080B500AF064B1B78064A0749184602F038
:1030E00047FA034802F0F2F90023184680BD00BFFA
:1030F00034010020A80300206D30000880B584B0A2
:1031000000AF78607B689B681B78FB737B689B894A
:10311000BB81FA7BBB890449002002F0B7FB00BFEA
:103120001037BD4680BD00BF0489000880B582B05D
:1031300000AF78607B681B78012B03D17868FFF7BC
:10314000DDFF00E000BF00BF0837BD4680BD0000C6
:1031500080B584B000AF78607B68FB60FB685B681B
:103160009B68786898477B689B68BB600349002030
:1031700002F08CFB00BF1037BD4680BD34890008CB
:1031800080B584B000AF78607B68FB60FB681B781B
:10319000062B03D1F868FFF7DBFF00E000BF00BF9C
:1031A0001037BD4680BD000080B58AB000AF7860A2
:1031B0007B687B6207F1080100234FF0FF32786AD9
:1031C00000F0E4FB786A00F0EBFC034687F823305C
:1031D00097F823301A460C49002002F057FB3B7A3F
:1031E000052B05D807F108031846FFF79FFFE1E715
:1031F0003B7A052BDED93B7A0A2BDBD807F1080393
:103200001846FFF7BDFFD5E75C89000880B500AF21
:10321000064B1B78064A0749184602F0A9F90348ED
:1032200002F054F90023184680BD00BF4C01002075
:10323000B8030020A931000880B584B000AF7860E1
:103240007B68FB6040F2EE23BB60FB685B68DB6879
:1032500007F1080104227868984700BF1037BD467F
:1032600080BD80B58AB000AF78607B687B6207F173
:103270000C0100234FF0FF32786A00F087FB07F162
:103280000C031846FFF7D8FF00BFF0E780B500AF8A
:10329000064B1B78064A0749184602F069F90348AD
:1032A00002F014F90023184680BD00BF640100201D
:1032B000BC0300206332000880B584B000AF7860A2
:1032C0007B68FB600B4B1B780133DAB2094B1A7039
:1032D000084B1B7803F00103DBB2FB72FB685B68F1
:1032E000DB6807F10B0101227868984700BF1037AF
:1032F000BD4680BDC003002080B58AB000AF7860B5
:103300007B687B6207F10C0100234FF0FF32786A83
:1033100000F03CFB07F10C031846FFF7CDFF00BFA0
:10332000F0E7000080B500AF064B1B78064A07495E
:10333000184602F01DF9034802F0C8F800231846A9
:1033400080BD00BF7C010020C4030020F9320008CA
:1033500080B483B000AF78607B6803F108027B68BB
:103360005A607B684FF0FF329A607B6803F1080275
:103370007B68DA607B6803F108027B681A617B680E
:1033800000221A6000BF0C37BD465DF8047B704711
:1033900080B483B000AF78607B6800221A6100BF00
:1033A0000C37BD465DF8047B704780B485B000AF34
:1033B000786039607B685B68FB603B68FA685A60DC
:1033C000FB689A683B689A60FB689B683A685A6039
:1033D000FB683A689A603B687A681A617B681B6888
:1033E0005A1C7B681A6000BF1437BD465DF8047B29
:1033F000704780B485B000AF786039603B681B6867
:10340000BB60BB68B3F1FF3F03D17B681B69FB6006
:103410000CE07B680833FB6002E0FB685B68FB60E4
:10342000FB685B681B68BA689A42F6D2FB685A6808
:103430003B685A603B685B683A689A603B68FA6828
:103440009A60FB683A685A603B687A681A617B68E0
:103450001B685A1C7B681A6000BF1437BD465DF8B4
:10346000047B704780B485B000AF78607B681B69CF
:10347000FB607B685B687A6892689A607B689B688F
:103480007A6852685A60FB685B687A689A4203D12E
:103490007B689A68FB685A607B6800221A61FB6847
:1034A0001B685A1EFB681A60FB681B6818461437B5
:1034B000BD465DF8047B704780B584B000AF78608E
:1034C00039607B68FB60FB68002B05D140F21B1262
:1034D0002A492B4803F0BEFA02F03EFEFB681A6848
:1034E000FB68DB6BF968096C01FB03F31A44FB68AA
:1034F0005A60FB6800229A63FB681A68FB689A604E
:10350000FB681A68FB68DB6B013BF968096C01FB1F
:1035100003F31A44FB68DA60FB68FF2283F8442057
:10352000FB68FF2283F845203B68002B14D1FB6821
:103530001B69002B1AD0FB681033184601F04EF9B6
:103540000346002B12D00F4B4FF080521A60BFF38E
:103550004F8FBFF36F8F09E0FB6810331846FFF7FA
:10356000F7FEFB6824331846FFF7F2FE02F022FE56
:10357000012318461037BD4680BD00BF8089000872
:103580009489000804ED00E080B58AB002AFF860CD
:10359000B9601346FB71FB68002B05D14FF4C47270
:1035A0001449154803F056FABB68002B02D10023DA
:1035B000FB6104E0FB68BA6802FB03F3FB61FB6993
:1035C0005433184602F0DAFEB861BB69002B0BD009
:1035D000BB6954337B61FA79BB69009313467A69FE
:1035E000B968F86800F00AF8BB6918462037BD468C
:1035F00080BD00BF808900089489000880B584B030
:1036000000AFF860B9607A60FB70BB68002B03D133
:10361000BB69BA691A6002E0BB697A681A60BB6963
:10362000FA68DA63BB69BA681A640121B869FFF7FE
:1036300043FFBB69FA7883F85020BB6900229A6483
:1036400000BF1037BD4680BD80B58AB000AFF860BE
:10365000B9607A603B6000237B62FB683B623B6A37
:10366000002B05D140F2D9227549764803F0F2F9D2
:10367000BB68002B03D13B6A1B6C002B01D10123DB
:1036800000E00023002B05D140F2DA226C496D489E
:1036900003F0E0F93B68022B03D13B6ADB6B012BA3
:1036A00001D1012300E00023002B05D140F2DB22F1
:1036B0006349644803F0CEF901F044FA0346002B55
:1036C00002D17B68002B01D1012300E00023002BF5
:1036D00005D140F2DE225A495A4803F0BBF902F004
:1036E0003BFD3B6A9A6B3B6ADB6B9A4202D33B68B9
:1036F000022B3DD13A68B968386A00F073FAF86174
:103700003B6A9B6C002B0FD03968386A00F0E6FBEF
:103710000346002B28D04C4B4FF080521A60BFF369
:103720004F8FBFF36F8F1FE03B6A5B6A002B10D097
:103730003B6A2433184601F051F80346002B13D09E
:10374000414B4FF080521A60BFF34F8FBFF36F8F22
:103750000AE0FB69002B07D03B4B4FF080521A6008
:10376000BFF34F8FBFF36F8F02F024FD012363E09F
:103770007B68002B03D102F01DFD00235CE07B6A17
:10378000002B06D107F11403184601F089F8012334
:103790007B6202F00FFD00F005FE02F0DDFC3B6AEB
:1037A00093F844305BB2B3F1FF3F03D13B6A002290
:1037B00083F844203B6A93F845305BB2B3F1FF3F96
:1037C00003D13B6A002283F8452002F0F3FC3A1D46
:1037D00007F114031146184601F084F80346002B44
:1037E00024D1386A00F004FB0346002B18D03B6A52
:1037F00010337A681146184600F0A2FF386A00F0CC
:1038000081FA00F0DDFD0346002B7FF468AF0E4B1C
:103810004FF080521A60BFF34F8FBFF36F8F5EE798
:10382000386A00F06FFA00F0CBFD58E7386A00F014
:1038300069FA00F0C5FD002318462837BD4680BD53
:10384000808900089489000804ED00E080B58CB000
:1038500000AFF860B9607A603B60FB68BB62BB6A2E
:10386000002B05D140F29F324649474803F0F2F859
:10387000BB68002B03D1BB6A1B6C002B01D1012359
:1038800000E00023002B05D14FF468723D493E480B
:1038900003F0E0F83B68022B03D1BB6ADB6B012B22
:1038A00001D1012300E00023002B05D140F2A13219
:1038B0003449354803F0CEF802F028FDEFF31182C9
:1038C0004FF0500383F31188BFF36F8FBFF34F8F17
:1038D000FA61BB61FB697B62BB6A9A6BBB6ADB6B9B
:1038E0009A4202D33B68022B3ED1BB6A93F8453023
:1038F00087F823303A68B968B86A00F073F997F925
:103900002330B3F1FF3F24D1BB6A9B6C002B0DD059
:103910003968B86A00F0E2FA0346002B21D07B68D0
:10392000002B1ED07B6801221A601AE0BB6A5B6A1A
:10393000002B16D0BB6A2433184600F04FFF034615
:10394000002B0ED07B68002B0BD07B6801221A6005
:1039500007E097F823300133DBB25AB2BB6A83F831
:1039600045200123FB6201E00023FB627B6A7B614F
:103970007B6983F3118800BFFB6A18463037BD4668
:1039800080BD00BF808900089489000880B58AB096
:1039900000AFF860B9607A603B6000237B62FB682F
:1039A0003B623B6A002B05D140F2DC4279497A4800
:1039B00003F050F8BB68002B03D13B6A1B6C002B53
:1039C00001D1012300E00023002B05D140F2DD42AC
:1039D0007049714803F03EF801F0B4F80346002B3B
:1039E00002D17B68002B01D1012300E00023002BD2
:1039F00005D14FF49C626749674803F02BF802F049
:103A0000ABFB3B6A9B6BFB61FB69002B46D03B6ABF
:103A1000DB68BB61B968386A00F04EF93B68002B7F
:103A200021D1FB695A1E3B6A9A633B6A1B68002BD3
:103A300004D101F09BF902463B6A5A603B6A1B695C
:103A4000002B27D03B6A1033184600F0C7FE034610
:103A5000002B1FD0514B4FF080521A60BFF34F8F95
:103A6000BFF36F8F16E03B6ABA69DA603B6A5B6A44
:103A7000002B0FD03B6A2433184600F0AFFE0346FC
:103A8000002B07D0454B4FF080521A60BFF34F8F89
:103A9000BFF36F8F02F08EFB012377E07B68002B72
:103AA00003D102F087FB002370E07B6A002B06D174
:103AB00007F11003184600F0F3FE01237B6202F0C9
:103AC00079FB00F06FFC02F047FB3B6A93F844304F
:103AD0005BB2B3F1FF3F03D13B6A002283F844207D
:103AE0003B6A93F845305BB2B3F1FF3F03D13B6AC9
:103AF000002283F8452002F05DFB3A1D07F1100318
:103B00001146184600F0EEFE0346002B31D1386A0C
:103B100000F058F90346002B25D03B6A1B68002BA8
:103B200008D102F019FB3B6A5B68184601F028F8DF
:103B300002F040FB3B6A24337A681146184600F0D5
:103B4000FFFD386A00F0DEF800F03AFC0346002B77
:103B50007FF455AF114B4FF080521A60BFF34F8F77
:103B6000BFF36F8F4BE7386A00F0CCF800F028FC09
:103B700045E7386A00F0C6F800F022FC386A00F029
:103B800021F90346002B3FF43AAF002318462837AB
:103B9000BD4680BD808900089489000804ED00E0DE
:103BA00080B584B000AF78607B68FB60FB68002B59
:103BB00005D140F241620949094802F04BFF02F089
:103BC000CBFAFB68DA6BFB689B6BD31ABB6002F025
:103BD000F1FABB6818461037BD4680BD80890008E1
:103BE0009489000880B586B000AFF860B9607A604B
:103BF00000237B61FB689B6B3B61FB681B6C002BAC
:103C00000DD1FB681B68002B4DD1FB685B68184623
:103C100001F02CF87861FB6800225A6043E07B6871
:103C2000002B19D1FB689868FB681B6C1A46B968B1
:103C300003F0BFF8FB689A68FB681B6C1A44FB68CA
:103C40009A60FB689A68FB685B689A422BD3FB68B2
:103C50001A68FB689A6026E0FB68D868FB681B6CF2
:103C60001A46B96803F0A5F8FB68DA68FB681B6CB4
:103C70005B421A44FB68DA60FB68DA68FB681B6821
:103C80009A4207D2FB685A68FB681B6C5B421A4475
:103C9000FB68DA607B68022B05D13B69002B02D000
:103CA0003B69013B3B613B695A1CFB689A637B693A
:103CB00018461837BD4680BD80B582B000AF786029
:103CC00039607B681B6C002B18D07B68DA687B68D6
:103CD0001B6C1A447B68DA607B68DA687B685B6817
:103CE0009A4203D37B681A687B68DA607B68D9687C
:103CF0007B681B6C1A46386803F05BF800BF083716
:103D0000BD4680BD80B584B000AF786002F024FA73
:103D10007B6893F84530FB731FE07B689B6C002B3E
:103D200009D00021786800F0D9F80346002B10D0A4
:103D300000F032FE0DE07B685B6A002B12D07B68DE
:103D40002433184600F04AFD0346002B01D000F052
:103D500023FEFB7B013BDBB2FB7397F90F30002B9B
:103D6000DBDC00E000BF7B68FF2283F8452002F027
:103D700021FA02F0F1F97B6893F84430BB7311E04B
:103D80007B681B69002B12D07B681033184600F04B
:103D900025FD0346002B01D000F0FEFDBB7B013B5F
:103DA000DBB2BB7397F90E30002BE9DC00E000BFFB
:103DB0007B68FF2283F8442002F0FCF900BF103733
:103DC000BD4680BD80B584B000AF786002F0C4F914
:103DD0007B689B6B002B02D10123FB6001E0002379
:103DE000FB6002F0E7F9FB6818461037BD4680BD5E
:103DF00080B584B000AF786002F0AEF97B689A6B52
:103E00007B68DB6B9A4202D10123FB6001E0002357
:103E1000FB6002F0CFF9FB6818461037BD4680BD45
:103E200080B485B000AF786039600023FB6014E097
:103E30000F4AFB6852F83330002B0BD10C49FB685A
:103E40003A6841F833200A4AFB68DB0013447A6879
:103E50005A6006E0FB680133FB60FB68072BE7D97B
:103E600000BF00BF1437BD465DF8047B704700BF3C
:103E7000C803002080B586B000AFF860B9607A60F2
:103E8000FB687B6102F068F97B6993F844305BB2B0
:103E9000B3F1FF3F03D17B69002283F844207B69A3
:103EA00093F845305BB2B3F1FF3F03D17B69002249
:103EB00083F8452002F07EF97B699B6B002B06D1CD
:103EC0007B6924337A68B968184600F05DFC78692C
:103ED000FFF718FF00BF1837BD4680BD80B586B01C
:103EE00000AF786039607B689B6C3B6100237B612D
:103EF0003B69002B05D140F6CE122049204802F044
:103F0000A9FD3B699A6B3B69DB6B9A4205D340F68E
:103F1000CF121A491A4802F09DFD3B699A6B3B6922
:103F2000DB6B9A4225D23B6993F84530FB733B1D0E
:103F30003A6819463869FFF755FE786197F90F30EE
:103F4000B3F1FF3F0ED13B695B6A002B11D03B6997
:103F50002433184600F042FC0346002B09D001230D
:103F60007B6106E0FB7B0133DBB25AB23B6983F82D
:103F700045207B6918461837BD4680BD80890008FA
:103F80009489000880B58CB004AFF860B9603B60DC
:103F90001346FB80FB889B00184602F0EFF978611E
:103FA0007B69002B0ED05C2002F0E8F9F861FB6918
:103FB000002B03D0FB697A691A6305E0786902F087
:103FC00095FA01E00023FB61FB69002B13D0FA880E
:103FD00000230393FB690293FB6A0193BB6A00937E
:103FE0003B68B968F86800F00FF8F86900F092F8DB
:103FF0000123BB6102E04FF0FF33BB61BB69184690
:104000002037BD4680BD000080B586B000AFF860A7
:10401000B9607A603B60BB6A186B7B689B001A468C
:10402000A52102F05FFEBB6A1A6B7B6803F1804337
:10403000013B9B0013443B613B6923F007033B6159
:104040003B6903F00703002B05D040F22B322F49C8
:104050002F4802F0FFFC00237B6112E0BA687B6905
:1040600013441978BA6A7B69134434330A461A70C8
:10407000BA687B6913441B78002B06D07B69013337
:104080007B617B690F2BE9D900E000BFBB6A00228E
:1040900083F843203B6A1F2B01D91F233B62BB6A75
:1040A0003A6ADA62BB6A3A6ADA64BB6A00221A6563
:1040B000BB6A04331846FFF76BF9BB6A183318461E
:1040C000FFF766F9BB6ABA6A1A613B6AC3F120025C
:1040D000BB6A9A61BB6ABA6A5A62BB6A00225A65B5
:1040E000BB6A002283F858203A68F968386901F001
:1040F0000BFF0246BB6A1A607B6A002B02D07B6A08
:10410000BA6A1A6000BF1837BD4680BDA48900088E
:10411000B889000880B582B000AF786002F01CF862
:104120002C4B1B6801332B4A13602B4B1B68002B55
:1041300009D1294A7B681360264B1B68012B10D1DB
:1041400000F04EFC0DE0254B1B68002B09D1224BE3
:104150001B68DA6A7B68DB6A9A4202D81E4A7B686F
:1041600013601F4B1B6801331D4A13601C4B1A68F8
:104170007B685A647B68DB6A01229A40194B1B6892
:104180001343184A13607B68DA6A13469B00134492
:104190009B00154A1A447B68043319461046FFF702
:1041A00004F902F007F80D4B1B68002B0ED00A4BE8
:1041B0001B68DA6A7B68DB6A9A4207D20B4B4FF0C6
:1041C00080521A60BFF34F8FBFF36F8F00BF083765
:1041D000BD4680BDFC060020080400200807002022
:1041E00018070020040700200C04002004ED00E064
:1041F00080B584B000AF786001F0AEFF7B68002B23
:1042000002D1364B1B6800E07B68FB60FB6804331F
:104210001846FFF727F90346002B15D1FB68DA6A29
:104220002F4913469B0013449B000B441B68002B33
:104230000AD1FB68DB6A012202FA03F3DA43294B55
:104240001B681340274A1360FB689B6A002B04D04D
:10425000FB6818331846FFF705F9234B1B68013339
:10426000214A13601D4B1B68FA689A420BD1FB6808
:10427000043319461D48FFF798F81D4B1B6801339E
:104280001B4A136009E01B4B1B68013B194A136072
:10429000F86800F021FC00F02FFC01F08BFF164BBA
:1042A0001B68002B16D00D4B1B68FA689A4211D17F
:1042B000124B1B68002B05D040F265421049114893
:1042C00002F0C8FB104B4FF080521A60BFF34F8FC3
:1042D000BFF36F8F00BF1037BD4680BD08040020BC
:1042E0000C0400200407002018070020D00600203E
:1042F000E4060020FC060020080700202407002018
:10430000A4890008B889000804ED00E080B584B0F5
:1043100002AF1C4B019300230093002382221A4911
:104320001A48FFF72FFE78607B68012B02D100F05E
:1043300097FD78607B68012B16D14FF0500383F313
:104340001188BFF36F8FBFF34F8F3B6000BF104BDF
:104350004FF0FF321A600F4B01221A600E4B002201
:104360001A6001F057FE09E07B68B3F1FF3F05D109
:1043700040F2847209490A4802F06CFB00BF08371A
:10438000BD4680BD20070020C8890008B14900084B
:104390001C0700200807002000070020A48900084F
:1043A000B889000880B400AF044B1B680133034A8E
:1043B000136000BFBD465DF8047B704724070020F2
:1043C00080B584B000AF0023FB600023BB603F4B8F
:1043D0001B68002B05D14FF4FD623D493D4802F0BA
:1043E00039FB01F0B9FE394B1B68013B374A1360BA
:1043F000364B1B68002B61D1374B1B68002B5DD0FF
:104400002EE0364BDB68DB68FB60FB681833184630
:10441000FFF728F8FB6804331846FFF723F8FB681A
:10442000DB6A01229A402E4B1B6813432C4A13600F
:10443000FB68DA6A13469B0013449B00294A1A441E
:10444000FB68043319461046FEF7AFFFFB68DA6AD3
:10445000254B1B68DB6A9A4202D3244B01221A6067
:104460001E4B1B68002BCCD1FB68002B01D000F049
:1044700043FB1F4B1B687B607B68002B10D000F058
:104480004BF80346002B02D0184B01221A607B68C0
:10449000013B7B607B68002BF1D1154B00221A6039
:1044A000124B1B68002B09D00123BB60114B4FF04E
:1044B00080521A60BFF34F8FBFF36F8F01F07AFE07
:1044C000BB6818461037BD4680BD00BF24070020DA
:1044D000A4890008B8890008FC060020BC0600205A
:1044E000040700200C04002008040020100700200E
:1044F0000C07002004ED00E080B483B000AF054B52
:104500001B687B607B6818460C37BD465DF8047BF2
:10451000704700BF0007002080B586B000AF0023C1
:104520007B614E4B1B68002B40F088804C4B1B6816
:1045300001333B614A4A3B6913603B69002B1BD145
:10454000484B1B681B68002B05D040F6D912464922
:10455000464802F07FFA434B1B68FB60444B1B68E4
:10456000404A1360424AFB681360424B1B680133A8
:10457000404A136000F0C0FA3F4B1B683A699A4208
:104580004DD3384B1B681B68002B01D1012300E081
:104590000023002B04D0384B4FF0FF321A603EE06E
:1045A000304B1B68DB68DB68BB60BB685B687B60AB
:1045B0003A697B689A4203D22F4A7B6813602EE0E7
:1045C000BB6804331846FEF74DFFBB689B6A002B9F
:1045D00004D0BB6818331846FEF744FFBB68DB6A9B
:1045E00001229A40254B1B681343244A1360BB6881
:1045F000DA6A13469B0013449B00214A1A44BB68A5
:10460000043319461046FEF7D0FEBB68DA6A1D4B2C
:104610001B68DB6A9A42B4D301237B61B1E7194B73
:104620001B68DA6A164913469B0013449B000B442F
:104630001B68012B07D901237B6104E0124B1B6827
:104640000133114A1360114B1B68002B01D0012369
:104650007B617B6918461837BD4680BD2407002062
:1046600000070020B4060020A4890008B8890008CB
:10467000B8060020140700201C07002004070020B3
:104680000C040020080400200C0700201007002064
:1046900080B584B000AF234B1B68002B03D0224BA6
:1046A00001221A603AE0204B00221A601F4B1B685F
:1046B0007B607B68B3FA83F3FB70FB78C3F11F0365
:1046C000FB601B49FA6813469B0013449B000B4494
:1046D0001B68002B05D140F6F6221649164802F059
:1046E000B9F9FA6813469B0013449B00104A13441F
:1046F000BB60BB685B685A68BB685A60BB685A6835
:10470000BB6808339A4204D1BB685B685A68BB68CF
:104710005A60BB685B68DB68084A136000BF1037EB
:10472000BD4680BD2407002010070020040700209C
:104730000C040020A4890008B8890008080400209F
:1047400080B582B000AF786039607B68002B05D1FE
:1047500040F6063209490A4802F07CF9094B1B6809
:10476000183319467868FEF744FE0121386800F0D6
:1047700011FB00BF0837BD4680BD00BFA4890008FB
:10478000B88900080804002080B584B000AFF86044
:10479000B9607A60FB68002B05D140F631320C49D4
:1047A0000C4802F057F90C4B1B6818331946F8688F
:1047B000FEF7FBFD7B68002B02D04FF0FF33BB60A0
:1047C0007968B86800F0E6FA00BF1037BD4680BDD2
:1047D000A4890008B88900080804002080B584B0C6
:1047E00000AF78607B68DB68DB68BB60BB68002B70
:1047F00005D140F661322249224802F02BF9BB680C
:1048000018331846FEF72EFE1F4B1B68002B1CD1D9
:10481000BB6804331846FEF725FEBB68DB6A01223D
:104820009A401A4B1B681343184A1360BB68DA6A34
:1048300013469B0013449B00154A1A44BB6804337B
:1048400019461046FEF7B1FD05E0BB68183319465E
:104850001048FEF7AAFDBB68DA6A0F4B1B68DB6ADB
:104860009A4205D90123FB600C4B01221A6001E03A
:104870000023FB60FB6818461037BD4680BD00BFB3
:10488000A4890008B8890008240700200407002034
:104890000C040020BC0600200804002010070020A3
:1048A00080B582B000AF78607B68002B05D140F600
:1048B000C1320849084802F0CDF8084B1A687B68F5
:1048C0001A60074B1A687B685A6000BF0837BD46FC
:1048D00080BD00BFA4890008B88900081407002023
:1048E0000007002080B584B000AF786039607B6835
:1048F000002B05D140F6CB322349244802F0AAF818
:104900003B68002B05D140F6CC321F491F4802F00E
:10491000A1F801F021FC1E4B1B68BB603B681B68C3
:10492000B3F1FF3F02D10023FB6026E07B681A68E9
:10493000184B1B689A4207D07B685B68BA689A423A
:1049400002D30123FB6018E07B685B68BA68D21A67
:104950003B681B689A420ED23B681A687B685968AC
:10496000BB68CB1A1A443B681A607868FFF798FF57
:104970000023FB6001E00123FB6001F01BFCFB68EE
:1049800018461037BD4680BDA4890008B8890008C4
:10499000000700201407002080B400AF034B012261
:1049A0001A6000BFBD465DF8047B70471007002009
:1049B00080B582B000AF786000F052F8064B1B68FB
:1049C000012BF9D9054B4FF080521A60BFF34F8F7E
:1049D000BFF36F8FF0E700BF0C04002004ED00E090
:1049E00080B582B000AF00237B600CE07A6813468C
:1049F0009B0013449B00124A13441846FEF7A8FC80
:104A00007B6801337B607B681F2BEFD90D48FEF775
:104A10009FFC0D48FEF79CFC0C48FEF799FC0C48E7
:104A2000FEF796FC0B48FEF793FC0B4B054A1A6009
:104A30000A4B054A1A6000BF0837BD4680BD00BF5B
:104A40000C0400208C060020A0060020BC060020DC
:104A5000D0060020E8060020B4060020B80600209A
:104A600080B582B000AF28E0FFF79CFC174B1B68B5
:104A7000002B0CBF01230023DBB27B60FFF7A0FCFF
:104A80007B68002B19D101F067FB104BDB68DB68FA
:104A90003B603B6804331846FEF7E4FC0C4B1B6894
:104AA000013B0B4A13600B4B1B68013B094A136027
:104AB00001F080FB386800F00FF8064B1B68002BF4
:104AC000D2D100BF00BF0837BD4680BDD006002050
:104AD000FC060020E406002080B582B000AF7860BC
:104AE0007B681B6B184601F001FD786801F0FEFC45
:104AF00000BF0837BD4680BD80B483B000AF0F4B08
:104B00001B681B68002B01D1012300E00023002B50
:104B100004D00B4B4FF0FF321A6008E0074B1B68C4
:104B2000DB68DB687B607B685B68054A136000BFFD
:104B30000C37BD465DF8047B704700BFB40600200B
:104B40001C07002080B483B000AF0B4B1B68002B08
:104B500002D101237B6008E0084B1B68002B02D1C7
:104B600002237B6001E000237B607B6818460C37E2
:104B7000BD465DF8047B704708070020240700202D
:104B800080B584B000AF78607B68FB607B68002BE9
:104B900062D0FB68DA6A324B1B68DB6A9A425BD2EE
:104BA000FB689B69002B06DB2D4B1B68DB6AC3F19E
:104BB0002002FB689A61FB685969FB68DA6A134650
:104BC0009B0013449B00274A1344994201D10123BF
:104BD00000E00023002B3AD0FB6804331846FEF7B0
:104BE00041FC0346002B15D1FB68DA6A1D491346C8
:104BF0009B0013449B000B441B68002B0AD1FB68ED
:104C0000DB6A012202FA03F3DA43174B1B681340F5
:104C1000154A1360124B1B68DA6AFB68DA62FB689C
:104C2000DB6A01229A40104B1B6813430E4A136043
:104C3000FB68DA6A13469B0013449B00094A1A4436
:104C4000FB68043319461046FEF7AFFB04E0044B43
:104C50001B68DA6AFB68DA6200BF1037BD4680BDA8
:104C6000080400200C0400200407002080B584B054
:104C700000AF78607B68BB600023FB607B68002B23
:104C800064D0354B1B68BA689A4205D040F6C762BB
:104C90003249334801F0DEFEBB681B6D002B05D1A5
:104CA00040F6C9622D492E4801F0D4FEBB681B6D49
:104CB0005A1EBB681A65BB68DA6ABB68DB6C9A422D
:104CC00044D0BB681B6D002B40D1BB680433184631
:104CD000FEF7C8FB0346002B15D1BB68DA6A2149F1
:104CE00013469B0013449B000B441B68002B0AD106
:104CF000BB68DB6A012202FA03F3DA431A4B1B6832
:104D00001340194A1360BB68DA6CBB68DA62BB688F
:104D1000DB6AC3F12002BB689A61BB68DB6A0122CF
:104D20009A40114B1B6813430F4A1360BB68DA6A41
:104D300013469B0013449B000A4A1A44BB68043381
:104D400019461046FEF731FB0123FB60FB6818464D
:104D50001037BD4680BD00BF08040020A4890008AC
:104D6000B88900080C0400200407002080B400AFBC
:104D7000074B1B68002B04D0054B1B681A6D0132D2
:104D80001A65034B1B681846BD465DF8047B7047E7
:104D90000804002080B584B000AF78603960294BEA
:104DA0001B68FB60284B1B6804331846FEF75AFB50
:104DB0000346002B0BD1244B1B68DB6A012202FA4D
:104DC00003F3DA43214B1B681340204A13607B68CE
:104DD000B3F1FF3F0AD13B68002B07D01A4B1B6889
:104DE000043319461A48FEF7E0FA26E0FA687B68B1
:104DF0001344BB60144B1B68BA685A60BA68FB68FE
:104E00009A4209D2134B1A680F4B1B680433194698
:104E10001046FEF7EEFA10E00F4B1A680A4B1B68BB
:104E2000043319461046FEF7E4FA0C4B1B68BA68C7
:104E30009A4202D2094ABB68136000BF1037BD46D0
:104E400080BD00BF000700200804002004070020E8
:104E5000E8060020B8060020B40600201C07002049
:104E600080B584B002AF00237B6000F0F9FA0F4BED
:104E70001B68002B0BD00E4B01931F2300930023C4
:104E80004FF482720B490C48FFF77CF878607B681E
:104E9000002B05D140F233120849094801F0DAFD30
:104EA0007B6818460837BD4680BD00BF5807002004
:104EB0005C070020E08900087D500008E8890008B0
:104EC000FC89000880B588B002AFF860B9607A60EC
:104ED0003B602C2001F052FA78617B69002B09D0ED
:104EE0007B6901933B6A00933B687A68B968F8680C
:104EF00000F006F87B6918461837BD4680BD0000F3
:104F000080B584B000AFF860B9607A603B60BB6880
:104F1000002B05D14FF4C6721049114801F09AFDDB
:104F2000FB69002B15D000F09BFAFB69FA681A6048
:104F3000FB69BA689A61FB697A68DA61FB693A6869
:104F40001A62FB69BA695A62FB6904331846FEF7B4
:104F50001FFA00BF1037BD4680BD00BFE8890008BA
:104F6000FC89000880B58AB000AFF860B9607A604B
:104F70003B6000237B62FB68002B05D14FF4D372AA
:104F80001B491C4801F066FD1B4B1B68002B2AD0F7
:104F9000BB687B617B68BB61FB68FB61BB68052B01
:104FA00018DCFFF7CFFD0346022B09D1124B18681E
:104FB00007F1140100233A6BFEF746FB786212E01A
:104FC0000D4B186807F1140100230022FEF73CFB8B
:104FD000786208E0084B186807F1140100233A686A
:104FE000FEF734FC78627B6A18462837BD4680BDE0
:104FF000E8890008FC8900085807002080B586B0C1
:1050000002AF786039601A4B1B68DB68DB68FB60B5
:10501000FB6804331846FEF725FAFB68DB69012BB1
:105020001DD1FB689A697B68D1187B683A68F8687B
:1050300000F0CAF80346002B11D000230093002390
:105040007A680021F868FFF78DFFB860BB68002B15
:1050500005D14FF402720749074801F0FBFCFB68D9
:105060005B6AF868984700BF1037BD4680BD00BF37
:1050700050070020E8890008FC89000880B584B04A
:1050800000AF786007F10803184600F059F8F8609F
:10509000BB681946F86800F005F800F0D7F800BFC3
:1050A000F0E7000080B584B000AF78603960FFF7AA
:1050B00079F907F10803184600F066F8F860BB6854
:1050C000002B30D13B68002B0AD17A68FB689A42EA
:1050D00006D8FFF775F9F9687868FFF78FFF24E0C5
:1050E0003B68002B08D0134B1B681B68002B0CBFC0
:1050F00001230023DBB23B600F4B18687A68FB6822
:10510000D31A3A681946FEF7B5FEFFF759F9034678
:10511000002B0AD1094B4FF080521A60BFF34F8F1A
:10512000BFF36F8F01E0FFF74BF900BF1037BD46AB
:1051300080BD00BF540700205807002004ED00E0A8
:1051400080B485B000AF78600E4B1B681B68002BE5
:105150000CBF01230023DBB21A467B681A607B6810
:105160001B68002B05D1074B1B68DB681B68FB60C5
:1051700001E00023FB60FB6818461437BD465DF86C
:10518000047B70475007002080B584B000AF786082
:10519000FFF7B2F9F8600B4B1B68FA689A4205D228
:1051A00000F0FEF87B6801221A6002E07B680022B2
:1051B0001A60044AFB681360FB6818461037BD4646
:1051C00080BD00BF6007002080B586B000AFF860EA
:1051D000B9607A603B6000237B61FB68BA685A6003
:1051E000FB68FA681A61BA687B689A4212D87A68D2
:1051F0003B68D21AFB689B699A4202D301237B6108
:105200001BE0104B1A68FB68043319461046FEF782
:10521000F0F812E07A683B689A4206D2BA683B68B6
:105220009A4202D301237B6107E0074B1A68FB68AF
:10523000043319461046FEF7DCF87B691846183728
:10524000BD4680BD540700205007002080B58CB0BB
:1052500002AF8DE0BB68002B14DA07F108030433BA
:105260007B627B6A002B05D140F2E72249494A481C
:1052700001F0F0FB7B6A1B687A6A50687A6A926870
:1052800011469847BB68002B72DB3B693B623B6A67
:105290005B69002B04D03B6A04331846FEF7E2F842
:1052A0003B1D1846FFF770FFF861BB68092B5CD8FF
:1052B00001A252F823F000BFE1520008E1520008B9
:1052C000E15200086B53000835530008635300088F
:1052D000E1520008E15200086B5300083553000802
:1052E000FA683B6A9B69D118FB68FA69386AFFF76C
:1052F0006BFF0346002B3AD03B6A5B6A386A9847DB
:105300003B6ADB69012B32D1FA683B6A9B691A441C
:105310000023009300230021386AFFF723FEB861C1
:10532000BB69002B23D140F221321A491A4801F0FF
:1053300091FB1CE0FA683B6A9A613B6A9B69002B0F
:1053400005D14FF44E721349134801F083FB3B6AB9
:105350009A69FB69D118FB69FA69386AFFF734FF6B
:1053600006E0386A01F0C2F802E000BF00E000BFCA
:105370000A4B186807F1080100230022FEF706FB1C
:105380000346002B7FF466AF00BF00BF2837BD4641
:1053900080BD00BFE8890008FC890008580700208C
:1053A00080B588B002AF40E0294B1B68DB681B6802
:1053B0003B61274B1B68DB68DB68FB60FB680433E1
:1053C0001846FEF74FF8FB685B6AF8689847FB6879
:1053D000DB69012B29D1FB689B693A691344BB60E7
:1053E000BA683B699A420ED9FB68BA685A60FB6892
:1053F000FA681A61164B1A68FB680433194610469E
:10540000FDF7F7FF11E00023009300233A69002124
:10541000F868FFF7A7FD78607B68002B05D140F2A4
:1054200092320C490C4801F015FB094B1B681B68B4
:10543000002BB9D1064B1B687B61084B1B68044AE3
:105440001360064A7B69136000BF1837BD4680BDF4
:1054500050070020E8890008FC8900085407002054
:1054600080B500AF00F078FE124B1B68002B1DD1F9
:105470001148FDF76DFF1148FDF76AFF104B0E4A0A
:105480001A60104B0D4A1A60002210210520FEF709
:105490007BF80346074A1360064B1B68002B05D0B8
:1054A000044B1B6808491846FEF7BAFC00F082FE60
:1054B00000BF80BD58070020280700203C070020BF
:1054C00050070020540700200C8A000880B483B0E5
:1054D00000AF78607B68002B07D07B681B7819468B
:1054E000054A7B6842F8213000E000BF0C37BD461A
:1054F0005DF8047B704700BF6407002080B582B070
:1055000000AF00233B600023FB7126E0FA791749C6
:105510001346DB0013449B000B441C331868FA79D4
:1055200012491346DB0013449B000B4420331B68D5
:1055300000221946FEF728F838603B68002B09D096
:10554000FA790A491346DB0013449B000B441033DD
:105550003A681A60FB790133FB71FB79052BD5D9C9
:10556000002318460837BD4680BD00BF94010020C7
:1055700080B485B000AF0346B9607A60FB73FB7BF3
:10558000052B02D94FF0FF3314E0FA7B0C49134688
:10559000DB0013449B000B440433BA681A60FA7BA7
:1055A00007491346DB0013449B000B4418337A6809
:1055B0001A60002318461437BD465DF8047B704717
:1055C00094010020F0B587B002AF0123BB60FFF764
:1055D00095FF0023FB734BE0FA7B29491346DB0060
:1055E00013449B000B4404331868FA7B2449134688
:1055F000DB0013449B000B4408331C68FA7B2049F2
:105600001346DB0013449B000B440C331D88FA7BCC
:105610001B491346DB0013449B000B4410331E68E8
:10562000FA7B17491346DB0013449B000B441433E9
:105630001968FA7B124B7B601346DB0013449B0016
:105640007A68134418331B680193009133462A4645
:105650002146FEF797FCB860BB68012B05D0FB7BA9
:105660001A460849002000F011F9FB7B0133FB7357
:10567000FB7B052BB0D9002318461437BD46F0BD7F
:10568000940100205C8A000880B584B000AF034616
:105690003A60FB710B46BB71BB79052B02D94FF009
:1056A000FF3324E0BA7914491346DB0013449B000E
:1056B0000B4410331B68BB600123FB60FB79012B9B
:1056C00007D1002300223968B868FEF7BFF8F860F8
:1056D00006E0002300223968B868FDF7B5FFF860DE
:1056E000FB68012B02D04FF0FF3300E00023184687
:1056F0001037BD4680BD00BF9401002000000000AF
:1057000090B58BB000AFF860B9603B601346FB7199
:10571000A9E097F90730002BC0F2AB80FB681B783B
:10572000252B40F09480FB680133FB60FB681B78FD
:10573000732B65D0732B00F38180632B02D0642B15
:105740000DD07BE03B681A1D3A601A68FB79591C42
:10575000F9711946BB680B44D2B21A7080E03B68FD
:105760001A1D3A601B687B627B6A3B620023BB7731
:105770000AE0BB7F0133BB777B6A434A82FB03129B
:105780009210DB17D31A7B627B6A002BF1D10023C6
:10579000FB7730E0BA7FFB7FD31A013B1846FAF75C
:1057A000A1FE02460B4643EC112B9FED350B01F099
:1057B00067FF53EC102B10461946FBF7ADF9034673
:1057C0007B613A6A7B6992FBF3F3DAB2FB79591C8D
:1057D000F9711946BB680B443032D2B21A703B6A79
:1057E0007A6993FBF2F2796901FB02F29B1A3B6240
:1057F000FB7F0133FB77FA7FBB7F9A42CAD32FE04E
:105800003B681A1D3A601B68BB610023FB770DE003
:10581000FB7FBA691A44FB79591CF9711946BB68B8
:105820000B4412781A70FB7F0133FB77FC7FB86959
:10583000FAF7AEFC03469C42EAD311E0FB795A1C0E
:10584000FA711A46BB68134425221A7008E0FB79E6
:105850005A1CFA711A46BB681344FA6812781A7017
:10586000FB680133FB60FB681B78002B7FF451AFB2
:1058700000E000BF00BF2C37BD4690BDAFF30080F5
:105880000000000000002440676666660EB480B524
:1058900087B000AF0346FB717B6A002B52D07B6A56
:1058A0007B61802000F056FF03463B61802200218F
:1058B000386901F017FA07F12803FB60FB79022B26
:1058C00024D0022B30DC002B02D0012B0ED02BE099
:1058D0003B6920491A460B4603CB10605160FB68B8
:1058E000072239697869FFF70BFF1EE03B691A4907
:1058F0001A460B4603CB106051601B881381FB686E
:10590000092239697869FFF7FBFE0EE03B6913490C
:105910001A460B4603CB10605160FB6807223969B9
:105920007869FFF7EDFE00E000BF00F015FC386974
:1059300001F0F8F800F03EFC386900F013FF002396
:105940003B6100E000BF1C37BD46BDE8804003B0AE
:10595000704700BFB88A0008C08A0008CC8A0008D7
:1059600080B582B000AF78607B68002B04DB7B6879
:10597000022B01DC012305E001F012FA03460922A3
:105980001A60002318460837BD4680BD80B582B036
:1059900000AF78607B68002B04DB7B68022B01DCA6
:1059A000002306E001F0FCF9034609221A604FF0DB
:1059B000FF3318460837BD4680BD80B584B000AFC0
:1059C000F860B9607A6001F0EBF9034609221A60C9
:1059D0004FF0FF3318461037BD4680BD80B582B00A
:1059E00000AF786039607B68002B08DB7B68022B96
:1059F00005DC3B684FF400525A60002305E001F0DB
:105A0000CFF9034609221A60002318460837BD461D
:105A100080BD80B487B000AFF860B9607A600023C1
:105A20007B6102E07B6901337B617A697B689A4222
:105A3000F8DB7B6818461C37BD465DF8047B704771
:105A400080B487B000AFF860B9607A6000237B61F2
:105A500002E07B6901337B617A697B689A42F8DBFB
:105A60007B6818461C37BD465DF8047B7047000014
:105A700080B485B000AF03463A60FB710B46BB8033
:105A8000FB79063BFB73FA7B114913465B00134419
:105A90009B000B440233BA881A80FA7B0C491346E8
:105AA0005B0013449B000B4408333A681A60FA7B8E
:105AB000074913465B0013449B000B440433012247
:105AC0001A7000BF1437BD465DF8047B704700BFF5
:105AD0009007002080B582B000AF0023FB715BE02F
