:020000040800F2
:10800000706F7765722076656869636C6500000043
:108010000000000000000000000000000000000060
:1080200076312E300000000000000000000000004B
:108030000000000000000000000000000000000040
:1080400056312E302E302E3000000000000000008F
:108050000000000000000000000000000000000020
:1080600063616C6962726174696E672E2E2E000006
:108070000000000000000000000000000000000000
:1080800063616C6962726174656400002020202065
:1080900020202020202020202020000000000000A0
:1080A0006E6F742063616C69627261746564000054
:1080B00000000000000000000000000000000000C0
:10C000000000022049BF0108392201084722010827
:10C01000532201085B22010863220108000000008E
:10C02000000000000000000000000000517901083D
:10C030006B22010800000000917B0108997601083D
:10C040008DBF01088DBF01088DBF01088DBF01089C
:10C050008DBF01088DBF01088DBF01088DBF01088C
:10C060008DBF01088DBF01088DBF01088DBF01087C
:10C070008DBF01088DBF01088DBF01088DBF01086C
:10C080008DBF01088DBF01088DBF01088DBF01085C
:10C090008DBF01088DBF01088DBF01088DBF01084C
:10C0A0008DBF01088DBF01088DBF01088DBF01083C
:10C0B000E5F10008A91B01088DBF01088DBF01082B
:10C0C0008DBF01088DBF01088DBF01088DBF01081C
:10C0D0008DBF01083D2101086D1B0108C5770108CE
:10C0E00025F100088DBF01088DBF01088DBF010833
:10C0F0008DBF01088DBF01088DBF01088DBF0108EC
:10C100008DBF0108DD1301088DBF01088DBF010837
:10C110008DBF01088DBF01088DBF01088DBF0108CB
:10C120008DBF01088DBF01088DBF0108E91301080B
:10C130008DBF01088DBF01088DBF01088DBF0108AB
:10C140008DBF01088DBF01088DBF01088DBF01089B
:10C150008DBF01088DBF01088DBF01088DBF01088B
:10C160008DBF01088DBF01088DBF01088DBF01087B
:10C170008DBF01088DBF01088DBF01088DBF01086B
:08C180008DBF01088DBF01080D
:10C19000034613F8012B002AFBD1181A0138704707
:10C1A00001F0FF01102A2BDB10F0070F08D010F868
:10C1B000013B013A8B422DD010F0070F42B3F6D16C
:10C1C000F0B441EA012141EA014122F007047FF085
:10C1D00000070023F0E80256083C85EA010586EADC
:10C1E000010685FA47F5A3FA87F586FA47F6A5FA18
:10C1F00087F68EB9EED1F0BC01F0FF0102F0070224
:10C2000032B110F8013B013A83EA010313B1F8D1CE
:10C210000020704701387047002D06BF35460338AF
:10C22000073815F0010F07D1013015F4807F02BFE8
:10C23000013015F4C03F0130F0BC0138704700BF39
:10C2400081F0004102E000BF83F0004330B54FEAC7
:10C2500041044FEA430594EA050F08BF90EA020F34
:10C260001FBF54EA000C55EA020C7FEA645C7FEAC7
:10C27000655C00F0E2804FEA5454D4EB5555B8BFEA
:10C280006D420CDD2C4480EA020281EA030382EA5B
:10C29000000083EA010180EA020281EA0303362DED
:10C2A00088BF30BD11F0004F4FEA01314FF4801CC0
:10C2B0004CEA113102D0404261EB410113F0004FD2
:10C2C0004FEA03334CEA133302D0524263EB430389
:10C2D00094EA050F00F0A780A4F10104D5F1200E27
:10C2E0000DDB02FA0EFC22FA05F2801841F1000182
:10C2F00003FA0EF2801843FA05F359410EE0A5F156
:10C3000020050EF1200E012A03FA0EFC28BF4CF086
:10C31000020C43FA05F3C01851EBE37101F000453C
:10C3200007D54FF0000EDCF1000C7EEB00006EEB49
:10C330000101B1F5801F1BD3B1F5001F0CD34908D3
:10C340005FEA30004FEA3C0C04F101044FEA44522A
:10C3500012F5800F80F09A80BCF1004F08BF5FEAB1
:10C36000500C50F1000041EB045141EA050130BD91
:10C370005FEA4C0C404141EB0101013C28BFB1F5A3
:10C38000801FE9D291F0000F04BF01460020B1FAEE
:10C3900081F308BF2033A3F10B03B3F120020CDAC1
:10C3A0000C3208DD02F1140CC2F10C0201FA0CF09F
:10C3B00021FA02F10CE002F11402D8BFC2F1200C04
:10C3C00001FA02F120FA0CFCDCBF41EA0C019040BA
:10C3D000E41AA2BF01EB0451294330BD6FEA040403
:10C3E0001F3C1CDA0C340EDC04F11404C4F12002EE
:10C3F00020FA04F001FA02F340EA030021FA04F300
:10C4000045EA030130BDC4F10C04C4F1200220FA56
:10C4100002F001FA04F340EA0300294630BD21FA94
:10C4200004F0294630BD94F0000F83F4801306BF5A
:10C4300081F480110134013D4EE77FEA645C18BF4E
:10C440007FEA655C29D094EA050F08BF90EA020FE5
:10C4500005D054EA000C04BF1946104630BD91EADD
:10C46000030F1EBF0021002030BD5FEA545C05D1E0
:10C470004000494128BF41F0004130BD14F580041F
:10C480003CBF01F5801130BD01F0004545F0FE4193
:10C4900041F470014FF0000030BD7FEA645C1ABFC8
:10C4A000194610467FEA655C1CBF0B46024650EAFF
:10C4B000013406BF52EA033591EA030F41F400212B
:10C4C00030BD00BF90F0000F04BF0021704730B5B1
:10C4D0004FF4806404F132044FF000054FF0000186
:10C4E00050E700BF90F0000F04BF0021704730B547
:10C4F0004FF4806404F1320410F0004548BF40421C
:10C500004FF000013EE700BF42004FEAE2014FEA70
:10C5100031014FEA02701FBF12F07F4393F07F4F4B
:10C5200081F06051704732F07F4208BF704793F04E
:10C530007F4F04BF41F40021704730B54FF4607461
:10C5400001F0004521F000411CE700BF50EA010264
:10C5500008BF704730B54FF000050AE050EA01020D
:10C5600008BF704730B511F0004502D5404261EB7D
:10C5700041014FF4806404F132045FEA915C3FF4BE
:10C58000D8AE4FF003025FEADC0C18BF03325FEA5B
:10C59000DC0C18BF033202EBDC02C2F1200300FA0C
:10C5A00003FC20FA02F001FA03FE40EA0E0021FA31
:10C5B00002F11444BDE600BF70B54FF0FF0C4CF41F
:10C5C000E06C1CEA11541DBF1CEA135594EA0C0FD1
:10C5D00095EA0C0F00F0DEF82C4481EA030621EA0C
:10C5E0004C5123EA4C5350EA013518BF52EA033547
:10C5F00041F4801143F4801338D0A0FB02CE4FF0F9
:10C600000005E1FB02E506F00042E0FB03E54FF028
:10C610000006E1FB03569CF0000F18BF4EF0010E20
:10C62000A4F1FF04B6F5007F64F5407404D25FEA1C
:10C630004E0E6D4146EB060642EAC62141EA5551CF
:10C640004FEAC52040EA5E504FEACE2EB4F1FD0C11
:10C6500088BFBCF5E06F1ED8BEF1004F08BF5FEA8F
:10C66000500E50F1000041EB045170BD06F0004641
:10C6700046EA010140EA020081EA0301B4EB5C04EE
:10C68000C2BFD4EB0C0541EA045170BD41F48011E6
:10C690004FF0000E013C00F3AB8014F1360FDEBF0B
:10C6A000002001F0004170BDC4F10004203C35DAE7
:10C6B0000C341BDC04F11404C4F1200500FA05F36A
:10C6C00020FA04F001FA05F240EA020001F000420B
:10C6D00021F0004110EBD37021FA04F642EB060181
:10C6E0005EEA430E08BF20EAD37070BDC4F10C04AB
:10C6F000C4F1200500FA04F320FA05F001FA04F26F
:10C7000040EA020001F0004110EBD37041F100015A
:10C710005EEA430E08BF20EAD37070BDC4F1200565
:10C7200000FA05F24EEA020E20FA04F301FA05F2CD
:10C7300043EA020321FA04F001F0004121FA04F275
:10C7400020EA020000EBD3705EEA430E08BF20EA45
:10C75000D37070BD94F0000F0FD101F0004640007F
:10C7600041EB010111F4801F08BF013CF7D041EA01
:10C77000060195F0000F18BF704703F00046520005
:10C7800043EB030313F4801F08BF013DF7D043EAD6
:10C790000603704794EA0C0F0CEA135518BF95EA8C
:10C7A0000C0F0CD050EA410618BF52EA4306D1D113
:10C7B00081EA030101F000414FF0000070BD50EA32
:10C7C000410606BF1046194652EA430619D094EABC
:10C7D0000C0F02D150EA013613D195EA0C0F05D1A6
:10C7E00052EA03361CBF104619460AD181EA0301FA
:10C7F00001F0004141F0FE4141F470014FF00000B2
:10C8000070BD41F0FE4141F4780170BD70B54FF04C
:10C81000FF0C4CF4E06C1CEA11541DBF1CEA1355CC
:10C8200094EA0C0F95EA0C0F00F0A7F8A4EB0504AE
:10C8300081EA030E52EA03354FEA013100F08880A5
:10C840004FEA03334FF0805545EA131343EA12636E
:10C850004FEA022245EA111545EA10654FEA002623
:10C860000EF000419D4208BF964244F1FD0404F5DC
:10C87000407402D25B084FEA3202B61A65EB030538
:10C880005B084FEA32024FF480104FF4002CB6EBF5
:10C89000020E75EB030E22BFB61A754640EA0C0075
:10C8A0005B084FEA3202B6EB020E75EB030E22BFB5
:10C8B000B61A754640EA5C005B084FEA3202B6EBF6
:10C8C000020E75EB030E22BFB61A754640EA9C00B5
:10C8D0005B084FEA3202B6EB020E75EB030E22BF85
:10C8E000B61A754640EADC0055EA060E18D04FEA43
:10C8F000051545EA16754FEA06164FEAC30343EAE3
:10C9000052734FEAC2025FEA1C1CC0D111F4801FAF
:10C910000BD141EA00014FF000004FF0004CB6E7A8
:10C9200011F4801F04BF01430020B4F1FD0C88BF47
:10C93000BCF5E06F3FF6AFAEB5EB030C04BFB6EB52
:10C94000020C5FEA500C50F1000041EB045170BD45
:10C950000EF0004E4EEA113114EB5C04C2BFD4EB72
:10C960000C0541EA045170BD41F480114FF0000EF6
:10C97000013C90E645EA060E8DE60CEA135594EA72
:10C980000C0F08BF95EA0C0F3FF43BAF94EA0C0F75
:10C990000AD150EA01347FF434AF95EA0C0F7FF4EA
:10C9A00025AF104619462CE795EA0C0F06D152EA3E
:10C9B00003353FF4FDAE1046194622E750EA410622
:10C9C00018BF52EA43067FF4C5AE50EA41047FF433
:10C9D0000DAF52EA43057FF4EBAE12E74A0011D2E5
:10C9E00012F5001211D20DD56FF47873B3EB6252C9
:10C9F0000ED44FEAC12343F0004343EA505323FAD5
:10CA000002F070474FF00000704750EA013002D149
:10CA10004FF0FF3070474FF0000070474FEA41027F
:10CA2000B2F1E04324BFB3F5001CDCF1FE5C0DD98C
:10CA300001F0004C4FEAC0024CEA5070B2F1004FD6
:10CA400040EB830008BF20F00100704711F0804FD9
:10CA500021D113F13872BCBF01F00040704741F49E
:10CA600080114FEA5252C2F11802C2F1200C10FAA2
:10CA70000CF320FA02F018BF40F001004FEAC12386
:10CA80004FEAD32303FA0CFC40EA0C0023FA02F32A
:10CA90004FEA4303CCE77FEA625307D150EA013300
:10CAA0001EBF4FF0FE4040F44000704701F00040D0
:10CAB00040F0FE4040F40000704700BF53B94AB94F
:10CAC000002908BF00281CBF4FF0FF314FF0FF3096
:10CAD00000F00CB8ADF1080C6DE904CE10F08EFD3D
:10CAE000DDF804E0DDE9022304B07047704700BFC1
:10CAF0000348044B834202D0034B03B118477047ED
:10CB0000B40C0020B40C0020000000000548064BC7
:10CB10001B1AD90F01EBA301491002D0034B03B13B
:10CB200018477047B40C0020B40C0020000000002F
:10CB300010B5064C237843B9FFF7DAFF044B13B165
:10CB40000448AFF300800123237010BDB80C00200F
:10CB500000000000B8D8010808B5054B1BB1054915
:10CB60000548AFF30080BDE80840FFF7CFBF00BF26
:10CB700000000000BC0C0020B8D8010880B500AF50
:10CB8000164BD3F88830154A43F47003C2F8883046
:10CB9000134B1B68124A43F001031360104B002231
:10CBA0009A600F4B1B680E4A23F0847323F4803382
:10CBB00013600B4B0B4A5A60094B1B68084A23F45D
:10CBC00080231360064B0022DA6000F00DF8034B5F
:10CBD0004FF000629A6000BF80BD00BF00ED00E032
:10CBE000003802401030002480B483B000AF00232E
:10CBF0007B6000233B60364B1B68354A43F480332F
:10CC00001360334B1B6803F400333B607B680133D4
:10CC10007B603B68002B03D17B68B3F5A04FF0D15C
:10CC20002B4B1B6803F40033002B02D001233B6025
:10CC300001E000233B603B68012B42D1244B1B6C7D
:10CC4000234A43F080531364224B1B68214A43F468
:10CC5000404313601E4B1E4A9B6893601C4B9B68AD
:10CC60001B4A43F400439360194B9B68184A43F4F2
:10CC7000A0539360164B184A5A60154B1B68144A10
:10CC800043F08073136000BF114B1B6803F0007307
:10CC9000002BF9D0114B40F205721A600C4B9B68C7
:10CCA0000B4A23F003039360094B9B68084A43F047
:10CCB0000203936000BF064B9B6803F00C03082B34
:10CCC000F9D100BF0C37BD465DF8047B704700BF4B
:10CCD000003802400070004008544007003C024009
:10CCE00080B483B000AF7860064A7B6843F0BF63CE
:10CCF00043F40033D36000BF0C37BD465DF8047BBE
:10CD0000704700BF00ED00E080B485B000AF7860F0
:10CD10000023FB730023BB730F237B737B68DB78DB
:10CD2000002B39D0274BDB68DB431B0ADBB203F057
:10CD30000703FB73FB7BC3F10403BB737A7BFB7BB1
:10CD400042FA03F37B737B685B781A46BB7B02FA7B
:10CD500003F3FB737B689A787B7B1340DAB2FB7B2F
:10CD60001343FB73FB7B1B01FB73174A7B681B7828
:10CD70001344FA7B83F800237B681B7803F01F03BE
:10CD800011497A6812785209D2B21046012202FA89
:10CD900003F341F820300FE07B681B7803F01F039A
:10CDA00009497A6812785209D2B2104601229A4093
:10CDB00000F1200341F8232000BF1437BD465DF881
:10CDC000047B704700ED00E000E100E080B483B038
:10CDD00000AF786039603B6823F0604323F07F0345
:10CDE00004497A6813438B6000BF0C37BD465DF879
:10CDF000047B704700ED00E080B483B000AF786042
:10CE00007B68042B06D1094B1B68084A43F00403D6
:10CE1000136005E0054B1B68044A23F0040313600C
:10CE200000BF0C37BD465DF8047B704710E000E0A2
:10CE300080B485B000AF786039600023FB600023C8
:10CE4000FB727B685B68FB60FB6823F0407323F434
:10CE50008073FB603B681B791A023B681B681343B5
:10CE6000FA681343FB607B68FA685A607B689B68CA
:10CE7000FB60FA68184B1340FB603B681A693B681B
:10CE8000DB681A433B689B681A433B685B795B002D
:10CE90001343FA681343FB607B68FA689A607B6807
:10CEA000DB6AFB60FB6823F47003FB603B681B7D5F
:10CEB000013BDAB2FB7A1343FB72FB7A1B05FA687B
:10CEC0001343FB607B68FA68DA6200BF1437BD4623
:10CED0005DF8047B704700BFFDF7FFC080B483B0EE
:10CEE00000AF78607B6800221A607B6800221A71AC
:10CEF0007B6800225A717B6800229A607B6800225E
:10CF0000DA607B6800221A617B6801221A7500BF13
:10CF10000C37BD465DF8047B7047000080B485B0D7
:10CF200000AF78600023FB600E4B5B68FB60FA6823
:10CF30000D4B1340FB607B681A687B685B681A4383
:10CF40007B689B681A437B68DB681343FA6813436A
:10CF5000FB60044AFB68536000BF1437BD465DF8B0
:10CF6000047B704700230140E030FCFF80B483B0B5
:10CF700000AF78600B46FB70FB78002B06D07B6817
:10CF80009B6843F001027B689A6005E07B689B68C0
:10CF900023F001027B689A6000BF0C37BD465DF844
:10CFA000047B704780B485B000AF786008461146B6
:10CFB0001A460346FB700B46BB7013467B7000237A
:10CFC000FB600023BB60FB78092B23D97B68DB68FF
:10CFD000FB60FB78A3F10A0213465B0013440722AF
:10CFE00002FA03F3BB60BB68DB43FA681340FB60E3
:10CFF0007978FB78A3F10A0213465B00134401FA27
:10D0000003F3BB60FA68BB681343FB607B68FA6894
:10D01000DA601EE07B681B69FB60FA7813465B00F0
:10D020001344072202FA03F3BB60BB68DB43FA68D0
:10D030001340FB607978FA7813465B00134401FAD9
:10D0400003F3BB60FA68BB681343FB607B68FA6854
:10D050001A61BB78062B21D87B685B6BFB60BB78C1
:10D060005A1E13469B0013441F2202FA03F3BB60AF
:10D07000BB68DB43FA681340FB60F978BB785A1E43
:10D0800013469B00134401FA03F3BB60FA68BB68C4
:10D090001343FB607B68FA685A6347E0BB780C2B4C
:10D0A00021D87B681B6BFB60BB78DA1F13469B00A3
:10D0B00013441F2202FA03F3BB60BB68DB43FA6828
:10D0C0001340FB60F978BB78DA1F13469B001344CA
:10D0D00001FA03F3BB60FA68BB681343FB607B682B
:10D0E000FA681A6322E07B68DB6AFB60BB78A3F115
:10D0F0000D0213469B0013441F2202FA03F3BB6088
:10D10000BB68DB43FA681340FB60F978BB78A3F196
:10D110000D0213469B00134401FA03F3BB60FA6847
:10D12000BB681343FB607B68FA68DA6200BF1437A0
:10D13000BD465DF8047B704780B483B000AF786073
:10D140007B689B6843F080427B689A6000BF0C3725
:10D15000BD465DF8047B704780B483B000AF786053
:10D160000B46FB70FB78002B06D07B689B6843F472
:10D1700080727B689A6005E07B689B6823F480720C
:10D180007B689A6000BF0C37BD465DF8047B704732
:10D1900080B483B000AF78600B46FB70FB78002B47
:10D1A00006D07B689B6843F400727B689A6005E058
:10D1B0007B689B6823F400727B689A6000BF0C3721
:10D1C000BD465DF8047B704780B483B000AF7860E3
:10D1D0007B681B6823F001027B681A607B68002271
:10D1E0001A607B6800225A607B6800229A607B6824
:10D1F0000022DA607B6800221A617B6821225A6172
:10D200007B68464A934203D1454B3D229A607EE0BB
:10D210007B68444A934204D1414B4FF474629A6054
:10D2200075E07B68404A934204D13D4B4FF4741241
:10D230009A606CE07B683D4A934204D1384B4FF0D2
:10D2400074629A6063E07B68394A934203D1344B3D
:10D25000384ADA605BE07B68374A934203D1304B4F
:10D26000364ADA6053E07B68354A934203D12C4B4F
:10D27000344ADA604BE07B68334A934204D1284B4E
:10D280004FF03D52DA6042E07B68304A934203D16E
:10D290002F4B3D229A603AE07B682E4A934204D19C
:10D2A0002B4B4FF474629A6031E07B682A4A9342B8
:10D2B00004D1274B4FF474129A6028E07B68274A08
:10D2C000934204D1224B4FF074629A601FE07B6856
:10D2D000234A934203D11E4B164ADA6017E07B685B
:10D2E000204A934203D11A4B144ADA600FE07B685C
:10D2F0001D4A934203D1164B124ADA6007E07B685D
:10D300001A4A934203D1124B4FF03D52DA6000BFEC
:10D310000C37BD465DF8047B704700BF10600240CB
:10D3200000600240286002404060024058600240B5
:10D33000706002403D00002088600240400F0020E5
:10D34000A060024000003D20B8600240106402402E
:10D350000064024028640240406402405864024075
:10D360007064024088640240A0640240B8640240D5
:10D3700080B485B000AF786039600023FB607B68C3
:10D380001B68FB60FA68254B1340FB603B681A681A
:10D390003B68DB681A433B685B691A433B689B69DF
:10D3A0001A433B68DB691A433B681B6A1A433B68B4
:10D3B0005B6A1A433B689B6A1A433B685B6B1A4380
:10D3C0003B689B6B1343FA681343FB607B68FA6806
:10D3D0001A607B685B69FB60FB6823F00703FB60F6
:10D3E0003B68DA6A3B681B6B1343FA681343FB60C4
:10D3F0007B68FA685A613B681A697B685A603B68C7
:10D400005A687B689A603B689A687B68DA6000BFFC
:10D410001437BD465DF8047B704700BF3F801CF0A9
:10D4200080B483B000AF78600B46FB70FB78002BB4
:10D4300006D07B681B6843F001027B681A6005E038
:10D440007B681B6823F001027B681A6000BF0C3701
:10D45000BD465DF8047B704780B483B000AF786050
:10D4600039603B68002B06D07B681B6843F02002C4
:10D470007B681A6005E07B681B6823F020027B68EC
:10D480001A6000BF0C37BD465DF8047B704780B45E
:10D4900083B000AF78600B467B807A887B685A60E7
:10D4A00000BF0C37BD465DF8047B704780B485B083
:10D4B00000AF78600023FB737B681B6803F00103F7
:10D4C000002B02D00123FB7301E00023FB73FB7BE5
:10D4D00018461437BD465DF8047B704780B487B0AA
:10D4E00000AF786039600023FB750023FB607B6828
:10D4F000154A934202D8154B3B6101E0144B3B6146
:10D500003B6803F00053002B03D03B695B68FB6072
:10D5100002E03B691B68FB60FB6823F0F02323F00B
:10D520008213FB60FA683B681340002B02D0012392
:10D53000FB7501E00023FB75FB7D18461C37BD46DB
:10D540005DF8047B704700BF0F640240006002403A
:10D550000064024080B485B000AF786039607B68B9
:10D56000104A934202D8104BFB6001E00F4BFB6066
:10D570003B6803F00053002B07D03B6823F0F023F7
:10D5800023F08213FA68D36006E03B6823F0F023AF
:10D5900023F08213FA68936000BF1437BD465DF82C
:10D5A000047B70470F640240006002400064024048
:10D5B00080B485B000AFF860B9601346FB71BB68FA
:10D5C00003F08003002B0FD0FB79002B06D0FB6803
:10D5D0005B6943F08002FB685A6105E0FB685B69A8
:10D5E00023F08002FB685A61BB68802B14D0FB7962
:10D5F000002B08D0FB681A68BB6803F01E031A43AF
:10D60000FB681A6008E0FB681A68BB6803F01E0339
:10D61000DB431A40FB681A6000BF1437BD465DF853
:10D62000047B704780B485B000AF78600023FB6056
:10D63000344BFB607B689B79002B4FD0314B1A68D1
:10D640007B681B68DB432F4913400B602D4B5A68E6
:10D650007B681B68DB432B4913404B607B681B795D
:10D660001A46FB681344FB60FB6819687B681A68FC
:10D67000FB680A431A60234B9A687B681B68DB438C
:10D68000204913408B601F4BDA687B681B68DB43C3
:10D690001C491340CB607B685B79102B0ED1194B72
:10D6A0009A687B681B68174913438B60154BDA68CF
:10D6B0007B681B6813491343CB601DE0114BFB6073
:10D6C0007B685B791A46FB681344FB60FB6819684A
:10D6D0007B681A68FB680A431A600DE07B681B7957
:10D6E0001A46FB681344FB60FB6819687B681B687B
:10D6F000DA43FB680A401A6000BF1437BD465DF884
:10D70000047B7047003C014080B485B000AF786076
:10D710000023FB73084B5A697B681340002B02D02F
:10D720000123FB7301E00023FB73FB7B18461437D6
:10D73000BD465DF8047B7047003C014080B483B077
:10D7400000AF7860044A7B68536100BF0C37BD4668
:10D750005DF8047B704700BF003C014080B483B09B
:10D7600000AF7860044B7A68D2B21A7000BF0C37F1
:10D77000BD465DF8047B7047003C024080B483B036
:10D7800000AF0346FB71FB79002B06D0094B1B68E9
:10D79000084A43F48073136005E0064B1B68054A92
:10D7A00023F48073136000BF0C37BD465DF8047B23
:10D7B000704700BF003C024080B400AF074B1B69BC
:10D7C000002B05DA054B064A5A60044B054A5A609D
:10D7D00000BFBD465DF8047B704700BF003C0240BF
:10D7E00023016745AB89EFCD80B400AF054B1B69C2
:10D7F000044A43F00043136100BFBD465DF8047B5B
:10D80000704700BF003C024080B584B000AF786034
:10D810000B46FB700023FB600923FB72FB78002B97
:10D8200002D10023FB6010E0FB78012B03D14FF401
:10D830008073FB6009E0FB78022B03D14FF4007387
:10D84000FB6002E04FF44073FB6000F0BFF803465A
:10D85000FB72FB7A092B2FD11A4B1B69194A23F44F
:10D8600040731361174B1A691649FB6813430B6128
:10D87000144B1B69134A23F0F8031361114B1A6907
:10D880007B6813430F4A43F0020313610D4B1B697E
:10D890000C4A43F48033136100F098F80346FB729E
:10D8A000084B1B69074A23F002031361054B1B69F0
:10D8B000044A23F0F8031361FB7A18461037BD467B
:10D8C00080BD00BF003C024080B584B000AF7860EE
:10D8D00039600923FB7300F079F80346FB73FB7B87
:10D8E000092B1ED1114B1B69104A23F4407313619D
:10D8F0000E4B1B690D4A43F4007313610B4B1B69FC
:10D900000A4A43F0010313617B683A681A6000F029
:10D910005DF80346FB73054B1B69044A23F00103C2
:10D920001361FB7B18461037BD4680BD003C0240AA
:10D9300080B483B000AF7860044A7B68D36000BFD6
:10D940000C37BD465DF8047B704700BF003C0240C9
:10D9500080B483B000AF0923FB711B4BDB6803F479
:10D960008033B3F5803F02D10123FB7125E0164BD4
:10D97000DB6803F01003002B02D00623FB711CE0D0
:10D98000114BDB6803F48073002B02D00223FB7180
:10D9900013E00D4BDB6803F0EF03002B02D00723ED
:10D9A000FB710AE0084BDB6803F00203002B02D096
:10D9B0000823FB7101E00923FB71FB7918460C3742
:10D9C000BD465DF8047B7047003C024080B582B0E4
:10D9D00000AF0923FB71FFF7BBFF0346FB7103E0B8
:10D9E000FFF7B6FF0346FB71FB79DBB2012BF7D0E3
:10D9F000FB79DBB218460837BD4680BD80B487B0DE
:10DA000000AF7860396000237B6100233B61002315
:10DA1000FB6000237B6176E001227B6902FA03F35D
:10DA20003B613B681B683A691340FB60FA683B69DD
:10DA30009A4265D17B681A687B695B00032101FA11
:10DA400003F3DB431A407B681A607B681A683B6803
:10DA50001B7919467B695B0001FA03F31A437B6863
:10DA60001A603B681B79012B03D03B681B79022BA2
:10DA70002ED17B689A687B695B00032101FA03F36E
:10DA8000DB431A407B689A607B689A683B685B79E5
:10DA900019467B695B0001FA03F31A437B689A60BD
:10DAA0007B685A687B699BB2194601238B40DB4334
:10DAB0001A407B685A607B685B683A6892791146C5
:10DAC0007A6992B201FA02F292B21A437B685A6002
:10DAD0007B68DA687B699BB25B00032101FA03F380
:10DAE000DB431A407B68DA607B68DA683B68DB7985
:10DAF00019467B695B0001FA03F31A437B68DA601D
:10DB00007B6901337B617B690F2B85D900BF00BF27
:10DB10001C37BD465DF8047B704780B485B000AF0C
:10DB200078600B467B800023FB737B681A697B88D7
:10DB30001340002B02D00123FB7301E00023FB7391
:10DB4000FB7B18461437BD465DF8047B704780B4F4
:10DB500083B000AF78600B467B807B687A881A833D
:10DB600000BF0C37BD465DF8047B704780B483B0BE
:10DB700000AF78600B467B807B687A885A8300BF51
:10DB80000C37BD465DF8047B704780B483B000AFAE
:10DB900078600B467B8013467B707B78002B03D02C
:10DBA0007B687A881A8302E07B687A885A8300BF90
:10DBB0000C37BD465DF8047B704780B485B000AF7C
:10DBC00078600B467B8013467B700023FB6000234C
:10DBD000BB607A787B8803F007039B0002FA03F3AB
:10DBE000FB607B88DB089BB21A467B68083253F8DF
:10DBF00022207B8803F007039B000F2101FA03F327
:10DC0000DB437988C90889B2084602EA03017B68C8
:10DC100000F1080243F822107B88DB089BB21A4609
:10DC20007B68083253F82230FA681343BB607B8864
:10DC3000DB089BB21A467B680832B96843F82210A9
:10DC400000BF1437BD465DF8047B704780B489B0CF
:10DC500000AF78600023BB6100237B610023FB6180
:10DC600002233B610023FB600223BB604A4B9B689D
:10DC700003F00C03BB61BB69082B11D0BB69082BF7
:10DC800044D8BB69002B03D0BB69042B04D03DE012
:10DC90007B68424A1A603DE07B68414A1A6039E07D
:10DCA0003D4B5B689B0D03F00103FB603A4B5B68E7
:10DCB00003F03F03BB60FB68002B0CD0384ABB6805
:10DCC000B2FBF3F3344A52689209C2F3080202FB32
:10DCD00003F3FB610BE0314ABB68B2FBF3F32E4A5E
:10DCE00052689209C2F3080202FB03F3FB612A4B5C
:10DCF0005B681B0C03F0030301335B003B61FA69B3
:10DD00003B69B2FBF3F27B681A6003E07B68234A4D
:10DD10001A6000BF204B9B6803F0F003BB61BB6936
:10DD20001B09BB611F4ABB6913441B78DBB27B61D3
:10DD30007B681A687B69DA407B685A60164B9B687F
:10DD400003F4E053BB61BB699B0ABB61154ABB6925
:10DD500013441B78DBB27B617B685A687B69DA40CD
:10DD60007B689A600C4B9B6803F46043BB61BB69A2
:10DD70005B0BBB610B4ABB6913441B78DBB27B6155
:10DD80007B685A687B69DA407B68DA6000BF2437B9
:10DD9000BD465DF8047B7047003802400024F40063
:10DDA00000127A000400002080B483B000AF7860D5
:10DDB0000B46FB70FB78002B06D00A4B1A6B094907
:10DDC0007B6813430B6306E0064B1A6B7B68DB43EF
:10DDD000044913400B6300BF0C37BD465DF8047B5C
:10DDE000704700BF0038024080B483B000AF786055
:10DDF0000B46FB70FB78002B06D00A4B1A6C0949C6
:10DE00007B6813430B6406E0064B1A6C7B68DB43AC
:10DE1000044913400B6400BF0C37BD465DF8047B1A
:10DE2000704700BF0038024080B483B000AF786014
:10DE30000B46FB70FB78002B06D00A4B5A6C094945
:10DE40007B6813434B6406E0064B5A6C7B68DB43EC
:10DE5000044913404B6400BF0C37BD465DF8047B9A
:10DE6000704700BF0038024080B483B000AF7860D4
:10DE70000B46FB70FB78002B06D00A4B5A6A094907
:10DE80007B6813434B6206E0064B5A6A7B68DB43B0
:10DE9000044913404B6200BF0C37BD465DF8047B5C
:10DEA000704700BF0038024080B500AF01214FF439
:10DEB0000060FFF7D9FF00214FF40060FFF7D4FFA7
:10DEC00000BF80BD80B485B000AF78600023FB60E8
:10DED000134B5B68FB60FB6823F4FD4323F07F0377
:10DEE000FB607B681B7D1A467B689B681A437B68D6
:10DEF0005B681A437B68DB681A437B681B681A43BC
:10DF00007B681B691343FA681343FB60044AFB6890
:10DF1000536000BF1437BD465DF8047B704700BFF7
:10DF2000002C014080B483B000AF0346FB71044A6B
:10DF3000FB79136000BF0C37BD465DF8047B70476A
:10DF4000A080254280B483B000AF7860044A7B682B
:10DF5000136000BF0C37BD465DF8047B704700BFFF
:10DF6000002C014080B400AF044B1B6803F0030396
:10DF70001846BD465DF8047B704700BF002C014089
:10DF800080B485B000AF78600023FB60114A7B68E5
:10DF90001B6893600F4BDB68FB60FB6823F4FF6337
:10DFA00023F00703FB607B685A687B689B681A4311
:10DFB0007B68DB681A437B681B691343FA68134369
:10DFC000FB60044AFB68D36000BF1437BD465DF8B0
:10DFD000047B7047002C014080B400AF034B1B69E9
:10DFE000DBB21846BD465DF8047B7047002C01404B
:10DFF00080B485B000AF78600023FB607A68054B81
:10E000001344FB60FB681B6818461437BD465DF877
:10E01000047B7047142C014080B485B000AF786059
:10E020000023FB60124A7B681B685362104A7B68BE
:10E030005B6893620E4BDB6AFB60FB6823F0F703BF
:10E04000FB607B689A687B68DB681A437B681B69A6
:10E050001A437B685B691343FA681343FB60044A05
:10E06000FB68D36200BF1437BD465DF8047B704780
:10E07000002C014080B400AF034BD3F88030184629
:10E08000BD465DF8047B7047002C014080B483B02E
:10E0900000AF0346FB71044AFB79136000BF0C37E5
:10E0A000BD465DF8047B70478C85254280B483B003
:10E0B00000AF78600B46FB70FB78002B06D00A4B54
:10E0C000DA6B09497B681343CB6306E0064BDA6BD6
:10E0D0007B68DB4304491340CB6300BF0C37BD466C
:10E0E0005DF8047B704700BF002C014080B485B010
:10E0F00000AF78600023FB73084B5A6B7B681340BA
:10E10000002B02D00123FB7301E00023FB73FB7B98
:10E1100018461437BD465DF8047B7047002C01405B
:10E1200080B483B000AF7860044A7B68936300BF1B
:10E130000C37BD465DF8047B704700BF002C0140E2
:10E1400080B485B000AF78600023FB73084B5A6B36
:10E150007B681340002B02D00123FB7301E00023F6
:10E16000FB73FB7B18461437BD465DF8047B704794
:10E17000002C014080B483B000AF7860044A7B6813
:10E18000936300BF0C37BD465DF8047B704700BF4A
:10E19000002C014080B485B000AF78603960002366
:10E1A000FB817B681B88FB81FB8903F44153FB8166
:10E1B0003B681A883B685B8813439AB23B689B882C
:10E1C00013439AB23B68DB8813439AB23B681B89BE
:10E1D00013439AB23B685B8913439AB23B689B89AD
:10E1E00013439AB23B68DB8913439AB2FB8913430A
:10E1F000FB817B68FA891A807B689B8B9BB223F436
:10E2000000639AB27B689A833B681A8A7B681A8299
:10E2100000BF1437BD465DF8047B704780B483B0FF
:10E2200000AF78600B46FB70FB78002B08D07B6852
:10E230001B889BB243F040039AB27B681A8007E0C8
:10E240007B681B889BB223F040039AB27B681A80DC
:10E2500000BF0C37BD465DF8047B704780B483B0C7
:10E2600000AF78600B467B807B687A889A8100BF1C
:10E270000C37BD465DF8047B704780B485B000AFB5
:10E2800078600B467B800023FB737B681B899AB206
:10E290007B8813409BB2002B02D00123FB7301E06B
:10E2A0000023FB73FB7B18461437BD465DF8047BE7
:10E2B0007047000080B485B000AF03460A46FB718A
:10E2C0001346BB710023FB60BB7903F003039B0083
:10E2D0000F2202FA03F3FB60164ABB799B08DBB2FC
:10E2E000023352F82320FB68DB431248B9798908CE
:10E2F000C9B21A408B1C40F823200E4ABB799B08F8
:10E30000DBB2023352F82320F979BB7903F003031F
:10E310009B0001FA03F30748B9798908C9B21A4387
:10E320008B1C40F8232000BF1437BD465DF8047BEA
:10E33000704700BF0038014080B485B000AF7860FE
:10E3400039600023FB817B681B88FB817B68294A3D
:10E35000934213D07B68284A93420FD07B68B3F175
:10E36000804F0BD07B68254A934207D07B68244AB4
:10E37000934203D07B68234A934208D1FB8923F060
:10E380007003FB813B685A88FB891343FB817B68E0
:10E390001D4A93420CD07B681C4A934208D0FB89EB
:10E3A00023F44073FB813B681A89FB891343FB818B
:10E3B0007B68FA891A803B685A687B68DA623B6836
:10E3C0001A887B681A857B680A4A934203D07B6867
:10E3D000094A934204D13B689B7A1A467B681A86A5
:10E3E0007B6801229A8200BF1437BD465DF8047B2A
:10E3F000704700BF000001400004014000040040DD
:10E4000000080040000C00400010004000140040D4
:10E4100080B483B000AF786039607B683A685A6234
:10E4200000BF0C37BD465DF8047B704780B483B0F5
:10E4300000AF78607B685B6A18460C37BD465DF8B4
:10E44000047B704780B483B000AF78600B46FB70EC
:10E45000FB78002B08D07B681B889BB243F08003BD
:10E460009AB27B681A8007E07B681B889BB223F016
:10E4700080039AB27B681A8000BF0C37BD465DF8F6
:10E48000047B704780B483B000AF78600B46FB70AC
:10E49000FB78002B08D07B681B889BB243F00103FC
:10E4A0009AB27B681A8007E07B681B889BB223F0D6
:10E4B00001039AB27B681A8000BF0C37BD465DF835
:10E4C000047B704780B485B000AF7860396000236A
:10E4D0007B810023FB810023BB817B681B8C9BB26B
:10E4E00023F001039AB27B681A847B681B8CFB8142
:10E4F0007B689B88BB817B681B8B7B817B8923F03E
:10E5000070037B817B8923F003037B813B681A883E
:10E510007B8913437B81FB8923F00203FB813B68EA
:10E520009A89FB891343FB813B685A88FB89134313
:10E53000FB817B681E4A934203D07B681D4A93424D
:10E5400023D1FB8923F00803FB813B68DA89FB892F
:10E550001343FB81FB8923F00403FB813B689A880A
:10E56000FB891343FB81BB8923F48073BB81BB8987
:10E5700023F40073BB813B681A8ABB891343BB81B8
:10E580003B685A8ABB891343BB817B68BA899A80EE
:10E590007B687A891A833B689A687B685A637B68D0
:10E5A000FA891A8400BF1437BD465DF8047B7047B2
:10E5B000000001400004014080B485B000AF7860E5
:10E5C000396000237B810023FB810023BB817B68B2
:10E5D0001B8C9BB223F010039AB27B681A847B6871
:10E5E0001B8CFB817B689B88BB817B681B8B7B8141
:10E5F0007B8923F4E0437B817B8923F440737B8117
:10E600003B681B881B029AB27B8913437B81FB8981
:10E6100023F02003FB813B689B891B019AB2FB8995
:10E620001343FB813B685B881B019AB2FB89134350
:10E63000FB817B68224A934203D07B68214A934244
:10E640002BD1FB8923F08003FB813B68DB891B0115
:10E650009AB2FB891343FB81FB8923F04003FB81C2
:10E660003B689B881B019AB2FB891343FB81BB89E2
:10E6700023F48063BB81BB8923F40063BB813B68C7
:10E680001B8A9B009AB2BB891343BB813B685B8AA0
:10E690009B009AB2BB891343BB817B68BA899A807D
:10E6A0007B687A891A833B689A687B689A637B687F
:10E6B000FA891A8400BF1437BD465DF8047B7047A1
:10E6C000000001400004014080B483B000AF7860D6
:10E6D00039607B683A685A6300BF0C37BD465DF805
:10E6E000047B704780B483B000AF786039607B688A
:10E6F0003A689A6300BF0C37BD465DF8047B7047EB
:10E7000080B485B000AF78600B467B800023FB812E
:10E710007B681B8BFB81FB8923F00803FB81FA8953
:10E720007B881343FB817B68FA891A8300BF143707
:10E73000BD465DF8047B704780B485B000AF78605B
:10E740000B467B800023FB817B681B8BFB81FB8955
:10E7500023F40063FB817B881B029AB2FB8913437D
:10E76000FB817B68FA891A8300BF1437BD465DF8C8
:10E77000047B704780B483B000AF78600B467B8029
:10E7800013467B707B78002B08D07B689B899AB2FC
:10E790007B8813439AB27B689A8109E07B689B89E6
:10E7A0009AB27B88DB439BB213409AB27B689A8112
:10E7B00000BF0C37BD465DF8047B704780B483B062
:10E7C00000AF78600B467B807B88DB439AB27B6826
:10E7D0001A8200BF0C37BD465DF8047B704780B4D9
:10E7E00085B000AF78600B467B800023FB7300236D
:10E7F000BB8100237B817B681B8A9AB27B88134094
:10E80000BB817B689B899AB27B8813407B81BB89E3
:10E81000002B05D07B89002B02D00123FB7301E084
:10E820000023FB73FB7B18461437BD465DF8047B61
:10E83000704780B483B000AF78600B467B807B88E4
:10E84000DB439AB27B681A8200BF0C37BD465DF885
:10E85000047B704780B58AB000AF786039600023D0
:10E860007B6200233B620023FB610023BB617B686A
:10E870001B8A9BB27B627B6A23F440537B623B68BA
:10E88000DB881A467B6A13437B627B6A9AB27B6899
:10E890001A827B689B899BB27B627B6A23F4B053AC
:10E8A00023F00C037B623B689A883B681B89134307
:10E8B0009AB23B685B8913439BB21A467B6A134347
:10E8C0007B627B6A9AB27B689A817B689B8A9BB2E7
:10E8D0007B627B6A23F440737B623B689B891A46A8
:10E8E0007B6A13437B627B6A9AB27B689A8207F1E8
:10E8F00008031846FFF7AAF97B68304A934203D011
:10E900007B682F4A934202D17B693B6201E03B69FD
:10E910003B627B689B899BB21BB2002B0CDA3A6A84
:10E9200013469B0013449A001A443B681B685B0023
:10E93000B2FBF3F3FB610BE03A6A13469B0013440E
:10E940009A001A443B681B689B00B2FBF3F3FB611F
:10E95000FB691C4AA2FB03235B091B017B627B6AE8
:10E960001B09642202FB03F3FA69D31ABB617B68BB
:10E970009B899BB21BB2002B0CDABB69DB003233E4
:10E98000104AA2FB03235B0903F007037A6A1343CF
:10E990007B620BE0BB691B0132330A4AA2FB0323F3
:10E9A0005B0903F00F037A6A13437B627B6A9AB2B6
:10E9B0007B681A8100BF2837BD4680BD001001402A
:10E9C000001401401F85EB5180B483B000AF786024
:10E9D0000B46FB70FB78002B08D07B689B899BB2B1
:10E9E00043F400539AB27B689A8107E07B689B8965
:10E9F0009BB223F400539AB27B689A8100BF0C3714
:10EA0000BD465DF8047B704780B483B000AF78608A
:10EA10007B689B889BB2C3F308039BB218460C37F4
:10EA2000BD465DF8047B704780B483B000AF78606A
:10EA30000B467B8013467B707B78002B08D07B686D
:10EA40009B8A9AB27B8813439AB27B689A8209E0C8
:10EA50007B689B8A9AB27B88DB439BB213409AB255
:10EA60007B689A8200BF0C37BD465DF8047B704717
:10EA700080B487B000AF78600B467B8013467B7014
:10EA800000233B610023FB600023BB6000237B610C
:10EA90007B687B617B88DBB25B09DBB23B617B8897
:10EAA00003F01F03FB600122FB6802FA03F3BB6063
:10EAB0003B69012B03D17B690C337B6109E03B6926
:10EAC000022B03D17B6910337B6102E07B69143335
:10EAD0007B617B78002B06D07B6919687B69BA68FB
:10EAE0000A431A6006E07B691968BB68DA437B69F0
:10EAF0000A401A6000BF1C37BD465DF8047B7047B2
:10EB000080B487B000AF78600B467B800023FB6049
:10EB100000237B610023BB600023FB747B88DBB296
:10EB20005B09DBB2BB607B8803F01F037B610122C2
:10EB30007B6902FA03F37B61BB68012B07D17B6819
:10EB40009B899BB21A467B6913407B6111E0BB68CD
:10EB5000022B07D17B681B8A9BB21A467B69134044
:10EB60007B6106E07B689B8A9BB21A467B691340F7
:10EB70007B617B881B0A9BB2FB600122FB6802FA67
:10EB800003F3FB607B681B889BB21A46FB6813404B
:10EB9000FB607B69002B05D0FB68002B02D00123B2
:10EBA000FB7401E00023FB74FB7C18461C37BD4658
:10EBB0005DF8047B704780B588B000AFF860B9603D
:10EBC0007A60FB70FB68FB61BB68BB610120FEF7EC
:10EBD000D5FD0520FEF7C2FDFEF7EEFD3120FEF764
:10EBE000A7FEFB78002B03D002210820FEF70CFEC5
:10EBF00000237B610EE0FB691A1DFA611B683B6113
:10EC00003969B869FEF760FEBB690433BB617B6993
:10EC100001337B617B6803339B087A699A42EAD3AC
:10EC2000FEF7E2FD002318462037BD4680BD80B4C4
:10EC300089B000AFF860B9607A60FB68FB61BB68BF
:10EC4000BB6100237B610DE0BB691B683B61BB6955
:10EC50000433BB61FB691A1DFA613A691A607B696A
:10EC600001337B617B689B087A699A42ECD300236D
:10EC700018462437BD465DF8047B704780B582B0E6
:10EC800000AF054B7B60242204497868FFF7CFFF73
:10EC900000BF0837BD4680BDD40C002000400008EE
:10ECA00080B582B000AF084B7B6072B600BF012315
:10ECB000242206497868FFF77EFF62B600BF00BFD6
:10ECC0000837BD4680BD00BFD40C002000400008BE
:10ECD00080B400AF00BFBD465DF8047B7047000004
:10ECE00080B400AF024B1846BD465DF8047B704708
:10ECF0001400002080B582B000AF01212020FFF772
:10ED000053F84FF400733B6001233B7102237B7186
:10ED10003B4619460648FEF771FE4FF40071044861
:10ED2000FEF715FF002318460837BD4680BD00BF1B
:10ED30000014024080B582B000AF78600449002022
:10ED400008F0FAF9002318460837BD4680BD00BF19
:10ED5000D0D8010880B586B000AFF860B9607A609D
:10ED60007B68012B02D94FF0FF330AE0BB681B78A8
:10ED7000FB75FB7D1A464FF400710448FEF705FF52
:10ED8000002318461837BD4680BD00BF001402405E
:10ED900080B582B000AF78607A680221002008F068
:10EDA00027FC00BF0837BD4680BD000080B500AF1E
:10EDB000FFF7A0FF0346002B02D04FF0FF330AE01D
:10EDC000064B1B7D43F00103DAB2044B1A7503486E
:10EDD00008F09EFB0023184680BD00BF38000020CD
:10EDE00080B500AF10210248FEF7B1FE00BF80BD24
:10EDF0000000024080B500AF10210248FEF7B6FEC9
:10EE000000BF80BD0000024080B588B000AF012186
:10EE10000120FEF7C9FF01214FF48050FFF704F8ED
:10EE2000052205212548FEF7C8FE052207212348B3
:10EE3000FEF7C3FE20237B6002237B7202233B721A
:10EE40000023BB720023FB723B1D19461B48FEF7D3
:10EE5000D5FD80237B603B1D19461848FEF7CEFD8B
:10EE600010237B6001233B723B1D19461348FEF7BC
:10EE7000C5FDFFF7B5FF4FF44043BB814FF48273EC
:10EE8000FB814FF400633B8200237B820023BB8223
:10EE90004FF40073FB8228233B8300237B8307F11D
:10EEA0000C0319460648FFF775F901210448FFF7DE
:10EEB000B5F900BF2037BD4680BD00BF000002404D
:10EEC0000030014080B584B000AF03460A46FB71B4
:10EED0001346BB71FB791B021AB2BB791BB21343F9
:10EEE0001BB27B81FFF786FF4FF48053FB6004E089
:10EEF000FB685A1EFA60002B1ED002211148FFF752
:10EF0000BCF90346002BF3D07B8919460D48FFF767
:10EF1000A5F94FF48053FB6004E0FB685A1EFA60C9
:10EF2000002B0BD080210748FFF7A7F90346012BE0
:10EF3000F3D0FFF755FF02E000BF00E000BF10373D
:10EF4000BD4680BD0030014080B582B000AFFFF704
:10EF50005BFF0023FB710FE0FB790B4A12F81320D3
:10EF6000FB7909495B000B445B7819461046FFF7B3
:10EF7000A9FFFB790133FB71FB79072BECD9002347
:10EF800018460837BD4680BD5000002080B586B0C9
:10EF900000AFF860B9607A60BB681B88FB82FA8AB0
:10EFA0001B4BA3FB0213D9080B469B000B445B00D1
:10EFB000D31A9BB27B75FB8A154AA2FB0323DB089D
:10EFC0009AB2134BA3FB0213D9080B469B000B44C8
:10EFD0005B00D31A9BB23B75FB8A0E4AA2FB03234C
:10EFE0005B099BB2FB74FB7C19466020FFF76AFF4C
:10EFF0003B7D19466120FFF765FF7B7D1946622046
:10F00000FFF760FF002318461837BD4680BD00BFDC
:10F01000CDCCCCCC1F85EB5180B500AFFFF794FF72
:10F020000346002B02D04FF0FF330AE0064B1B7D56
:10F0300043F00103DAB2044B1A75034808F068FA8A
:10F040000023184680BD00BF7400002080B582B048
:10F0500000AF0346FB71304B1B78022B2FD0022BE5
:10F060004EDC002B02D0012B13D049E02B4B1B7838
:10F07000002B49D1FB79012B46D1274B01221A7075
:10F08000274B00229A6000214FF08040FFF7C0F923
:10F090003AE0224B1B78012B0DD1FB79002B0AD1D2
:10F0A0001D4B02221A704FF08040FFF7BFF9034654
:10F0B0001B4A536029E0184B00221A7025E0174BB9
:10F0C0001B78002B18D1FB79012B15D1124B012293
:10F0D0001A704FF08040FFF7A9F90246104B9B6869
:10F0E00013440F4A13600E4B00229A6000214FF028
:10F0F0008040FFF78DF908E0074B00221A7004E00A
:10F10000054B00221A7000E000BF044AFB7913701F
:10F1100000BF0837BD4680BD0C0D0020B8000020A0
:10F12000F80C002080B500AF4FF40050FEF7ECFA69
:10F130000346002B11D04FF400510948FEF7EDFCB7
:10F1400003461846FFF782FF064B1B680133054A4A
:10F1500013604FF40050FEF7F1FA00BF80BD00BF0E
:10F1600000040240080D002080B586B000AF0121E8
:10F170000220FEF719FE01214FF48040FEF754FEF5
:10F1800028233B7302237B730023BB730123FB7390
:10F1900007F10C031846FDF7B7FD4FF400533B6130
:10F1A00000233B750223FB7507F1100319460C4839
:10F1B000FEF724FC0D210120FFF77CF84FF40053EB
:10F1C0007B6000233B7210237B720123BB723B1DCB
:10F1D0001846FEF727FA00BF1837BD4680BD00BFAE
:10F1E0000004024080B500AF01214FF08040FFF7DE
:10F1F000F6FA0346002B0BD0064B9B6803F51C5315
:10F200001033044A936001214FF08040FFF711FB57
:10F2100000BF80BDF80C002080B584B000AF1C2377
:10F220003B7301237B730023BB730123FB7307F143
:10F230000C031846FDF768FD01210120FEF7D4FDFF
:10F2400042F20F737B6042F2CF033B8000233B818D
:10F2500000237B803B4619464FF08040FFF76CF857
:10F2600001214FF08040FFF7A9FA012201214FF060
:10F270008040FFF77FFA01214FF08040FFF702F94D
:10F2800000BF1037BD4680BD80B500AFFFF76CFFF3
:10F29000FFF7C2FF0023184680BD000000000000F9
:10F2A00080B586B000AF78607B68FB60FB681B7D33
:10F2B00003F00103002B02D14FF0FF3344E04FF085
:10F2C00000024FF00003C7E90423FB689B68BB60A2
:10F2D000214B1B68002B06D14FF000024FF00003BA
:10F2E000C7E9042314E01C4B1B681846FDF7EAF835
:10F2F00017A3D3E90023FDF789FA02460B464FF026
:10F3000000001649FDF782FA02460B46C7E90423BE
:10F31000114B9B681E2B05D94FF000024FF00003E4
:10F32000C7E904234FF000020D4BD7E90401FDF7B4
:10F3300043F902460B4610461946FDF74FFB0346BC
:10F340009AB2BB681A80002318461837BD4680BDA4
:10F35000000000000088C340F80C00200000F03FCF
:10F3600000004E4080B485B000AFF860B9607A60AC
:10F37000002318461437BD465DF8047B704780B5FE
:10F3800082B000AF78607A680421002008F030F97C
:10F3900000BF0837BD4680BD80B500AFFFF774FFE2
:10F3A0000346002B02D04FF0FF330AE0064B1B7DD3
:10F3B00043F00103DAB2044B1A75034808F0A8F8C9
:10F3C0000023184680BD00BFA000002080B582B099
:10F3D00000AF01210220FEF7E7FC09220E210E48B2
:10F3E000FEF7EBFB09220F210B48FEF7E6FB4FF47B
:10F3F00040433B6002233B710023BB710023FB7140
:10F4000003237B713B4619460348FEF7F7FA00BF1A
:10F410000837BD4680BD00BF0004024080B588B0FB
:10F4200000AF01214020FEF7DFFC40F2E733BB6173
:10F430005323BB820023BB830023FB8207F1140309
:10F4400019461448FEF778FF60233B8001237B8038
:10F450000023BB600223BB813B4619460D48FFF7E2
:10F4600031F808210B48FFF74BF93B46194609488C
:10F47000FFF7A2F808210748FFF75EF901210548C8
:10F48000FEF7E0FF01210348FEF7FCFF00BF203735
:10F49000BD4680BD0018004080B500AFFFF796FF65
:10F4A000FFF7BCFF0023184680BD000080B582B086
:10F4B00000AF78600449002007F03EFE00231846A4
:10F4C0000837BD4680BD00BFECD8010880B586B0C6
:10F4D00000AFF860B9607A60BA6807F1100310688D
:10F4E000186012791A713B7C002B02D0012B07D0D7
:10F4F0000DE0D7F8113019460748FFF7E5F806E0A8
:10F50000D7F8113019460448FFF7ECF800BF002384
:10F5100018461837BD4680BD0018004080B500AFC2
:10F52000FFF7BAFF0346002B02D04FF0FF330AE08B
:10F53000064B1B7D43F00103DAB2044B1A750348F6
:10F5400007F0E6FF0023184680BD00BFD000002072
:10F5500080B582B000AF01210420FEF725FC012315
:10F560003B6003233B710023FB713B461946034874
:10F57000FEF744FA00BF0837BD4680BD00080240D0
:10F5800080B59AB000AF01214FF48000FEF70CFC6B
:10F59000384B3B63384B7B630023BB630123FB6326
:10F5A00000233B6400237B644FF40063BB644FF48F
:10F5B0000053FB644FF480733B654FF480337B65ED
:10F5C0000023BB650123FB6500233B6600237B66AC
:10F5D0000023FB6207F12C0319462848FDF7C8FEFB
:10F5E00001212648FDF71CFF01214FF48070FEF732
:10F5F0001BFC00237B604FF48033BB600023FB6067
:10F600004FF470633B613B1D1846FDF787FC07F123
:10F6100014031846FDF762FC00237B6100233B7650
:10F6200001237B760023FB6100233B6200237B6286
:10F63000012387F8283007F1140319461048FDF715
:10F64000F7FB032301220A210D48FDF7ABFC012142
:10F650000B48FDF79DFD01210948FDF77DFD0121C6
:10F660000748FDF783FC0648FDF766FD00BF6837D5
:10F67000BD4680BD4C2001400E0D002010640240AC
:10F680000020014080B500AFFFF762FFFFF778FF71
:10F690000023184680BD000080B586B000AF7860BA
:10F6A0007B687B614FF000033B617B699B68FB607B
:10F6B000194B1B8807EE903AF8EE677A9FED177AA0
:10F6C000C7EE876A16EE900AFCF71EFF10A3D3E977
:10F6D0000023FCF771FF02460B4610461946FDF762
:10F6E0009DF903463B61D7ED047A9FED0D7A67EEF5
:10F6F000877AFCEEE77A17EE903A9AB2FB681A80A6
:10F70000002318461837BD4680BD00BFAFF3008008
:10F710006666666666660A400E0D0020000080453B
:10F7200000007A4480B485B000AFF860B9607A60B8
:10F73000002318461437BD465DF8047B704780B53A
:10F7400082B000AF78607A680521002007F050FF92
:10F7500000BF0837BD4680BD80B500AFFFF792FF00
:10F760000346002B02D04FF0FF330AE0064B1B7D0F
:10F7700043F00103DAB2044B1A75034807F0C8FEE0
:10F780000023184680BD00BFFC00002080B582B079
:10F7900000AF01210C20FEF707FB0C2208212548B1
:10F7A000FEF70BFA0C2209212248FEF706FA0C227A
:10F7B0000A212048FEF701FA0C220B211D48FEF712
:10F7C000FCF90C220C211B48FEF7F7F90C22022150
:10F7D0001948FEF7F2F94FF470633B6002237B7126
:10F7E00002233B710023BB710123FB713B46194689
:10F7F0001048FEF703F904233B603B4619460E48C8
:10F80000FEF7FCF84FF480533B600023FB713B464E
:10F8100019460848FEF7F2F801214FF40060FEF7A0
:10F8200003FB01214FF48000FEF7BEFA00BF08374A
:10F83000BD4680BD00080240000C024080B592B079
:10F8400000AF786039604FF0FA512348FDF782FE2F
:10F8500000212148FDF7E4FD1F48FDF7B5FC4FF0FE
:10F860000063FB601D4B3B617B687B614023BB6198
:10F870000123FB6100233B624FF480637B624FF402
:10F880008053BB624FF48043FB6200233B634FF421
:10F8900040337B630423BB630323FB634FF4000308
:10F8A0003B644FF400137B6407F10C0319460A48CC
:10F8B000FDF75EFD012210210748FDF779FE2021AA
:10F8C0000548FDF7C9FD01210348FDF7A9FD00BF6B
:10F8D0004837BD4680BD00BF58640240802C0140BF
:10F8E00080B592B000AF786039604FF0FA5123488C
:10F8F000FDF730FE00212148FDF792FD1F48FDF77E
:10F9000063FC4FF00063FB601D4B3B617B687B61D8
:10F910000023BB610123FB6100233B624FF4806342
:10F920007B624FF48053BB624FF48043FB62002341
:10F930003B634FF440337B630423BB630323FB63CC
:10F940004FF400033B644FF400137B6407F10C0396
:10F9500019460A48FDF70CFD012210210748FDF762
:10F9600027FE20210548FDF777FD01210348FDF71B
:10F9700057FD00BF4837BD4680BD00BF58640240F8
:10F98000802C0140B0B582B000AF0023FB71312361
:10F990003B7001237B700023BB700123FB703B464F
:10F9A0001846FDF7B1F93B233B7001237B703B46C2
:10F9B0001846FDF7A9F9FFF7E9FEFEF775FA00F022
:10F9C00097F80346FB71FB79DBB2002B02D0FB7981
:10F9D000DBB241E000F0A2F90346FB71FB79DBB238
:10F9E000002B02D0FB79DBB236E01D4B00221A75EA
:10F9F0001B4B00221A601A4B00225A60184B00223F
:10FA00009A60174B0022DA60154B00221A611448E5
:10FA1000FEF758FA134800F047FA0346FB71FB79EA
:10FA2000DBB2002B0CD10F4BB3F854301B04002277
:10FA30001C4615462046294600F0DEFD0346FB71B4
:10FA4000FB79DBB2002B05D14FF4006000F068FDBC
:10FA50000346FB71FB79DBB218460837BD46B0BDE3
:10FA6000A80D0020500D002080B582B000AF042307
:10FA7000FB7100F011F80346FB71FB79042B01D1F7
:10FA8000002305E0FB79FF2B01D1022300E00123D5
:10FA900018460837BD4680BD80B582B000AF002350
:10FAA0007B6000F018F80346012B0FD13B1D184670
:10FAB00001F022F80346002B01D0FF2307E07B680A
:10FAC0005B0ADBB203F00F03DBB200E0FF23184652
:10FAD0000837BD4680BD80B483B000AF0123FB7101
:10FAE000FB79DBB218460C37BD465DF8047B7047E6
:10FAF00080B586B000AF0023FB7100237B6100233B
:10FB00003B610023FB600023BB60814B76221A75AA
:10FB10007F4B00221A607E4B00225A607C4B0022F1
:10FB20009A607B4B0022DA60794B00221A61784898
:10FB3000FEF7C8F90320FEF705FA0120FEF7F2F9F7
:10FB4000744B00221A60734B00225A60714B0022E2
:10FB50009A60704B0022DA606E4B4FF480621A613B
:10FB60006C48FEF70DFA01F07FF80346FB71FB7954
:10FB7000DBB2002B02D0FB79DBB2C5E0654B4FF462
:10FB8000D5721A60634B08225A60624B40229A6019
:10FB9000604B0022DA605F4B4FF480621A615D486F
:10FBA000FEF7EEF901F086F80346FB71FB79DBB254
:10FBB000002B06D1584B01221A604FF08043BB60E6
:10FBC00017E0544B00221A60524B37225A60514BB7
:10FBD00040229A604F4B0022DA604E4B4FF4806215
:10FBE0001A614C48FEF7CCF9372001F09FF8034624
:10FBF000FB71484B00221A60464B37225A60454B36
:10FC000040229A60434B0022DA60424B4FF48062FC
:10FC10001A614048FEF7B4F9372001F087F803462F
:10FC2000FB71FB79DBB2002B6CD14FE0394B00222A
:10FC30001A60384B37225A60364B40229A60354B57
:10FC40000022DA60334B4FF480621A613148FEF7CC
:10FC500097F9372001F06AF80346FB71FB79DBB2B4
:10FC6000002B02D0FB79DBB24EE0BB6843F00043CF
:10FC700043F48013274A1360264B29225A60254BF0
:10FC800040229A60234B0022DA60224B4FF48062BC
:10FC90001A612048FEF774F901F01AF90346FB7166
:10FCA000FB79DBB2002B02D0FB79DBB22CE0002029
:10FCB000FEF79EF978617B69DB0F012B0CBF0123F6
:10FCC0000023DBB2FB603B6901333B61FB68002B27
:10FCD00004D13B694FF6FE729342A7D93B694FF6B8
:10FCE000FE72934204D91B23FB71FB79DBB20BE05C
:10FCF0007B6903F080437B617B69002B02D0064B5C
:10FD000002221A60FB79DBB218461837BD4680BD67
:10FD1000A80D0020C00D0020140D002080B582B079
:10FD200000AF0023FB710123BB80FEF71BF90346E4
:10FD3000002B03D12523FB71FB79A6E0554B1B68F3
:10FD4000042B33D0544B00221A60534B02225A60CA
:10FD5000514BC0229A60504B0022DA604E4B4FF458
:10FD600080621A614C48FEF70BF901F0D9F803469E
:10FD7000FB71FB79002B01D0FB7986E00020FEF7B8
:10FD800037F90346454A13600420FEF731F903466C
:10FD9000424A53600820FEF72BF903463F4A93601E
:10FDA0000C20FEF725F903463C4AD360394B1B680B
:10FDB000002B0BD0374B1B68012B07D0354B1B6832
:10FDC000062B03D0334B1B68022B1ED1324B002273
:10FDD0001A60314B03225A602F4B40229A602E4BFF
:10FDE0000022DA602C4B4FF480621A612A48FEF739
:10FDF000C7F83B1D1946032001F0C6F80346FB7106
:10FE0000FB79002B01D0FB793FE0224B1B68042BD0
:10FE100038D0BB881A46224B1A60BB881B041E4A86
:10FE200013601D4B09225A601B4BC0229A601A4B6B
:10FE30000022DA60184B4FF480621A611648FEF710
:10FE40009FF801F06DF80346FB71FB79002B01D0A0
:10FE5000FB791AE00020FEF7CBF80346114A136045
:10FE60000420FEF7C5F803460E4A53600820FEF74B
:10FE7000BFF803460B4A93600C20FEF7B9F803461F
:10FE8000084AD3600023FB71FB7918460837BD464A
:10FE900080BD00BF140D0020C00D0020280D0020E3
:10FEA000380D0020180D00202DE9B00F8DB000AFE7
:10FEB0007862002387F82E30002387F82F30A14B7B
:10FEC0001B68DBB27A6A82F856309F4B1B689BB284
:10FED0007A6AA2F854309D4B1B681B0E87F82F30AE
:10FEE00097F82F309B09DBB27A6A137097F82F309E
:10FEF0009B10DBB203F00F03DBB27A6A537097F802
:10FF00002F3003F00303DBB27A6A93708F4B1B68C8
:10FF10001B0C87F82F307A6A97F82F30D3708B4BF1
:10FF20001B681B0A87F82F307A6A97F82F301371F5
:10FF3000864B1B6887F82F307A6A97F82F305371F9
:10FF4000824B5B681B0E87F82F3097F82F309BB2DF
:10FF50001B019BB27A6AD3807C4B5B681B0C87F8D1
:10FF60002F307B6ADB889AB297F82F301B09DBB2FF
:10FF700013439BB27A6AD38097F82F3003F00F03B4
:10FF8000DBB27A6A1372714B5B681B0A87F82F30F9
:10FF900097F82F30DB09DBB27A6A537297F82F306B
:10FFA0009B11DBB203F00103DBB27A6A937297F81C
:10FFB0002F305B11DBB203F00103DBB27A6AD3723C
:10FFC00097F82F301B11DBB203F00103DBB27A6A22
:10FFD00013737A6A002353735A4B1B68002B04D0A7
:10FFE000584B1B68012B40F0B38097F82F309B02D1
:10FFF00003F440627B6A1A61544B5B6887F82F30C8
:020000040801F1
:100000007B6A1A6997F82F309B001A437B6A1A6142
:100010004E4B9B681B0E87F82F307B6A1B6997F845
:100020002F209209D2B21A437B6A1A6197F82F30B7
:10003000DB10DBB203F00703DAB27B6A1A7597F8BC
:100040002F3003F00703DAB27B6A5A753F4B9B6887
:100050001B0C87F82F3097F82F305B09DAB27B6AD8
:100060009A7597F82F309B10DBB203F00703DAB2D2
:100070007B6ADA7597F82F305B00DBB203F006037A
:10008000DAB27B6A1A76314B9B681B0A87F82F30ED
:100090007B6A1B7EDAB297F82F30DB09DBB21343A1
:1000A000DAB27B6A1A767B6A1B6901330022BB6174
:1000B000FA617B6AD7E90612C3E912127B6A1B7EDA
:1000C000DBB20233012202FA03F17B6AD3E9122385
:1000D000C81739617861D7E90445214601FB03F06F
:1000E000294602FB01F101442046A2FB00AB01EBD3
:1000F0000B039B467B6AC3E912AB7B6A1B7ADBB2BC
:100100001A46012393401A467B6A1A657B6AD3E933
:100110001223796A096D0020B960F860D7E90245B9
:10012000214601FB03F0294602FB01F10144204670
:10013000A2FB008901EB090399467B6AC3E9128996
:100140004EE000BF140D0020380D0020180D0020D7
:10015000B74B1B68022B43D1B64B5B6887F82F3037
:1001600097F82F301B0403F47C127B6A1A61B14BA1
:100170009B681B0E87F82F307B6A1A6997F82F301F
:100180001B021A437B6A1A61AA4B9B681B0C87F8F7
:100190002F307B6A1A6997F82F301A437B6A1A61ED
:1001A000A44B9B681B0A87F82F307B6A1B690022CF
:1001B0003B607A60D7E900120B465C1C134643F1A2
:1001C00000054FF000024FF00003EB0443EA543304
:1001D000E204796AC1E912237B6A4FF400721A655E
:1001E00097F82F309B11DBB203F00103DAB27B6A80
:1001F0005A7697F82F305B00DBB203F07E03DAB259
:100200007B6A9A768B4B9B6887F82F307B6A9B7E44
:10021000DAB297F82F30DB09DBB21343DAB27B6A2C
:100220009A7697F82F3003F07F03DAB27B6ADA769A
:10023000804BDB681B0E87F82F3097F82F30DB09D7
:10024000DAB27B6A1A7797F82F305B11DBB203F0D2
:100250000303DAB27B6A5A7797F82F309B10DBB230
:1002600003F00703DAB27B6A9A7797F82F309B0086
:10027000DBB203F00C03DAB27B6ADA776D4BDB6832
:100280001B0C87F82F307B6ADB7FDAB297F82F30B0
:100290009B09DBB21343DAB27B6ADA7797F82F3027
:1002A0005B11DBB203F00103DAB27B6A83F8202032
:1002B0007B6A002283F8212097F82F3003F0010396
:1002C000DAB27B6A83F822205A4BDB681B0A87F874
:1002D0002F3097F82F30DB09DAB27B6A83F82320BE
:1002E00097F82F309B11DBB203F00103DAB27B6A7F
:1002F00083F8242097F82F305B11DBB203F0010361
:10030000DAB27B6A83F8252097F82F301B11DBB215
:1003100003F00103DAB27B6A83F8262097F82F30C6
:100320009B10DBB203F00303DAB27B6A83F8272069
:1003300097F82F3003F00303DAB27B6A83F82820A2
:100340003C4BDB6887F82F3097F82F305B08DAB228
:100350007B6A83F829207B6A012283F82A20364BA6
:100360001B681B0E87F82F307B6A97F82F2083F8C5
:100370002C20314B1B681B0C87F82F3097F82F303F
:100380009BB21B029AB27B6ADA852B4B1B681B0A55
:1003900087F82F307B6ADB8D9AB297F82F309BB2AB
:1003A00013439AB27B6ADA85234B1B6887F82F3098
:1003B00097F82F301A067B6A1A631F4B5B681B0E77
:1003C00087F82F307B6A1A6B97F82F301B041A437B
:1003D0007B6A1A63184B5B681B0C87F82F307B6AAB
:1003E0001A6B97F82F301B021A437B6A1A63124B61
:1003F0005B681B0A87F82F307B6A1A6B97F82F30DF
:100400001A437B6A1A630C4B5B6887F82F307B6A50
:1004100097F82F2083F83420074B9B681B0E87F832
:100420002F307B6A97F82F2083F8352006E000BF35
:10043000140D0020180D0020280D0020374B9B685C
:100440001B0C87F82F3097F82F301A067B6A9A63B7
:10045000324B9B681B0A87F82F307B6A9A6B97F8A0
:100460002F301B041A437B6A9A632C4B9B6887F8D6
:100470002F307B6A9A6B97F82F301B021A437B6AE6
:100480009A63264BDB681B0E87F82F307B6A9A6BCA
:1004900097F82F301A437B6A9A63204BDB681B0C5A
:1004A00087F82F307B6A93F83C30DAB297F82F3018
:1004B0001B09DBB21343DAB27B6A83F83C2097F85E
:1004C0002F301B029BB203F470639AB27B6ADA8707
:1004D000124BDB681B0A87F82F307B6ADB8F9AB2DE
:1004E00097F82F309BB213439AB27B6ADA870B4B93
:1004F000DB6887F82F3097F82F305B08DAB27B6A19
:1005000083F840207B6A012283F8412097F82E303F
:1005100018463437BD46BDE8B00F7047280D00209F
:1005200080B584B000AF78600023FB73304B1B684C
:10053000032B03D12723FB73FB7B54E02C4B1B685D
:10054000002B07D02A4B1B68012B03D0284B1B68BC
:10055000022B47D17B68B3F5805F03D12723FB7360
:10056000FB7B40E07B68B3F5006F1ED1012000F0FB
:1005700073FD0346FB73FB7B002B33D11D4B002225
:100580001A751C4B00221A601A4B00225A60194B34
:1005900000229A60174B4FF40062DA60154B00227C
:1005A0001A611448FDF78EFC1CE0002000F054FD99
:1005B0000346FB73FB7B002B14D10E4B00221A75F4
:1005C0000C4B00221A600B4B00225A60094B002290
:1005D0009A60084B0022DA60064B00221A61054837
:1005E000FDF770FCFB7B18461037BD4680BD00BF91
:1005F000140D0020A80D002080B584B000AFC7E91D
:1006000000010023FB733B680D4A13600C4B07226B
:100610005A600B4B40229A60094B0022DA60084B6B
:100620004FF480621A610648FDF7AAFC072000F02B
:100630007DFB0346FB73FB7B18461037BD4680BD30
:10064000C00D002080B586B000AFF860C7E9002378
:100650000023FB75434B00221A70434B00221A60A3
:10066000424B01221A60424B0022DA62012140F221
:100670002A30FDF71BFD3B8C7A6A02FB03F3194617
:10068000F868FFF72DF90120FDF700FD394B1B68D5
:10069000022B0ED14FF400733B84D7E900014FF0D9
:1006A00000024FF00003420A42EAC1524B0AC7E976
:1006B00000233B8C304A13602F4B10225A602E4B84
:1006C00040229A602C4B0022DA602B4B4FF4806260
:1006D0001A612948FDF754FC102000F027FB03465F
:1006E000FB75FB7D002B01D0FB7D36E0234B4FF0EB
:1006F000FF321A603B8C7A6A02FB03F31F4A536095
:100700001E4B90229A601D4B0222DA601B4B002286
:100710001A611A4B01225A611848FDF77DFC3B68AB
:10072000154A1360144B12225A60134B40229A60F0
:10073000114B0022DA60104B4FF480621A610E48B0
:10074000FDF71EFC122000F0F1FA0346FB75FB7D5D
:10075000002B01D0FB7D00E0FB7D18461837BD461D
:1007600080BD00BF400D0020440D00203C0D002046
:10077000002C0140140D0020C00D0020D40D0020DD
:1007800080B582B000AF0023FB714FF0FF333B60B8
:1007900002E03B68013B3B60234B1B68002B0BD105
:1007A000224B1B68002B07D1214B1B78DBB2002B9F
:1007B00002D13B68002BECD11B4B00221A604FF09A
:1007C000FF333B6002E03B68013B3B60194B5B6BD6
:1007D00003F40053002B02D03B68002BF3D1164BDF
:1007E0001B68012B06D100F063F90346FB71124B25
:1007F00000221A603B68002B04D1FB79002B01D149
:100800000423FB7140F2FF50FDF78AFC084B1B7874
:10081000DBB2002B03D0064B1B78DBB200E0FB7988
:1008200018460837BD4680BD480D0020440D002005
:10083000400D0020002C01403C0D002080B586B00A
:1008400000AFF860C7E900230023FB75614B00226D
:100850001A70614B00221A60604B01221A60604BD3
:100860000022DA62012140F21A30FDF71FFC3B8CB6
:100870007A6A02FB03F31946F868FEF7DFFF0120EE
:10088000FDF704FC574B1B68022B0ED14FF400738D
:100890003B84D7E900014FF000024FF00003420A09
:1008A00042EAC1524B0AC7E900233B8C4E4A13600F
:1008B0004D4B10225A604C4B40229A604A4B00220A
:1008C000DA60494B4FF480621A614748FDF758FBE4
:1008D000102000F02BFA0346FB75FB7D002B01D0A6
:1008E000FB7D72E0414B1B681B043F4A13603E4B8B
:1008F00037225A603C4B40229A603B4B0022DA6020
:10090000394B4FF480621A613748FDF739FB3720C5
:1009100000F00CFA0346FB75FB7D002B01D0FB7D3C
:1009200053E0314A7B6A13602F4B17225A602E4BDB
:1009300040229A602C4B0022DA602B4B4FF48062ED
:100940001A612948FDF71CFB172000F0EFF9034658
:10095000FB75FB7D002B01D0FB7D36E03B68224A16
:100960001360214B19225A601F4B40229A601E4B84
:100970000022DA601C4B4FF480621A611A48FDF7BE
:10098000FFFA192000F0D2F90346FB75FB7D002B1E
:1009900001D0FB7D19E0164B4FF0FF321A603B8C03
:1009A0007A6A02FB03F3124A5360114B90229A6059
:1009B0000F4B0022DA600E4B00221A610C4B012211
:1009C0005A610B48FDF728FBFB7D18461837BD46DA
:1009D00080BD00BF400D0020440D00203C0D0020D4
:1009E000002C0140140D0020C00D0020380D002007
:1009F000D40D002080B582B000AF0023FB714FF012
:100A0000FF333B6002E03B68013B3B60234B1B68CC
:100A1000002B0BD1224B1B68002B07D1214B1B78DD
:100A2000DBB2002B02D13B68002BECD11B4B002228
:100A30001A604FF0FF333B6002E03B68013B3B60D4
:100A4000194B5B6B03F48053002B02D03B68002BE7
:100A5000F3D1164B1B68012B06D100F029F8034691
:100A6000FB71124B00221A603B68002B04D1FB790A
:100A7000002B01D10423FB7140F2FF50FDF750FB26
:100A8000084B1B78DBB2002B03D0064B1B78DBB284
:100A900000E0FB7918460837BD4680BD480D0020B0
:100AA000440D0020400D0020002C01403C0D002092
:100AB00080B582B000AF0023FB710E4B00221A609C
:100AC0000C4B0C225A600B4B40229A60094B0022BF
:100AD000DA60084B4FF480621A610648FDF750FA5D
:100AE0000C2000F023F90346FB71FB791846083708
:100AF000BD4680BDC00D002080B584B000AF7860D9
:100B00000023FB737B68002B03D12623FB73FB7B45
:100B100025E0154B1B681B04144A1360134B0D2270
:100B20005A60124B40229A60104B0022DA600F4B41
:100B30004FF480621A610D48FDF722FA0D2000F093
:100B4000F5F80346FB73FB7B002B01D0FB7B06E033
:100B50000020FDF74DFA02467B681A60FB7B1846C1
:100B60001037BD4680BD00BF380D0020C00D0020ED
:100B700080B500AF4FF48070FDF7E2FA0346002B1A
:100B80000AD02B4B00221A704FF48070FDF7F2FA56
:100B9000284B01221A6041E00220FDF7D1FA0346FA
:100BA000002B06D00220FDF7E5FA214B02221A7035
:100BB00034E00820FDF7C4FA0346002B06D00820D5
:100BC000FDF7D8FA1A4B04221A7027E02020FDF70F
:100BD000B7FA0346002B06D02020FDF7CBFA144BC2
:100BE00006221A701AE01020FDF7AAFA0346002B1D
:100BF00006D01020FDF7BEFA0D4B05221A700DE04D
:100C00004FF40070FDF79CFA0346002B06D04FF41A
:100C10000070FDF7AFFA064B07221A7000214CF264
:100C20003A30FDF743FA024B1B78DBB2184680BD21
:100C3000400D0020440D002080B500AF074B1B681D
:100C400003F0C053002B07D0054B01221A604FF070
:100C5000C2510448FCF77EFC00BF80BD0064024026
:100C6000480D00205864024080B582B000AF0023D8
:100C7000FB704FF480337B6002E07B68013B7B605C
:100C80007B68002B05D08020FDF730FA0346002B4F
:100C9000F3D07B68002B03D10323FB70FB7804E0C7
:100CA00040F2FF50FDF73CFAFB7818460837BD4686
:100CB00080BD000080B584B000AF0023FB714FF40D
:100CC0008033BB60184B5B6BFB6005E0BB68013B8E
:100CD000BB60154B5B6BFB60FB6803F04503002BAF
:100CE00002D1BB68002BF1D1BB68002B04D0FB689C
:100CF00003F00403002B06D00323FB710420FDF74F
:100D00000FFAFB790CE0FB6803F04003002B06D0E0
:100D10000023FB714020FDF703FAFB7900E0FB792B
:100D200018461037BD4680BD002C014080B586B006
:100D300000AF0346FB710023FB74634B5B6B7B616D
:100D400002E0614B5B6B7B617B6903F04503002B29
:100D5000F7D07B6903F00403002B06D00323FB7458
:100D60000420FDF7DDF9FB7CA9E07B6903F00103BA
:100D7000002B06D00123FB740120FDF7D1F9FB7C89
:100D80009DE0FDF729F903461A46FB79934203D00B
:100D90001023FB74FB7C92E040F2FF50FDF7C0F99A
:100DA0000020FDF725F9F860FA68484B1340002B46
:100DB00001D1FB7C83E0FB68002B01DA1C237EE081
:100DC000FB6803F08043002B01D0092377E0FB6828
:100DD00003F00053002B01D00A2370E0FB6803F0FE
:100DE0008053002B01D00B2369E0FB6803F0006304
:100DF000002B01D00C2362E0FB6803F08063002B22
:100E000001D00D235BE0FB6803F08073002B01D061
:100E10000E2354E0FB6803F40003002B01D00F23E2
:100E20004DE0FB6803F48003002B01D0102346E063
:100E3000FB6803F40013002B01D011233FE0FB6893
:100E400003F48013002B01D0122338E0FB6803F475
:100E50000023002B01D0132331E0FB6803F480232F
:100E6000002B01D014232AE0FB6803F40033002B8D
:100E700001D0152323E0FB6803F48033002B01D05D
:100E800016231CE0FB6803F40043002B01D017235A
:100E900015E0FB6803F48043002B01D018230EE01B
:100EA000FB6803F40053002B01D0192307E0FB6813
:100EB00003F00803002B01D01A2300E0FB7C184646
:100EC0001837BD4680BD00BF002C014008E0FFFD83
:100ED00080B582B000AF0023FB70104B5B6B7B6072
:100EE00002E00E4B5B6B7B607B6803F04503002BDD
:100EF000F7D07B6803F00403002B06D00323FB70BC
:100F00000420FDF70DF9FB7804E040F2FF50FDF7F7
:100F100007F9FB7818460837BD4680BD002C014014
:100F200080B582B000AF0023FB70164B5B6B7B601B
:100F300002E0144B5B6B7B607B6803F04503002B86
:100F4000F7D07B6803F00403002B06D00323FB706B
:100F50000420FDF7E5F8FB7810E07B6803F001035F
:100F6000002B06D00123FB700120FDF7D9F8FB7898
:100F700004E040F2FF50FDF7D3F8FB78184608373D
:100F8000BD4680BD002C014080B586B000AF034651
:100F90003960FB710023FB742E4B5B6B7B6102E0BD
:100FA0002C4B5B6B7B617B6903F04503002BF7D017
:100FB0007B6903F00403002B06D00323FB74042099
:100FC000FDF7AEF8FB7C40E07B6903F00103002BEA
:100FD00006D00123FB740120FDF7A2F8FB7C34E06E
:100FE000FCF7FAFF03461A46FB79934203D010231D
:100FF000FB74FB7C29E040F2FF50FDF791F80020E4
:10100000FCF7F6FFF860FB6803F46043002B06D1A1
:10101000FB681B0C9AB23B681A80FB7C15E0FB68EE
:1010200003F40053002B01D013230EE0FB6803F4FC
:101030008043002B01D0102307E0FB6803F400433A
:10104000002B01D00F2300E0FB7C18461837BD466B
:1010500080BD00BF002C014080B586B000AF0346C4
:10106000FB710023FB750023FB6000233B61002024
:10107000FCF7BEFF034603F00073002B03D00E23E2
:10108000FB75FB7D9FE0524B1B689BB207F10C0286
:101090001146184600F0A0F80346FB75FB7D002BB7
:1010A00001D0FB7D8FE0FB79012B46D13B6903F436
:1010B0008023002B3DD0464B1B681B04454A136020
:1010C000444B37225A60434B40229A60414B0022E6
:1010D000DA60404B4FF480621A613E48FCF750FFE3
:1010E0003720FFF723FE0346FB75FB7D002B01D065
:1010F000FB7D68E0374B02221A60364B06225A60AD
:10110000344B40229A60334B0022DA60314B4FF46B
:1011100080621A612F48FCF733FF0620FFF706FEB6
:101120000346FB75FB7D002B01D0FB7D4BE0FB7D77
:1011300049E02523FB75FB7D45E03B6903F48033E3
:10114000002B3DD0224B1B681B04224A1360214B0D
:1011500037225A601F4B40229A601E4B0022DA60F1
:101160001C4B4FF480621A611A48FCF709FF3720C4
:10117000FFF7DCFD0346FB75FB7D002B01D0FB7DFB
:1011800021E0144B00221A60124B06225A60114BC8
:1011900040229A600F4B0022DA600E4B4FF48062BF
:1011A0001A610C48FCF7ECFE0620FFF7BFFD034672
:1011B000FB75FB7D002B01D0FB7D04E0FB7D02E095
:1011C0002523FB75FB7D18461837BD4680BD00BF43
:1011D000380D0020C00D002090B587B000AF034649
:1011E0003960FB8000237B610023FB740023BB601C
:1011F0000023FB60754B08221A60744B10225A6062
:10120000724B40229A60714B0022DA606F4B4FF4B0
:1012100080621A616D48FCF7B3FE1020FFF786FD6F
:101220000346FB74FB7C002B01D0FB7CCAE0684BBF
:101230001B681B04654A1360644B37225A60634B7A
:1012400040229A60614B0022DA60604B4FF480626A
:101250001A615E48FCF794FE3720FFF767FD0346EE
:10126000FB74FB7C002B01D0FB7CABE0594B4FF0B7
:10127000FF321A60574B08225A60564B30229A6050
:10128000544B0222DA60534B00221A61514B012267
:101290005A615048FCF7C0FE4C4B00221A604B4B81
:1012A00033225A60494B40229A60484B0022DA6050
:1012B000464B4FF480621A614448FCF761FE3320CC
:1012C000FFF734FD0346FB74FB7C002B14D0FB7C42
:1012D00078E04FF40010FCF709FF0346002B0BD019
:1012E0007B699B0007F10802D418FCF7C3FE034694
:1012F00023607B6901337B61374B5A6B40F22A6371
:101300001340002BE5D00820FCF7F0FE0346002B2D
:1013100006D00820FCF704FF0423FB74FB7C51E09B
:101320000220FCF7E3FE0346002B06D00220FCF768
:10133000F7FE0223FB74FB7C44E02020FCF7D6FE82
:101340000346002B06D02020FCF7EAFE0623FB74A0
:10135000FB7C37E04FF40070FCF7C8FE0346002B1F
:1013600007D04FF40070FCF7DBFE0723FB74FB7C17
:1013700028E040F2FF50FCF7D3FEBB681A06BB68BA
:101380001B0203F47F031A43BB681B0A03F47F4369
:1013900042EA0301BB681A0E3B6804330A431A6031
:1013A000FB681A06FB681B0203F47F031A43FB6801
:1013B0001B0A03F47F431A43FB681B0E1A433B6866
:1013C0001A60FB7C18461C37BD4690BDC00D00203E
:1013D000380D0020D40D0020002C014080B500AF56
:1013E000FFF7C6FB00BF80BD80B500AFFFF724FC50
:1013F00000BF80BD80B588B000AF01210120FCF79F
:1014000013FD01214FF40030FCF7EEFC0023BB7705
:101410000123FB7702237B770423BB6102233B7705
:1014200007F1180319462248FCF7E8FA0823BB61C4
:1014300002233B7707F1180319461D48FCF7DEFA33
:10144000072202211A48FCF7B8FB0722032118489B
:10145000FCF7B3FB26233B7104237B710323BB7191
:101460000123FB713B1D1846FBF74EFC4FF4E133A3
:10147000BB600023BB810023FB8100233B82002350
:10148000BB820C237B8207F1080319460948FDF74C
:10149000E1F9012240F225510648FDF7E9FA012160
:1014A0000448FDF791FA00BF2037BD4680BD00BF5C
:1014B000000002400044004080B590B000AF012120
:1014C0004FF40010FCF770FC1C48FBF77DFE00BFDA
:1014D0001A48FBF7EBFF0346002BF9D14FF00063EE
:1014E0007B60174BBB60174BFB6040233B61402385
:1014F0007B610023BB614FF48063FB6100233B628F
:1015000000237B620023BB624FF48033FB62002325
:101510003B6303237B630023BB630023FB633B1D0F
:1015200019460648FBF724FF012280210648FDF7F3
:101530007BFA00BF4037BD4680BD00BFA0600240BF
:1015400004440040300E00200044004080B584B0C8
:1015500000AF1D233B7306237B730023BB73012362
:10156000FB7307F10C031846FBF7CEFB01210220A9
:10157000FCF73AFC42F20F737B6042F2CF033B80F0
:1015800000233B8100237B803B4619460948FCF73A
:10159000D3FE01210748FDF711F90022012105487A
:1015A000FDF7E8F800210348FCF76CFF00BF103797
:1015B000BD4680BD0004004080B500AFFFF71AFFB4
:1015C000FFF77AFFFFF7C2FF0349002005F0B4FDE3
:1015D0000023184680BD00BF08D9010880B582B03D
:1015E00000AF78600B467B807B88402B01D940237D
:1015F0007B807B881A4679680F480BF056F90021EA
:101600000E48FBF70DFF7B8819460C48FBF73FFFA0
:1016100001210A48FBF704FF00BF09490748FBF70F
:101620005DFF0346002BF8D005490448FBF792FF05
:1016300000BF0837BD4680BD300E0020A0600240CC
:101640000000202080B584B000AF03460A46FB802E
:101650001346BB805A233B72A5237B720523BB72C2
:101660008223FB72FB881B0A9BB2DBB23B73FB88B5
:10167000DBB27B73B7F904301B12DBB2BB73BB88E0
:10168000DBB2FB7307F1080308211846FFF7A6FF3A
:1016900000BF1037BD4680BD80B58CB000AF03469B
:1016A0003960FB8013467B71002387F82F305A2363
:1016B0003B73A5237B737B790333DBB2BB7382233C
:1016C000FB73FB881B0A9BB2DBB23B74FB88DBB26B
:1016D0007B74002387F82F3010E097F82F303A689A
:1016E0001A4497F82F300633127830333B4403F80E
:1016F000242C97F82F30013387F82F3097F82F20BC
:101700007B799A42E9D37B799BB206339AB207F18F
:101710000C0311461846FFF761FF00BF3037BD4686
:1017200080BD80B584B000AF0346FB805A233B7276
:10173000A5237B720423BB728023FB7203233B73BC
:10174000FB881B0A9BB2DBB27B73FB88DBB2BB73EB
:1017500007F1080307211846FFF740FF00BF1037C5
:10176000BD4680BD80B582B000AF786004490020DE
:1017700005F0E2FC002318460837BD4680BD00BFD7
:1017800030D9010880B584B000AFF860B9607A60E4
:101790000449002005F0D0FC002318461037BD4650
:1017A00080BD00BF54D9010880B584B000AF786017
:1017B00039607B68FB60FB681B889AB2FB685B88BA
:1017C0009BB21BB219461046FFF73CFF00BF103713
:1017D000BD4680BD80B584B000AF786039607B685D
:1017E000FB60FB681B8898B2FB68991C3B68DBB206
:1017F000023BDBB21A46FFF74FFF00BF1037BD4672
:1018000080BD80B582B000AF786039603B68022B44
:1018100005D87B681B881846FFF783FF00E000BFF0
:101820000837BD4680BD000080B582B000AF78604B
:1018300039607B681A780B4B1A700A4B1B78002BA7
:101840000CD000210848FCF7E3FD012201210648E5
:10185000FCF790FF01210448FCF714FE00BF083795
:10186000BD4680BD700E00200004004080B584B0ED
:1018700000AFF860B9607A603B60BB68062B25D882
:1018800001A252F823F000BFA5180108CD180108E5
:10189000AF180108CD180108B9180108CD180108C2
:1018A000C318010839687868FFF77EFF0FE03968D0
:1018B0007868FFF78FFF0AE039687868FFF7A1FFC3
:1018C00005E039687868FFF7AFFF00E000BF00234C
:1018D00018461037BD4680BD80B582B000AF5A2390
:1018E0003B70A5237B700323BB708123FB70032314
:1018F0003B7102237B710023FB7110E03B46062104
:101900001846FFF76BFE322005F03AFF084B1B78B4
:10191000002B01D0002307E0FB790133FB71FB7939
:10192000022BEBD94FF0FF3318460837BD4680BD78
:10193000710E002080B584B000AFFFF7CDFF0346E5
:10194000002B02D04FF0FF335EE000237B600023CA
:10195000BB603B1D0822002118460AF03FFF3B1DDB
:10196000082219462020FFF797FE2948FAF710FCB5
:1019700002463B1D264918460AF097FF3B1D0822E8
:1019800019462020FFF788FE0020FFF7CAFE4FF41B
:101990002D7146F20300FFF755FE1023FB8107E08F
:1019A000FB8900211846FFF74DFEFB890133FB81BF
:1019B000FB89182BF4D900210120FFF743FE0021F9
:1019C0003020FFF73FFE00213120FFF73BFE0021D2
:1019D0003220FFF737FE00213320FFF733FE0021CE
:1019E0006020FFF72FFE012201210A48FCF7C2FE0A
:1019F00001210848FCF746FD074B03221A800749DE
:101A0000002005F099FB002318461037BD4680BD25
:101A10004080000800040040720E00207CD90108BC
